{
	"data": {
		"bytecode": {
			"linkReferences": {},
			"object": "608060405261010e600455670de0b6b3a764000060055567016345785d8a0000600655600d805462ff000019166201000017905534801561003f57600080fd5b50600080546001600160a01b031916301790554360018190556004540160025561206f8061006e6000396000f3fe608060405234801561001057600080fd5b50600436106102325760003560e01c80636bbb8d7011610130578063a397e77d116100b8578063d677947e1161007c578063d677947e14610400578063e1095bed14610408578063e16fd62e14610410578063e3829c0b14610418578063f2bc79a31461042057610232565b8063a397e77d146103cd578063a51b3db4146103d5578063b2d73213146103dd578063bff9662a146103e5578063c1e7249b146103ed57610232565b806383c894a8116100ff57806383c894a8146103845780638da5cb5b1461039757806392b5bc241461039f5780639f2b7864146103b2578063a22e4403146103ba57610232565b80636bbb8d701461034357806374d4017d14610356578063755452d7146103695780637faddcfb1461037c57610232565b806345153af8116101be5780635a8eae8c116101825780635a8eae8c146102ef5780635e65aff8146102f75780635f23eab21461030a57806369dcf6831461031d5780636b39913e1461033057610232565b806345153af8146102ba5780634fe09390146102cf57806350348a34146102d75780635105638c146102df57806354053622146102e757610232565b806310188aef1161020557806310188aef1461027a578063137e23771461028d578063244f73cf146102a2578063276d6920146102aa57806331ca6c1b146102b257610232565b8063071e9a76146102375780630a6dc7f81461024c5780630c91aea61461026a5780630e2feb0514610272575b600080fd5b61024a6102453660046116bd565b610428565b005b610254610443565b6040516102619190611bb0565b60405180910390f35b610254610452565b610254610461565b61024a6102883660046116a2565b610470565b6102956104a9565b6040516102619190611fa3565b6102956104af565b6102546104b5565b6102546104c4565b6102c26104da565b6040516102619190611c01565b6102956104e3565b6102956104e9565b6102956104ef565b6102546104f5565b6102c2610504565b61024a6103053660046116bd565b610513565b61024a61031836600461180d565b6105af565b61024a61032b3660046116bd565b6105b8565b61024a61033e3660046116bd565b610693565b61024a61035136600461171f565b6108be565b61024a6103643660046116e7565b610c8e565b61024a61037736600461171f565b610cc1565b610295610dfd565b61024a6103923660046116a2565b610e03565b610254610e49565b61024a6103ad3660046116a2565b610e58565b61024a610e9e565b61024a6103c83660046116a2565b610eb7565b61024a610efd565b61024a610eb5565b610295610f70565b610254610f76565b61024a6103fb366004611920565b610f85565b6102c2610fa1565b610295610faf565b6102c2610fb5565b610254610fbe565b610295610fcd565b601a546001600160a01b0316331461043f57600080fd5b5050565b6011546001600160a01b031681565b6015546001600160a01b031681565b6019546001600160a01b031681565b601a546001600160a01b0316331461048757600080fd5b601a80546001600160a01b0319166001600160a01b0392909216919091179055565b60015481565b600c5481565b6013546001600160a01b031681565b600d54630100000090046001600160a01b031681565b600d5460ff1681565b60045481565b600f5481565b60065481565b6017546001600160a01b031681565b600d5462010000900460ff1681565b601a546001600160a01b0316331461052a57600080fd5b60405163095ea7b360e01b81526001600160a01b0383169063095ea7b3906105589085908590600401611be8565b602060405180830381600087803b15801561057257600080fd5b505af1158015610586573d6000803e3d6000fd5b505050506040513d601f19601f820116820180604052508101906105aa9190611703565b505050565b50505050505050565b6005546012546105df916001600160a01b039091169033903090850263ffffffff610fd316565b600654601454610606916001600160a01b039091169033903090850263ffffffff610fd316565b600554336000908152600a602052604090205461062a91830263ffffffff61103116565b336000908152600a602090815260408083209384556002546001909401939093556001600160a01b0385168252600790522060030154610670908263ffffffff61103116565b6001600160a01b0390921660009081526007602052604090206003019190915550565b600d5460ff1680156106a6575043600254115b6106cb5760405162461bcd60e51b81526004016106c290611e66565b60405180910390fd5b6012546106e9906001600160a01b031683308463ffffffff610fd316565b6001600160a01b038216600090815260106020526040902054610712908263ffffffff61103116565b6001600160a01b0380841660009081526010602090815260408083209490945560115484516318160ddd60e01b8152945192949316926318160ddd9260048083019392829003018186803b15801561076957600080fd5b505afa15801561077d573d6000803e3d6000fd5b505050506040513d601f19601f820116820180604052508101906107a19190611938565b90506000601560009054906101000a90046001600160a01b03166001600160a01b03166318160ddd6040518163ffffffff1660e01b815260040160206040518083038186803b1580156107f357600080fd5b505afa158015610807573d6000803e3d6000fd5b505050506040513d601f19601f8201168201806040525081019061082b9190611938565b600d54909150829062010000900460ff161561085357610851818363ffffffff61103116565b505b6000610865828663ffffffff61105f16565b9050600061087e82600e5461109990919063ffffffff16565b600d5490915061089f90630100000090046001600160a01b031633886110db565b600f546108b2908263ffffffff61103116565b600f5550505050505050565b601a546001600160a01b031633146108d557600080fd5b6004546108fa906108ed90600263ffffffff61105f16565b439063ffffffff61103116565b6001819055600454610915916108ed9163ffffffff61103116565b600255601a546040516001600160a01b039091169061094290889088908890889088908890602401611c1f565b60408051601f198184030181529181526020820180516001600160e01b03166306bbb8d760e41b179052516109779190611b24565b6000604051808303816000865af19150503d80600081146109b4576040519150601f19603f3d011682016040523d82523d6000602084013e6109b9565b606091505b5060009150505b6009546001600160a01b03166000908152600760205260409020600801548110156105af57601a546009546001600160a01b039081166000908152600760205260409020600890810180549290931692909184908110610a1c57fe5b90600052602060002001604051610a339190611b40565b90815260408051602092819003830190206009546001600160a01b03166000908152600790935291206008908101805460019093019285908110610a7357fe5b90600052602060002001604051610a8a9190611b40565b90815260408051602092819003830190206009546001600160a01b03166000908152600790935291206008908101805460029093019286908110610aca57fe5b90600052602060002001604051610ae19190611b40565b90815260408051602092819003830190206009546001600160a01b03166000908152600790935291206008908101805460039093019287908110610b2157fe5b90600052602060002001604051610b389190611b40565b90815260408051602092819003830190206009546001600160a01b03166000908152600790935291206008908101805460049093019288908110610b7857fe5b90600052602060002001604051610b8f9190611b40565b90815260408051602092819003830190206009546001600160a01b03166000908152600790935291206008908101805460059093019289908110610bcf57fe5b90600052602060002001604051610be69190611b40565b9081526020016040518091039020600601604051602401610c0c96959493929190611cd0565b60408051601f198184030181529181526020820180516001600160e01b03166306bbb8d760e41b17905251610c419190611b24565b6000604051808303816000865af19150503d8060008114610c7e576040519150601f19603f3d011682016040523d82523d6000602084013e610c83565b606091505b5050506001016109c0565b601a546001600160a01b03163314610ca557600080fd5b600d8054911515620100000262ff000019909216919091179055565b60035460ff16610ce35760405162461bcd60e51b81526004016106c290611de9565b436002541015610d055760405162461bcd60e51b81526004016106c290611d7b565b33600081815260076020908152604090912080546001600160a01b03191690921782558751610d3a92600101918901906112d9565b503360009081526007602090815260409091208651610d61926002909201918801906112d9565b503360009081526007602090815260409091208551610d8892600490920191870190611357565b503360009081526007602090815260409091208451610daf926005909201918601906113b8565b503360009081526007602090815260409091208351610dd6926006909201918501906113f2565b5033600090815260076020818152604090922083516105af939190920191908401906113b8565b600e5481565b601a546001600160a01b03163314610e1a57600080fd5b601380546001600160a01b03199081166001600160a01b03938416179182905560148054929093169116179055565b6000546001600160a01b031681565b601a546001600160a01b03163314610e6f57600080fd5b601780546001600160a01b03199081166001600160a01b03938416179182905560188054929093169116179055565b601a546001600160a01b03163314610eb557600080fd5b565b601a546001600160a01b03163314610ece57600080fd5b601180546001600160a01b03199081166001600160a01b03938416179182905560128054929093169116179055565b336000908152600a60205260409020600101544310610f2e5760405162461bcd60e51b81526004016106c290611eeb565b336000818152600a60205260409020546012549091610f5d916001600160a01b0316908363ffffffff6110db16565b50336000908152600a6020526040812055565b60055481565b601a546001600160a01b031681565b601a546001600160a01b03163314610f9c57600080fd5b600455565b600d54610100900460ff1681565b60025481565b60035460ff1681565b6009546001600160a01b031681565b600b5481565b61102b846323b872dd60e01b858585604051602401610ff493929190611bc4565b60408051601f198184030181529190526020810180516001600160e01b03166001600160e01b0319909316929092179091526110fa565b50505050565b6000828201838110156110565760405162461bcd60e51b81526004016106c290611db2565b90505b92915050565b60008261106e57506000611059565b8282028284828161107b57fe5b04146110565760405162461bcd60e51b81526004016106c290611eaa565b600061105683836040518060400160405280601a81526020017f536166654d6174683a206469766973696f6e206279207a65726f000000000000815250611189565b6105aa8363a9059cbb60e01b8484604051602401610ff4929190611be8565b606061114f826040518060400160405280602081526020017f5361666545524332303a206c6f772d6c6576656c2063616c6c206661696c6564815250856001600160a01b03166111c29092919063ffffffff16565b8051909150156105aa578080602001905181019061116d9190611703565b6105aa5760405162461bcd60e51b81526004016106c290611f59565b600081836111aa5760405162461bcd60e51b81526004016106c29190611c0c565b5060008385816111b657fe5b049150505b9392505050565b60606111d184846000856111d9565b949350505050565b6060824710156111fb5760405162461bcd60e51b81526004016106c290611e20565b6112048561129a565b6112205760405162461bcd60e51b81526004016106c290611f22565b60006060866001600160a01b0316858760405161123d9190611b24565b60006040518083038185875af1925050503d806000811461127a576040519150601f19603f3d011682016040523d82523d6000602084013e61127f565b606091505b509150915061128f8282866112a0565b979650505050505050565b3b151590565b606083156112af5750816111bb565b8251156112bf5782518084602001fd5b8160405162461bcd60e51b81526004016106c29190611c0c565b828054600181600116156101000203166002900490600052602060002090601f016020900481019282601f1061131a57805160ff1916838001178555611347565b82800160010185558215611347579182015b8281111561134757825182559160200191906001019061132c565b5061135392915061144b565b5090565b8280548282559060005260206000209081019282156113ac579160200282015b828111156113ac57825182546001600160a01b0319166001600160a01b03909116178255602090920191600190910190611377565b50611353929150611468565b828054828255906000526020600020908101928215611347579160200282018281111561134757825182559160200191906001019061132c565b82805482825590600052602060002090810192821561143f579160200282015b8281111561143f578251805161142f9184916020909101906112d9565b5091602001919060010190611412565b5061135392915061148c565b61146591905b808211156113535760008155600101611451565b90565b61146591905b808211156113535780546001600160a01b031916815560010161146e565b61146591905b808211156113535760006114a682826114af565b50600101611492565b50805460018160011615610100020316600290046000825580601f106114d557506114f3565b601f0160209004906000526020600020908101906114f3919061144b565b50565b80356001600160a01b038116811461105957600080fd5b600082601f83011261151d578081fd5b813561153061152b82611fd3565b611fac565b81815291506020808301908481018184028601820187101561155157600080fd5b60005b848110156115785761156688836114f6565b84529282019290820190600101611554565b505050505092915050565b600082601f830112611593578081fd5b81356115a161152b82611fd3565b8181529150602080830190848101818402860182018710156115c257600080fd5b60005b84811015611578578135845292820192908201906001016115c5565b600082601f8301126115f1578081fd5b81356115ff61152b82611fd3565b818152915060208083019084810160005b8481101561157857611627888484358a0101611639565b84529282019290820190600101611610565b600082601f830112611649578081fd5b813567ffffffffffffffff81111561165f578182fd5b611672601f8201601f1916602001611fac565b915080825283602082850101111561168957600080fd5b8060208401602084013760009082016020015292915050565b6000602082840312156116b3578081fd5b61105683836114f6565b600080604083850312156116cf578081fd5b6116d984846114f6565b946020939093013593505050565b6000602082840312156116f8578081fd5b81356110568161202b565b600060208284031215611714578081fd5b81516110568161202b565b60008060008060008060c08789031215611737578182fd5b863567ffffffffffffffff8082111561174e578384fd5b61175a8a838b01611639565b9750602089013591508082111561176f578384fd5b61177b8a838b01611639565b96506040890135915080821115611790578384fd5b61179c8a838b0161150d565b955060608901359150808211156117b1578384fd5b6117bd8a838b01611583565b945060808901359150808211156117d2578384fd5b6117de8a838b016115e1565b935060a08901359150808211156117f3578283fd5b5061180089828a01611583565b9150509295509295509295565b600080600080600080600060e0888a031215611827578081fd5b873567ffffffffffffffff8082111561183e578283fd5b61184a8b838c01611639565b985060208a013591508082111561185f578283fd5b61186b8b838c01611639565b975060408a0135915080821115611880578283fd5b61188c8b838c01611639565b965060608a01359150808211156118a1578283fd5b6118ad8b838c0161150d565b955060808a01359150808211156118c2578283fd5b6118ce8b838c01611583565b945060a08a01359150808211156118e3578283fd5b6118ef8b838c016115e1565b935060c08a0135915080821115611904578283fd5b506119118a828b01611583565b91505092959891949750929550565b600060208284031215611931578081fd5b5035919050565b600060208284031215611949578081fd5b5051919050565b6001600160a01b0316815260200190565b6001600160a01b03169052565b6000815180845260208085019450808401835b8381101561199d57815187529582019590820190600101611981565b509495945050505050565b6000815480845260208085019450838352808320835b8381101561199d578154875295820195600191820191016119be565b60008282518085526020808601955080818302840101818601855b84811015611a2357601f19868403018952611a11838351611a75565b988401989250908301906001016119f5565b5090979650505050505050565b6000815480845260208085019450848183028601858552828520855b85811015611a23578383038952611a638383611aa1565b98850198925060019182019101611a4c565b60008151808452611a8d816020860160208601611fff565b601f01601f19169290920160200192915050565b60008154600180821660008114611abf5760018114611add57611b1b565b60028304607f16865260ff1983166020870152604086019350611b1b565b60028304808752611aed86611ff3565b60005b82811015611b115781546020828b0101528482019150602081019050611af0565b8801602001955050505b50505092915050565b60008251611b36818460208701611fff565b9190910192915050565b6000808354600180821660008114611b5f5760018114611b7657611ba5565b60ff198316865260028304607f1686019350611ba5565b600283048786526020808720875b83811015611b9d5781548a820152908501908201611b84565b505050860193505b509195945050505050565b6001600160a01b0391909116815260200190565b6001600160a01b039384168152919092166020820152604081019190915260600190565b6001600160a01b03929092168252602082015260400190565b901515815260200190565b6000602082526110566020830184611a75565b600060c08252611c3260c0830189611a75565b602083820381850152611c45828a611a75565b84810360408601528092508851611c5c8183611fa3565b9350828a019150845b81811015611c8657611c78858451611950565b945091830191600101611c65565b505050508281036060840152611c9c818761196e565b8381036080850152611cae81876119da565b91505082810360a0840152611cc3818561196e565b9998505050505050505050565b600060c08252611ce360c0830189611aa1565b602083820381850152611cf6828a611aa1565b848103604086015288548082528985528285209183019350845b81811015611d3e578254611d2e9086906001600160a01b0316611961565b9383019360019283019201611d10565b505050508281036060840152611d5481876119a8565b8381036080850152611d668187611a30565b91505082810360a0840152611cc381856119a8565b60208082526018908201527f566f74696e6720706572696f642068617320656e6465642e0000000000000000604082015260600190565b6020808252601b908201527f536166654d6174683a206164646974696f6e206f766572666c6f770000000000604082015260600190565b6020808252601e908201527f566f74696e6720706572696f6420686173206e6f7420737461727465642e0000604082015260600190565b60208082526026908201527f416464726573733a20696e73756666696369656e742062616c616e636520666f6040820152651c8818d85b1b60d21b606082015260800190565b60208082526024908201527f596f7520617265206e6f7420696e206120646973747269627574696f6e2070656040820152631c9a5bd960e21b606082015260800190565b60208082526021908201527f536166654d6174683a206d756c7469706c69636174696f6e206f766572666c6f6040820152607760f81b606082015260800190565b6020808252601e908201527f6b53454544206973207374696c6c206c6f636b656420666f7220766f74650000604082015260600190565b6020808252601d908201527f416464726573733a2063616c6c20746f206e6f6e2d636f6e7472616374000000604082015260600190565b6020808252602a908201527f5361666545524332303a204552433230206f7065726174696f6e20646964206e6040820152691bdd081cdd58d8d9595960b21b606082015260800190565b90815260200190565b60405181810167ffffffffffffffff81118282101715611fcb57600080fd5b604052919050565b600067ffffffffffffffff821115611fe9578081fd5b5060209081020190565b60009081526020902090565b60005b8381101561201a578181015183820152602001612002565b8381111561102b5750506000910152565b80151581146114f357600080fdfea26469706673582212200166302cf64562660e1c97256af879b180cb8f515b396b59d993cd1d4739011a64736f6c63430006060033",
			"opcodes": "PUSH1 0x80 PUSH1 0x40 MSTORE PUSH2 0x10E PUSH1 0x4 SSTORE PUSH8 0xDE0B6B3A7640000 PUSH1 0x5 SSTORE PUSH8 0x16345785D8A0000 PUSH1 0x6 SSTORE PUSH1 0xD DUP1 SLOAD PUSH3 0xFF0000 NOT AND PUSH3 0x10000 OR SWAP1 SSTORE CALLVALUE DUP1 ISZERO PUSH2 0x3F JUMPI PUSH1 0x0 DUP1 REVERT JUMPDEST POP PUSH1 0x0 DUP1 SLOAD PUSH1 0x1 PUSH1 0x1 PUSH1 0xA0 SHL SUB NOT AND ADDRESS OR SWAP1 SSTORE NUMBER PUSH1 0x1 DUP2 SWAP1 SSTORE PUSH1 0x4 SLOAD ADD PUSH1 0x2 SSTORE PUSH2 0x206F DUP1 PUSH2 0x6E PUSH1 0x0 CODECOPY PUSH1 0x0 RETURN INVALID PUSH1 0x80 PUSH1 0x40 MSTORE CALLVALUE DUP1 ISZERO PUSH2 0x10 JUMPI PUSH1 0x0 DUP1 REVERT JUMPDEST POP PUSH1 0x4 CALLDATASIZE LT PUSH2 0x232 JUMPI PUSH1 0x0 CALLDATALOAD PUSH1 0xE0 SHR DUP1 PUSH4 0x6BBB8D70 GT PUSH2 0x130 JUMPI DUP1 PUSH4 0xA397E77D GT PUSH2 0xB8 JUMPI DUP1 PUSH4 0xD677947E GT PUSH2 0x7C JUMPI DUP1 PUSH4 0xD677947E EQ PUSH2 0x400 JUMPI DUP1 PUSH4 0xE1095BED EQ PUSH2 0x408 JUMPI DUP1 PUSH4 0xE16FD62E EQ PUSH2 0x410 JUMPI DUP1 PUSH4 0xE3829C0B EQ PUSH2 0x418 JUMPI DUP1 PUSH4 0xF2BC79A3 EQ PUSH2 0x420 JUMPI PUSH2 0x232 JUMP JUMPDEST DUP1 PUSH4 0xA397E77D EQ PUSH2 0x3CD JUMPI DUP1 PUSH4 0xA51B3DB4 EQ PUSH2 0x3D5 JUMPI DUP1 PUSH4 0xB2D73213 EQ PUSH2 0x3DD JUMPI DUP1 PUSH4 0xBFF9662A EQ PUSH2 0x3E5 JUMPI DUP1 PUSH4 0xC1E7249B EQ PUSH2 0x3ED JUMPI PUSH2 0x232 JUMP JUMPDEST DUP1 PUSH4 0x83C894A8 GT PUSH2 0xFF JUMPI DUP1 PUSH4 0x83C894A8 EQ PUSH2 0x384 JUMPI DUP1 PUSH4 0x8DA5CB5B EQ PUSH2 0x397 JUMPI DUP1 PUSH4 0x92B5BC24 EQ PUSH2 0x39F JUMPI DUP1 PUSH4 0x9F2B7864 EQ PUSH2 0x3B2 JUMPI DUP1 PUSH4 0xA22E4403 EQ PUSH2 0x3BA JUMPI PUSH2 0x232 JUMP JUMPDEST DUP1 PUSH4 0x6BBB8D70 EQ PUSH2 0x343 JUMPI DUP1 PUSH4 0x74D4017D EQ PUSH2 0x356 JUMPI DUP1 PUSH4 0x755452D7 EQ PUSH2 0x369 JUMPI DUP1 PUSH4 0x7FADDCFB EQ PUSH2 0x37C JUMPI PUSH2 0x232 JUMP JUMPDEST DUP1 PUSH4 0x45153AF8 GT PUSH2 0x1BE JUMPI DUP1 PUSH4 0x5A8EAE8C GT PUSH2 0x182 JUMPI DUP1 PUSH4 0x5A8EAE8C EQ PUSH2 0x2EF JUMPI DUP1 PUSH4 0x5E65AFF8 EQ PUSH2 0x2F7 JUMPI DUP1 PUSH4 0x5F23EAB2 EQ PUSH2 0x30A JUMPI DUP1 PUSH4 0x69DCF683 EQ PUSH2 0x31D JUMPI DUP1 PUSH4 0x6B39913E EQ PUSH2 0x330 JUMPI PUSH2 0x232 JUMP JUMPDEST DUP1 PUSH4 0x45153AF8 EQ PUSH2 0x2BA JUMPI DUP1 PUSH4 0x4FE09390 EQ PUSH2 0x2CF JUMPI DUP1 PUSH4 0x50348A34 EQ PUSH2 0x2D7 JUMPI DUP1 PUSH4 0x5105638C EQ PUSH2 0x2DF JUMPI DUP1 PUSH4 0x54053622 EQ PUSH2 0x2E7 JUMPI PUSH2 0x232 JUMP JUMPDEST DUP1 PUSH4 0x10188AEF GT PUSH2 0x205 JUMPI DUP1 PUSH4 0x10188AEF EQ PUSH2 0x27A JUMPI DUP1 PUSH4 0x137E2377 EQ PUSH2 0x28D JUMPI DUP1 PUSH4 0x244F73CF EQ PUSH2 0x2A2 JUMPI DUP1 PUSH4 0x276D6920 EQ PUSH2 0x2AA JUMPI DUP1 PUSH4 0x31CA6C1B EQ PUSH2 0x2B2 JUMPI PUSH2 0x232 JUMP JUMPDEST DUP1 PUSH4 0x71E9A76 EQ PUSH2 0x237 JUMPI DUP1 PUSH4 0xA6DC7F8 EQ PUSH2 0x24C JUMPI DUP1 PUSH4 0xC91AEA6 EQ PUSH2 0x26A JUMPI DUP1 PUSH4 0xE2FEB05 EQ PUSH2 0x272 JUMPI JUMPDEST PUSH1 0x0 DUP1 REVERT JUMPDEST PUSH2 0x24A PUSH2 0x245 CALLDATASIZE PUSH1 0x4 PUSH2 0x16BD JUMP JUMPDEST PUSH2 0x428 JUMP JUMPDEST STOP JUMPDEST PUSH2 0x254 PUSH2 0x443 JUMP JUMPDEST PUSH1 0x40 MLOAD PUSH2 0x261 SWAP2 SWAP1 PUSH2 0x1BB0 JUMP JUMPDEST PUSH1 0x40 MLOAD DUP1 SWAP2 SUB SWAP1 RETURN JUMPDEST PUSH2 0x254 PUSH2 0x452 JUMP JUMPDEST PUSH2 0x254 PUSH2 0x461 JUMP JUMPDEST PUSH2 0x24A PUSH2 0x288 CALLDATASIZE PUSH1 0x4 PUSH2 0x16A2 JUMP JUMPDEST PUSH2 0x470 JUMP JUMPDEST PUSH2 0x295 PUSH2 0x4A9 JUMP JUMPDEST PUSH1 0x40 MLOAD PUSH2 0x261 SWAP2 SWAP1 PUSH2 0x1FA3 JUMP JUMPDEST PUSH2 0x295 PUSH2 0x4AF JUMP JUMPDEST PUSH2 0x254 PUSH2 0x4B5 JUMP JUMPDEST PUSH2 0x254 PUSH2 0x4C4 JUMP JUMPDEST PUSH2 0x2C2 PUSH2 0x4DA JUMP JUMPDEST PUSH1 0x40 MLOAD PUSH2 0x261 SWAP2 SWAP1 PUSH2 0x1C01 JUMP JUMPDEST PUSH2 0x295 PUSH2 0x4E3 JUMP JUMPDEST PUSH2 0x295 PUSH2 0x4E9 JUMP JUMPDEST PUSH2 0x295 PUSH2 0x4EF JUMP JUMPDEST PUSH2 0x254 PUSH2 0x4F5 JUMP JUMPDEST PUSH2 0x2C2 PUSH2 0x504 JUMP JUMPDEST PUSH2 0x24A PUSH2 0x305 CALLDATASIZE PUSH1 0x4 PUSH2 0x16BD JUMP JUMPDEST PUSH2 0x513 JUMP JUMPDEST PUSH2 0x24A PUSH2 0x318 CALLDATASIZE PUSH1 0x4 PUSH2 0x180D JUMP JUMPDEST PUSH2 0x5AF JUMP JUMPDEST PUSH2 0x24A PUSH2 0x32B CALLDATASIZE PUSH1 0x4 PUSH2 0x16BD JUMP JUMPDEST PUSH2 0x5B8 JUMP JUMPDEST PUSH2 0x24A PUSH2 0x33E CALLDATASIZE PUSH1 0x4 PUSH2 0x16BD JUMP JUMPDEST PUSH2 0x693 JUMP JUMPDEST PUSH2 0x24A PUSH2 0x351 CALLDATASIZE PUSH1 0x4 PUSH2 0x171F JUMP JUMPDEST PUSH2 0x8BE JUMP JUMPDEST PUSH2 0x24A PUSH2 0x364 CALLDATASIZE PUSH1 0x4 PUSH2 0x16E7 JUMP JUMPDEST PUSH2 0xC8E JUMP JUMPDEST PUSH2 0x24A PUSH2 0x377 CALLDATASIZE PUSH1 0x4 PUSH2 0x171F JUMP JUMPDEST PUSH2 0xCC1 JUMP JUMPDEST PUSH2 0x295 PUSH2 0xDFD JUMP JUMPDEST PUSH2 0x24A PUSH2 0x392 CALLDATASIZE PUSH1 0x4 PUSH2 0x16A2 JUMP JUMPDEST PUSH2 0xE03 JUMP JUMPDEST PUSH2 0x254 PUSH2 0xE49 JUMP JUMPDEST PUSH2 0x24A PUSH2 0x3AD CALLDATASIZE PUSH1 0x4 PUSH2 0x16A2 JUMP JUMPDEST PUSH2 0xE58 JUMP JUMPDEST PUSH2 0x24A PUSH2 0xE9E JUMP JUMPDEST PUSH2 0x24A PUSH2 0x3C8 CALLDATASIZE PUSH1 0x4 PUSH2 0x16A2 JUMP JUMPDEST PUSH2 0xEB7 JUMP JUMPDEST PUSH2 0x24A PUSH2 0xEFD JUMP JUMPDEST PUSH2 0x24A PUSH2 0xEB5 JUMP JUMPDEST PUSH2 0x295 PUSH2 0xF70 JUMP JUMPDEST PUSH2 0x254 PUSH2 0xF76 JUMP JUMPDEST PUSH2 0x24A PUSH2 0x3FB CALLDATASIZE PUSH1 0x4 PUSH2 0x1920 JUMP JUMPDEST PUSH2 0xF85 JUMP JUMPDEST PUSH2 0x2C2 PUSH2 0xFA1 JUMP JUMPDEST PUSH2 0x295 PUSH2 0xFAF JUMP JUMPDEST PUSH2 0x2C2 PUSH2 0xFB5 JUMP JUMPDEST PUSH2 0x254 PUSH2 0xFBE JUMP JUMPDEST PUSH2 0x295 PUSH2 0xFCD JUMP JUMPDEST PUSH1 0x1A SLOAD PUSH1 0x1 PUSH1 0x1 PUSH1 0xA0 SHL SUB AND CALLER EQ PUSH2 0x43F JUMPI PUSH1 0x0 DUP1 REVERT JUMPDEST POP POP JUMP JUMPDEST PUSH1 0x11 SLOAD PUSH1 0x1 PUSH1 0x1 PUSH1 0xA0 SHL SUB AND DUP2 JUMP JUMPDEST PUSH1 0x15 SLOAD PUSH1 0x1 PUSH1 0x1 PUSH1 0xA0 SHL SUB AND DUP2 JUMP JUMPDEST PUSH1 0x19 SLOAD PUSH1 0x1 PUSH1 0x1 PUSH1 0xA0 SHL SUB AND DUP2 JUMP JUMPDEST PUSH1 0x1A SLOAD PUSH1 0x1 PUSH1 0x1 PUSH1 0xA0 SHL SUB AND CALLER EQ PUSH2 0x487 JUMPI PUSH1 0x0 DUP1 REVERT JUMPDEST PUSH1 0x1A DUP1 SLOAD PUSH1 0x1 PUSH1 0x1 PUSH1 0xA0 SHL SUB NOT AND PUSH1 0x1 PUSH1 0x1 PUSH1 0xA0 SHL SUB SWAP3 SWAP1 SWAP3 AND SWAP2 SWAP1 SWAP2 OR SWAP1 SSTORE JUMP JUMPDEST PUSH1 0x1 SLOAD DUP2 JUMP JUMPDEST PUSH1 0xC SLOAD DUP2 JUMP JUMPDEST PUSH1 0x13 SLOAD PUSH1 0x1 PUSH1 0x1 PUSH1 0xA0 SHL SUB AND DUP2 JUMP JUMPDEST PUSH1 0xD SLOAD PUSH4 0x1000000 SWAP1 DIV PUSH1 0x1 PUSH1 0x1 PUSH1 0xA0 SHL SUB AND DUP2 JUMP JUMPDEST PUSH1 0xD SLOAD PUSH1 0xFF AND DUP2 JUMP JUMPDEST PUSH1 0x4 SLOAD DUP2 JUMP JUMPDEST PUSH1 0xF SLOAD DUP2 JUMP JUMPDEST PUSH1 0x6 SLOAD DUP2 JUMP JUMPDEST PUSH1 0x17 SLOAD PUSH1 0x1 PUSH1 0x1 PUSH1 0xA0 SHL SUB AND DUP2 JUMP JUMPDEST PUSH1 0xD SLOAD PUSH3 0x10000 SWAP1 DIV PUSH1 0xFF AND DUP2 JUMP JUMPDEST PUSH1 0x1A SLOAD PUSH1 0x1 PUSH1 0x1 PUSH1 0xA0 SHL SUB AND CALLER EQ PUSH2 0x52A JUMPI PUSH1 0x0 DUP1 REVERT JUMPDEST PUSH1 0x40 MLOAD PUSH4 0x95EA7B3 PUSH1 0xE0 SHL DUP2 MSTORE PUSH1 0x1 PUSH1 0x1 PUSH1 0xA0 SHL SUB DUP4 AND SWAP1 PUSH4 0x95EA7B3 SWAP1 PUSH2 0x558 SWAP1 DUP6 SWAP1 DUP6 SWAP1 PUSH1 0x4 ADD PUSH2 0x1BE8 JUMP JUMPDEST PUSH1 0x20 PUSH1 0x40 MLOAD DUP1 DUP4 SUB DUP2 PUSH1 0x0 DUP8 DUP1 EXTCODESIZE ISZERO DUP1 ISZERO PUSH2 0x572 JUMPI PUSH1 0x0 DUP1 REVERT JUMPDEST POP GAS CALL ISZERO DUP1 ISZERO PUSH2 0x586 JUMPI RETURNDATASIZE PUSH1 0x0 DUP1 RETURNDATACOPY RETURNDATASIZE PUSH1 0x0 REVERT JUMPDEST POP POP POP POP PUSH1 0x40 MLOAD RETURNDATASIZE PUSH1 0x1F NOT PUSH1 0x1F DUP3 ADD AND DUP3 ADD DUP1 PUSH1 0x40 MSTORE POP DUP2 ADD SWAP1 PUSH2 0x5AA SWAP2 SWAP1 PUSH2 0x1703 JUMP JUMPDEST POP POP POP JUMP JUMPDEST POP POP POP POP POP POP POP JUMP JUMPDEST PUSH1 0x5 SLOAD PUSH1 0x12 SLOAD PUSH2 0x5DF SWAP2 PUSH1 0x1 PUSH1 0x1 PUSH1 0xA0 SHL SUB SWAP1 SWAP2 AND SWAP1 CALLER SWAP1 ADDRESS SWAP1 DUP6 MUL PUSH4 0xFFFFFFFF PUSH2 0xFD3 AND JUMP JUMPDEST PUSH1 0x6 SLOAD PUSH1 0x14 SLOAD PUSH2 0x606 SWAP2 PUSH1 0x1 PUSH1 0x1 PUSH1 0xA0 SHL SUB SWAP1 SWAP2 AND SWAP1 CALLER SWAP1 ADDRESS SWAP1 DUP6 MUL PUSH4 0xFFFFFFFF PUSH2 0xFD3 AND JUMP JUMPDEST PUSH1 0x5 SLOAD CALLER PUSH1 0x0 SWAP1 DUP2 MSTORE PUSH1 0xA PUSH1 0x20 MSTORE PUSH1 0x40 SWAP1 KECCAK256 SLOAD PUSH2 0x62A SWAP2 DUP4 MUL PUSH4 0xFFFFFFFF PUSH2 0x1031 AND JUMP JUMPDEST CALLER PUSH1 0x0 SWAP1 DUP2 MSTORE PUSH1 0xA PUSH1 0x20 SWAP1 DUP2 MSTORE PUSH1 0x40 DUP1 DUP4 KECCAK256 SWAP4 DUP5 SSTORE PUSH1 0x2 SLOAD PUSH1 0x1 SWAP1 SWAP5 ADD SWAP4 SWAP1 SWAP4 SSTORE PUSH1 0x1 PUSH1 0x1 PUSH1 0xA0 SHL SUB DUP6 AND DUP3 MSTORE PUSH1 0x7 SWAP1 MSTORE KECCAK256 PUSH1 0x3 ADD SLOAD PUSH2 0x670 SWAP1 DUP3 PUSH4 0xFFFFFFFF PUSH2 0x1031 AND JUMP JUMPDEST PUSH1 0x1 PUSH1 0x1 PUSH1 0xA0 SHL SUB SWAP1 SWAP3 AND PUSH1 0x0 SWAP1 DUP2 MSTORE PUSH1 0x7 PUSH1 0x20 MSTORE PUSH1 0x40 SWAP1 KECCAK256 PUSH1 0x3 ADD SWAP2 SWAP1 SWAP2 SSTORE POP JUMP JUMPDEST PUSH1 0xD SLOAD PUSH1 0xFF AND DUP1 ISZERO PUSH2 0x6A6 JUMPI POP NUMBER PUSH1 0x2 SLOAD GT JUMPDEST PUSH2 0x6CB JUMPI PUSH1 0x40 MLOAD PUSH3 0x461BCD PUSH1 0xE5 SHL DUP2 MSTORE PUSH1 0x4 ADD PUSH2 0x6C2 SWAP1 PUSH2 0x1E66 JUMP JUMPDEST PUSH1 0x40 MLOAD DUP1 SWAP2 SUB SWAP1 REVERT JUMPDEST PUSH1 0x12 SLOAD PUSH2 0x6E9 SWAP1 PUSH1 0x1 PUSH1 0x1 PUSH1 0xA0 SHL SUB AND DUP4 ADDRESS DUP5 PUSH4 0xFFFFFFFF PUSH2 0xFD3 AND JUMP JUMPDEST PUSH1 0x1 PUSH1 0x1 PUSH1 0xA0 SHL SUB DUP3 AND PUSH1 0x0 SWAP1 DUP2 MSTORE PUSH1 0x10 PUSH1 0x20 MSTORE PUSH1 0x40 SWAP1 KECCAK256 SLOAD PUSH2 0x712 SWAP1 DUP3 PUSH4 0xFFFFFFFF PUSH2 0x1031 AND JUMP JUMPDEST PUSH1 0x1 PUSH1 0x1 PUSH1 0xA0 SHL SUB DUP1 DUP5 AND PUSH1 0x0 SWAP1 DUP2 MSTORE PUSH1 0x10 PUSH1 0x20 SWAP1 DUP2 MSTORE PUSH1 0x40 DUP1 DUP4 KECCAK256 SWAP5 SWAP1 SWAP5 SSTORE PUSH1 0x11 SLOAD DUP5 MLOAD PUSH4 0x18160DDD PUSH1 0xE0 SHL DUP2 MSTORE SWAP5 MLOAD SWAP3 SWAP5 SWAP4 AND SWAP3 PUSH4 0x18160DDD SWAP3 PUSH1 0x4 DUP1 DUP4 ADD SWAP4 SWAP3 DUP3 SWAP1 SUB ADD DUP2 DUP7 DUP1 EXTCODESIZE ISZERO DUP1 ISZERO PUSH2 0x769 JUMPI PUSH1 0x0 DUP1 REVERT JUMPDEST POP GAS STATICCALL ISZERO DUP1 ISZERO PUSH2 0x77D JUMPI RETURNDATASIZE PUSH1 0x0 DUP1 RETURNDATACOPY RETURNDATASIZE PUSH1 0x0 REVERT JUMPDEST POP POP POP POP PUSH1 0x40 MLOAD RETURNDATASIZE PUSH1 0x1F NOT PUSH1 0x1F DUP3 ADD AND DUP3 ADD DUP1 PUSH1 0x40 MSTORE POP DUP2 ADD SWAP1 PUSH2 0x7A1 SWAP2 SWAP1 PUSH2 0x1938 JUMP JUMPDEST SWAP1 POP PUSH1 0x0 PUSH1 0x15 PUSH1 0x0 SWAP1 SLOAD SWAP1 PUSH2 0x100 EXP SWAP1 DIV PUSH1 0x1 PUSH1 0x1 PUSH1 0xA0 SHL SUB AND PUSH1 0x1 PUSH1 0x1 PUSH1 0xA0 SHL SUB AND PUSH4 0x18160DDD PUSH1 0x40 MLOAD DUP2 PUSH4 0xFFFFFFFF AND PUSH1 0xE0 SHL DUP2 MSTORE PUSH1 0x4 ADD PUSH1 0x20 PUSH1 0x40 MLOAD DUP1 DUP4 SUB DUP2 DUP7 DUP1 EXTCODESIZE ISZERO DUP1 ISZERO PUSH2 0x7F3 JUMPI PUSH1 0x0 DUP1 REVERT JUMPDEST POP GAS STATICCALL ISZERO DUP1 ISZERO PUSH2 0x807 JUMPI RETURNDATASIZE PUSH1 0x0 DUP1 RETURNDATACOPY RETURNDATASIZE PUSH1 0x0 REVERT JUMPDEST POP POP POP POP PUSH1 0x40 MLOAD RETURNDATASIZE PUSH1 0x1F NOT PUSH1 0x1F DUP3 ADD AND DUP3 ADD DUP1 PUSH1 0x40 MSTORE POP DUP2 ADD SWAP1 PUSH2 0x82B SWAP2 SWAP1 PUSH2 0x1938 JUMP JUMPDEST PUSH1 0xD SLOAD SWAP1 SWAP2 POP DUP3 SWAP1 PUSH3 0x10000 SWAP1 DIV PUSH1 0xFF AND ISZERO PUSH2 0x853 JUMPI PUSH2 0x851 DUP2 DUP4 PUSH4 0xFFFFFFFF PUSH2 0x1031 AND JUMP JUMPDEST POP JUMPDEST PUSH1 0x0 PUSH2 0x865 DUP3 DUP7 PUSH4 0xFFFFFFFF PUSH2 0x105F AND JUMP JUMPDEST SWAP1 POP PUSH1 0x0 PUSH2 0x87E DUP3 PUSH1 0xE SLOAD PUSH2 0x1099 SWAP1 SWAP2 SWAP1 PUSH4 0xFFFFFFFF AND JUMP JUMPDEST PUSH1 0xD SLOAD SWAP1 SWAP2 POP PUSH2 0x89F SWAP1 PUSH4 0x1000000 SWAP1 DIV PUSH1 0x1 PUSH1 0x1 PUSH1 0xA0 SHL SUB AND CALLER DUP9 PUSH2 0x10DB JUMP JUMPDEST PUSH1 0xF SLOAD PUSH2 0x8B2 SWAP1 DUP3 PUSH4 0xFFFFFFFF PUSH2 0x1031 AND JUMP JUMPDEST PUSH1 0xF SSTORE POP POP POP POP POP POP POP JUMP JUMPDEST PUSH1 0x1A SLOAD PUSH1 0x1 PUSH1 0x1 PUSH1 0xA0 SHL SUB AND CALLER EQ PUSH2 0x8D5 JUMPI PUSH1 0x0 DUP1 REVERT JUMPDEST PUSH1 0x4 SLOAD PUSH2 0x8FA SWAP1 PUSH2 0x8ED SWAP1 PUSH1 0x2 PUSH4 0xFFFFFFFF PUSH2 0x105F AND JUMP JUMPDEST NUMBER SWAP1 PUSH4 0xFFFFFFFF PUSH2 0x1031 AND JUMP JUMPDEST PUSH1 0x1 DUP2 SWAP1 SSTORE PUSH1 0x4 SLOAD PUSH2 0x915 SWAP2 PUSH2 0x8ED SWAP2 PUSH4 0xFFFFFFFF PUSH2 0x1031 AND JUMP JUMPDEST PUSH1 0x2 SSTORE PUSH1 0x1A SLOAD PUSH1 0x40 MLOAD PUSH1 0x1 PUSH1 0x1 PUSH1 0xA0 SHL SUB SWAP1 SWAP2 AND SWAP1 PUSH2 0x942 SWAP1 DUP9 SWAP1 DUP9 SWAP1 DUP9 SWAP1 DUP9 SWAP1 DUP9 SWAP1 DUP9 SWAP1 PUSH1 0x24 ADD PUSH2 0x1C1F JUMP JUMPDEST PUSH1 0x40 DUP1 MLOAD PUSH1 0x1F NOT DUP2 DUP5 SUB ADD DUP2 MSTORE SWAP2 DUP2 MSTORE PUSH1 0x20 DUP3 ADD DUP1 MLOAD PUSH1 0x1 PUSH1 0x1 PUSH1 0xE0 SHL SUB AND PUSH4 0x6BBB8D7 PUSH1 0xE4 SHL OR SWAP1 MSTORE MLOAD PUSH2 0x977 SWAP2 SWAP1 PUSH2 0x1B24 JUMP JUMPDEST PUSH1 0x0 PUSH1 0x40 MLOAD DUP1 DUP4 SUB DUP2 PUSH1 0x0 DUP7 GAS CALL SWAP2 POP POP RETURNDATASIZE DUP1 PUSH1 0x0 DUP2 EQ PUSH2 0x9B4 JUMPI PUSH1 0x40 MLOAD SWAP2 POP PUSH1 0x1F NOT PUSH1 0x3F RETURNDATASIZE ADD AND DUP3 ADD PUSH1 0x40 MSTORE RETURNDATASIZE DUP3 MSTORE RETURNDATASIZE PUSH1 0x0 PUSH1 0x20 DUP5 ADD RETURNDATACOPY PUSH2 0x9B9 JUMP JUMPDEST PUSH1 0x60 SWAP2 POP JUMPDEST POP PUSH1 0x0 SWAP2 POP POP JUMPDEST PUSH1 0x9 SLOAD PUSH1 0x1 PUSH1 0x1 PUSH1 0xA0 SHL SUB AND PUSH1 0x0 SWAP1 DUP2 MSTORE PUSH1 0x7 PUSH1 0x20 MSTORE PUSH1 0x40 SWAP1 KECCAK256 PUSH1 0x8 ADD SLOAD DUP2 LT ISZERO PUSH2 0x5AF JUMPI PUSH1 0x1A SLOAD PUSH1 0x9 SLOAD PUSH1 0x1 PUSH1 0x1 PUSH1 0xA0 SHL SUB SWAP1 DUP2 AND PUSH1 0x0 SWAP1 DUP2 MSTORE PUSH1 0x7 PUSH1 0x20 MSTORE PUSH1 0x40 SWAP1 KECCAK256 PUSH1 0x8 SWAP1 DUP2 ADD DUP1 SLOAD SWAP3 SWAP1 SWAP4 AND SWAP3 SWAP1 SWAP2 DUP5 SWAP1 DUP2 LT PUSH2 0xA1C JUMPI INVALID JUMPDEST SWAP1 PUSH1 0x0 MSTORE PUSH1 0x20 PUSH1 0x0 KECCAK256 ADD PUSH1 0x40 MLOAD PUSH2 0xA33 SWAP2 SWAP1 PUSH2 0x1B40 JUMP JUMPDEST SWAP1 DUP2 MSTORE PUSH1 0x40 DUP1 MLOAD PUSH1 0x20 SWAP3 DUP2 SWAP1 SUB DUP4 ADD SWAP1 KECCAK256 PUSH1 0x9 SLOAD PUSH1 0x1 PUSH1 0x1 PUSH1 0xA0 SHL SUB AND PUSH1 0x0 SWAP1 DUP2 MSTORE PUSH1 0x7 SWAP1 SWAP4 MSTORE SWAP2 KECCAK256 PUSH1 0x8 SWAP1 DUP2 ADD DUP1 SLOAD PUSH1 0x1 SWAP1 SWAP4 ADD SWAP3 DUP6 SWAP1 DUP2 LT PUSH2 0xA73 JUMPI INVALID JUMPDEST SWAP1 PUSH1 0x0 MSTORE PUSH1 0x20 PUSH1 0x0 KECCAK256 ADD PUSH1 0x40 MLOAD PUSH2 0xA8A SWAP2 SWAP1 PUSH2 0x1B40 JUMP JUMPDEST SWAP1 DUP2 MSTORE PUSH1 0x40 DUP1 MLOAD PUSH1 0x20 SWAP3 DUP2 SWAP1 SUB DUP4 ADD SWAP1 KECCAK256 PUSH1 0x9 SLOAD PUSH1 0x1 PUSH1 0x1 PUSH1 0xA0 SHL SUB AND PUSH1 0x0 SWAP1 DUP2 MSTORE PUSH1 0x7 SWAP1 SWAP4 MSTORE SWAP2 KECCAK256 PUSH1 0x8 SWAP1 DUP2 ADD DUP1 SLOAD PUSH1 0x2 SWAP1 SWAP4 ADD SWAP3 DUP7 SWAP1 DUP2 LT PUSH2 0xACA JUMPI INVALID JUMPDEST SWAP1 PUSH1 0x0 MSTORE PUSH1 0x20 PUSH1 0x0 KECCAK256 ADD PUSH1 0x40 MLOAD PUSH2 0xAE1 SWAP2 SWAP1 PUSH2 0x1B40 JUMP JUMPDEST SWAP1 DUP2 MSTORE PUSH1 0x40 DUP1 MLOAD PUSH1 0x20 SWAP3 DUP2 SWAP1 SUB DUP4 ADD SWAP1 KECCAK256 PUSH1 0x9 SLOAD PUSH1 0x1 PUSH1 0x1 PUSH1 0xA0 SHL SUB AND PUSH1 0x0 SWAP1 DUP2 MSTORE PUSH1 0x7 SWAP1 SWAP4 MSTORE SWAP2 KECCAK256 PUSH1 0x8 SWAP1 DUP2 ADD DUP1 SLOAD PUSH1 0x3 SWAP1 SWAP4 ADD SWAP3 DUP8 SWAP1 DUP2 LT PUSH2 0xB21 JUMPI INVALID JUMPDEST SWAP1 PUSH1 0x0 MSTORE PUSH1 0x20 PUSH1 0x0 KECCAK256 ADD PUSH1 0x40 MLOAD PUSH2 0xB38 SWAP2 SWAP1 PUSH2 0x1B40 JUMP JUMPDEST SWAP1 DUP2 MSTORE PUSH1 0x40 DUP1 MLOAD PUSH1 0x20 SWAP3 DUP2 SWAP1 SUB DUP4 ADD SWAP1 KECCAK256 PUSH1 0x9 SLOAD PUSH1 0x1 PUSH1 0x1 PUSH1 0xA0 SHL SUB AND PUSH1 0x0 SWAP1 DUP2 MSTORE PUSH1 0x7 SWAP1 SWAP4 MSTORE SWAP2 KECCAK256 PUSH1 0x8 SWAP1 DUP2 ADD DUP1 SLOAD PUSH1 0x4 SWAP1 SWAP4 ADD SWAP3 DUP9 SWAP1 DUP2 LT PUSH2 0xB78 JUMPI INVALID JUMPDEST SWAP1 PUSH1 0x0 MSTORE PUSH1 0x20 PUSH1 0x0 KECCAK256 ADD PUSH1 0x40 MLOAD PUSH2 0xB8F SWAP2 SWAP1 PUSH2 0x1B40 JUMP JUMPDEST SWAP1 DUP2 MSTORE PUSH1 0x40 DUP1 MLOAD PUSH1 0x20 SWAP3 DUP2 SWAP1 SUB DUP4 ADD SWAP1 KECCAK256 PUSH1 0x9 SLOAD PUSH1 0x1 PUSH1 0x1 PUSH1 0xA0 SHL SUB AND PUSH1 0x0 SWAP1 DUP2 MSTORE PUSH1 0x7 SWAP1 SWAP4 MSTORE SWAP2 KECCAK256 PUSH1 0x8 SWAP1 DUP2 ADD DUP1 SLOAD PUSH1 0x5 SWAP1 SWAP4 ADD SWAP3 DUP10 SWAP1 DUP2 LT PUSH2 0xBCF JUMPI INVALID JUMPDEST SWAP1 PUSH1 0x0 MSTORE PUSH1 0x20 PUSH1 0x0 KECCAK256 ADD PUSH1 0x40 MLOAD PUSH2 0xBE6 SWAP2 SWAP1 PUSH2 0x1B40 JUMP JUMPDEST SWAP1 DUP2 MSTORE PUSH1 0x20 ADD PUSH1 0x40 MLOAD DUP1 SWAP2 SUB SWAP1 KECCAK256 PUSH1 0x6 ADD PUSH1 0x40 MLOAD PUSH1 0x24 ADD PUSH2 0xC0C SWAP7 SWAP6 SWAP5 SWAP4 SWAP3 SWAP2 SWAP1 PUSH2 0x1CD0 JUMP JUMPDEST PUSH1 0x40 DUP1 MLOAD PUSH1 0x1F NOT DUP2 DUP5 SUB ADD DUP2 MSTORE SWAP2 DUP2 MSTORE PUSH1 0x20 DUP3 ADD DUP1 MLOAD PUSH1 0x1 PUSH1 0x1 PUSH1 0xE0 SHL SUB AND PUSH4 0x6BBB8D7 PUSH1 0xE4 SHL OR SWAP1 MSTORE MLOAD PUSH2 0xC41 SWAP2 SWAP1 PUSH2 0x1B24 JUMP JUMPDEST PUSH1 0x0 PUSH1 0x40 MLOAD DUP1 DUP4 SUB DUP2 PUSH1 0x0 DUP7 GAS CALL SWAP2 POP POP RETURNDATASIZE DUP1 PUSH1 0x0 DUP2 EQ PUSH2 0xC7E JUMPI PUSH1 0x40 MLOAD SWAP2 POP PUSH1 0x1F NOT PUSH1 0x3F RETURNDATASIZE ADD AND DUP3 ADD PUSH1 0x40 MSTORE RETURNDATASIZE DUP3 MSTORE RETURNDATASIZE PUSH1 0x0 PUSH1 0x20 DUP5 ADD RETURNDATACOPY PUSH2 0xC83 JUMP JUMPDEST PUSH1 0x60 SWAP2 POP JUMPDEST POP POP POP PUSH1 0x1 ADD PUSH2 0x9C0 JUMP JUMPDEST PUSH1 0x1A SLOAD PUSH1 0x1 PUSH1 0x1 PUSH1 0xA0 SHL SUB AND CALLER EQ PUSH2 0xCA5 JUMPI PUSH1 0x0 DUP1 REVERT JUMPDEST PUSH1 0xD DUP1 SLOAD SWAP2 ISZERO ISZERO PUSH3 0x10000 MUL PUSH3 0xFF0000 NOT SWAP1 SWAP3 AND SWAP2 SWAP1 SWAP2 OR SWAP1 SSTORE JUMP JUMPDEST PUSH1 0x3 SLOAD PUSH1 0xFF AND PUSH2 0xCE3 JUMPI PUSH1 0x40 MLOAD PUSH3 0x461BCD PUSH1 0xE5 SHL DUP2 MSTORE PUSH1 0x4 ADD PUSH2 0x6C2 SWAP1 PUSH2 0x1DE9 JUMP JUMPDEST NUMBER PUSH1 0x2 SLOAD LT ISZERO PUSH2 0xD05 JUMPI PUSH1 0x40 MLOAD PUSH3 0x461BCD PUSH1 0xE5 SHL DUP2 MSTORE PUSH1 0x4 ADD PUSH2 0x6C2 SWAP1 PUSH2 0x1D7B JUMP JUMPDEST CALLER PUSH1 0x0 DUP2 DUP2 MSTORE PUSH1 0x7 PUSH1 0x20 SWAP1 DUP2 MSTORE PUSH1 0x40 SWAP1 SWAP2 KECCAK256 DUP1 SLOAD PUSH1 0x1 PUSH1 0x1 PUSH1 0xA0 SHL SUB NOT AND SWAP1 SWAP3 OR DUP3 SSTORE DUP8 MLOAD PUSH2 0xD3A SWAP3 PUSH1 0x1 ADD SWAP2 DUP10 ADD SWAP1 PUSH2 0x12D9 JUMP JUMPDEST POP CALLER PUSH1 0x0 SWAP1 DUP2 MSTORE PUSH1 0x7 PUSH1 0x20 SWAP1 DUP2 MSTORE PUSH1 0x40 SWAP1 SWAP2 KECCAK256 DUP7 MLOAD PUSH2 0xD61 SWAP3 PUSH1 0x2 SWAP1 SWAP3 ADD SWAP2 DUP9 ADD SWAP1 PUSH2 0x12D9 JUMP JUMPDEST POP CALLER PUSH1 0x0 SWAP1 DUP2 MSTORE PUSH1 0x7 PUSH1 0x20 SWAP1 DUP2 MSTORE PUSH1 0x40 SWAP1 SWAP2 KECCAK256 DUP6 MLOAD PUSH2 0xD88 SWAP3 PUSH1 0x4 SWAP1 SWAP3 ADD SWAP2 DUP8 ADD SWAP1 PUSH2 0x1357 JUMP JUMPDEST POP CALLER PUSH1 0x0 SWAP1 DUP2 MSTORE PUSH1 0x7 PUSH1 0x20 SWAP1 DUP2 MSTORE PUSH1 0x40 SWAP1 SWAP2 KECCAK256 DUP5 MLOAD PUSH2 0xDAF SWAP3 PUSH1 0x5 SWAP1 SWAP3 ADD SWAP2 DUP7 ADD SWAP1 PUSH2 0x13B8 JUMP JUMPDEST POP CALLER PUSH1 0x0 SWAP1 DUP2 MSTORE PUSH1 0x7 PUSH1 0x20 SWAP1 DUP2 MSTORE PUSH1 0x40 SWAP1 SWAP2 KECCAK256 DUP4 MLOAD PUSH2 0xDD6 SWAP3 PUSH1 0x6 SWAP1 SWAP3 ADD SWAP2 DUP6 ADD SWAP1 PUSH2 0x13F2 JUMP JUMPDEST POP CALLER PUSH1 0x0 SWAP1 DUP2 MSTORE PUSH1 0x7 PUSH1 0x20 DUP2 DUP2 MSTORE PUSH1 0x40 SWAP1 SWAP3 KECCAK256 DUP4 MLOAD PUSH2 0x5AF SWAP4 SWAP2 SWAP1 SWAP3 ADD SWAP2 SWAP1 DUP5 ADD SWAP1 PUSH2 0x13B8 JUMP JUMPDEST PUSH1 0xE SLOAD DUP2 JUMP JUMPDEST PUSH1 0x1A SLOAD PUSH1 0x1 PUSH1 0x1 PUSH1 0xA0 SHL SUB AND CALLER EQ PUSH2 0xE1A JUMPI PUSH1 0x0 DUP1 REVERT JUMPDEST PUSH1 0x13 DUP1 SLOAD PUSH1 0x1 PUSH1 0x1 PUSH1 0xA0 SHL SUB NOT SWAP1 DUP2 AND PUSH1 0x1 PUSH1 0x1 PUSH1 0xA0 SHL SUB SWAP4 DUP5 AND OR SWAP2 DUP3 SWAP1 SSTORE PUSH1 0x14 DUP1 SLOAD SWAP3 SWAP1 SWAP4 AND SWAP2 AND OR SWAP1 SSTORE JUMP JUMPDEST PUSH1 0x0 SLOAD PUSH1 0x1 PUSH1 0x1 PUSH1 0xA0 SHL SUB AND DUP2 JUMP JUMPDEST PUSH1 0x1A SLOAD PUSH1 0x1 PUSH1 0x1 PUSH1 0xA0 SHL SUB AND CALLER EQ PUSH2 0xE6F JUMPI PUSH1 0x0 DUP1 REVERT JUMPDEST PUSH1 0x17 DUP1 SLOAD PUSH1 0x1 PUSH1 0x1 PUSH1 0xA0 SHL SUB NOT SWAP1 DUP2 AND PUSH1 0x1 PUSH1 0x1 PUSH1 0xA0 SHL SUB SWAP4 DUP5 AND OR SWAP2 DUP3 SWAP1 SSTORE PUSH1 0x18 DUP1 SLOAD SWAP3 SWAP1 SWAP4 AND SWAP2 AND OR SWAP1 SSTORE JUMP JUMPDEST PUSH1 0x1A SLOAD PUSH1 0x1 PUSH1 0x1 PUSH1 0xA0 SHL SUB AND CALLER EQ PUSH2 0xEB5 JUMPI PUSH1 0x0 DUP1 REVERT JUMPDEST JUMP JUMPDEST PUSH1 0x1A SLOAD PUSH1 0x1 PUSH1 0x1 PUSH1 0xA0 SHL SUB AND CALLER EQ PUSH2 0xECE JUMPI PUSH1 0x0 DUP1 REVERT JUMPDEST PUSH1 0x11 DUP1 SLOAD PUSH1 0x1 PUSH1 0x1 PUSH1 0xA0 SHL SUB NOT SWAP1 DUP2 AND PUSH1 0x1 PUSH1 0x1 PUSH1 0xA0 SHL SUB SWAP4 DUP5 AND OR SWAP2 DUP3 SWAP1 SSTORE PUSH1 0x12 DUP1 SLOAD SWAP3 SWAP1 SWAP4 AND SWAP2 AND OR SWAP1 SSTORE JUMP JUMPDEST CALLER PUSH1 0x0 SWAP1 DUP2 MSTORE PUSH1 0xA PUSH1 0x20 MSTORE PUSH1 0x40 SWAP1 KECCAK256 PUSH1 0x1 ADD SLOAD NUMBER LT PUSH2 0xF2E JUMPI PUSH1 0x40 MLOAD PUSH3 0x461BCD PUSH1 0xE5 SHL DUP2 MSTORE PUSH1 0x4 ADD PUSH2 0x6C2 SWAP1 PUSH2 0x1EEB JUMP JUMPDEST CALLER PUSH1 0x0 DUP2 DUP2 MSTORE PUSH1 0xA PUSH1 0x20 MSTORE PUSH1 0x40 SWAP1 KECCAK256 SLOAD PUSH1 0x12 SLOAD SWAP1 SWAP2 PUSH2 0xF5D SWAP2 PUSH1 0x1 PUSH1 0x1 PUSH1 0xA0 SHL SUB AND SWAP1 DUP4 PUSH4 0xFFFFFFFF PUSH2 0x10DB AND JUMP JUMPDEST POP CALLER PUSH1 0x0 SWAP1 DUP2 MSTORE PUSH1 0xA PUSH1 0x20 MSTORE PUSH1 0x40 DUP2 KECCAK256 SSTORE JUMP JUMPDEST PUSH1 0x5 SLOAD DUP2 JUMP JUMPDEST PUSH1 0x1A SLOAD PUSH1 0x1 PUSH1 0x1 PUSH1 0xA0 SHL SUB AND DUP2 JUMP JUMPDEST PUSH1 0x1A SLOAD PUSH1 0x1 PUSH1 0x1 PUSH1 0xA0 SHL SUB AND CALLER EQ PUSH2 0xF9C JUMPI PUSH1 0x0 DUP1 REVERT JUMPDEST PUSH1 0x4 SSTORE JUMP JUMPDEST PUSH1 0xD SLOAD PUSH2 0x100 SWAP1 DIV PUSH1 0xFF AND DUP2 JUMP JUMPDEST PUSH1 0x2 SLOAD DUP2 JUMP JUMPDEST PUSH1 0x3 SLOAD PUSH1 0xFF AND DUP2 JUMP JUMPDEST PUSH1 0x9 SLOAD PUSH1 0x1 PUSH1 0x1 PUSH1 0xA0 SHL SUB AND DUP2 JUMP JUMPDEST PUSH1 0xB SLOAD DUP2 JUMP JUMPDEST PUSH2 0x102B DUP5 PUSH4 0x23B872DD PUSH1 0xE0 SHL DUP6 DUP6 DUP6 PUSH1 0x40 MLOAD PUSH1 0x24 ADD PUSH2 0xFF4 SWAP4 SWAP3 SWAP2 SWAP1 PUSH2 0x1BC4 JUMP JUMPDEST PUSH1 0x40 DUP1 MLOAD PUSH1 0x1F NOT DUP2 DUP5 SUB ADD DUP2 MSTORE SWAP2 SWAP1 MSTORE PUSH1 0x20 DUP2 ADD DUP1 MLOAD PUSH1 0x1 PUSH1 0x1 PUSH1 0xE0 SHL SUB AND PUSH1 0x1 PUSH1 0x1 PUSH1 0xE0 SHL SUB NOT SWAP1 SWAP4 AND SWAP3 SWAP1 SWAP3 OR SWAP1 SWAP2 MSTORE PUSH2 0x10FA JUMP JUMPDEST POP POP POP POP JUMP JUMPDEST PUSH1 0x0 DUP3 DUP3 ADD DUP4 DUP2 LT ISZERO PUSH2 0x1056 JUMPI PUSH1 0x40 MLOAD PUSH3 0x461BCD PUSH1 0xE5 SHL DUP2 MSTORE PUSH1 0x4 ADD PUSH2 0x6C2 SWAP1 PUSH2 0x1DB2 JUMP JUMPDEST SWAP1 POP JUMPDEST SWAP3 SWAP2 POP POP JUMP JUMPDEST PUSH1 0x0 DUP3 PUSH2 0x106E JUMPI POP PUSH1 0x0 PUSH2 0x1059 JUMP JUMPDEST DUP3 DUP3 MUL DUP3 DUP5 DUP3 DUP2 PUSH2 0x107B JUMPI INVALID JUMPDEST DIV EQ PUSH2 0x1056 JUMPI PUSH1 0x40 MLOAD PUSH3 0x461BCD PUSH1 0xE5 SHL DUP2 MSTORE PUSH1 0x4 ADD PUSH2 0x6C2 SWAP1 PUSH2 0x1EAA JUMP JUMPDEST PUSH1 0x0 PUSH2 0x1056 DUP4 DUP4 PUSH1 0x40 MLOAD DUP1 PUSH1 0x40 ADD PUSH1 0x40 MSTORE DUP1 PUSH1 0x1A DUP2 MSTORE PUSH1 0x20 ADD PUSH32 0x536166654D6174683A206469766973696F6E206279207A65726F000000000000 DUP2 MSTORE POP PUSH2 0x1189 JUMP JUMPDEST PUSH2 0x5AA DUP4 PUSH4 0xA9059CBB PUSH1 0xE0 SHL DUP5 DUP5 PUSH1 0x40 MLOAD PUSH1 0x24 ADD PUSH2 0xFF4 SWAP3 SWAP2 SWAP1 PUSH2 0x1BE8 JUMP JUMPDEST PUSH1 0x60 PUSH2 0x114F DUP3 PUSH1 0x40 MLOAD DUP1 PUSH1 0x40 ADD PUSH1 0x40 MSTORE DUP1 PUSH1 0x20 DUP2 MSTORE PUSH1 0x20 ADD PUSH32 0x5361666545524332303A206C6F772D6C6576656C2063616C6C206661696C6564 DUP2 MSTORE POP DUP6 PUSH1 0x1 PUSH1 0x1 PUSH1 0xA0 SHL SUB AND PUSH2 0x11C2 SWAP1 SWAP3 SWAP2 SWAP1 PUSH4 0xFFFFFFFF AND JUMP JUMPDEST DUP1 MLOAD SWAP1 SWAP2 POP ISZERO PUSH2 0x5AA JUMPI DUP1 DUP1 PUSH1 0x20 ADD SWAP1 MLOAD DUP2 ADD SWAP1 PUSH2 0x116D SWAP2 SWAP1 PUSH2 0x1703 JUMP JUMPDEST PUSH2 0x5AA JUMPI PUSH1 0x40 MLOAD PUSH3 0x461BCD PUSH1 0xE5 SHL DUP2 MSTORE PUSH1 0x4 ADD PUSH2 0x6C2 SWAP1 PUSH2 0x1F59 JUMP JUMPDEST PUSH1 0x0 DUP2 DUP4 PUSH2 0x11AA JUMPI PUSH1 0x40 MLOAD PUSH3 0x461BCD PUSH1 0xE5 SHL DUP2 MSTORE PUSH1 0x4 ADD PUSH2 0x6C2 SWAP2 SWAP1 PUSH2 0x1C0C JUMP JUMPDEST POP PUSH1 0x0 DUP4 DUP6 DUP2 PUSH2 0x11B6 JUMPI INVALID JUMPDEST DIV SWAP2 POP POP JUMPDEST SWAP4 SWAP3 POP POP POP JUMP JUMPDEST PUSH1 0x60 PUSH2 0x11D1 DUP5 DUP5 PUSH1 0x0 DUP6 PUSH2 0x11D9 JUMP JUMPDEST SWAP5 SWAP4 POP POP POP POP JUMP JUMPDEST PUSH1 0x60 DUP3 SELFBALANCE LT ISZERO PUSH2 0x11FB JUMPI PUSH1 0x40 MLOAD PUSH3 0x461BCD PUSH1 0xE5 SHL DUP2 MSTORE PUSH1 0x4 ADD PUSH2 0x6C2 SWAP1 PUSH2 0x1E20 JUMP JUMPDEST PUSH2 0x1204 DUP6 PUSH2 0x129A JUMP JUMPDEST PUSH2 0x1220 JUMPI PUSH1 0x40 MLOAD PUSH3 0x461BCD PUSH1 0xE5 SHL DUP2 MSTORE PUSH1 0x4 ADD PUSH2 0x6C2 SWAP1 PUSH2 0x1F22 JUMP JUMPDEST PUSH1 0x0 PUSH1 0x60 DUP7 PUSH1 0x1 PUSH1 0x1 PUSH1 0xA0 SHL SUB AND DUP6 DUP8 PUSH1 0x40 MLOAD PUSH2 0x123D SWAP2 SWAP1 PUSH2 0x1B24 JUMP JUMPDEST PUSH1 0x0 PUSH1 0x40 MLOAD DUP1 DUP4 SUB DUP2 DUP6 DUP8 GAS CALL SWAP3 POP POP POP RETURNDATASIZE DUP1 PUSH1 0x0 DUP2 EQ PUSH2 0x127A JUMPI PUSH1 0x40 MLOAD SWAP2 POP PUSH1 0x1F NOT PUSH1 0x3F RETURNDATASIZE ADD AND DUP3 ADD PUSH1 0x40 MSTORE RETURNDATASIZE DUP3 MSTORE RETURNDATASIZE PUSH1 0x0 PUSH1 0x20 DUP5 ADD RETURNDATACOPY PUSH2 0x127F JUMP JUMPDEST PUSH1 0x60 SWAP2 POP JUMPDEST POP SWAP2 POP SWAP2 POP PUSH2 0x128F DUP3 DUP3 DUP7 PUSH2 0x12A0 JUMP JUMPDEST SWAP8 SWAP7 POP POP POP POP POP POP POP JUMP JUMPDEST EXTCODESIZE ISZERO ISZERO SWAP1 JUMP JUMPDEST PUSH1 0x60 DUP4 ISZERO PUSH2 0x12AF JUMPI POP DUP2 PUSH2 0x11BB JUMP JUMPDEST DUP3 MLOAD ISZERO PUSH2 0x12BF JUMPI DUP3 MLOAD DUP1 DUP5 PUSH1 0x20 ADD REVERT JUMPDEST DUP2 PUSH1 0x40 MLOAD PUSH3 0x461BCD PUSH1 0xE5 SHL DUP2 MSTORE PUSH1 0x4 ADD PUSH2 0x6C2 SWAP2 SWAP1 PUSH2 0x1C0C JUMP JUMPDEST DUP3 DUP1 SLOAD PUSH1 0x1 DUP2 PUSH1 0x1 AND ISZERO PUSH2 0x100 MUL SUB AND PUSH1 0x2 SWAP1 DIV SWAP1 PUSH1 0x0 MSTORE PUSH1 0x20 PUSH1 0x0 KECCAK256 SWAP1 PUSH1 0x1F ADD PUSH1 0x20 SWAP1 DIV DUP2 ADD SWAP3 DUP3 PUSH1 0x1F LT PUSH2 0x131A JUMPI DUP1 MLOAD PUSH1 0xFF NOT AND DUP4 DUP1 ADD OR DUP6 SSTORE PUSH2 0x1347 JUMP JUMPDEST DUP3 DUP1 ADD PUSH1 0x1 ADD DUP6 SSTORE DUP3 ISZERO PUSH2 0x1347 JUMPI SWAP2 DUP3 ADD JUMPDEST DUP3 DUP2 GT ISZERO PUSH2 0x1347 JUMPI DUP3 MLOAD DUP3 SSTORE SWAP2 PUSH1 0x20 ADD SWAP2 SWAP1 PUSH1 0x1 ADD SWAP1 PUSH2 0x132C JUMP JUMPDEST POP PUSH2 0x1353 SWAP3 SWAP2 POP PUSH2 0x144B JUMP JUMPDEST POP SWAP1 JUMP JUMPDEST DUP3 DUP1 SLOAD DUP3 DUP3 SSTORE SWAP1 PUSH1 0x0 MSTORE PUSH1 0x20 PUSH1 0x0 KECCAK256 SWAP1 DUP2 ADD SWAP3 DUP3 ISZERO PUSH2 0x13AC JUMPI SWAP2 PUSH1 0x20 MUL DUP3 ADD JUMPDEST DUP3 DUP2 GT ISZERO PUSH2 0x13AC JUMPI DUP3 MLOAD DUP3 SLOAD PUSH1 0x1 PUSH1 0x1 PUSH1 0xA0 SHL SUB NOT AND PUSH1 0x1 PUSH1 0x1 PUSH1 0xA0 SHL SUB SWAP1 SWAP2 AND OR DUP3 SSTORE PUSH1 0x20 SWAP1 SWAP3 ADD SWAP2 PUSH1 0x1 SWAP1 SWAP2 ADD SWAP1 PUSH2 0x1377 JUMP JUMPDEST POP PUSH2 0x1353 SWAP3 SWAP2 POP PUSH2 0x1468 JUMP JUMPDEST DUP3 DUP1 SLOAD DUP3 DUP3 SSTORE SWAP1 PUSH1 0x0 MSTORE PUSH1 0x20 PUSH1 0x0 KECCAK256 SWAP1 DUP2 ADD SWAP3 DUP3 ISZERO PUSH2 0x1347 JUMPI SWAP2 PUSH1 0x20 MUL DUP3 ADD DUP3 DUP2 GT ISZERO PUSH2 0x1347 JUMPI DUP3 MLOAD DUP3 SSTORE SWAP2 PUSH1 0x20 ADD SWAP2 SWAP1 PUSH1 0x1 ADD SWAP1 PUSH2 0x132C JUMP JUMPDEST DUP3 DUP1 SLOAD DUP3 DUP3 SSTORE SWAP1 PUSH1 0x0 MSTORE PUSH1 0x20 PUSH1 0x0 KECCAK256 SWAP1 DUP2 ADD SWAP3 DUP3 ISZERO PUSH2 0x143F JUMPI SWAP2 PUSH1 0x20 MUL DUP3 ADD JUMPDEST DUP3 DUP2 GT ISZERO PUSH2 0x143F JUMPI DUP3 MLOAD DUP1 MLOAD PUSH2 0x142F SWAP2 DUP5 SWAP2 PUSH1 0x20 SWAP1 SWAP2 ADD SWAP1 PUSH2 0x12D9 JUMP JUMPDEST POP SWAP2 PUSH1 0x20 ADD SWAP2 SWAP1 PUSH1 0x1 ADD SWAP1 PUSH2 0x1412 JUMP JUMPDEST POP PUSH2 0x1353 SWAP3 SWAP2 POP PUSH2 0x148C JUMP JUMPDEST PUSH2 0x1465 SWAP2 SWAP1 JUMPDEST DUP1 DUP3 GT ISZERO PUSH2 0x1353 JUMPI PUSH1 0x0 DUP2 SSTORE PUSH1 0x1 ADD PUSH2 0x1451 JUMP JUMPDEST SWAP1 JUMP JUMPDEST PUSH2 0x1465 SWAP2 SWAP1 JUMPDEST DUP1 DUP3 GT ISZERO PUSH2 0x1353 JUMPI DUP1 SLOAD PUSH1 0x1 PUSH1 0x1 PUSH1 0xA0 SHL SUB NOT AND DUP2 SSTORE PUSH1 0x1 ADD PUSH2 0x146E JUMP JUMPDEST PUSH2 0x1465 SWAP2 SWAP1 JUMPDEST DUP1 DUP3 GT ISZERO PUSH2 0x1353 JUMPI PUSH1 0x0 PUSH2 0x14A6 DUP3 DUP3 PUSH2 0x14AF JUMP JUMPDEST POP PUSH1 0x1 ADD PUSH2 0x1492 JUMP JUMPDEST POP DUP1 SLOAD PUSH1 0x1 DUP2 PUSH1 0x1 AND ISZERO PUSH2 0x100 MUL SUB AND PUSH1 0x2 SWAP1 DIV PUSH1 0x0 DUP3 SSTORE DUP1 PUSH1 0x1F LT PUSH2 0x14D5 JUMPI POP PUSH2 0x14F3 JUMP JUMPDEST PUSH1 0x1F ADD PUSH1 0x20 SWAP1 DIV SWAP1 PUSH1 0x0 MSTORE PUSH1 0x20 PUSH1 0x0 KECCAK256 SWAP1 DUP2 ADD SWAP1 PUSH2 0x14F3 SWAP2 SWAP1 PUSH2 0x144B JUMP JUMPDEST POP JUMP JUMPDEST DUP1 CALLDATALOAD PUSH1 0x1 PUSH1 0x1 PUSH1 0xA0 SHL SUB DUP2 AND DUP2 EQ PUSH2 0x1059 JUMPI PUSH1 0x0 DUP1 REVERT JUMPDEST PUSH1 0x0 DUP3 PUSH1 0x1F DUP4 ADD SLT PUSH2 0x151D JUMPI DUP1 DUP2 REVERT JUMPDEST DUP2 CALLDATALOAD PUSH2 0x1530 PUSH2 0x152B DUP3 PUSH2 0x1FD3 JUMP JUMPDEST PUSH2 0x1FAC JUMP JUMPDEST DUP2 DUP2 MSTORE SWAP2 POP PUSH1 0x20 DUP1 DUP4 ADD SWAP1 DUP5 DUP2 ADD DUP2 DUP5 MUL DUP7 ADD DUP3 ADD DUP8 LT ISZERO PUSH2 0x1551 JUMPI PUSH1 0x0 DUP1 REVERT JUMPDEST PUSH1 0x0 JUMPDEST DUP5 DUP2 LT ISZERO PUSH2 0x1578 JUMPI PUSH2 0x1566 DUP9 DUP4 PUSH2 0x14F6 JUMP JUMPDEST DUP5 MSTORE SWAP3 DUP3 ADD SWAP3 SWAP1 DUP3 ADD SWAP1 PUSH1 0x1 ADD PUSH2 0x1554 JUMP JUMPDEST POP POP POP POP POP SWAP3 SWAP2 POP POP JUMP JUMPDEST PUSH1 0x0 DUP3 PUSH1 0x1F DUP4 ADD SLT PUSH2 0x1593 JUMPI DUP1 DUP2 REVERT JUMPDEST DUP2 CALLDATALOAD PUSH2 0x15A1 PUSH2 0x152B DUP3 PUSH2 0x1FD3 JUMP JUMPDEST DUP2 DUP2 MSTORE SWAP2 POP PUSH1 0x20 DUP1 DUP4 ADD SWAP1 DUP5 DUP2 ADD DUP2 DUP5 MUL DUP7 ADD DUP3 ADD DUP8 LT ISZERO PUSH2 0x15C2 JUMPI PUSH1 0x0 DUP1 REVERT JUMPDEST PUSH1 0x0 JUMPDEST DUP5 DUP2 LT ISZERO PUSH2 0x1578 JUMPI DUP2 CALLDATALOAD DUP5 MSTORE SWAP3 DUP3 ADD SWAP3 SWAP1 DUP3 ADD SWAP1 PUSH1 0x1 ADD PUSH2 0x15C5 JUMP JUMPDEST PUSH1 0x0 DUP3 PUSH1 0x1F DUP4 ADD SLT PUSH2 0x15F1 JUMPI DUP1 DUP2 REVERT JUMPDEST DUP2 CALLDATALOAD PUSH2 0x15FF PUSH2 0x152B DUP3 PUSH2 0x1FD3 JUMP JUMPDEST DUP2 DUP2 MSTORE SWAP2 POP PUSH1 0x20 DUP1 DUP4 ADD SWAP1 DUP5 DUP2 ADD PUSH1 0x0 JUMPDEST DUP5 DUP2 LT ISZERO PUSH2 0x1578 JUMPI PUSH2 0x1627 DUP9 DUP5 DUP5 CALLDATALOAD DUP11 ADD ADD PUSH2 0x1639 JUMP JUMPDEST DUP5 MSTORE SWAP3 DUP3 ADD SWAP3 SWAP1 DUP3 ADD SWAP1 PUSH1 0x1 ADD PUSH2 0x1610 JUMP JUMPDEST PUSH1 0x0 DUP3 PUSH1 0x1F DUP4 ADD SLT PUSH2 0x1649 JUMPI DUP1 DUP2 REVERT JUMPDEST DUP2 CALLDATALOAD PUSH8 0xFFFFFFFFFFFFFFFF DUP2 GT ISZERO PUSH2 0x165F JUMPI DUP2 DUP3 REVERT JUMPDEST PUSH2 0x1672 PUSH1 0x1F DUP3 ADD PUSH1 0x1F NOT AND PUSH1 0x20 ADD PUSH2 0x1FAC JUMP JUMPDEST SWAP2 POP DUP1 DUP3 MSTORE DUP4 PUSH1 0x20 DUP3 DUP6 ADD ADD GT ISZERO PUSH2 0x1689 JUMPI PUSH1 0x0 DUP1 REVERT JUMPDEST DUP1 PUSH1 0x20 DUP5 ADD PUSH1 0x20 DUP5 ADD CALLDATACOPY PUSH1 0x0 SWAP1 DUP3 ADD PUSH1 0x20 ADD MSTORE SWAP3 SWAP2 POP POP JUMP JUMPDEST PUSH1 0x0 PUSH1 0x20 DUP3 DUP5 SUB SLT ISZERO PUSH2 0x16B3 JUMPI DUP1 DUP2 REVERT JUMPDEST PUSH2 0x1056 DUP4 DUP4 PUSH2 0x14F6 JUMP JUMPDEST PUSH1 0x0 DUP1 PUSH1 0x40 DUP4 DUP6 SUB SLT ISZERO PUSH2 0x16CF JUMPI DUP1 DUP2 REVERT JUMPDEST PUSH2 0x16D9 DUP5 DUP5 PUSH2 0x14F6 JUMP JUMPDEST SWAP5 PUSH1 0x20 SWAP4 SWAP1 SWAP4 ADD CALLDATALOAD SWAP4 POP POP POP JUMP JUMPDEST PUSH1 0x0 PUSH1 0x20 DUP3 DUP5 SUB SLT ISZERO PUSH2 0x16F8 JUMPI DUP1 DUP2 REVERT JUMPDEST DUP2 CALLDATALOAD PUSH2 0x1056 DUP2 PUSH2 0x202B JUMP JUMPDEST PUSH1 0x0 PUSH1 0x20 DUP3 DUP5 SUB SLT ISZERO PUSH2 0x1714 JUMPI DUP1 DUP2 REVERT JUMPDEST DUP2 MLOAD PUSH2 0x1056 DUP2 PUSH2 0x202B JUMP JUMPDEST PUSH1 0x0 DUP1 PUSH1 0x0 DUP1 PUSH1 0x0 DUP1 PUSH1 0xC0 DUP8 DUP10 SUB SLT ISZERO PUSH2 0x1737 JUMPI DUP2 DUP3 REVERT JUMPDEST DUP7 CALLDATALOAD PUSH8 0xFFFFFFFFFFFFFFFF DUP1 DUP3 GT ISZERO PUSH2 0x174E JUMPI DUP4 DUP5 REVERT JUMPDEST PUSH2 0x175A DUP11 DUP4 DUP12 ADD PUSH2 0x1639 JUMP JUMPDEST SWAP8 POP PUSH1 0x20 DUP10 ADD CALLDATALOAD SWAP2 POP DUP1 DUP3 GT ISZERO PUSH2 0x176F JUMPI DUP4 DUP5 REVERT JUMPDEST PUSH2 0x177B DUP11 DUP4 DUP12 ADD PUSH2 0x1639 JUMP JUMPDEST SWAP7 POP PUSH1 0x40 DUP10 ADD CALLDATALOAD SWAP2 POP DUP1 DUP3 GT ISZERO PUSH2 0x1790 JUMPI DUP4 DUP5 REVERT JUMPDEST PUSH2 0x179C DUP11 DUP4 DUP12 ADD PUSH2 0x150D JUMP JUMPDEST SWAP6 POP PUSH1 0x60 DUP10 ADD CALLDATALOAD SWAP2 POP DUP1 DUP3 GT ISZERO PUSH2 0x17B1 JUMPI DUP4 DUP5 REVERT JUMPDEST PUSH2 0x17BD DUP11 DUP4 DUP12 ADD PUSH2 0x1583 JUMP JUMPDEST SWAP5 POP PUSH1 0x80 DUP10 ADD CALLDATALOAD SWAP2 POP DUP1 DUP3 GT ISZERO PUSH2 0x17D2 JUMPI DUP4 DUP5 REVERT JUMPDEST PUSH2 0x17DE DUP11 DUP4 DUP12 ADD PUSH2 0x15E1 JUMP JUMPDEST SWAP4 POP PUSH1 0xA0 DUP10 ADD CALLDATALOAD SWAP2 POP DUP1 DUP3 GT ISZERO PUSH2 0x17F3 JUMPI DUP3 DUP4 REVERT JUMPDEST POP PUSH2 0x1800 DUP10 DUP3 DUP11 ADD PUSH2 0x1583 JUMP JUMPDEST SWAP2 POP POP SWAP3 SWAP6 POP SWAP3 SWAP6 POP SWAP3 SWAP6 JUMP JUMPDEST PUSH1 0x0 DUP1 PUSH1 0x0 DUP1 PUSH1 0x0 DUP1 PUSH1 0x0 PUSH1 0xE0 DUP9 DUP11 SUB SLT ISZERO PUSH2 0x1827 JUMPI DUP1 DUP2 REVERT JUMPDEST DUP8 CALLDATALOAD PUSH8 0xFFFFFFFFFFFFFFFF DUP1 DUP3 GT ISZERO PUSH2 0x183E JUMPI DUP3 DUP4 REVERT JUMPDEST PUSH2 0x184A DUP12 DUP4 DUP13 ADD PUSH2 0x1639 JUMP JUMPDEST SWAP9 POP PUSH1 0x20 DUP11 ADD CALLDATALOAD SWAP2 POP DUP1 DUP3 GT ISZERO PUSH2 0x185F JUMPI DUP3 DUP4 REVERT JUMPDEST PUSH2 0x186B DUP12 DUP4 DUP13 ADD PUSH2 0x1639 JUMP JUMPDEST SWAP8 POP PUSH1 0x40 DUP11 ADD CALLDATALOAD SWAP2 POP DUP1 DUP3 GT ISZERO PUSH2 0x1880 JUMPI DUP3 DUP4 REVERT JUMPDEST PUSH2 0x188C DUP12 DUP4 DUP13 ADD PUSH2 0x1639 JUMP JUMPDEST SWAP7 POP PUSH1 0x60 DUP11 ADD CALLDATALOAD SWAP2 POP DUP1 DUP3 GT ISZERO PUSH2 0x18A1 JUMPI DUP3 DUP4 REVERT JUMPDEST PUSH2 0x18AD DUP12 DUP4 DUP13 ADD PUSH2 0x150D JUMP JUMPDEST SWAP6 POP PUSH1 0x80 DUP11 ADD CALLDATALOAD SWAP2 POP DUP1 DUP3 GT ISZERO PUSH2 0x18C2 JUMPI DUP3 DUP4 REVERT JUMPDEST PUSH2 0x18CE DUP12 DUP4 DUP13 ADD PUSH2 0x1583 JUMP JUMPDEST SWAP5 POP PUSH1 0xA0 DUP11 ADD CALLDATALOAD SWAP2 POP DUP1 DUP3 GT ISZERO PUSH2 0x18E3 JUMPI DUP3 DUP4 REVERT JUMPDEST PUSH2 0x18EF DUP12 DUP4 DUP13 ADD PUSH2 0x15E1 JUMP JUMPDEST SWAP4 POP PUSH1 0xC0 DUP11 ADD CALLDATALOAD SWAP2 POP DUP1 DUP3 GT ISZERO PUSH2 0x1904 JUMPI DUP3 DUP4 REVERT JUMPDEST POP PUSH2 0x1911 DUP11 DUP3 DUP12 ADD PUSH2 0x1583 JUMP JUMPDEST SWAP2 POP POP SWAP3 SWAP6 SWAP9 SWAP2 SWAP5 SWAP8 POP SWAP3 SWAP6 POP JUMP JUMPDEST PUSH1 0x0 PUSH1 0x20 DUP3 DUP5 SUB SLT ISZERO PUSH2 0x1931 JUMPI DUP1 DUP2 REVERT JUMPDEST POP CALLDATALOAD SWAP2 SWAP1 POP JUMP JUMPDEST PUSH1 0x0 PUSH1 0x20 DUP3 DUP5 SUB SLT ISZERO PUSH2 0x1949 JUMPI DUP1 DUP2 REVERT JUMPDEST POP MLOAD SWAP2 SWAP1 POP JUMP JUMPDEST PUSH1 0x1 PUSH1 0x1 PUSH1 0xA0 SHL SUB AND DUP2 MSTORE PUSH1 0x20 ADD SWAP1 JUMP JUMPDEST PUSH1 0x1 PUSH1 0x1 PUSH1 0xA0 SHL SUB AND SWAP1 MSTORE JUMP JUMPDEST PUSH1 0x0 DUP2 MLOAD DUP1 DUP5 MSTORE PUSH1 0x20 DUP1 DUP6 ADD SWAP5 POP DUP1 DUP5 ADD DUP4 JUMPDEST DUP4 DUP2 LT ISZERO PUSH2 0x199D JUMPI DUP2 MLOAD DUP8 MSTORE SWAP6 DUP3 ADD SWAP6 SWAP1 DUP3 ADD SWAP1 PUSH1 0x1 ADD PUSH2 0x1981 JUMP JUMPDEST POP SWAP5 SWAP6 SWAP5 POP POP POP POP POP JUMP JUMPDEST PUSH1 0x0 DUP2 SLOAD DUP1 DUP5 MSTORE PUSH1 0x20 DUP1 DUP6 ADD SWAP5 POP DUP4 DUP4 MSTORE DUP1 DUP4 KECCAK256 DUP4 JUMPDEST DUP4 DUP2 LT ISZERO PUSH2 0x199D JUMPI DUP2 SLOAD DUP8 MSTORE SWAP6 DUP3 ADD SWAP6 PUSH1 0x1 SWAP2 DUP3 ADD SWAP2 ADD PUSH2 0x19BE JUMP JUMPDEST PUSH1 0x0 DUP3 DUP3 MLOAD DUP1 DUP6 MSTORE PUSH1 0x20 DUP1 DUP7 ADD SWAP6 POP DUP1 DUP2 DUP4 MUL DUP5 ADD ADD DUP2 DUP7 ADD DUP6 JUMPDEST DUP5 DUP2 LT ISZERO PUSH2 0x1A23 JUMPI PUSH1 0x1F NOT DUP7 DUP5 SUB ADD DUP10 MSTORE PUSH2 0x1A11 DUP4 DUP4 MLOAD PUSH2 0x1A75 JUMP JUMPDEST SWAP9 DUP5 ADD SWAP9 SWAP3 POP SWAP1 DUP4 ADD SWAP1 PUSH1 0x1 ADD PUSH2 0x19F5 JUMP JUMPDEST POP SWAP1 SWAP8 SWAP7 POP POP POP POP POP POP POP JUMP JUMPDEST PUSH1 0x0 DUP2 SLOAD DUP1 DUP5 MSTORE PUSH1 0x20 DUP1 DUP6 ADD SWAP5 POP DUP5 DUP2 DUP4 MUL DUP7 ADD DUP6 DUP6 MSTORE DUP3 DUP6 KECCAK256 DUP6 JUMPDEST DUP6 DUP2 LT ISZERO PUSH2 0x1A23 JUMPI DUP4 DUP4 SUB DUP10 MSTORE PUSH2 0x1A63 DUP4 DUP4 PUSH2 0x1AA1 JUMP JUMPDEST SWAP9 DUP6 ADD SWAP9 SWAP3 POP PUSH1 0x1 SWAP2 DUP3 ADD SWAP2 ADD PUSH2 0x1A4C JUMP JUMPDEST PUSH1 0x0 DUP2 MLOAD DUP1 DUP5 MSTORE PUSH2 0x1A8D DUP2 PUSH1 0x20 DUP7 ADD PUSH1 0x20 DUP7 ADD PUSH2 0x1FFF JUMP JUMPDEST PUSH1 0x1F ADD PUSH1 0x1F NOT AND SWAP3 SWAP1 SWAP3 ADD PUSH1 0x20 ADD SWAP3 SWAP2 POP POP JUMP JUMPDEST PUSH1 0x0 DUP2 SLOAD PUSH1 0x1 DUP1 DUP3 AND PUSH1 0x0 DUP2 EQ PUSH2 0x1ABF JUMPI PUSH1 0x1 DUP2 EQ PUSH2 0x1ADD JUMPI PUSH2 0x1B1B JUMP JUMPDEST PUSH1 0x2 DUP4 DIV PUSH1 0x7F AND DUP7 MSTORE PUSH1 0xFF NOT DUP4 AND PUSH1 0x20 DUP8 ADD MSTORE PUSH1 0x40 DUP7 ADD SWAP4 POP PUSH2 0x1B1B JUMP JUMPDEST PUSH1 0x2 DUP4 DIV DUP1 DUP8 MSTORE PUSH2 0x1AED DUP7 PUSH2 0x1FF3 JUMP JUMPDEST PUSH1 0x0 JUMPDEST DUP3 DUP2 LT ISZERO PUSH2 0x1B11 JUMPI DUP2 SLOAD PUSH1 0x20 DUP3 DUP12 ADD ADD MSTORE DUP5 DUP3 ADD SWAP2 POP PUSH1 0x20 DUP2 ADD SWAP1 POP PUSH2 0x1AF0 JUMP JUMPDEST DUP9 ADD PUSH1 0x20 ADD SWAP6 POP POP POP JUMPDEST POP POP POP SWAP3 SWAP2 POP POP JUMP JUMPDEST PUSH1 0x0 DUP3 MLOAD PUSH2 0x1B36 DUP2 DUP5 PUSH1 0x20 DUP8 ADD PUSH2 0x1FFF JUMP JUMPDEST SWAP2 SWAP1 SWAP2 ADD SWAP3 SWAP2 POP POP JUMP JUMPDEST PUSH1 0x0 DUP1 DUP4 SLOAD PUSH1 0x1 DUP1 DUP3 AND PUSH1 0x0 DUP2 EQ PUSH2 0x1B5F JUMPI PUSH1 0x1 DUP2 EQ PUSH2 0x1B76 JUMPI PUSH2 0x1BA5 JUMP JUMPDEST PUSH1 0xFF NOT DUP4 AND DUP7 MSTORE PUSH1 0x2 DUP4 DIV PUSH1 0x7F AND DUP7 ADD SWAP4 POP PUSH2 0x1BA5 JUMP JUMPDEST PUSH1 0x2 DUP4 DIV DUP8 DUP7 MSTORE PUSH1 0x20 DUP1 DUP8 KECCAK256 DUP8 JUMPDEST DUP4 DUP2 LT ISZERO PUSH2 0x1B9D JUMPI DUP2 SLOAD DUP11 DUP3 ADD MSTORE SWAP1 DUP6 ADD SWAP1 DUP3 ADD PUSH2 0x1B84 JUMP JUMPDEST POP POP POP DUP7 ADD SWAP4 POP JUMPDEST POP SWAP2 SWAP6 SWAP5 POP POP POP POP POP JUMP JUMPDEST PUSH1 0x1 PUSH1 0x1 PUSH1 0xA0 SHL SUB SWAP2 SWAP1 SWAP2 AND DUP2 MSTORE PUSH1 0x20 ADD SWAP1 JUMP JUMPDEST PUSH1 0x1 PUSH1 0x1 PUSH1 0xA0 SHL SUB SWAP4 DUP5 AND DUP2 MSTORE SWAP2 SWAP1 SWAP3 AND PUSH1 0x20 DUP3 ADD MSTORE PUSH1 0x40 DUP2 ADD SWAP2 SWAP1 SWAP2 MSTORE PUSH1 0x60 ADD SWAP1 JUMP JUMPDEST PUSH1 0x1 PUSH1 0x1 PUSH1 0xA0 SHL SUB SWAP3 SWAP1 SWAP3 AND DUP3 MSTORE PUSH1 0x20 DUP3 ADD MSTORE PUSH1 0x40 ADD SWAP1 JUMP JUMPDEST SWAP1 ISZERO ISZERO DUP2 MSTORE PUSH1 0x20 ADD SWAP1 JUMP JUMPDEST PUSH1 0x0 PUSH1 0x20 DUP3 MSTORE PUSH2 0x1056 PUSH1 0x20 DUP4 ADD DUP5 PUSH2 0x1A75 JUMP JUMPDEST PUSH1 0x0 PUSH1 0xC0 DUP3 MSTORE PUSH2 0x1C32 PUSH1 0xC0 DUP4 ADD DUP10 PUSH2 0x1A75 JUMP JUMPDEST PUSH1 0x20 DUP4 DUP3 SUB DUP2 DUP6 ADD MSTORE PUSH2 0x1C45 DUP3 DUP11 PUSH2 0x1A75 JUMP JUMPDEST DUP5 DUP2 SUB PUSH1 0x40 DUP7 ADD MSTORE DUP1 SWAP3 POP DUP9 MLOAD PUSH2 0x1C5C DUP2 DUP4 PUSH2 0x1FA3 JUMP JUMPDEST SWAP4 POP DUP3 DUP11 ADD SWAP2 POP DUP5 JUMPDEST DUP2 DUP2 LT ISZERO PUSH2 0x1C86 JUMPI PUSH2 0x1C78 DUP6 DUP5 MLOAD PUSH2 0x1950 JUMP JUMPDEST SWAP5 POP SWAP2 DUP4 ADD SWAP2 PUSH1 0x1 ADD PUSH2 0x1C65 JUMP JUMPDEST POP POP POP POP DUP3 DUP2 SUB PUSH1 0x60 DUP5 ADD MSTORE PUSH2 0x1C9C DUP2 DUP8 PUSH2 0x196E JUMP JUMPDEST DUP4 DUP2 SUB PUSH1 0x80 DUP6 ADD MSTORE PUSH2 0x1CAE DUP2 DUP8 PUSH2 0x19DA JUMP JUMPDEST SWAP2 POP POP DUP3 DUP2 SUB PUSH1 0xA0 DUP5 ADD MSTORE PUSH2 0x1CC3 DUP2 DUP6 PUSH2 0x196E JUMP JUMPDEST SWAP10 SWAP9 POP POP POP POP POP POP POP POP POP JUMP JUMPDEST PUSH1 0x0 PUSH1 0xC0 DUP3 MSTORE PUSH2 0x1CE3 PUSH1 0xC0 DUP4 ADD DUP10 PUSH2 0x1AA1 JUMP JUMPDEST PUSH1 0x20 DUP4 DUP3 SUB DUP2 DUP6 ADD MSTORE PUSH2 0x1CF6 DUP3 DUP11 PUSH2 0x1AA1 JUMP JUMPDEST DUP5 DUP2 SUB PUSH1 0x40 DUP7 ADD MSTORE DUP9 SLOAD DUP1 DUP3 MSTORE DUP10 DUP6 MSTORE DUP3 DUP6 KECCAK256 SWAP2 DUP4 ADD SWAP4 POP DUP5 JUMPDEST DUP2 DUP2 LT ISZERO PUSH2 0x1D3E JUMPI DUP3 SLOAD PUSH2 0x1D2E SWAP1 DUP7 SWAP1 PUSH1 0x1 PUSH1 0x1 PUSH1 0xA0 SHL SUB AND PUSH2 0x1961 JUMP JUMPDEST SWAP4 DUP4 ADD SWAP4 PUSH1 0x1 SWAP3 DUP4 ADD SWAP3 ADD PUSH2 0x1D10 JUMP JUMPDEST POP POP POP POP DUP3 DUP2 SUB PUSH1 0x60 DUP5 ADD MSTORE PUSH2 0x1D54 DUP2 DUP8 PUSH2 0x19A8 JUMP JUMPDEST DUP4 DUP2 SUB PUSH1 0x80 DUP6 ADD MSTORE PUSH2 0x1D66 DUP2 DUP8 PUSH2 0x1A30 JUMP JUMPDEST SWAP2 POP POP DUP3 DUP2 SUB PUSH1 0xA0 DUP5 ADD MSTORE PUSH2 0x1CC3 DUP2 DUP6 PUSH2 0x19A8 JUMP JUMPDEST PUSH1 0x20 DUP1 DUP3 MSTORE PUSH1 0x18 SWAP1 DUP3 ADD MSTORE PUSH32 0x566F74696E6720706572696F642068617320656E6465642E0000000000000000 PUSH1 0x40 DUP3 ADD MSTORE PUSH1 0x60 ADD SWAP1 JUMP JUMPDEST PUSH1 0x20 DUP1 DUP3 MSTORE PUSH1 0x1B SWAP1 DUP3 ADD MSTORE PUSH32 0x536166654D6174683A206164646974696F6E206F766572666C6F770000000000 PUSH1 0x40 DUP3 ADD MSTORE PUSH1 0x60 ADD SWAP1 JUMP JUMPDEST PUSH1 0x20 DUP1 DUP3 MSTORE PUSH1 0x1E SWAP1 DUP3 ADD MSTORE PUSH32 0x566F74696E6720706572696F6420686173206E6F7420737461727465642E0000 PUSH1 0x40 DUP3 ADD MSTORE PUSH1 0x60 ADD SWAP1 JUMP JUMPDEST PUSH1 0x20 DUP1 DUP3 MSTORE PUSH1 0x26 SWAP1 DUP3 ADD MSTORE PUSH32 0x416464726573733A20696E73756666696369656E742062616C616E636520666F PUSH1 0x40 DUP3 ADD MSTORE PUSH6 0x1C8818D85B1B PUSH1 0xD2 SHL PUSH1 0x60 DUP3 ADD MSTORE PUSH1 0x80 ADD SWAP1 JUMP JUMPDEST PUSH1 0x20 DUP1 DUP3 MSTORE PUSH1 0x24 SWAP1 DUP3 ADD MSTORE PUSH32 0x596F7520617265206E6F7420696E206120646973747269627574696F6E207065 PUSH1 0x40 DUP3 ADD MSTORE PUSH4 0x1C9A5BD9 PUSH1 0xE2 SHL PUSH1 0x60 DUP3 ADD MSTORE PUSH1 0x80 ADD SWAP1 JUMP JUMPDEST PUSH1 0x20 DUP1 DUP3 MSTORE PUSH1 0x21 SWAP1 DUP3 ADD MSTORE PUSH32 0x536166654D6174683A206D756C7469706C69636174696F6E206F766572666C6F PUSH1 0x40 DUP3 ADD MSTORE PUSH1 0x77 PUSH1 0xF8 SHL PUSH1 0x60 DUP3 ADD MSTORE PUSH1 0x80 ADD SWAP1 JUMP JUMPDEST PUSH1 0x20 DUP1 DUP3 MSTORE PUSH1 0x1E SWAP1 DUP3 ADD MSTORE PUSH32 0x6B53454544206973207374696C6C206C6F636B656420666F7220766F74650000 PUSH1 0x40 DUP3 ADD MSTORE PUSH1 0x60 ADD SWAP1 JUMP JUMPDEST PUSH1 0x20 DUP1 DUP3 MSTORE PUSH1 0x1D SWAP1 DUP3 ADD MSTORE PUSH32 0x416464726573733A2063616C6C20746F206E6F6E2D636F6E7472616374000000 PUSH1 0x40 DUP3 ADD MSTORE PUSH1 0x60 ADD SWAP1 JUMP JUMPDEST PUSH1 0x20 DUP1 DUP3 MSTORE PUSH1 0x2A SWAP1 DUP3 ADD MSTORE PUSH32 0x5361666545524332303A204552433230206F7065726174696F6E20646964206E PUSH1 0x40 DUP3 ADD MSTORE PUSH10 0x1BDD081CDD58D8D95959 PUSH1 0xB2 SHL PUSH1 0x60 DUP3 ADD MSTORE PUSH1 0x80 ADD SWAP1 JUMP JUMPDEST SWAP1 DUP2 MSTORE PUSH1 0x20 ADD SWAP1 JUMP JUMPDEST PUSH1 0x40 MLOAD DUP2 DUP2 ADD PUSH8 0xFFFFFFFFFFFFFFFF DUP2 GT DUP3 DUP3 LT OR ISZERO PUSH2 0x1FCB JUMPI PUSH1 0x0 DUP1 REVERT JUMPDEST PUSH1 0x40 MSTORE SWAP2 SWAP1 POP JUMP JUMPDEST PUSH1 0x0 PUSH8 0xFFFFFFFFFFFFFFFF DUP3 GT ISZERO PUSH2 0x1FE9 JUMPI DUP1 DUP2 REVERT JUMPDEST POP PUSH1 0x20 SWAP1 DUP2 MUL ADD SWAP1 JUMP JUMPDEST PUSH1 0x0 SWAP1 DUP2 MSTORE PUSH1 0x20 SWAP1 KECCAK256 SWAP1 JUMP JUMPDEST PUSH1 0x0 JUMPDEST DUP4 DUP2 LT ISZERO PUSH2 0x201A JUMPI DUP2 DUP2 ADD MLOAD DUP4 DUP3 ADD MSTORE PUSH1 0x20 ADD PUSH2 0x2002 JUMP JUMPDEST DUP4 DUP2 GT ISZERO PUSH2 0x102B JUMPI POP POP PUSH1 0x0 SWAP2 ADD MSTORE JUMP JUMPDEST DUP1 ISZERO ISZERO DUP2 EQ PUSH2 0x14F3 JUMPI PUSH1 0x0 DUP1 REVERT INVALID LOG2 PUSH5 0x6970667358 0x22 SLT KECCAK256 ADD PUSH7 0x302CF64562660E SHR SWAP8 0x25 PUSH11 0xF879B180CB8F515B396B59 0xD9 SWAP4 0xCD SAR SELFBALANCE CODECOPY ADD BYTE PUSH5 0x736F6C6343 STOP MOD MOD STOP CALLER "
		},
		"gasEstimates": {
			"creation": {
				"codeDepositCost": "1660600",
				"executionCost": "144240",
				"totalCost": "1804840"
			},
			"external": {
				"addChainBid(string,string,string,address[],uint256[],string[],bytes32[])": "infinite",
				"approveContract(address,uint256)": "infinite",
				"burnkKush()": "1095",
				"canDistribute()": "1095",
				"claimDistribution(address,uint256)": "infinite",
				"connectorAddress()": "1181",
				"costPerVote()": "1117",
				"currentDistributionAddress()": "1215",
				"currentDistributionAmount()": "1140",
				"currentDistributionAmountClaimed()": "1118",
				"currentDistributionEndBlock()": "1118",
				"currentVotingEndBlock()": "1094",
				"currentVotingStartBlock()": "1096",
				"distributeFunds(address,uint256)": "1219",
				"executeBid(string,string,address[],uint256[],string[],bytes32[])": "infinite",
				"isDistributing()": "1086",
				"isRewardingkKush()": "1096",
				"isVotingPeriod()": "1128",
				"kkushAddress()": "1182",
				"kkushCost()": "1140",
				"kseedAddress()": "1139",
				"kushOGAddress()": "1204",
				"kushOGUni()": "1161",
				"lastDistributionBlock()": "1160",
				"owner()": "1137",
				"proposeBid(string,string,address[],uint256[],string[],bytes32[])": "infinite",
				"setConnector(address)": "infinite",
				"setIsRewardingkKush(bool)": "22049",
				"setVotingPeriodBlockLength(uint256)": "21197",
				"setkKushAddress(address)": "infinite",
				"setkSeedAddress(address)": "infinite",
				"setkushOGAddress(address)": "infinite",
				"topBidAddress()": "1180",
				"uniswapAddress()": "1183",
				"voteForBid(address,uint256)": "infinite",
				"votingPeriodBlockLength()": "1096",
				"withdrawBidkSeed()": "infinite",
				"withdrawDistributionkSeed()": "211"
			}
		},
		"methodIdentifiers": {
			"addChainBid(string,string,string,address[],uint256[],string[],bytes32[])": "5f23eab2",
			"approveContract(address,uint256)": "5e65aff8",
			"burnkKush()": "9f2b7864",
			"canDistribute()": "d677947e",
			"claimDistribution(address,uint256)": "6b39913e",
			"connectorAddress()": "bff9662a",
			"costPerVote()": "b2d73213",
			"currentDistributionAddress()": "31ca6c1b",
			"currentDistributionAmount()": "7faddcfb",
			"currentDistributionAmountClaimed()": "50348a34",
			"currentDistributionEndBlock()": "244f73cf",
			"currentVotingEndBlock()": "e1095bed",
			"currentVotingStartBlock()": "137e2377",
			"distributeFunds(address,uint256)": "071e9a76",
			"executeBid(string,string,address[],uint256[],string[],bytes32[])": "6bbb8d70",
			"isDistributing()": "45153af8",
			"isRewardingkKush()": "5a8eae8c",
			"isVotingPeriod()": "e16fd62e",
			"kkushAddress()": "276d6920",
			"kkushCost()": "5105638c",
			"kseedAddress()": "0a6dc7f8",
			"kushOGAddress()": "54053622",
			"kushOGUni()": "0c91aea6",
			"lastDistributionBlock()": "f2bc79a3",
			"owner()": "8da5cb5b",
			"proposeBid(string,string,address[],uint256[],string[],bytes32[])": "755452d7",
			"setConnector(address)": "10188aef",
			"setIsRewardingkKush(bool)": "74d4017d",
			"setVotingPeriodBlockLength(uint256)": "c1e7249b",
			"setkKushAddress(address)": "83c894a8",
			"setkSeedAddress(address)": "a22e4403",
			"setkushOGAddress(address)": "92b5bc24",
			"topBidAddress()": "e3829c0b",
			"uniswapAddress()": "0e2feb05",
			"voteForBid(address,uint256)": "69dcf683",
			"votingPeriodBlockLength()": "4fe09390",
			"withdrawBidkSeed()": "a397e77d",
			"withdrawDistributionkSeed()": "a51b3db4"
		}
	},
	"abi": [
		{
			"inputs": [],
			"stateMutability": "nonpayable",
			"type": "constructor"
		},
		{
			"inputs": [
				{
					"internalType": "string",
					"name": "id",
					"type": "string"
				},
				{
					"internalType": "string",
					"name": "_functionCode",
					"type": "string"
				},
				{
					"internalType": "string",
					"name": "_functionName",
					"type": "string"
				},
				{
					"internalType": "address[]",
					"name": "_addresses",
					"type": "address[]"
				},
				{
					"internalType": "uint256[]",
					"name": "_integers",
					"type": "uint256[]"
				},
				{
					"internalType": "string[]",
					"name": "_strings",
					"type": "string[]"
				},
				{
					"internalType": "bytes32[]",
					"name": "_bytesArr",
					"type": "bytes32[]"
				}
			],
			"name": "addChainBid",
			"outputs": [],
			"stateMutability": "nonpayable",
			"type": "function"
		},
		{
			"inputs": [
				{
					"internalType": "address",
					"name": "_addr",
					"type": "address"
				},
				{
					"internalType": "uint256",
					"name": "_amount",
					"type": "uint256"
				}
			],
			"name": "approveContract",
			"outputs": [],
			"stateMutability": "nonpayable",
			"type": "function"
		},
		{
			"inputs": [],
			"name": "burnkKush",
			"outputs": [],
			"stateMutability": "nonpayable",
			"type": "function"
		},
		{
			"inputs": [],
			"name": "canDistribute",
			"outputs": [
				{
					"internalType": "bool",
					"name": "",
					"type": "bool"
				}
			],
			"stateMutability": "view",
			"type": "function"
		},
		{
			"inputs": [
				{
					"internalType": "address",
					"name": "_claimer",
					"type": "address"
				},
				{
					"internalType": "uint256",
					"name": "_amount",
					"type": "uint256"
				}
			],
			"name": "claimDistribution",
			"outputs": [],
			"stateMutability": "nonpayable",
			"type": "function"
		},
		{
			"inputs": [],
			"name": "connectorAddress",
			"outputs": [
				{
					"internalType": "address",
					"name": "",
					"type": "address"
				}
			],
			"stateMutability": "view",
			"type": "function"
		},
		{
			"inputs": [],
			"name": "costPerVote",
			"outputs": [
				{
					"internalType": "uint256",
					"name": "",
					"type": "uint256"
				}
			],
			"stateMutability": "view",
			"type": "function"
		},
		{
			"inputs": [],
			"name": "currentDistributionAddress",
			"outputs": [
				{
					"internalType": "address",
					"name": "",
					"type": "address"
				}
			],
			"stateMutability": "view",
			"type": "function"
		},
		{
			"inputs": [],
			"name": "currentDistributionAmount",
			"outputs": [
				{
					"internalType": "uint256",
					"name": "",
					"type": "uint256"
				}
			],
			"stateMutability": "view",
			"type": "function"
		},
		{
			"inputs": [],
			"name": "currentDistributionAmountClaimed",
			"outputs": [
				{
					"internalType": "uint256",
					"name": "",
					"type": "uint256"
				}
			],
			"stateMutability": "view",
			"type": "function"
		},
		{
			"inputs": [],
			"name": "currentDistributionEndBlock",
			"outputs": [
				{
					"internalType": "uint256",
					"name": "",
					"type": "uint256"
				}
			],
			"stateMutability": "view",
			"type": "function"
		},
		{
			"inputs": [],
			"name": "currentVotingEndBlock",
			"outputs": [
				{
					"internalType": "uint256",
					"name": "",
					"type": "uint256"
				}
			],
			"stateMutability": "view",
			"type": "function"
		},
		{
			"inputs": [],
			"name": "currentVotingStartBlock",
			"outputs": [
				{
					"internalType": "uint256",
					"name": "",
					"type": "uint256"
				}
			],
			"stateMutability": "view",
			"type": "function"
		},
		{
			"inputs": [
				{
					"internalType": "address",
					"name": "_addr",
					"type": "address"
				},
				{
					"internalType": "uint256",
					"name": "_amount",
					"type": "uint256"
				}
			],
			"name": "distributeFunds",
			"outputs": [],
			"stateMutability": "nonpayable",
			"type": "function"
		},
		{
			"inputs": [
				{
					"internalType": "string",
					"name": "_functionCode",
					"type": "string"
				},
				{
					"internalType": "string",
					"name": "_functionName",
					"type": "string"
				},
				{
					"internalType": "address[]",
					"name": "_addresses",
					"type": "address[]"
				},
				{
					"internalType": "uint256[]",
					"name": "integers",
					"type": "uint256[]"
				},
				{
					"internalType": "string[]",
					"name": "strings",
					"type": "string[]"
				},
				{
					"internalType": "bytes32[]",
					"name": "bytesArr",
					"type": "bytes32[]"
				}
			],
			"name": "executeBid",
			"outputs": [],
			"stateMutability": "nonpayable",
			"type": "function"
		},
		{
			"inputs": [],
			"name": "isDistributing",
			"outputs": [
				{
					"internalType": "bool",
					"name": "",
					"type": "bool"
				}
			],
			"stateMutability": "view",
			"type": "function"
		},
		{
			"inputs": [],
			"name": "isRewardingkKush",
			"outputs": [
				{
					"internalType": "bool",
					"name": "",
					"type": "bool"
				}
			],
			"stateMutability": "view",
			"type": "function"
		},
		{
			"inputs": [],
			"name": "isVotingPeriod",
			"outputs": [
				{
					"internalType": "bool",
					"name": "",
					"type": "bool"
				}
			],
			"stateMutability": "view",
			"type": "function"
		},
		{
			"inputs": [],
			"name": "kkushAddress",
			"outputs": [
				{
					"internalType": "address",
					"name": "",
					"type": "address"
				}
			],
			"stateMutability": "view",
			"type": "function"
		},
		{
			"inputs": [],
			"name": "kkushCost",
			"outputs": [
				{
					"internalType": "uint256",
					"name": "",
					"type": "uint256"
				}
			],
			"stateMutability": "view",
			"type": "function"
		},
		{
			"inputs": [],
			"name": "kseedAddress",
			"outputs": [
				{
					"internalType": "address",
					"name": "",
					"type": "address"
				}
			],
			"stateMutability": "view",
			"type": "function"
		},
		{
			"inputs": [],
			"name": "kushOGAddress",
			"outputs": [
				{
					"internalType": "address",
					"name": "",
					"type": "address"
				}
			],
			"stateMutability": "view",
			"type": "function"
		},
		{
			"inputs": [],
			"name": "kushOGUni",
			"outputs": [
				{
					"internalType": "address",
					"name": "",
					"type": "address"
				}
			],
			"stateMutability": "view",
			"type": "function"
		},
		{
			"inputs": [],
			"name": "lastDistributionBlock",
			"outputs": [
				{
					"internalType": "uint256",
					"name": "",
					"type": "uint256"
				}
			],
			"stateMutability": "view",
			"type": "function"
		},
		{
			"inputs": [],
			"name": "owner",
			"outputs": [
				{
					"internalType": "address",
					"name": "",
					"type": "address"
				}
			],
			"stateMutability": "view",
			"type": "function"
		},
		{
			"inputs": [
				{
					"internalType": "string",
					"name": "_functionCode",
					"type": "string"
				},
				{
					"internalType": "string",
					"name": "_functionName",
					"type": "string"
				},
				{
					"internalType": "address[]",
					"name": "_addresses",
					"type": "address[]"
				},
				{
					"internalType": "uint256[]",
					"name": "_integers",
					"type": "uint256[]"
				},
				{
					"internalType": "string[]",
					"name": "_strings",
					"type": "string[]"
				},
				{
					"internalType": "bytes32[]",
					"name": "_bytesArr",
					"type": "bytes32[]"
				}
			],
			"name": "proposeBid",
			"outputs": [],
			"stateMutability": "nonpayable",
			"type": "function"
		},
		{
			"inputs": [
				{
					"internalType": "address",
					"name": "_connector",
					"type": "address"
				}
			],
			"name": "setConnector",
			"outputs": [],
			"stateMutability": "nonpayable",
			"type": "function"
		},
		{
			"inputs": [
				{
					"internalType": "bool",
					"name": "_isRewarding",
					"type": "bool"
				}
			],
			"name": "setIsRewardingkKush",
			"outputs": [],
			"stateMutability": "nonpayable",
			"type": "function"
		},
		{
			"inputs": [
				{
					"internalType": "uint256",
					"name": "_blocks",
					"type": "uint256"
				}
			],
			"name": "setVotingPeriodBlockLength",
			"outputs": [],
			"stateMutability": "nonpayable",
			"type": "function"
		},
		{
			"inputs": [
				{
					"internalType": "address",
					"name": "_addr",
					"type": "address"
				}
			],
			"name": "setkKushAddress",
			"outputs": [],
			"stateMutability": "nonpayable",
			"type": "function"
		},
		{
			"inputs": [
				{
					"internalType": "address",
					"name": "_addr",
					"type": "address"
				}
			],
			"name": "setkSeedAddress",
			"outputs": [],
			"stateMutability": "nonpayable",
			"type": "function"
		},
		{
			"inputs": [
				{
					"internalType": "address",
					"name": "_addr",
					"type": "address"
				}
			],
			"name": "setkushOGAddress",
			"outputs": [],
			"stateMutability": "nonpayable",
			"type": "function"
		},
		{
			"inputs": [],
			"name": "topBidAddress",
			"outputs": [
				{
					"internalType": "address",
					"name": "",
					"type": "address"
				}
			],
			"stateMutability": "view",
			"type": "function"
		},
		{
			"inputs": [],
			"name": "uniswapAddress",
			"outputs": [
				{
					"internalType": "address",
					"name": "",
					"type": "address"
				}
			],
			"stateMutability": "view",
			"type": "function"
		},
		{
			"inputs": [
				{
					"internalType": "address",
					"name": "_bidAddr",
					"type": "address"
				},
				{
					"internalType": "uint256",
					"name": "votes",
					"type": "uint256"
				}
			],
			"name": "voteForBid",
			"outputs": [],
			"stateMutability": "nonpayable",
			"type": "function"
		},
		{
			"inputs": [],
			"name": "votingPeriodBlockLength",
			"outputs": [
				{
					"internalType": "uint256",
					"name": "",
					"type": "uint256"
				}
			],
			"stateMutability": "view",
			"type": "function"
		},
		{
			"inputs": [],
			"name": "withdrawBidkSeed",
			"outputs": [],
			"stateMutability": "nonpayable",
			"type": "function"
		},
		{
			"inputs": [],
			"name": "withdrawDistributionkSeed",
			"outputs": [],
			"stateMutability": "nonpayable",
			"type": "function"
		}
	]
}