{
	"data": {
		"bytecode": {
			"linkReferences": {},
			"object": "608060405234801561001057600080fd5b5060e78061001f6000396000f3fe6080604052348015600f57600080fd5b5060043610603c5760003560e01c806382692679146041578063a7856c3814605b578063edcceda314606a575b600080fd5b6047607b565b6040516052919060a8565b60405180910390f35b604760663660046086565b6080565b6070607b565b60405160529190609d565b600090565b50600090565b6000602082840312156096578081fd5b5035919050565b901515815260200190565b9081526020019056fea26469706673582212205e67dee5637cabe6e89ebefaf8e32d0e87fabe83be6b85adf335989d4567a62464736f6c63430006060033",
			"opcodes": "PUSH1 0x80 PUSH1 0x40 MSTORE CALLVALUE DUP1 ISZERO PUSH2 0x10 JUMPI PUSH1 0x0 DUP1 REVERT JUMPDEST POP PUSH1 0xE7 DUP1 PUSH2 0x1F PUSH1 0x0 CODECOPY PUSH1 0x0 RETURN INVALID PUSH1 0x80 PUSH1 0x40 MSTORE CALLVALUE DUP1 ISZERO PUSH1 0xF JUMPI PUSH1 0x0 DUP1 REVERT JUMPDEST POP PUSH1 0x4 CALLDATASIZE LT PUSH1 0x3C JUMPI PUSH1 0x0 CALLDATALOAD PUSH1 0xE0 SHR DUP1 PUSH4 0x82692679 EQ PUSH1 0x41 JUMPI DUP1 PUSH4 0xA7856C38 EQ PUSH1 0x5B JUMPI DUP1 PUSH4 0xEDCCEDA3 EQ PUSH1 0x6A JUMPI JUMPDEST PUSH1 0x0 DUP1 REVERT JUMPDEST PUSH1 0x47 PUSH1 0x7B JUMP JUMPDEST PUSH1 0x40 MLOAD PUSH1 0x52 SWAP2 SWAP1 PUSH1 0xA8 JUMP JUMPDEST PUSH1 0x40 MLOAD DUP1 SWAP2 SUB SWAP1 RETURN JUMPDEST PUSH1 0x47 PUSH1 0x66 CALLDATASIZE PUSH1 0x4 PUSH1 0x86 JUMP JUMPDEST PUSH1 0x80 JUMP JUMPDEST PUSH1 0x70 PUSH1 0x7B JUMP JUMPDEST PUSH1 0x40 MLOAD PUSH1 0x52 SWAP2 SWAP1 PUSH1 0x9D JUMP JUMPDEST PUSH1 0x0 SWAP1 JUMP JUMPDEST POP PUSH1 0x0 SWAP1 JUMP JUMPDEST PUSH1 0x0 PUSH1 0x20 DUP3 DUP5 SUB SLT ISZERO PUSH1 0x96 JUMPI DUP1 DUP2 REVERT JUMPDEST POP CALLDATALOAD SWAP2 SWAP1 POP JUMP JUMPDEST SWAP1 ISZERO ISZERO DUP2 MSTORE PUSH1 0x20 ADD SWAP1 JUMP JUMPDEST SWAP1 DUP2 MSTORE PUSH1 0x20 ADD SWAP1 JUMP INVALID LOG2 PUSH5 0x6970667358 0x22 SLT KECCAK256 0x5E PUSH8 0xDEE5637CABE6E89E 0xBE STATICCALL 0xF8 0xE3 0x2D 0xE DUP8 STATICCALL 0xBE DUP4 0xBE PUSH12 0x85ADF335989D4567A6246473 PUSH16 0x6C634300060600330000000000000000 "
		},
		"gasEstimates": {
			"creation": {
				"codeDepositCost": "46200",
				"executionCost": "99",
				"totalCost": "46299"
			},
			"external": {
				"doSomething()": "206",
				"somethingElse()": "256",
				"testMethod3(uint256)": "307"
			}
		},
		"methodIdentifiers": {
			"doSomething()": "82692679",
			"somethingElse()": "edcceda3",
			"testMethod3(uint256)": "a7856c38"
		}
	},
	"abi": [
		{
			"inputs": [],
			"name": "doSomething",
			"outputs": [
				{
					"internalType": "uint256",
					"name": "",
					"type": "uint256"
				}
			],
			"stateMutability": "nonpayable",
			"type": "function"
		},
		{
			"inputs": [],
			"name": "somethingElse",
			"outputs": [
				{
					"internalType": "bool",
					"name": "isTrue",
					"type": "bool"
				}
			],
			"stateMutability": "nonpayable",
			"type": "function"
		},
		{
			"inputs": [
				{
					"internalType": "uint256",
					"name": "amount",
					"type": "uint256"
				}
			],
			"name": "testMethod3",
			"outputs": [
				{
					"internalType": "uint256",
					"name": "",
					"type": "uint256"
				}
			],
			"stateMutability": "nonpayable",
			"type": "function"
		}
	]
}