{
  "contractName": "Connector",
  "abi": [
    {
      "inputs": [],
      "name": "testNum",
      "outputs": [
        {
          "internalType": "uint256",
          "name": "",
          "type": "uint256"
        }
      ],
      "stateMutability": "view",
      "type": "function"
    },
    {
      "inputs": [
        {
          "internalType": "address",
          "name": "_addr",
          "type": "address"
        }
      ],
      "name": "setTestInterface",
      "outputs": [],
      "stateMutability": "nonpayable",
      "type": "function"
    },
    {
      "inputs": [
        {
          "internalType": "string",
          "name": "functionCode",
          "type": "string"
        },
        {
          "internalType": "string",
          "name": "functionName",
          "type": "string"
        },
        {
          "internalType": "address[]",
          "name": "_addresses",
          "type": "address[]"
        },
        {
          "internalType": "uint256[]",
          "name": "integers",
          "type": "uint256[]"
        },
        {
          "internalType": "string[]",
          "name": "strings",
          "type": "string[]"
        },
        {
          "internalType": "bytes32[]",
          "name": "bytesArr",
          "type": "bytes32[]"
        }
      ],
      "name": "executeBid",
      "outputs": [
        {
          "internalType": "address",
          "name": "addr",
          "type": "address"
        }
      ],
      "stateMutability": "nonpayable",
      "type": "function"
    }
  ],
  "bytecode": "0x60806040526001805534801561001457600080fd5b50611d88806100246000396000f3fe608060405234801561001057600080fd5b50600436106100415760003560e01c8063271937da146100465780636bbb8d7014610062578063ae28f1ed14610092575b600080fd5b610060600480360381019061005b9190611902565b6100b0565b005b61007c6004803603810190610077919061197d565b6100f3565b6040516100899190611add565b60405180910390f35b61009a6102c1565b6040516100a79190611b81565b60405180910390f35b806000806101000a81548173ffffffffffffffffffffffffffffffffffffffff021916908373ffffffffffffffffffffffffffffffffffffffff16021790555050565b60006040518060400160405280600481526020017f7465737400000000000000000000000000000000000000000000000000000000815250805190602001208780519060200120141561014f5761014e8787878787876102c7565b5b6040518060400160405280600581526020017f657263323000000000000000000000000000000000000000000000000000000081525080519060200120878051906020012014156101a9576101a88787878787876103dc565b5b6040518060400160405280600581526020017f756e6956320000000000000000000000000000000000000000000000000000008152508051906020012087805190602001201415610203576102028787878787876109cf565b5b6040518060400160405280600481526020017f7765746800000000000000000000000000000000000000000000000000000000815250805190602001208780519060200120141561025d5761025c878787878787611480565b5b6040518060400160405280600581526020017f796561726e00000000000000000000000000000000000000000000000000000081525080519060200120878051906020012014156102b7576102b68787878787876109cf565b5b9695505050505050565b60015481565b6040518060400160405280600781526020017f6d6574686f64330000000000000000000000000000000000000000000000000081525080519060200120858051906020012014156103d4576000809054906101000a900473ffffffffffffffffffffffffffffffffffffffff1673ffffffffffffffffffffffffffffffffffffffff1663a7856c388460008151811061035c57fe5b60200260200101516040518263ffffffff1660e01b81526004016103809190611b81565b602060405180830381600087803b15801561039a57600080fd5b505af11580156103ae573d6000803e3d6000fd5b505050506040513d601f19601f820116820180604052508101906103d29190611a96565b505b505050505050565b6000846000815181106103eb57fe5b602002602001015190506040518060400160405280600b81526020017f746f74616c537570706c7900000000000000000000000000000000000000000081525080519060200120868051906020012014156104c0578073ffffffffffffffffffffffffffffffffffffffff166318160ddd6040518163ffffffff1660e01b815260040160206040518083038186803b15801561048657600080fd5b505afa15801561049a573d6000803e3d6000fd5b505050506040513d601f19601f820116820180604052508101906104be9190611a96565b505b6040518060400160405280600981526020017f62616c616e63654f66000000000000000000000000000000000000000000000081525080519060200120868051906020012014156105aa578073ffffffffffffffffffffffffffffffffffffffff166370a082318660018151811061053457fe5b60200260200101516040518263ffffffff1660e01b81526004016105589190611add565b60206040518083038186803b15801561057057600080fd5b505afa158015610584573d6000803e3d6000fd5b505050506040513d601f19601f820116820180604052508101906105a89190611a96565b505b6040518060400160405280600881526020017f7472616e7366657200000000000000000000000000000000000000000000000081525080519060200120868051906020012014156106ac578073ffffffffffffffffffffffffffffffffffffffff1663a9059cbb8660018151811061061e57fe5b60200260200101518660008151811061063357fe5b60200260200101516040518363ffffffff1660e01b8152600401610658929190611b58565b602060405180830381600087803b15801561067257600080fd5b505af1158015610686573d6000803e3d6000fd5b505050506040513d601f19601f820116820180604052508101906106aa9190611954565b505b6040518060400160405280600981526020017f616c6c6f77616e6365000000000000000000000000000000000000000000000081525080519060200120868051906020012014156107ac578073ffffffffffffffffffffffffffffffffffffffff1663dd62ed3e8660018151811061072057fe5b60200260200101518760028151811061073557fe5b60200260200101516040518363ffffffff1660e01b815260040161075a929190611af8565b60206040518083038186803b15801561077257600080fd5b505afa158015610786573d6000803e3d6000fd5b505050506040513d601f19601f820116820180604052508101906107aa9190611a96565b505b6040518060400160405280600781526020017f617070726f76650000000000000000000000000000000000000000000000000081525080519060200120868051906020012014156108ae578073ffffffffffffffffffffffffffffffffffffffff1663095ea7b38660018151811061082057fe5b60200260200101518660008151811061083557fe5b60200260200101516040518363ffffffff1660e01b815260040161085a929190611b58565b602060405180830381600087803b15801561087457600080fd5b505af1158015610888573d6000803e3d6000fd5b505050506040513d601f19601f820116820180604052508101906108ac9190611954565b505b6040518060400160405280600c81526020017f7472616e7366657246726f6d000000000000000000000000000000000000000081525080519060200120868051906020012014156109c6578073ffffffffffffffffffffffffffffffffffffffff166323b872dd8660018151811061092257fe5b60200260200101518760028151811061093757fe5b60200260200101518760008151811061094c57fe5b60200260200101516040518463ffffffff1660e01b815260040161097293929190611b21565b602060405180830381600087803b15801561098c57600080fd5b505af11580156109a0573d6000803e3d6000fd5b505050506040513d601f19601f820116820180604052508101906109c49190611954565b505b50505050505050565b6040518060400160405280600d81526020017f756e6973776170563243616c6c0000000000000000000000000000000000000081525080519060200120858051906020012050506040518060400160405280600581526020017f666565546f0000000000000000000000000000000000000000000000000000008152508051906020012085805190602001201415610afb57600084600081518110610a7057fe5b602002602001015190508073ffffffffffffffffffffffffffffffffffffffff1663017e7e586040518163ffffffff1660e01b815260040160206040518083038186803b158015610ac057600080fd5b505afa158015610ad4573d6000803e3d6000fd5b505050506040513d601f19601f82011682018060405250810190610af8919061192b565b50505b6040518060400160405280600b81526020017f666565546f5365747465720000000000000000000000000000000000000000008152508051906020012085805190602001201415610be057600084600081518110610b5557fe5b602002602001015190508073ffffffffffffffffffffffffffffffffffffffff1663094b74156040518163ffffffff1660e01b815260040160206040518083038186803b158015610ba557600080fd5b505afa158015610bb9573d6000803e3d6000fd5b505050506040513d601f19601f82011682018060405250810190610bdd919061192b565b50505b6040518060400160405280600781526020017f67657450616972000000000000000000000000000000000000000000000000008152508051906020012085805190602001201415610cfa57600084600081518110610c3a57fe5b602002602001015190508073ffffffffffffffffffffffffffffffffffffffff1663e6a4390586600181518110610c6d57fe5b602002602001015187600281518110610c8257fe5b60200260200101516040518363ffffffff1660e01b8152600401610ca7929190611af8565b60206040518083038186803b158015610cbf57600080fd5b505afa158015610cd3573d6000803e3d6000fd5b505050506040513d601f19601f82011682018060405250810190610cf7919061192b565b50505b6040518060400160405280600881526020017f616c6c50616972730000000000000000000000000000000000000000000000008152508051906020012085805190602001201415610dfe57600084600081518110610d5457fe5b602002602001015190508073ffffffffffffffffffffffffffffffffffffffff16631e3dd18b85600081518110610d8757fe5b60200260200101516040518263ffffffff1660e01b8152600401610dab9190611b81565b60206040518083038186803b158015610dc357600080fd5b505afa158015610dd7573d6000803e3d6000fd5b505050506040513d601f19601f82011682018060405250810190610dfb919061192b565b50505b6040518060400160405280600e81526020017f616c6c50616972734c656e6774680000000000000000000000000000000000008152508051906020012085805190602001201415610ee357600084600081518110610e5857fe5b602002602001015190508073ffffffffffffffffffffffffffffffffffffffff1663574f2ba36040518163ffffffff1660e01b815260040160206040518083038186803b158015610ea857600080fd5b505afa158015610ebc573d6000803e3d6000fd5b505050506040513d601f19601f82011682018060405250810190610ee09190611a96565b50505b6040518060400160405280600a81526020017f63726561746550616972000000000000000000000000000000000000000000008152508051906020012085805190602001201415610fff57600084600081518110610f3d57fe5b602002602001015190508073ffffffffffffffffffffffffffffffffffffffff1663c9c6539686600181518110610f7057fe5b602002602001015187600281518110610f8557fe5b60200260200101516040518363ffffffff1660e01b8152600401610faa929190611af8565b602060405180830381600087803b158015610fc457600080fd5b505af1158015610fd8573d6000803e3d6000fd5b505050506040513d601f19601f82011682018060405250810190610ffc919061192b565b50505b6040518060400160405280600881526020017f736574466565546f00000000000000000000000000000000000000000000000081525080519060200120858051906020012014156110e45760008460008151811061105957fe5b602002602001015190508073ffffffffffffffffffffffffffffffffffffffff1663f46901ed8660018151811061108c57fe5b60200260200101516040518263ffffffff1660e01b81526004016110b09190611add565b600060405180830381600087803b1580156110ca57600080fd5b505af11580156110de573d6000803e3d6000fd5b50505050505b6040518060400160405280600e81526020017f736574466565546f53657474657200000000000000000000000000000000000081525080519060200120858051906020012014156111c95760008460008151811061113e57fe5b602002602001015190508073ffffffffffffffffffffffffffffffffffffffff1663a2e74af68660018151811061117157fe5b60200260200101516040518263ffffffff1660e01b81526004016111959190611add565b600060405180830381600087803b1580156111af57600080fd5b505af11580156111c3573d6000803e3d6000fd5b50505050505b6040518060400160405280600e81526020017f736574466565546f53657474657200000000000000000000000000000000000081525080519060200120858051906020012014156112ae5760008460008151811061122357fe5b602002602001015190508073ffffffffffffffffffffffffffffffffffffffff1663a2e74af68660018151811061125657fe5b60200260200101516040518263ffffffff1660e01b815260040161127a9190611add565b600060405180830381600087803b15801561129457600080fd5b505af11580156112a8573d6000803e3d6000fd5b50505050505b6040518060400160405280600e81526020017f736574466565546f53657474657200000000000000000000000000000000000081525080519060200120858051906020012014156113935760008460008151811061130857fe5b602002602001015190508073ffffffffffffffffffffffffffffffffffffffff1663a2e74af68660018151811061133b57fe5b60200260200101516040518263ffffffff1660e01b815260040161135f9190611add565b600060405180830381600087803b15801561137957600080fd5b505af115801561138d573d6000803e3d6000fd5b50505050505b6040518060400160405280600e81526020017f736574466565546f5365747465720000000000000000000000000000000000008152508051906020012085805190602001201415611478576000846000815181106113ed57fe5b602002602001015190508073ffffffffffffffffffffffffffffffffffffffff1663a2e74af68660018151811061142057fe5b60200260200101516040518263ffffffff1660e01b81526004016114449190611add565b600060405180830381600087803b15801561145e57600080fd5b505af1158015611472573d6000803e3d6000fd5b50505050505b505050505050565b6040518060400160405280600b81526020017f776574684465706f7369740000000000000000000000000000000000000000008152508051906020012085805190602001201415611546576000846000815181106114da57fe5b602002602001015190508073ffffffffffffffffffffffffffffffffffffffff1663d0e30db06040518163ffffffff1660e01b8152600401600060405180830381600087803b15801561152c57600080fd5b505af1158015611540573d6000803e3d6000fd5b50505050505b6040518060400160405280600c81526020017f7765746857697468647261770000000000000000000000000000000000000000815250805190602001208580519060200120141561162b576000846000815181106115a057fe5b602002602001015190508073ffffffffffffffffffffffffffffffffffffffff16632e1a7d4d856000815181106115d357fe5b60200260200101516040518263ffffffff1660e01b81526004016115f79190611b81565b600060405180830381600087803b15801561161157600080fd5b505af1158015611625573d6000803e3d6000fd5b50505050505b505050505050565b60008135905061164281611cf6565b92915050565b60008151905061165781611cf6565b92915050565b600082601f83011261166e57600080fd5b813561168161167c82611bc9565b611b9c565b915081818352602084019350602081019050838560208402820111156116a657600080fd5b60005b838110156116d657816116bc8882611633565b8452602084019350602083019250506001810190506116a9565b5050505092915050565b600082601f8301126116f157600080fd5b81356117046116ff82611bf1565b611b9c565b9150818183526020840193506020810190508385602084028201111561172957600080fd5b60005b83811015611759578161173f888261186f565b84526020840193506020830192505060018101905061172c565b5050505092915050565b600082601f83011261177457600080fd5b813561178761178282611c19565b611b9c565b9150818183526020840193506020810190508360005b838110156117cd57813586016117b38882611884565b84526020840193506020830192505060018101905061179d565b5050505092915050565b600082601f8301126117e857600080fd5b81356117fb6117f682611c41565b611b9c565b9150818183526020840193506020810190508385602084028201111561182057600080fd5b60005b83811015611850578161183688826118d8565b845260208401935060208301925050600181019050611823565b5050505092915050565b60008151905061186981611d0d565b92915050565b60008135905061187e81611d24565b92915050565b600082601f83011261189557600080fd5b81356118a86118a382611c69565b611b9c565b915080825260208301602083018583830111156118c457600080fd5b6118cf838284611ce7565b50505092915050565b6000813590506118e781611d3b565b92915050565b6000815190506118fc81611d3b565b92915050565b60006020828403121561191457600080fd5b600061192284828501611633565b91505092915050565b60006020828403121561193d57600080fd5b600061194b84828501611648565b91505092915050565b60006020828403121561196657600080fd5b60006119748482850161185a565b91505092915050565b60008060008060008060c0878903121561199657600080fd5b600087013567ffffffffffffffff8111156119b057600080fd5b6119bc89828a01611884565b965050602087013567ffffffffffffffff8111156119d957600080fd5b6119e589828a01611884565b955050604087013567ffffffffffffffff811115611a0257600080fd5b611a0e89828a0161165d565b945050606087013567ffffffffffffffff811115611a2b57600080fd5b611a3789828a016117d7565b935050608087013567ffffffffffffffff811115611a5457600080fd5b611a6089828a01611763565b92505060a087013567ffffffffffffffff811115611a7d57600080fd5b611a8989828a016116e0565b9150509295509295509295565b600060208284031215611aa857600080fd5b6000611ab6848285016118ed565b91505092915050565b611ac881611c95565b82525050565b611ad781611cdd565b82525050565b6000602082019050611af26000830184611abf565b92915050565b6000604082019050611b0d6000830185611abf565b611b1a6020830184611abf565b9392505050565b6000606082019050611b366000830186611abf565b611b436020830185611abf565b611b506040830184611ace565b949350505050565b6000604082019050611b6d6000830185611abf565b611b7a6020830184611ace565b9392505050565b6000602082019050611b966000830184611ace565b92915050565b6000604051905081810181811067ffffffffffffffff82111715611bbf57600080fd5b8060405250919050565b600067ffffffffffffffff821115611be057600080fd5b602082029050602081019050919050565b600067ffffffffffffffff821115611c0857600080fd5b602082029050602081019050919050565b600067ffffffffffffffff821115611c3057600080fd5b602082029050602081019050919050565b600067ffffffffffffffff821115611c5857600080fd5b602082029050602081019050919050565b600067ffffffffffffffff821115611c8057600080fd5b601f19601f8301169050602081019050919050565b6000611ca082611cbd565b9050919050565b60008115159050919050565b6000819050919050565b600073ffffffffffffffffffffffffffffffffffffffff82169050919050565b6000819050919050565b82818337600083830152505050565b611cff81611c95565b8114611d0a57600080fd5b50565b611d1681611ca7565b8114611d2157600080fd5b50565b611d2d81611cb3565b8114611d3857600080fd5b50565b611d4481611cdd565b8114611d4f57600080fd5b5056fea26469706673582212207c0fc4c51aefffd6ffab91f0c6324bff219a3bec132f0c42aa10e51a62888c4f64736f6c63430006060033",
  "immutableReferences": {},
  "source": "contract WidgetInterface {\r\n\r\n   function doSomething() public returns(uint) {}\r\n   function somethingElse() public returns(bool isTrue) {}\r\n   function testMethod3(uint256 amount) public returns (uint256) {}\r\n\r\n}\r\n\r\n\r\n\r\npragma solidity ^0.6.6;\r\npragma experimental ABIEncoderV2;\r\n\r\nimport \"./ERC20Interface.sol\";\r\nimport \"./UniswapV2Interface.sol\";\r\nimport \"./WETHInterface.sol\";\r\nimport \"./YearnInterface.sol\";\r\n\r\ncontract Connector {\r\n    \r\n    WidgetInterface w;\r\n    uint256 public testNum = 1;\r\n    \r\n    struct bid {\r\n        address bidder;\r\n        uint256 votes;\r\n        address[] addresses;\r\n        uint256[] integers;\r\n        string[] strings;\r\n        bytes32[] bytesArr;\r\n    }\r\n    \r\n    function setTestInterface(address _addr) public {\r\n        w = WidgetInterface(_addr);\r\n    }\r\n    \r\n    // Only voting contract should be able to call\r\n    function executeBid(string memory functionCode, string memory functionName, address[] memory _addresses, uint256[] memory integers, string[] memory strings, bytes32[] memory bytesArr) public returns (address addr) {\r\n        \r\n        \r\n        if (keccak256(bytes(functionCode)) == keccak256(bytes(\"test\"))) {\r\n            interfaceTest(functionCode,functionName,_addresses,integers,strings,bytesArr);\r\n        }\r\n        if (keccak256(bytes(functionCode)) == keccak256(bytes(\"erc20\"))) {\r\n            interfaceERC20(functionCode,functionName,_addresses,integers,strings,bytesArr);\r\n        }\r\n        if (keccak256(bytes(functionCode)) == keccak256(bytes(\"uniV2\"))) {\r\n            interfaceUniV2(functionCode,functionName,_addresses,integers,strings,bytesArr);\r\n        }\r\n        if (keccak256(bytes(functionCode)) == keccak256(bytes(\"weth\"))) {\r\n            interfaceWETH(functionCode,functionName,_addresses,integers,strings,bytesArr);\r\n        }\r\n        if (keccak256(bytes(functionCode)) == keccak256(bytes(\"yearn\"))) {\r\n            interfaceUniV2(functionCode,functionName,_addresses,integers,strings,bytesArr);\r\n        }\r\n    }\r\n    \r\n    function interfaceTest(string memory functionCode, string memory functionName, address[] memory _addresses, uint256[] memory integers, string[] memory strings, bytes32[] memory bytesArr) internal {\r\n        if (keccak256(bytes(functionName)) == keccak256(bytes(\"method3\"))) {\r\n           w.testMethod3(integers[0]); \r\n        }\r\n    }\r\n    \r\n    //ERC20 CONNECTION\r\n    function interfaceERC20(string memory functionCode, string memory functionName, address[] memory _addresses, uint256[] memory integers, string[] memory strings, bytes32[] memory bytesArr) internal {\r\n        ERC20 erc20 = ERC20(_addresses[0]);\r\n        if (keccak256(bytes(functionName)) == keccak256(bytes(\"totalSupply\"))) {\r\n           erc20.totalSupply();\r\n        }\r\n        if (keccak256(bytes(functionName)) == keccak256(bytes(\"balanceOf\"))) {\r\n           erc20.balanceOf(_addresses[1]);\r\n           \r\n        }\r\n        if (keccak256(bytes(functionName)) == keccak256(bytes(\"transfer\"))) {\r\n            erc20.transfer(_addresses[1], integers[0]);\r\n           \r\n        }\r\n        if (keccak256(bytes(functionName)) == keccak256(bytes(\"allowance\"))) {\r\n           erc20.allowance(_addresses[1], _addresses[2]);\r\n        }\r\n        if (keccak256(bytes(functionName)) == keccak256(bytes(\"approve\"))) {\r\n           erc20.approve(_addresses[1], integers[0]);\r\n        }\r\n        if (keccak256(bytes(functionName)) == keccak256(bytes(\"transferFrom\"))) {\r\n           erc20.transferFrom(_addresses[1], _addresses[2], integers[0]);\r\n        }\r\n    }\r\n    \r\n    //UNISWAP V2 CONNECTION\r\n    function interfaceUniV2(string memory functionCode, string memory functionName, address[] memory _addresses, uint256[] memory integers, string[] memory strings, bytes32[] memory bytesArr) internal {\r\n        //Does CALLEE need an address?\r\n        if (keccak256(bytes(functionName)) == keccak256(bytes(\"uniswapV2Call\"))) {\r\n           \r\n        }\r\n        \r\n        //IUniswapV2ERC20 functions\r\n        \r\n        //IUniswapV2Factory functions\r\n        if (keccak256(bytes(functionName)) == keccak256(bytes(\"feeTo\"))) {\r\n            IUniswapV2Factory uniV2Factory = IUniswapV2Factory(_addresses[0]);\r\n            uniV2Factory.feeTo();\r\n        }\r\n        if (keccak256(bytes(functionName)) == keccak256(bytes(\"feeToSetter\"))) {\r\n            IUniswapV2Factory uniV2Factory = IUniswapV2Factory(_addresses[0]);\r\n            uniV2Factory.feeToSetter();\r\n        }\r\n        if (keccak256(bytes(functionName)) == keccak256(bytes(\"getPair\"))) {\r\n            IUniswapV2Factory uniV2Factory = IUniswapV2Factory(_addresses[0]);\r\n            uniV2Factory.getPair(_addresses[1], _addresses[2]);\r\n        }\r\n        if (keccak256(bytes(functionName)) == keccak256(bytes(\"allPairs\"))) {\r\n            IUniswapV2Factory uniV2Factory = IUniswapV2Factory(_addresses[0]);\r\n            uniV2Factory.allPairs(integers[0]);\r\n        }\r\n        if (keccak256(bytes(functionName)) == keccak256(bytes(\"allPairsLength\"))) {\r\n            IUniswapV2Factory uniV2Factory = IUniswapV2Factory(_addresses[0]);\r\n            uniV2Factory.allPairsLength();\r\n        }\r\n        if (keccak256(bytes(functionName)) == keccak256(bytes(\"createPair\"))) {\r\n            IUniswapV2Factory uniV2Factory = IUniswapV2Factory(_addresses[0]);\r\n            uniV2Factory.createPair(_addresses[1], _addresses[2]);\r\n        }\r\n        if (keccak256(bytes(functionName)) == keccak256(bytes(\"setFeeTo\"))) {\r\n            IUniswapV2Factory uniV2Factory = IUniswapV2Factory(_addresses[0]);\r\n            uniV2Factory.setFeeTo(_addresses[1]);\r\n        }\r\n        if (keccak256(bytes(functionName)) == keccak256(bytes(\"setFeeToSetter\"))) {\r\n            IUniswapV2Factory uniV2Factory = IUniswapV2Factory(_addresses[0]);\r\n            uniV2Factory.setFeeToSetter(_addresses[1]);\r\n        }\r\n        if (keccak256(bytes(functionName)) == keccak256(bytes(\"setFeeToSetter\"))) {\r\n            IUniswapV2Factory uniV2Factory = IUniswapV2Factory(_addresses[0]);\r\n            uniV2Factory.setFeeToSetter(_addresses[1]);\r\n        }\r\n        if (keccak256(bytes(functionName)) == keccak256(bytes(\"setFeeToSetter\"))) {\r\n            IUniswapV2Factory uniV2Factory = IUniswapV2Factory(_addresses[0]);\r\n            uniV2Factory.setFeeToSetter(_addresses[1]);\r\n        }\r\n        if (keccak256(bytes(functionName)) == keccak256(bytes(\"setFeeToSetter\"))) {\r\n            IUniswapV2Factory uniV2Factory = IUniswapV2Factory(_addresses[0]);\r\n            uniV2Factory.setFeeToSetter(_addresses[1]);\r\n        }\r\n        \r\n        //IUniswapV2Pair functions\r\n    }\r\n    \r\n    //WETH CONNECTION\r\n    //Need all the WETH funtions\r\n     function interfaceWETH(string memory functionCode, string memory functionName, address[] memory _addresses, uint256[] memory integers, string[] memory strings, bytes32[] memory bytesArr) internal {\r\n         if (keccak256(bytes(functionName)) == keccak256(bytes(\"wethDeposit\"))) {\r\n            WETH wethAddr = WETH(_addresses[0]);\r\n            wethAddr.deposit();\r\n        }\r\n        if (keccak256(bytes(functionName)) == keccak256(bytes(\"wethWithdraw\"))) {\r\n            WETH wethAddr = WETH(_addresses[0]);\r\n            wethAddr.withdraw(integers[0]);\r\n        }\r\n     }\r\n    \r\n    //YEARN CONNECTION\r\n    function interfaceYearn(string memory functionCode, string memory functionName, address[] memory _addresses, uint256[] memory integers, string[] memory strings, bytes32[] memory bytesArr) internal {\r\n        if (keccak256(bytes(functionName)) == keccak256(bytes(\"cConvert\"))) {\r\n            YConverter convertAddr = YConverter(_addresses[0]);\r\n            convertAddr.convert(_addresses[1]);\r\n        }\r\n        if (keccak256(bytes(functionName)) == keccak256(bytes(\"yicWithdraw\"))) {\r\n            YearnIController iController = YearnIController(_addresses[0]);\r\n            iController.withdraw(_addresses[1], integers[0]);\r\n        }\r\n        if (keccak256(bytes(functionName)) == keccak256(bytes(\"yicBalanceOf\"))) {\r\n            YearnIController iController = YearnIController(_addresses[0]);\r\n            iController.balanceOf(_addresses[1]);\r\n        }\r\n        if (keccak256(bytes(functionName)) == keccak256(bytes(\"yicEarn\"))) {\r\n            YearnIController iController = YearnIController(_addresses[0]);\r\n            iController.earn(_addresses[1], integers[0]);\r\n        }\r\n        if (keccak256(bytes(functionName)) == keccak256(bytes(\"yicWant\"))) {\r\n            YearnIController iController = YearnIController(_addresses[0]);\r\n            iController.want(_addresses[1]);\r\n        }\r\n        if (keccak256(bytes(functionName)) == keccak256(bytes(\"yicRewards\"))) {\r\n            YearnIController iController = YearnIController(_addresses[0]);\r\n            iController.rewards();\r\n        }\r\n        if (keccak256(bytes(functionName)) == keccak256(bytes(\"yicVaults\"))) {\r\n            YearnIController iController = YearnIController(_addresses[0]);\r\n            iController.vaults(_addresses[1]);\r\n        }\r\n        if (keccak256(bytes(functionName)) == keccak256(bytes(\"ymMint\"))) {\r\n            YMintr mintr = YMintr(_addresses[0]);\r\n            mintr.mint(_addresses[1]);\r\n        }\r\n        if (keccak256(bytes(functionName)) == keccak256(bytes(\"yosaSwap\"))) {\r\n            YOneSplitAudit oneSplitAudit = YOneSplitAudit(_addresses[0]);\r\n            // Needs to accept uint arrays\r\n            // oneSplitAudit.swap(_addresses[1], _addresses[2], integers[0], integers[1], integers[3], integers[4]);\r\n        }\r\n        if (keccak256(bytes(functionName)) == keccak256(bytes(\"yosaGetExpectedReturn\"))) {\r\n            YOneSplitAudit oneSplitAudit = YOneSplitAudit(_addresses[0]);\r\n            // Needs to accept uint arrays\r\n            oneSplitAudit.getExpectedReturn(_addresses[1], _addresses[2], integers[0], integers[1], integers[3]);\r\n        }\r\n        if (keccak256(bytes(functionName)) == keccak256(bytes(\"yStratWant\"))) {\r\n            YearnStrategy yStrategy = YearnStrategy(_addresses[0]);\r\n            yStrategy.want();\r\n        }\r\n        if (keccak256(bytes(functionName)) == keccak256(bytes(\"yStratDeposit\"))) {\r\n            YearnStrategy yStrategy = YearnStrategy(_addresses[0]);\r\n            yStrategy.deposit();\r\n        }\r\n        if (keccak256(bytes(functionName)) == keccak256(bytes(\"yStratWithdraw\"))) {\r\n            YearnStrategy yStrategy = YearnStrategy(_addresses[0]);\r\n            yStrategy.withdraw(_addresses[1]);\r\n        }\r\n        if (keccak256(bytes(functionName)) == keccak256(bytes(\"yStratWithdraw1\"))) {\r\n            YearnStrategy yStrategy = YearnStrategy(_addresses[0]);\r\n            yStrategy.withdraw(integers[0]);\r\n        }\r\n        if (keccak256(bytes(functionName)) == keccak256(bytes(\"yStratWithdrawAll\"))) {\r\n            YearnStrategy yStrategy = YearnStrategy(_addresses[0]);\r\n            yStrategy.withdrawAll();\r\n        }\r\n        if (keccak256(bytes(functionName)) == keccak256(bytes(\"yStratBalanceOf\"))) {\r\n            YearnStrategy yStrategy = YearnStrategy(_addresses[0]);\r\n            yStrategy.balanceOf();\r\n        }\r\n        if (keccak256(bytes(functionName)) == keccak256(bytes(\"yERCDeposit\"))) {\r\n            YearnERC20 yERC = YearnERC20(_addresses[0]);\r\n            yERC.deposit(integers[0]);\r\n        }\r\n        if (keccak256(bytes(functionName)) == keccak256(bytes(\"yERCWithdraw\"))) {\r\n            YearnERC20 yERC = YearnERC20(_addresses[0]);\r\n            yERC.withdraw(integers[0]);\r\n        }\r\n        if (keccak256(bytes(functionName)) == keccak256(bytes(\"yERCPricePerFullShare\"))) {\r\n            YearnERC20 yERC = YearnERC20(_addresses[0]);\r\n            yERC.getPricePerFullShare();\r\n        }\r\n        if (keccak256(bytes(functionName)) == keccak256(bytes(\"yVaultsDeposit\"))) {\r\n            YearnVault yVaults = YearnVault(_addresses[0]);\r\n            yVaults.deposit(integers[0]);\r\n        }\r\n        if (keccak256(bytes(functionName)) == keccak256(bytes(\"yVaultsDepositAll\"))) {\r\n            YearnVault yVaults = YearnVault(_addresses[0]);\r\n            yVaults.depositAll();\r\n        }\r\n        if (keccak256(bytes(functionName)) == keccak256(bytes(\"yVaultsWithdraw\"))) {\r\n            YearnVault yVaults = YearnVault(_addresses[0]);\r\n            yVaults.withdraw(integers[0]);\r\n        }\r\n        if (keccak256(bytes(functionName)) == keccak256(bytes(\"yVaultsWithdrawAll\"))) {\r\n            YearnVault yVaults = YearnVault(_addresses[0]);\r\n            yVaults.withdrawAll();\r\n        }\r\n        if (keccak256(bytes(functionName)) == keccak256(bytes(\"yVaultsPricePerFullShare\"))) {\r\n            YearnVault yVaults = YearnVault(_addresses[0]);\r\n            yVaults.getPricePerFullShare();\r\n        }\r\n    }\r\n}",
  "sourcePath": "C:/Users/spiry/Documents/GitHub/kush.finance/contracts/KushFund/Connector.sol",
  "compiler": {
    "name": "solc",
    "version": "0.6.6+commit.6c089d02.Emscripten.clang"
  },
  "schemaVersion": "3.2.4",
  "updatedAt": "2020-09-27T21:51:29.563Z",
  "devdoc": {
    "methods": {}
  },
  "userdoc": {
    "methods": {}
  }
}