{
  "contractName": "Connector",
  "abi": [
    {
      "inputs": [],
      "name": "testNum",
      "outputs": [
        {
          "internalType": "uint256",
          "name": "",
          "type": "uint256"
        }
      ],
      "stateMutability": "view",
      "type": "function"
    },
    {
      "inputs": [
        {
          "internalType": "address",
          "name": "_addr",
          "type": "address"
        }
      ],
      "name": "setTestInterface",
      "outputs": [],
      "stateMutability": "nonpayable",
      "type": "function"
    },
    {
      "inputs": [
        {
          "internalType": "string",
          "name": "functionCode",
          "type": "string"
        },
        {
          "internalType": "string",
          "name": "functionName",
          "type": "string"
        },
        {
          "internalType": "address[]",
          "name": "_addresses",
          "type": "address[]"
        },
        {
          "internalType": "uint256[]",
          "name": "integers",
          "type": "uint256[]"
        },
        {
          "internalType": "string[]",
          "name": "strings",
          "type": "string[]"
        },
        {
          "internalType": "bytes32[]",
          "name": "bytesArr",
          "type": "bytes32[]"
        }
      ],
      "name": "executeBid",
      "outputs": [
        {
          "internalType": "address",
          "name": "addr",
          "type": "address"
        }
      ],
      "stateMutability": "nonpayable",
      "type": "function"
    }
  ],
  "bytecode": "0x60806040526001805534801561001457600080fd5b5061347f806100246000396000f3fe608060405234801561001057600080fd5b50600436106100415760003560e01c8063271937da146100465780636bbb8d7014610062578063ae28f1ed14610092575b600080fd5b610060600480360381019061005b9190612f52565b6100b0565b005b61007c60048036038101906100779190612fcd565b6100f3565b6040516100899190613181565b60405180910390f35b61009a6102c1565b6040516100a79190613278565b60405180910390f35b806000806101000a81548173ffffffffffffffffffffffffffffffffffffffff021916908373ffffffffffffffffffffffffffffffffffffffff16021790555050565b60006040518060400160405280600481526020017f7465737400000000000000000000000000000000000000000000000000000000815250805190602001208780519060200120141561014f5761014e8787878787876102c7565b5b6040518060400160405280600581526020017f657263323000000000000000000000000000000000000000000000000000000081525080519060200120878051906020012014156101a9576101a88787878787876103dc565b5b6040518060400160405280600581526020017f756e6956320000000000000000000000000000000000000000000000000000008152508051906020012087805190602001201415610203576102028787878787876109cf565b5b6040518060400160405280600481526020017f7765746800000000000000000000000000000000000000000000000000000000815250805190602001208780519060200120141561025d5761025c878787878787611480565b5b6040518060400160405280600581526020017f796561726e00000000000000000000000000000000000000000000000000000081525080519060200120878051906020012014156102b7576102b6878787878787611633565b5b9695505050505050565b60015481565b6040518060400160405280600781526020017f6d6574686f64330000000000000000000000000000000000000000000000000081525080519060200120858051906020012014156103d4576000809054906101000a900473ffffffffffffffffffffffffffffffffffffffff1673ffffffffffffffffffffffffffffffffffffffff1663a7856c388460008151811061035c57fe5b60200260200101516040518263ffffffff1660e01b81526004016103809190613278565b602060405180830381600087803b15801561039a57600080fd5b505af11580156103ae573d6000803e3d6000fd5b505050506040513d601f19601f820116820180604052508101906103d291906130e6565b505b505050505050565b6000846000815181106103eb57fe5b602002602001015190506040518060400160405280600b81526020017f746f74616c537570706c7900000000000000000000000000000000000000000081525080519060200120868051906020012014156104c0578073ffffffffffffffffffffffffffffffffffffffff166318160ddd6040518163ffffffff1660e01b815260040160206040518083038186803b15801561048657600080fd5b505afa15801561049a573d6000803e3d6000fd5b505050506040513d601f19601f820116820180604052508101906104be91906130e6565b505b6040518060400160405280600981526020017f62616c616e63654f66000000000000000000000000000000000000000000000081525080519060200120868051906020012014156105aa578073ffffffffffffffffffffffffffffffffffffffff166370a082318660018151811061053457fe5b60200260200101516040518263ffffffff1660e01b81526004016105589190613181565b60206040518083038186803b15801561057057600080fd5b505afa158015610584573d6000803e3d6000fd5b505050506040513d601f19601f820116820180604052508101906105a891906130e6565b505b6040518060400160405280600881526020017f7472616e7366657200000000000000000000000000000000000000000000000081525080519060200120868051906020012014156106ac578073ffffffffffffffffffffffffffffffffffffffff1663a9059cbb8660018151811061061e57fe5b60200260200101518660008151811061063357fe5b60200260200101516040518363ffffffff1660e01b815260040161065892919061324f565b602060405180830381600087803b15801561067257600080fd5b505af1158015610686573d6000803e3d6000fd5b505050506040513d601f19601f820116820180604052508101906106aa9190612fa4565b505b6040518060400160405280600981526020017f616c6c6f77616e6365000000000000000000000000000000000000000000000081525080519060200120868051906020012014156107ac578073ffffffffffffffffffffffffffffffffffffffff1663dd62ed3e8660018151811061072057fe5b60200260200101518760028151811061073557fe5b60200260200101516040518363ffffffff1660e01b815260040161075a92919061319c565b60206040518083038186803b15801561077257600080fd5b505afa158015610786573d6000803e3d6000fd5b505050506040513d601f19601f820116820180604052508101906107aa91906130e6565b505b6040518060400160405280600781526020017f617070726f76650000000000000000000000000000000000000000000000000081525080519060200120868051906020012014156108ae578073ffffffffffffffffffffffffffffffffffffffff1663095ea7b38660018151811061082057fe5b60200260200101518660008151811061083557fe5b60200260200101516040518363ffffffff1660e01b815260040161085a92919061324f565b602060405180830381600087803b15801561087457600080fd5b505af1158015610888573d6000803e3d6000fd5b505050506040513d601f19601f820116820180604052508101906108ac9190612fa4565b505b6040518060400160405280600c81526020017f7472616e7366657246726f6d000000000000000000000000000000000000000081525080519060200120868051906020012014156109c6578073ffffffffffffffffffffffffffffffffffffffff166323b872dd8660018151811061092257fe5b60200260200101518760028151811061093757fe5b60200260200101518760008151811061094c57fe5b60200260200101516040518463ffffffff1660e01b8152600401610972939291906131c5565b602060405180830381600087803b15801561098c57600080fd5b505af11580156109a0573d6000803e3d6000fd5b505050506040513d601f19601f820116820180604052508101906109c49190612fa4565b505b50505050505050565b6040518060400160405280600d81526020017f756e6973776170563243616c6c0000000000000000000000000000000000000081525080519060200120858051906020012050506040518060400160405280600581526020017f666565546f0000000000000000000000000000000000000000000000000000008152508051906020012085805190602001201415610afb57600084600081518110610a7057fe5b602002602001015190508073ffffffffffffffffffffffffffffffffffffffff1663017e7e586040518163ffffffff1660e01b815260040160206040518083038186803b158015610ac057600080fd5b505afa158015610ad4573d6000803e3d6000fd5b505050506040513d601f19601f82011682018060405250810190610af89190612f7b565b50505b6040518060400160405280600b81526020017f666565546f5365747465720000000000000000000000000000000000000000008152508051906020012085805190602001201415610be057600084600081518110610b5557fe5b602002602001015190508073ffffffffffffffffffffffffffffffffffffffff1663094b74156040518163ffffffff1660e01b815260040160206040518083038186803b158015610ba557600080fd5b505afa158015610bb9573d6000803e3d6000fd5b505050506040513d601f19601f82011682018060405250810190610bdd9190612f7b565b50505b6040518060400160405280600781526020017f67657450616972000000000000000000000000000000000000000000000000008152508051906020012085805190602001201415610cfa57600084600081518110610c3a57fe5b602002602001015190508073ffffffffffffffffffffffffffffffffffffffff1663e6a4390586600181518110610c6d57fe5b602002602001015187600281518110610c8257fe5b60200260200101516040518363ffffffff1660e01b8152600401610ca792919061319c565b60206040518083038186803b158015610cbf57600080fd5b505afa158015610cd3573d6000803e3d6000fd5b505050506040513d601f19601f82011682018060405250810190610cf79190612f7b565b50505b6040518060400160405280600881526020017f616c6c50616972730000000000000000000000000000000000000000000000008152508051906020012085805190602001201415610dfe57600084600081518110610d5457fe5b602002602001015190508073ffffffffffffffffffffffffffffffffffffffff16631e3dd18b85600081518110610d8757fe5b60200260200101516040518263ffffffff1660e01b8152600401610dab9190613278565b60206040518083038186803b158015610dc357600080fd5b505afa158015610dd7573d6000803e3d6000fd5b505050506040513d601f19601f82011682018060405250810190610dfb9190612f7b565b50505b6040518060400160405280600e81526020017f616c6c50616972734c656e6774680000000000000000000000000000000000008152508051906020012085805190602001201415610ee357600084600081518110610e5857fe5b602002602001015190508073ffffffffffffffffffffffffffffffffffffffff1663574f2ba36040518163ffffffff1660e01b815260040160206040518083038186803b158015610ea857600080fd5b505afa158015610ebc573d6000803e3d6000fd5b505050506040513d601f19601f82011682018060405250810190610ee091906130e6565b50505b6040518060400160405280600a81526020017f63726561746550616972000000000000000000000000000000000000000000008152508051906020012085805190602001201415610fff57600084600081518110610f3d57fe5b602002602001015190508073ffffffffffffffffffffffffffffffffffffffff1663c9c6539686600181518110610f7057fe5b602002602001015187600281518110610f8557fe5b60200260200101516040518363ffffffff1660e01b8152600401610faa92919061319c565b602060405180830381600087803b158015610fc457600080fd5b505af1158015610fd8573d6000803e3d6000fd5b505050506040513d601f19601f82011682018060405250810190610ffc9190612f7b565b50505b6040518060400160405280600881526020017f736574466565546f00000000000000000000000000000000000000000000000081525080519060200120858051906020012014156110e45760008460008151811061105957fe5b602002602001015190508073ffffffffffffffffffffffffffffffffffffffff1663f46901ed8660018151811061108c57fe5b60200260200101516040518263ffffffff1660e01b81526004016110b09190613181565b600060405180830381600087803b1580156110ca57600080fd5b505af11580156110de573d6000803e3d6000fd5b50505050505b6040518060400160405280600e81526020017f736574466565546f53657474657200000000000000000000000000000000000081525080519060200120858051906020012014156111c95760008460008151811061113e57fe5b602002602001015190508073ffffffffffffffffffffffffffffffffffffffff1663a2e74af68660018151811061117157fe5b60200260200101516040518263ffffffff1660e01b81526004016111959190613181565b600060405180830381600087803b1580156111af57600080fd5b505af11580156111c3573d6000803e3d6000fd5b50505050505b6040518060400160405280600e81526020017f736574466565546f53657474657200000000000000000000000000000000000081525080519060200120858051906020012014156112ae5760008460008151811061122357fe5b602002602001015190508073ffffffffffffffffffffffffffffffffffffffff1663a2e74af68660018151811061125657fe5b60200260200101516040518263ffffffff1660e01b815260040161127a9190613181565b600060405180830381600087803b15801561129457600080fd5b505af11580156112a8573d6000803e3d6000fd5b50505050505b6040518060400160405280600e81526020017f736574466565546f53657474657200000000000000000000000000000000000081525080519060200120858051906020012014156113935760008460008151811061130857fe5b602002602001015190508073ffffffffffffffffffffffffffffffffffffffff1663a2e74af68660018151811061133b57fe5b60200260200101516040518263ffffffff1660e01b815260040161135f9190613181565b600060405180830381600087803b15801561137957600080fd5b505af115801561138d573d6000803e3d6000fd5b50505050505b6040518060400160405280600e81526020017f736574466565546f5365747465720000000000000000000000000000000000008152508051906020012085805190602001201415611478576000846000815181106113ed57fe5b602002602001015190508073ffffffffffffffffffffffffffffffffffffffff1663a2e74af68660018151811061142057fe5b60200260200101516040518263ffffffff1660e01b81526004016114449190613181565b600060405180830381600087803b15801561145e57600080fd5b505af1158015611472573d6000803e3d6000fd5b50505050505b505050505050565b6040518060400160405280600b81526020017f776574684465706f7369740000000000000000000000000000000000000000008152508051906020012085805190602001201415611546576000846000815181106114da57fe5b602002602001015190508073ffffffffffffffffffffffffffffffffffffffff1663d0e30db06040518163ffffffff1660e01b8152600401600060405180830381600087803b15801561152c57600080fd5b505af1158015611540573d6000803e3d6000fd5b50505050505b6040518060400160405280600c81526020017f7765746857697468647261770000000000000000000000000000000000000000815250805190602001208580519060200120141561162b576000846000815181106115a057fe5b602002602001015190508073ffffffffffffffffffffffffffffffffffffffff16632e1a7d4d856000815181106115d357fe5b60200260200101516040518263ffffffff1660e01b81526004016115f79190613278565b600060405180830381600087803b15801561161157600080fd5b505af1158015611625573d6000803e3d6000fd5b50505050505b505050505050565b6040518060400160405280600881526020017f63436f6e7665727400000000000000000000000000000000000000000000000081525080519060200120858051906020012014156117395760008460008151811061168d57fe5b602002602001015190508073ffffffffffffffffffffffffffffffffffffffff1663def2489b866001815181106116c057fe5b60200260200101516040518263ffffffff1660e01b81526004016116e49190613181565b602060405180830381600087803b1580156116fe57600080fd5b505af1158015611712573d6000803e3d6000fd5b505050506040513d601f19601f8201168201806040525081019061173691906130e6565b50505b6040518060400160405280600b81526020017f796963576974686472617700000000000000000000000000000000000000000081525080519060200120858051906020012014156118345760008460008151811061179357fe5b602002602001015190508073ffffffffffffffffffffffffffffffffffffffff1663f3fef3a3866001815181106117c657fe5b6020026020010151866000815181106117db57fe5b60200260200101516040518363ffffffff1660e01b815260040161180092919061324f565b600060405180830381600087803b15801561181a57600080fd5b505af115801561182e573d6000803e3d6000fd5b50505050505b6040518060400160405280600c81526020017f79696342616c616e63654f66000000000000000000000000000000000000000081525080519060200120858051906020012014156119385760008460008151811061188e57fe5b602002602001015190508073ffffffffffffffffffffffffffffffffffffffff166370a08231866001815181106118c157fe5b60200260200101516040518263ffffffff1660e01b81526004016118e59190613181565b60206040518083038186803b1580156118fd57600080fd5b505afa158015611911573d6000803e3d6000fd5b505050506040513d601f19601f8201168201806040525081019061193591906130e6565b50505b6040518060400160405280600781526020017f7969634561726e000000000000000000000000000000000000000000000000008152508051906020012085805190602001201415611a335760008460008151811061199257fe5b602002602001015190508073ffffffffffffffffffffffffffffffffffffffff1663b02bf4b9866001815181106119c557fe5b6020026020010151866000815181106119da57fe5b60200260200101516040518363ffffffff1660e01b81526004016119ff92919061324f565b600060405180830381600087803b158015611a1957600080fd5b505af1158015611a2d573d6000803e3d6000fd5b50505050505b6040518060400160405280600781526020017f79696357616e74000000000000000000000000000000000000000000000000008152508051906020012085805190602001201415611b3757600084600081518110611a8d57fe5b602002602001015190508073ffffffffffffffffffffffffffffffffffffffff16637572458986600181518110611ac057fe5b60200260200101516040518263ffffffff1660e01b8152600401611ae49190613181565b60206040518083038186803b158015611afc57600080fd5b505afa158015611b10573d6000803e3d6000fd5b505050506040513d601f19601f82011682018060405250810190611b349190612f7b565b50505b6040518060400160405280600a81526020017f79696352657761726473000000000000000000000000000000000000000000008152508051906020012085805190602001201415611c1c57600084600081518110611b9157fe5b602002602001015190508073ffffffffffffffffffffffffffffffffffffffff16639ec5a8946040518163ffffffff1660e01b815260040160206040518083038186803b158015611be157600080fd5b505afa158015611bf5573d6000803e3d6000fd5b505050506040513d601f19601f82011682018060405250810190611c199190612f7b565b50505b6040518060400160405280600981526020017f7969635661756c747300000000000000000000000000000000000000000000008152508051906020012085805190602001201415611d2057600084600081518110611c7657fe5b602002602001015190508073ffffffffffffffffffffffffffffffffffffffff1663a622ee7c86600181518110611ca957fe5b60200260200101516040518263ffffffff1660e01b8152600401611ccd9190613181565b60206040518083038186803b158015611ce557600080fd5b505afa158015611cf9573d6000803e3d6000fd5b505050506040513d601f19601f82011682018060405250810190611d1d9190612f7b565b50505b6040518060400160405280600681526020017f796d4d696e7400000000000000000000000000000000000000000000000000008152508051906020012085805190602001201415611e0557600084600081518110611d7a57fe5b602002602001015190508073ffffffffffffffffffffffffffffffffffffffff16636a62784286600181518110611dad57fe5b60200260200101516040518263ffffffff1660e01b8152600401611dd19190613181565b600060405180830381600087803b158015611deb57600080fd5b505af1158015611dff573d6000803e3d6000fd5b50505050505b6040518060400160405280600881526020017f796f7361537761700000000000000000000000000000000000000000000000008152508051906020012085805190602001201415611e6b57600084600081518110611e5f57fe5b60200260200101519050505b6040518060400160405280601581526020017f796f7361476574457870656374656452657475726e00000000000000000000008152508051906020012085805190602001201415611fcd57600084600081518110611ec557fe5b602002602001015190508073ffffffffffffffffffffffffffffffffffffffff1663085e2c5b86600181518110611ef857fe5b602002602001015187600281518110611f0d57fe5b602002602001015187600081518110611f2257fe5b602002602001015188600181518110611f3757fe5b602002602001015189600381518110611f4c57fe5b60200260200101516040518663ffffffff1660e01b8152600401611f749594939291906131fc565b60006040518083038186803b158015611f8c57600080fd5b505afa158015611fa0573d6000803e3d6000fd5b505050506040513d6000823e3d601f19601f82011682018060405250810190611fc9919061310f565b5050505b6040518060400160405280600a81526020017f79537472617457616e740000000000000000000000000000000000000000000081525080519060200120858051906020012014156120b25760008460008151811061202757fe5b602002602001015190508073ffffffffffffffffffffffffffffffffffffffff16631f1fcd516040518163ffffffff1660e01b815260040160206040518083038186803b15801561207757600080fd5b505afa15801561208b573d6000803e3d6000fd5b505050506040513d601f19601f820116820180604052508101906120af9190612f7b565b50505b6040518060400160405280600d81526020017f7953747261744465706f7369740000000000000000000000000000000000000081525080519060200120858051906020012014156121785760008460008151811061210c57fe5b602002602001015190508073ffffffffffffffffffffffffffffffffffffffff1663d0e30db06040518163ffffffff1660e01b8152600401600060405180830381600087803b15801561215e57600080fd5b505af1158015612172573d6000803e3d6000fd5b50505050505b6040518060400160405280600e81526020017f7953747261745769746864726177000000000000000000000000000000000000815250805190602001208580519060200120141561225d576000846000815181106121d257fe5b602002602001015190508073ffffffffffffffffffffffffffffffffffffffff166351cff8d98660018151811061220557fe5b60200260200101516040518263ffffffff1660e01b81526004016122299190613181565b600060405180830381600087803b15801561224357600080fd5b505af1158015612257573d6000803e3d6000fd5b50505050505b6040518060400160405280600f81526020017f79537472617457697468647261773100000000000000000000000000000000008152508051906020012085805190602001201415612342576000846000815181106122b757fe5b602002602001015190508073ffffffffffffffffffffffffffffffffffffffff16632e1a7d4d856000815181106122ea57fe5b60200260200101516040518263ffffffff1660e01b815260040161230e9190613278565b600060405180830381600087803b15801561232857600080fd5b505af115801561233c573d6000803e3d6000fd5b50505050505b6040518060400160405280601181526020017f7953747261745769746864726177416c6c00000000000000000000000000000081525080519060200120858051906020012014156124295760008460008151811061239c57fe5b602002602001015190508073ffffffffffffffffffffffffffffffffffffffff1663853828b66040518163ffffffff1660e01b8152600401602060405180830381600087803b1580156123ee57600080fd5b505af1158015612402573d6000803e3d6000fd5b505050506040513d601f19601f8201168201806040525081019061242691906130e6565b50505b6040518060400160405280600f81526020017f79537472617442616c616e63654f660000000000000000000000000000000000815250805190602001208580519060200120141561250e5760008460008151811061248357fe5b602002602001015190508073ffffffffffffffffffffffffffffffffffffffff1663722713f76040518163ffffffff1660e01b815260040160206040518083038186803b1580156124d357600080fd5b505afa1580156124e7573d6000803e3d6000fd5b505050506040513d601f19601f8201168201806040525081019061250b91906130e6565b50505b6040518060400160405280600b81526020017f794552434465706f73697400000000000000000000000000000000000000000081525080519060200120858051906020012014156125f35760008460008151811061256857fe5b602002602001015190508073ffffffffffffffffffffffffffffffffffffffff1663b6b55f258560008151811061259b57fe5b60200260200101516040518263ffffffff1660e01b81526004016125bf9190613278565b600060405180830381600087803b1580156125d957600080fd5b505af11580156125ed573d6000803e3d6000fd5b50505050505b6040518060400160405280600c81526020017f794552435769746864726177000000000000000000000000000000000000000081525080519060200120858051906020012014156126d85760008460008151811061264d57fe5b602002602001015190508073ffffffffffffffffffffffffffffffffffffffff16632e1a7d4d8560008151811061268057fe5b60200260200101516040518263ffffffff1660e01b81526004016126a49190613278565b600060405180830381600087803b1580156126be57600080fd5b505af11580156126d2573d6000803e3d6000fd5b50505050505b6040518060400160405280601581526020017f79455243507269636550657246756c6c5368617265000000000000000000000081525080519060200120858051906020012014156127bd5760008460008151811061273257fe5b602002602001015190508073ffffffffffffffffffffffffffffffffffffffff166377c7b8fc6040518163ffffffff1660e01b815260040160206040518083038186803b15801561278257600080fd5b505afa158015612796573d6000803e3d6000fd5b505050506040513d601f19601f820116820180604052508101906127ba91906130e6565b50505b6040518060400160405280600e81526020017f795661756c74734465706f73697400000000000000000000000000000000000081525080519060200120858051906020012014156128a25760008460008151811061281757fe5b602002602001015190508073ffffffffffffffffffffffffffffffffffffffff1663b6b55f258560008151811061284a57fe5b60200260200101516040518263ffffffff1660e01b815260040161286e9190613278565b600060405180830381600087803b15801561288857600080fd5b505af115801561289c573d6000803e3d6000fd5b50505050505b6040518060400160405280601181526020017f795661756c74734465706f736974416c6c0000000000000000000000000000008152508051906020012085805190602001201415612968576000846000815181106128fc57fe5b602002602001015190508073ffffffffffffffffffffffffffffffffffffffff1663de5f62686040518163ffffffff1660e01b8152600401600060405180830381600087803b15801561294e57600080fd5b505af1158015612962573d6000803e3d6000fd5b50505050505b6040518060400160405280600f81526020017f795661756c7473576974686472617700000000000000000000000000000000008152508051906020012085805190602001201415612a4d576000846000815181106129c257fe5b602002602001015190508073ffffffffffffffffffffffffffffffffffffffff16632e1a7d4d856000815181106129f557fe5b60200260200101516040518263ffffffff1660e01b8152600401612a199190613278565b600060405180830381600087803b158015612a3357600080fd5b505af1158015612a47573d6000803e3d6000fd5b50505050505b6040518060400160405280601281526020017f795661756c74735769746864726177416c6c00000000000000000000000000008152508051906020012085805190602001201415612b1357600084600081518110612aa757fe5b602002602001015190508073ffffffffffffffffffffffffffffffffffffffff1663853828b66040518163ffffffff1660e01b8152600401600060405180830381600087803b158015612af957600080fd5b505af1158015612b0d573d6000803e3d6000fd5b50505050505b6040518060400160405280601881526020017f795661756c7473507269636550657246756c6c536861726500000000000000008152508051906020012085805190602001201415612bf857600084600081518110612b6d57fe5b602002602001015190508073ffffffffffffffffffffffffffffffffffffffff166377c7b8fc6040518163ffffffff1660e01b815260040160206040518083038186803b158015612bbd57600080fd5b505afa158015612bd1573d6000803e3d6000fd5b505050506040513d601f19601f82011682018060405250810190612bf591906130e6565b50505b505050505050565b600081359050612c0f816133ed565b92915050565b600081519050612c24816133ed565b92915050565b600082601f830112612c3b57600080fd5b8135612c4e612c49826132c0565b613293565b91508181835260208401935060208101905083856020840282011115612c7357600080fd5b60005b83811015612ca35781612c898882612c00565b845260208401935060208301925050600181019050612c76565b5050505092915050565b600082601f830112612cbe57600080fd5b8135612cd1612ccc826132e8565b613293565b91508181835260208401935060208101905083856020840282011115612cf657600080fd5b60005b83811015612d265781612d0c8882612ebf565b845260208401935060208301925050600181019050612cf9565b5050505092915050565b600082601f830112612d4157600080fd5b8135612d54612d4f82613310565b613293565b9150818183526020840193506020810190508360005b83811015612d9a5781358601612d808882612ed4565b845260208401935060208301925050600181019050612d6a565b5050505092915050565b600082601f830112612db557600080fd5b8135612dc8612dc382613338565b613293565b91508181835260208401935060208101905083856020840282011115612ded57600080fd5b60005b83811015612e1d5781612e038882612f28565b845260208401935060208301925050600181019050612df0565b5050505092915050565b600082601f830112612e3857600080fd5b8151612e4b612e4682613338565b613293565b91508181835260208401935060208101905083856020840282011115612e7057600080fd5b60005b83811015612ea05781612e868882612f3d565b845260208401935060208301925050600181019050612e73565b5050505092915050565b600081519050612eb981613404565b92915050565b600081359050612ece8161341b565b92915050565b600082601f830112612ee557600080fd5b8135612ef8612ef382613360565b613293565b91508082526020830160208301858383011115612f1457600080fd5b612f1f8382846133de565b50505092915050565b600081359050612f3781613432565b92915050565b600081519050612f4c81613432565b92915050565b600060208284031215612f6457600080fd5b6000612f7284828501612c00565b91505092915050565b600060208284031215612f8d57600080fd5b6000612f9b84828501612c15565b91505092915050565b600060208284031215612fb657600080fd5b6000612fc484828501612eaa565b91505092915050565b60008060008060008060c08789031215612fe657600080fd5b600087013567ffffffffffffffff81111561300057600080fd5b61300c89828a01612ed4565b965050602087013567ffffffffffffffff81111561302957600080fd5b61303589828a01612ed4565b955050604087013567ffffffffffffffff81111561305257600080fd5b61305e89828a01612c2a565b945050606087013567ffffffffffffffff81111561307b57600080fd5b61308789828a01612da4565b935050608087013567ffffffffffffffff8111156130a457600080fd5b6130b089828a01612d30565b92505060a087013567ffffffffffffffff8111156130cd57600080fd5b6130d989828a01612cad565b9150509295509295509295565b6000602082840312156130f857600080fd5b600061310684828501612f3d565b91505092915050565b6000806040838503121561312257600080fd5b600061313085828601612f3d565b925050602083015167ffffffffffffffff81111561314d57600080fd5b61315985828601612e27565b9150509250929050565b61316c8161338c565b82525050565b61317b816133d4565b82525050565b60006020820190506131966000830184613163565b92915050565b60006040820190506131b16000830185613163565b6131be6020830184613163565b9392505050565b60006060820190506131da6000830186613163565b6131e76020830185613163565b6131f46040830184613172565b949350505050565b600060a0820190506132116000830188613163565b61321e6020830187613163565b61322b6040830186613172565b6132386060830185613172565b6132456080830184613172565b9695505050505050565b60006040820190506132646000830185613163565b6132716020830184613172565b9392505050565b600060208201905061328d6000830184613172565b92915050565b6000604051905081810181811067ffffffffffffffff821117156132b657600080fd5b8060405250919050565b600067ffffffffffffffff8211156132d757600080fd5b602082029050602081019050919050565b600067ffffffffffffffff8211156132ff57600080fd5b602082029050602081019050919050565b600067ffffffffffffffff82111561332757600080fd5b602082029050602081019050919050565b600067ffffffffffffffff82111561334f57600080fd5b602082029050602081019050919050565b600067ffffffffffffffff82111561337757600080fd5b601f19601f8301169050602081019050919050565b6000613397826133b4565b9050919050565b60008115159050919050565b6000819050919050565b600073ffffffffffffffffffffffffffffffffffffffff82169050919050565b6000819050919050565b82818337600083830152505050565b6133f68161338c565b811461340157600080fd5b50565b61340d8161339e565b811461341857600080fd5b50565b613424816133aa565b811461342f57600080fd5b50565b61343b816133d4565b811461344657600080fd5b5056fea264697066735822122011e37932d8bc0517382c0af742ecae04353c30c34d45c63512841c7e952bdbed64736f6c63430006060033",
  "immutableReferences": {},
  "source": "contract WidgetInterface {\r\n  function doSomething() public returns (uint256) {}\r\n\r\n  function somethingElse() public returns (bool isTrue) {}\r\n\r\n  function testMethod3(uint256 amount) public returns (uint256) {}\r\n}\r\n\r\npragma solidity ^0.6.6;\r\npragma experimental ABIEncoderV2;\r\nimport '@openzeppelin/contracts/token/ERC20/ERC20.sol';\r\nimport './UniswapV2Interface.sol';\r\nimport './WETHInterface.sol';\r\nimport './YearnInterface.sol';\r\n\r\ncontract Connector {\r\n  WidgetInterface w;\r\n  uint256 public testNum = 1;\r\n\r\n  struct bid {\r\n    address bidder;\r\n    uint256 votes;\r\n    address[] addresses;\r\n    uint256[] integers;\r\n    string[] strings;\r\n    bytes32[] bytesArr;\r\n  }\r\n\r\n  function setTestInterface(address _addr) public {\r\n    w = WidgetInterface(_addr);\r\n  }\r\n\r\n  // Only voting contract should be able to call\r\n  function executeBid(\r\n    string memory functionCode,\r\n    string memory functionName,\r\n    address[] memory _addresses,\r\n    uint256[] memory integers,\r\n    string[] memory strings,\r\n    bytes32[] memory bytesArr\r\n  ) public returns (address addr) {\r\n    if (keccak256(bytes(functionCode)) == keccak256(bytes('test'))) {\r\n      interfaceTest(\r\n        functionCode,\r\n        functionName,\r\n        _addresses,\r\n        integers,\r\n        strings,\r\n        bytesArr\r\n      );\r\n    }\r\n    if (keccak256(bytes(functionCode)) == keccak256(bytes('erc20'))) {\r\n      interfaceERC20(\r\n        functionCode,\r\n        functionName,\r\n        _addresses,\r\n        integers,\r\n        strings,\r\n        bytesArr\r\n      );\r\n    }\r\n    if (keccak256(bytes(functionCode)) == keccak256(bytes('uniV2'))) {\r\n      interfaceUniV2(\r\n        functionCode,\r\n        functionName,\r\n        _addresses,\r\n        integers,\r\n        strings,\r\n        bytesArr\r\n      );\r\n    }\r\n    if (keccak256(bytes(functionCode)) == keccak256(bytes('weth'))) {\r\n      interfaceWETH(\r\n        functionCode,\r\n        functionName,\r\n        _addresses,\r\n        integers,\r\n        strings,\r\n        bytesArr\r\n      );\r\n    }\r\n    if (keccak256(bytes(functionCode)) == keccak256(bytes('yearn'))) {\r\n      interfaceYearn(\r\n        functionCode,\r\n        functionName,\r\n        _addresses,\r\n        integers,\r\n        strings,\r\n        bytesArr\r\n      );\r\n    }\r\n  }\r\n\r\n  function interfaceTest(\r\n    string memory functionCode,\r\n    string memory functionName,\r\n    address[] memory _addresses,\r\n    uint256[] memory integers,\r\n    string[] memory strings,\r\n    bytes32[] memory bytesArr\r\n  ) internal {\r\n    if (keccak256(bytes(functionName)) == keccak256(bytes('method3'))) {\r\n      w.testMethod3(integers[0]);\r\n    }\r\n  }\r\n\r\n  //ERC20 CONNECTION\r\n  function interfaceERC20(\r\n    string memory functionCode,\r\n    string memory functionName,\r\n    address[] memory _addresses,\r\n    uint256[] memory integers,\r\n    string[] memory strings,\r\n    bytes32[] memory bytesArr\r\n  ) internal {\r\n        ERC20 erc20 = ERC20(_addresses[0]);\r\n    if (keccak256(bytes(functionName)) == keccak256(bytes('totalSupply'))) {\r\n      erc20.totalSupply();\r\n    }\r\n    if (keccak256(bytes(functionName)) == keccak256(bytes('balanceOf'))) {\r\n      erc20.balanceOf(_addresses[1]);\r\n    }\r\n    if (keccak256(bytes(functionName)) == keccak256(bytes('transfer'))) {\r\n      erc20.transfer(_addresses[1], integers[0]);\r\n    }\r\n    if (keccak256(bytes(functionName)) == keccak256(bytes('allowance'))) {\r\n      erc20.allowance(_addresses[1], _addresses[2]);\r\n    }\r\n    if (keccak256(bytes(functionName)) == keccak256(bytes('approve'))) {\r\n      erc20.approve(_addresses[1], integers[0]);\r\n    }\r\n    if (keccak256(bytes(functionName)) == keccak256(bytes('transferFrom'))) {\r\n      erc20.transferFrom(_addresses[1], _addresses[2], integers[0]);\r\n    }\r\n  }\r\n\r\n  //UNISWAP V2 CONNECTION\r\n  function interfaceUniV2(\r\n    string memory functionCode,\r\n    string memory functionName,\r\n    address[] memory _addresses,\r\n    uint256[] memory integers,\r\n    string[] memory strings,\r\n    bytes32[] memory bytesArr\r\n  ) internal {\r\n    //Does CALLEE need an address?\r\n    if (keccak256(bytes(functionName)) == keccak256(bytes('uniswapV2Call'))) {}\r\n\r\n    //IUniswapV2ERC20 functions\r\n\r\n    //IUniswapV2Factory functions\r\n    if (keccak256(bytes(functionName)) == keccak256(bytes('feeTo'))) {\r\n      IUniswapV2Factory uniV2Factory = IUniswapV2Factory(_addresses[0]);\r\n      uniV2Factory.feeTo();\r\n    }\r\n    if (keccak256(bytes(functionName)) == keccak256(bytes('feeToSetter'))) {\r\n      IUniswapV2Factory uniV2Factory = IUniswapV2Factory(_addresses[0]);\r\n      uniV2Factory.feeToSetter();\r\n    }\r\n    if (keccak256(bytes(functionName)) == keccak256(bytes('getPair'))) {\r\n      IUniswapV2Factory uniV2Factory = IUniswapV2Factory(_addresses[0]);\r\n      uniV2Factory.getPair(_addresses[1], _addresses[2]);\r\n    }\r\n    if (keccak256(bytes(functionName)) == keccak256(bytes('allPairs'))) {\r\n      IUniswapV2Factory uniV2Factory = IUniswapV2Factory(_addresses[0]);\r\n      uniV2Factory.allPairs(integers[0]);\r\n    }\r\n    if (keccak256(bytes(functionName)) == keccak256(bytes('allPairsLength'))) {\r\n      IUniswapV2Factory uniV2Factory = IUniswapV2Factory(_addresses[0]);\r\n      uniV2Factory.allPairsLength();\r\n    }\r\n    if (keccak256(bytes(functionName)) == keccak256(bytes('createPair'))) {\r\n      IUniswapV2Factory uniV2Factory = IUniswapV2Factory(_addresses[0]);\r\n      uniV2Factory.createPair(_addresses[1], _addresses[2]);\r\n    }\r\n    if (keccak256(bytes(functionName)) == keccak256(bytes('setFeeTo'))) {\r\n      IUniswapV2Factory uniV2Factory = IUniswapV2Factory(_addresses[0]);\r\n      uniV2Factory.setFeeTo(_addresses[1]);\r\n    }\r\n    if (keccak256(bytes(functionName)) == keccak256(bytes('setFeeToSetter'))) {\r\n      IUniswapV2Factory uniV2Factory = IUniswapV2Factory(_addresses[0]);\r\n      uniV2Factory.setFeeToSetter(_addresses[1]);\r\n    }\r\n    if (keccak256(bytes(functionName)) == keccak256(bytes('setFeeToSetter'))) {\r\n      IUniswapV2Factory uniV2Factory = IUniswapV2Factory(_addresses[0]);\r\n      uniV2Factory.setFeeToSetter(_addresses[1]);\r\n    }\r\n    if (keccak256(bytes(functionName)) == keccak256(bytes('setFeeToSetter'))) {\r\n      IUniswapV2Factory uniV2Factory = IUniswapV2Factory(_addresses[0]);\r\n      uniV2Factory.setFeeToSetter(_addresses[1]);\r\n    }\r\n    if (keccak256(bytes(functionName)) == keccak256(bytes('setFeeToSetter'))) {\r\n      IUniswapV2Factory uniV2Factory = IUniswapV2Factory(_addresses[0]);\r\n      uniV2Factory.setFeeToSetter(_addresses[1]);\r\n    }\r\n\r\n    //IUniswapV2Pair functions\r\n  }\r\n\r\n  //WETH CONNECTION\r\n  //Need all the WETH funtions\r\n  function interfaceWETH(\r\n    string memory functionCode,\r\n    string memory functionName,\r\n    address[] memory _addresses,\r\n    uint256[] memory integers,\r\n    string[] memory strings,\r\n    bytes32[] memory bytesArr\r\n  ) internal {\r\n    if (keccak256(bytes(functionName)) == keccak256(bytes('wethDeposit'))) {\r\n      WETH wethAddr = WETH(_addresses[0]);\r\n      wethAddr.deposit();\r\n    }\r\n    if (keccak256(bytes(functionName)) == keccak256(bytes('wethWithdraw'))) {\r\n      WETH wethAddr = WETH(_addresses[0]);\r\n      wethAddr.withdraw(integers[0]);\r\n    }\r\n  }\r\n\r\n  //YEARN CONNECTION\r\n  function interfaceYearn(\r\n    string memory functionCode,\r\n    string memory functionName,\r\n    address[] memory _addresses,\r\n    uint256[] memory integers,\r\n    string[] memory strings,\r\n    bytes32[] memory bytesArr\r\n  ) internal {\r\n    if (keccak256(bytes(functionName)) == keccak256(bytes('cConvert'))) {\r\n      YConverter convertAddr = YConverter(_addresses[0]);\r\n      convertAddr.convert(_addresses[1]);\r\n    }\r\n    if (keccak256(bytes(functionName)) == keccak256(bytes('yicWithdraw'))) {\r\n      YearnIController iController = YearnIController(_addresses[0]);\r\n      iController.withdraw(_addresses[1], integers[0]);\r\n    }\r\n    if (keccak256(bytes(functionName)) == keccak256(bytes('yicBalanceOf'))) {\r\n      YearnIController iController = YearnIController(_addresses[0]);\r\n      iController.balanceOf(_addresses[1]);\r\n    }\r\n    if (keccak256(bytes(functionName)) == keccak256(bytes('yicEarn'))) {\r\n      YearnIController iController = YearnIController(_addresses[0]);\r\n      iController.earn(_addresses[1], integers[0]);\r\n    }\r\n    if (keccak256(bytes(functionName)) == keccak256(bytes('yicWant'))) {\r\n      YearnIController iController = YearnIController(_addresses[0]);\r\n      iController.want(_addresses[1]);\r\n    }\r\n    if (keccak256(bytes(functionName)) == keccak256(bytes('yicRewards'))) {\r\n      YearnIController iController = YearnIController(_addresses[0]);\r\n      iController.rewards();\r\n    }\r\n    if (keccak256(bytes(functionName)) == keccak256(bytes('yicVaults'))) {\r\n      YearnIController iController = YearnIController(_addresses[0]);\r\n      iController.vaults(_addresses[1]);\r\n    }\r\n    if (keccak256(bytes(functionName)) == keccak256(bytes('ymMint'))) {\r\n      YMintr mintr = YMintr(_addresses[0]);\r\n      mintr.mint(_addresses[1]);\r\n    }\r\n    if (keccak256(bytes(functionName)) == keccak256(bytes('yosaSwap'))) {\r\n      YOneSplitAudit oneSplitAudit = YOneSplitAudit(_addresses[0]);\r\n      // Needs to accept uint arrays\r\n      // oneSplitAudit.swap(_addresses[1], _addresses[2], integers[0], integers[1], integers[3], integers[4]);\r\n    }\r\n    if (\r\n      keccak256(bytes(functionName)) ==\r\n      keccak256(bytes('yosaGetExpectedReturn'))\r\n    ) {\r\n      YOneSplitAudit oneSplitAudit = YOneSplitAudit(_addresses[0]);\r\n      // Needs to accept uint arrays\r\n      oneSplitAudit.getExpectedReturn(\r\n        _addresses[1],\r\n        _addresses[2],\r\n        integers[0],\r\n        integers[1],\r\n        integers[3]\r\n      );\r\n    }\r\n    if (keccak256(bytes(functionName)) == keccak256(bytes('yStratWant'))) {\r\n      YearnStrategy yStrategy = YearnStrategy(_addresses[0]);\r\n      yStrategy.want();\r\n    }\r\n    if (keccak256(bytes(functionName)) == keccak256(bytes('yStratDeposit'))) {\r\n      YearnStrategy yStrategy = YearnStrategy(_addresses[0]);\r\n      yStrategy.deposit();\r\n    }\r\n    if (keccak256(bytes(functionName)) == keccak256(bytes('yStratWithdraw'))) {\r\n      YearnStrategy yStrategy = YearnStrategy(_addresses[0]);\r\n      yStrategy.withdraw(_addresses[1]);\r\n    }\r\n    if (keccak256(bytes(functionName)) == keccak256(bytes('yStratWithdraw1'))) {\r\n      YearnStrategy yStrategy = YearnStrategy(_addresses[0]);\r\n      yStrategy.withdraw(integers[0]);\r\n    }\r\n    if (\r\n      keccak256(bytes(functionName)) == keccak256(bytes('yStratWithdrawAll'))\r\n    ) {\r\n      YearnStrategy yStrategy = YearnStrategy(_addresses[0]);\r\n      yStrategy.withdrawAll();\r\n    }\r\n    if (keccak256(bytes(functionName)) == keccak256(bytes('yStratBalanceOf'))) {\r\n      YearnStrategy yStrategy = YearnStrategy(_addresses[0]);\r\n      yStrategy.balanceOf();\r\n    }\r\n    if (keccak256(bytes(functionName)) == keccak256(bytes('yERCDeposit'))) {\r\n      YearnERC20 yERC = YearnERC20(_addresses[0]);\r\n      yERC.deposit(integers[0]);\r\n    }\r\n    if (keccak256(bytes(functionName)) == keccak256(bytes('yERCWithdraw'))) {\r\n      YearnERC20 yERC = YearnERC20(_addresses[0]);\r\n      yERC.withdraw(integers[0]);\r\n    }\r\n    if (\r\n      keccak256(bytes(functionName)) ==\r\n      keccak256(bytes('yERCPricePerFullShare'))\r\n    ) {\r\n      YearnERC20 yERC = YearnERC20(_addresses[0]);\r\n      yERC.getPricePerFullShare();\r\n    }\r\n    if (keccak256(bytes(functionName)) == keccak256(bytes('yVaultsDeposit'))) {\r\n      YearnVault yVaults = YearnVault(_addresses[0]);\r\n      yVaults.deposit(integers[0]);\r\n    }\r\n    if (\r\n      keccak256(bytes(functionName)) == keccak256(bytes('yVaultsDepositAll'))\r\n    ) {\r\n      YearnVault yVaults = YearnVault(_addresses[0]);\r\n      yVaults.depositAll();\r\n    }\r\n    if (keccak256(bytes(functionName)) == keccak256(bytes('yVaultsWithdraw'))) {\r\n      YearnVault yVaults = YearnVault(_addresses[0]);\r\n      yVaults.withdraw(integers[0]);\r\n    }\r\n    if (\r\n      keccak256(bytes(functionName)) == keccak256(bytes('yVaultsWithdrawAll'))\r\n    ) {\r\n      YearnVault yVaults = YearnVault(_addresses[0]);\r\n      yVaults.withdrawAll();\r\n    }\r\n    if (\r\n      keccak256(bytes(functionName)) ==\r\n      keccak256(bytes('yVaultsPricePerFullShare'))\r\n    ) {\r\n      YearnVault yVaults = YearnVault(_addresses[0]);\r\n      yVaults.getPricePerFullShare();\r\n    }\r\n  }\r\n}\r\n",
  "sourcePath": "C:/Users/spiry/Documents/GitHub/kush.finance/contracts/KushFund/Connector.sol",
  "compiler": {
    "name": "solc",
    "version": "0.6.6+commit.6c089d02.Emscripten.clang"
  },
  "schemaVersion": "3.3.4",
  "updatedAt": "2021-03-09T22:42:42.177Z",
  "devdoc": {
    "methods": {}
  },
  "userdoc": {
    "methods": {}
  }
}