{
  "contractName": "kSEEDGovernance",
  "abi": [
    {
      "inputs": [
        {
          "internalType": "address",
          "name": "_kseedAddress",
          "type": "address"
        }
      ],
      "stateMutability": "nonpayable",
      "type": "constructor"
    },
    {
      "anonymous": false,
      "inputs": [
        {
          "indexed": true,
          "internalType": "address",
          "name": "admin",
          "type": "address"
        },
        {
          "indexed": false,
          "internalType": "address",
          "name": "removedAdmin",
          "type": "address"
        }
      ],
      "name": "adminRemoved",
      "type": "event"
    },
    {
      "anonymous": false,
      "inputs": [
        {
          "indexed": true,
          "internalType": "address",
          "name": "voter",
          "type": "address"
        },
        {
          "indexed": false,
          "internalType": "uint256",
          "name": "amount",
          "type": "uint256"
        }
      ],
      "name": "kseedWithdrawn",
      "type": "event"
    },
    {
      "anonymous": false,
      "inputs": [
        {
          "indexed": true,
          "internalType": "address",
          "name": "admin",
          "type": "address"
        },
        {
          "indexed": false,
          "internalType": "address",
          "name": "newAdmin",
          "type": "address"
        }
      ],
      "name": "newAdminAdded",
      "type": "event"
    },
    {
      "anonymous": false,
      "inputs": [
        {
          "indexed": true,
          "internalType": "address",
          "name": "proposer",
          "type": "address"
        },
        {
          "indexed": false,
          "internalType": "string",
          "name": "question",
          "type": "string"
        }
      ],
      "name": "proposalCreated",
      "type": "event"
    },
    {
      "anonymous": false,
      "inputs": [
        {
          "indexed": true,
          "internalType": "address",
          "name": "voter",
          "type": "address"
        },
        {
          "indexed": false,
          "internalType": "string",
          "name": "question",
          "type": "string"
        },
        {
          "indexed": false,
          "internalType": "string",
          "name": "option",
          "type": "string"
        }
      ],
      "name": "votedForProposal",
      "type": "event"
    },
    {
      "inputs": [],
      "name": "kseedAddress",
      "outputs": [
        {
          "internalType": "address",
          "name": "",
          "type": "address"
        }
      ],
      "stateMutability": "view",
      "type": "function"
    },
    {
      "inputs": [
        {
          "internalType": "uint256",
          "name": "",
          "type": "uint256"
        }
      ],
      "name": "proposals",
      "outputs": [
        {
          "internalType": "address",
          "name": "",
          "type": "address"
        }
      ],
      "stateMutability": "view",
      "type": "function"
    },
    {
      "inputs": [],
      "name": "topOption",
      "outputs": [
        {
          "internalType": "string",
          "name": "",
          "type": "string"
        }
      ],
      "stateMutability": "view",
      "type": "function"
    },
    {
      "inputs": [],
      "name": "topVotes",
      "outputs": [
        {
          "internalType": "uint256",
          "name": "",
          "type": "uint256"
        }
      ],
      "stateMutability": "view",
      "type": "function"
    },
    {
      "inputs": [
        {
          "internalType": "address",
          "name": "_addr",
          "type": "address"
        }
      ],
      "name": "setkSeedAddress",
      "outputs": [],
      "stateMutability": "nonpayable",
      "type": "function"
    },
    {
      "inputs": [],
      "name": "getBlockNumber",
      "outputs": [
        {
          "internalType": "uint256",
          "name": "",
          "type": "uint256"
        }
      ],
      "stateMutability": "view",
      "type": "function"
    },
    {
      "inputs": [
        {
          "internalType": "string",
          "name": "_proposalQuestion",
          "type": "string"
        },
        {
          "internalType": "address",
          "name": "_proposer",
          "type": "address"
        },
        {
          "internalType": "string[]",
          "name": "_options",
          "type": "string[]"
        },
        {
          "internalType": "string[]",
          "name": "_optionImgs",
          "type": "string[]"
        },
        {
          "internalType": "uint256",
          "name": "_endBlock",
          "type": "uint256"
        }
      ],
      "name": "createProposal",
      "outputs": [],
      "stateMutability": "nonpayable",
      "type": "function"
    },
    {
      "inputs": [
        {
          "internalType": "address",
          "name": "_proposal",
          "type": "address"
        }
      ],
      "name": "getProposal",
      "outputs": [
        {
          "internalType": "string",
          "name": "",
          "type": "string"
        },
        {
          "internalType": "address",
          "name": "",
          "type": "address"
        },
        {
          "internalType": "string[]",
          "name": "",
          "type": "string[]"
        },
        {
          "internalType": "string[]",
          "name": "",
          "type": "string[]"
        },
        {
          "internalType": "uint256[]",
          "name": "",
          "type": "uint256[]"
        },
        {
          "internalType": "uint256",
          "name": "",
          "type": "uint256"
        }
      ],
      "stateMutability": "view",
      "type": "function"
    },
    {
      "inputs": [
        {
          "internalType": "uint256",
          "name": "_amount",
          "type": "uint256"
        },
        {
          "internalType": "uint256",
          "name": "_optionIndex",
          "type": "uint256"
        },
        {
          "internalType": "address",
          "name": "_proposalAddr",
          "type": "address"
        }
      ],
      "name": "voteForProposal",
      "outputs": [],
      "stateMutability": "nonpayable",
      "type": "function"
    },
    {
      "inputs": [],
      "name": "withdrawkSeed",
      "outputs": [],
      "stateMutability": "nonpayable",
      "type": "function"
    },
    {
      "inputs": [
        {
          "internalType": "address",
          "name": "_admin",
          "type": "address"
        }
      ],
      "name": "addAdmin",
      "outputs": [],
      "stateMutability": "nonpayable",
      "type": "function"
    },
    {
      "inputs": [
        {
          "internalType": "address",
          "name": "_admin",
          "type": "address"
        }
      ],
      "name": "removeAdmin",
      "outputs": [],
      "stateMutability": "nonpayable",
      "type": "function"
    },
    {
      "inputs": [
        {
          "internalType": "uint256",
          "name": "amount",
          "type": "uint256"
        }
      ],
      "name": "depositETH",
      "outputs": [],
      "stateMutability": "payable",
      "type": "function"
    }
  ],
  "bytecode": "0x60806040523480156200001157600080fd5b5060405162002ebd38038062002ebd833981810160405281019062000037919062000152565b6001600260003373ffffffffffffffffffffffffffffffffffffffff1673ffffffffffffffffffffffffffffffffffffffff16815260200190815260200160002060000160006101000a81548160ff021916908315150217905550806000806101000a81548173ffffffffffffffffffffffffffffffffffffffff021916908373ffffffffffffffffffffffffffffffffffffffff1602179055506000809054906101000a900473ffffffffffffffffffffffffffffffffffffffff16600160006101000a81548173ffffffffffffffffffffffffffffffffffffffff021916908373ffffffffffffffffffffffffffffffffffffffff16021790555050620001cc565b6000815190506200014c81620001b2565b92915050565b6000602082840312156200016557600080fd5b600062000175848285016200013b565b91505092915050565b60006200018b8262000192565b9050919050565b600073ffffffffffffffffffffffffffffffffffffffff82169050919050565b620001bd816200017e565b8114620001c957600080fd5b50565b612ce180620001dc6000396000f3fe6080604052600436106100c25760003560e01c806355032e591161007f578063a79c543c11610059578063a79c543c14610245578063c023bdb31461025c578063eae24c7714610287578063eb8b9811146102b0576100c2565b806355032e59146101c857806370480275146101f3578063a22e44031461021c576100c2565b8063013cf08b146100c75780630a6dc7f8146101045780631785f53c1461012f578063312be5bf1461015857806342cbb15c146101815780635358fbda146101ac575b600080fd5b3480156100d357600080fd5b506100ee60048036038101906100e991906123c1565b6102f2565b6040516100fb9190612854565b60405180910390f35b34801561011057600080fd5b5061011961032e565b6040516101269190612854565b60405180910390f35b34801561013b57600080fd5b50610156600480360381019061015191906122b0565b610353565b005b34801561016457600080fd5b5061017f600480360381019061017a9190612302565b61048e565b005b34801561018d57600080fd5b506101966108b3565b6040516101a39190612a65565b60405180910390f35b6101c660048036038101906101c191906123c1565b6108bb565b005b3480156101d457600080fd5b506101dd6108ca565b6040516101ea91906128cf565b60405180910390f35b3480156101ff57600080fd5b5061021a600480360381019061021591906122b0565b610968565b005b34801561022857600080fd5b50610243600480360381019061023e91906122b0565b610aa3565b005b34801561025157600080fd5b5061025a610bd7565b005b34801561026857600080fd5b506102716110a0565b60405161027e9190612a65565b60405180910390f35b34801561029357600080fd5b506102ae60048036038101906102a991906123ea565b6110a6565b005b3480156102bc57600080fd5b506102d760048036038101906102d291906122b0565b6116c7565b6040516102e9969594939291906128f1565b60405180910390f35b600781815481106102ff57fe5b906000526020600020016000915054906101000a900473ffffffffffffffffffffffffffffffffffffffff1681565b6000809054906101000a900473ffffffffffffffffffffffffffffffffffffffff1681565b600260003373ffffffffffffffffffffffffffffffffffffffff1673ffffffffffffffffffffffffffffffffffffffff16815260200190815260200160002060000160009054906101000a900460ff166103e2576040517f08c379a00000000000000000000000000000000000000000000000000000000081526004016103d9906129c5565b60405180910390fd5b6000600260008373ffffffffffffffffffffffffffffffffffffffff1673ffffffffffffffffffffffffffffffffffffffff16815260200190815260200160002060000160006101000a81548160ff0219169083151502179055503373ffffffffffffffffffffffffffffffffffffffff167fedbf84ad6d9444bd2820ff443e5a48c589f1b441420360448a2a0b94d66c4a12826040516104839190612854565b60405180910390a250565b600260003373ffffffffffffffffffffffffffffffffffffffff1673ffffffffffffffffffffffffffffffffffffffff16815260200190815260200160002060000160009054906101000a900460ff1661051d576040517f08c379a0000000000000000000000000000000000000000000000000000000008152600401610514906129c5565b60405180910390fd5b84600660003373ffffffffffffffffffffffffffffffffffffffff1673ffffffffffffffffffffffffffffffffffffffff1681526020019081526020016000206000019080519060200190610573929190611f67565b5083600660003373ffffffffffffffffffffffffffffffffffffffff1673ffffffffffffffffffffffffffffffffffffffff16815260200190815260200160002060010160006101000a81548173ffffffffffffffffffffffffffffffffffffffff021916908373ffffffffffffffffffffffffffffffffffffffff16021790555082600660003373ffffffffffffffffffffffffffffffffffffffff1673ffffffffffffffffffffffffffffffffffffffff168152602001908152602001600020600201908051906020019061064b929190611fe7565b5081600660003373ffffffffffffffffffffffffffffffffffffffff1673ffffffffffffffffffffffffffffffffffffffff16815260200190815260200160002060030190805190602001906106a2929190611fe7565b5080600660003373ffffffffffffffffffffffffffffffffffffffff1673ffffffffffffffffffffffffffffffffffffffff16815260200190815260200160002060050181905550600660003373ffffffffffffffffffffffffffffffffffffffff1673ffffffffffffffffffffffffffffffffffffffff16815260200190815260200160002060040160006107389190612047565b60008090505b83518110156107be57600660003373ffffffffffffffffffffffffffffffffffffffff1673ffffffffffffffffffffffffffffffffffffffff16815260200190815260200160002060040160009080600181540180825580915050600190039060005260206000200160009091909190915055808060010191505061073e565b5060405180602001604052806000815250600490805190602001906107e4929190611f67565b506000600581905550600760006107fb9190612068565b6007339080600181540180825580915050600190039060005260206000200160009091909190916101000a81548173ffffffffffffffffffffffffffffffffffffffff021916908373ffffffffffffffffffffffffffffffffffffffff1602179055508373ffffffffffffffffffffffffffffffffffffffff167ff6683c1ffe46b98aee13437382371394d1eeaa0fe5fb4c32fe4b199c02b48f8a866040516108a491906128cf565b60405180910390a25050505050565b600043905090565b8034146108c757600080fd5b50565b60048054600181600116156101000203166002900480601f0160208091040260200160405190810160405280929190818152602001828054600181600116156101000203166002900480156109605780601f1061093557610100808354040283529160200191610960565b820191906000526020600020905b81548152906001019060200180831161094357829003601f168201915b505050505081565b600260003373ffffffffffffffffffffffffffffffffffffffff1673ffffffffffffffffffffffffffffffffffffffff16815260200190815260200160002060000160009054906101000a900460ff166109f7576040517f08c379a00000000000000000000000000000000000000000000000000000000081526004016109ee906129c5565b60405180910390fd5b6001600260008373ffffffffffffffffffffffffffffffffffffffff1673ffffffffffffffffffffffffffffffffffffffff16815260200190815260200160002060000160006101000a81548160ff0219169083151502179055503373ffffffffffffffffffffffffffffffffffffffff167fbfa413337aaf515d5d4460a3631b4585cda122561a3f0b5a017a1096c46a56a682604051610a989190612854565b60405180910390a250565b600260003373ffffffffffffffffffffffffffffffffffffffff1673ffffffffffffffffffffffffffffffffffffffff16815260200190815260200160002060000160009054906101000a900460ff16610b32576040517f08c379a0000000000000000000000000000000000000000000000000000000008152600401610b29906129c5565b60405180910390fd5b806000806101000a81548173ffffffffffffffffffffffffffffffffffffffff021916908373ffffffffffffffffffffffffffffffffffffffff1602179055506000809054906101000a900473ffffffffffffffffffffffffffffffffffffffff16600160006101000a81548173ffffffffffffffffffffffffffffffffffffffff021916908373ffffffffffffffffffffffffffffffffffffffff16021790555050565b600660006007600081548110610be957fe5b9060005260206000200160009054906101000a900473ffffffffffffffffffffffffffffffffffffffff1673ffffffffffffffffffffffffffffffffffffffff1673ffffffffffffffffffffffffffffffffffffffff168152602001908152602001600020600501544311610c93576040517f08c379a0000000000000000000000000000000000000000000000000000000008152600401610c8a90612a45565b60405180910390fd5b6000600360003373ffffffffffffffffffffffffffffffffffffffff1673ffffffffffffffffffffffffffffffffffffffff16815260200190815260200160002060010160009054906101000a900473ffffffffffffffffffffffffffffffffffffffff1690506060600360003373ffffffffffffffffffffffffffffffffffffffff1673ffffffffffffffffffffffffffffffffffffffff1681526020019081526020016000206002018054600181600116156101000203166002900480601f016020809104026020016040519081016040528092919081815260200182805460018160011615610100020316600290048015610dd25780601f10610da757610100808354040283529160200191610dd2565b820191906000526020600020905b815481529060010190602001808311610db557829003601f168201915b505050505090506060600660008473ffffffffffffffffffffffffffffffffffffffff1673ffffffffffffffffffffffffffffffffffffffff1681526020019081526020016000206000018054600181600116156101000203166002900480601f016020809104026020016040519081016040528092919081815260200182805460018160011615610100020316600290048015610eb15780601f10610e8657610100808354040283529160200191610eb1565b820191906000526020600020905b815481529060010190602001808311610e9457829003601f168201915b50505050509050808051906020012082805190602001201415610f1d5743600660008573ffffffffffffffffffffffffffffffffffffffff1673ffffffffffffffffffffffffffffffffffffffff1681526020019081526020016000206005015410610f1c57600080fd5b5b6000600360003373ffffffffffffffffffffffffffffffffffffffff1673ffffffffffffffffffffffffffffffffffffffff168152602001908152602001600020600001549050610fb13382600160009054906101000a900473ffffffffffffffffffffffffffffffffffffffff1673ffffffffffffffffffffffffffffffffffffffff16611b499092919063ffffffff16565b61100681600360003373ffffffffffffffffffffffffffffffffffffffff1673ffffffffffffffffffffffffffffffffffffffff16815260200190815260200160002060000154611bcf90919063ffffffff16565b600360003373ffffffffffffffffffffffffffffffffffffffff1673ffffffffffffffffffffffffffffffffffffffff168152602001908152602001600020600001819055503373ffffffffffffffffffffffffffffffffffffffff167f4658aef41a577d8e94de3d6b9b1ae98bf28fd7c1db13e85a34390e06de07e967826040516110929190612a65565b60405180910390a250505050565b60055481565b600660008273ffffffffffffffffffffffffffffffffffffffff1673ffffffffffffffffffffffffffffffffffffffff16815260200190815260200160002060050154431061112a576040517f08c379a0000000000000000000000000000000000000000000000000000000008152600401611121906129e5565b60405180910390fd5b611179333085600160009054906101000a900473ffffffffffffffffffffffffffffffffffffffff1673ffffffffffffffffffffffffffffffffffffffff16611c19909392919063ffffffff16565b6111ce83600360003373ffffffffffffffffffffffffffffffffffffffff1673ffffffffffffffffffffffffffffffffffffffff16815260200190815260200160002060000154611ca290919063ffffffff16565b600360003373ffffffffffffffffffffffffffffffffffffffff1673ffffffffffffffffffffffffffffffffffffffff1681526020019081526020016000206000018190555080600360003373ffffffffffffffffffffffffffffffffffffffff1673ffffffffffffffffffffffffffffffffffffffff16815260200190815260200160002060010160006101000a81548173ffffffffffffffffffffffffffffffffffffffff021916908373ffffffffffffffffffffffffffffffffffffffff160217905550600660008273ffffffffffffffffffffffffffffffffffffffff1673ffffffffffffffffffffffffffffffffffffffff168152602001908152602001600020600001600360003373ffffffffffffffffffffffffffffffffffffffff1673ffffffffffffffffffffffffffffffffffffffff1681526020019081526020016000206002019080546001816001161561010002031660029004611338929190612089565b50600660008273ffffffffffffffffffffffffffffffffffffffff1673ffffffffffffffffffffffffffffffffffffffff168152602001908152602001600020600201828154811061138657fe5b90600052602060002001600360003373ffffffffffffffffffffffffffffffffffffffff1673ffffffffffffffffffffffffffffffffffffffff16815260200190815260200160002060030190805460018160011615610100020316600290046113f1929190612089565b5061145c83600660008473ffffffffffffffffffffffffffffffffffffffff1673ffffffffffffffffffffffffffffffffffffffff168152602001908152602001600020600401848154811061144357fe5b9060005260206000200154611ca290919063ffffffff16565b600660008373ffffffffffffffffffffffffffffffffffffffff1673ffffffffffffffffffffffffffffffffffffffff16815260200190815260200160002060040183815481106114a957fe5b9060005260206000200181905550600554600660008373ffffffffffffffffffffffffffffffffffffffff1673ffffffffffffffffffffffffffffffffffffffff168152602001908152602001600020600401838154811061150757fe5b906000526020600020015411156115f057600660008273ffffffffffffffffffffffffffffffffffffffff1673ffffffffffffffffffffffffffffffffffffffff168152602001908152602001600020600201828154811061156557fe5b9060005260206000200160049080546001816001161561010002031660029004611590929190612089565b50600660008273ffffffffffffffffffffffffffffffffffffffff1673ffffffffffffffffffffffffffffffffffffffff16815260200190815260200160002060040182815481106115de57fe5b90600052602060002001546005819055505b3373ffffffffffffffffffffffffffffffffffffffff167fd19bd44cefd1d78c5bdb20628547d2dda631deef4adfd63d451f9f5fc7b388ae600660008473ffffffffffffffffffffffffffffffffffffffff1673ffffffffffffffffffffffffffffffffffffffff168152602001908152602001600020600001600360003373ffffffffffffffffffffffffffffffffffffffff1673ffffffffffffffffffffffffffffffffffffffff1681526020019081526020016000206003016040516116ba92919061296e565b60405180910390a2505050565b6060600060608060606000600660008873ffffffffffffffffffffffffffffffffffffffff1673ffffffffffffffffffffffffffffffffffffffff168152602001908152602001600020600001600660008973ffffffffffffffffffffffffffffffffffffffff1673ffffffffffffffffffffffffffffffffffffffff16815260200190815260200160002060010160009054906101000a900473ffffffffffffffffffffffffffffffffffffffff16600660008a73ffffffffffffffffffffffffffffffffffffffff1673ffffffffffffffffffffffffffffffffffffffff168152602001908152602001600020600201600660008b73ffffffffffffffffffffffffffffffffffffffff1673ffffffffffffffffffffffffffffffffffffffff168152602001908152602001600020600301600660008c73ffffffffffffffffffffffffffffffffffffffff1673ffffffffffffffffffffffffffffffffffffffff168152602001908152602001600020600401600660008d73ffffffffffffffffffffffffffffffffffffffff1673ffffffffffffffffffffffffffffffffffffffff16815260200190815260200160002060050154858054600181600116156101000203166002900480601f0160208091040260200160405190810160405280929190818152602001828054600181600116156101000203166002900480156119155780601f106118ea57610100808354040283529160200191611915565b820191906000526020600020905b8154815290600101906020018083116118f857829003601f168201915b5050505050955083805480602002602001604051908101604052809291908181526020016000905b828210156119f9578382906000526020600020018054600181600116156101000203166002900480601f0160208091040260200160405190810160405280929190818152602001828054600181600116156101000203166002900480156119e55780601f106119ba576101008083540402835291602001916119e5565b820191906000526020600020905b8154815290600101906020018083116119c857829003601f168201915b50505050508152602001906001019061193d565b50505050935082805480602002602001604051908101604052809291908181526020016000905b82821015611adc578382906000526020600020018054600181600116156101000203166002900480601f016020809104026020016040519081016040528092919081815260200182805460018160011615610100020316600290048015611ac85780601f10611a9d57610100808354040283529160200191611ac8565b820191906000526020600020905b815481529060010190602001808311611aab57829003601f168201915b505050505081526020019060010190611a20565b50505050925081805480602002602001604051908101604052809291908181526020018280548015611b2d57602002820191906000526020600020905b815481526020019060010190808311611b19575b5050505050915095509550955095509550955091939550919395565b611bca8363a9059cbb60e01b8484604051602401611b689291906128a6565b604051602081830303815290604052907bffffffffffffffffffffffffffffffffffffffffffffffffffffffff19166020820180517bffffffffffffffffffffffffffffffffffffffffffffffffffffffff8381831617835250505050611cf7565b505050565b6000611c1183836040518060400160405280601e81526020017f536166654d6174683a207375627472616374696f6e206f766572666c6f770000815250611dbe565b905092915050565b611c9c846323b872dd60e01b858585604051602401611c3a9392919061286f565b604051602081830303815290604052907bffffffffffffffffffffffffffffffffffffffffffffffffffffffff19166020820180517bffffffffffffffffffffffffffffffffffffffffffffffffffffffff8381831617835250505050611cf7565b50505050565b600080828401905083811015611ced576040517f08c379a0000000000000000000000000000000000000000000000000000000008152600401611ce4906129a5565b60405180910390fd5b8091505092915050565b6060611d59826040518060400160405280602081526020017f5361666545524332303a206c6f772d6c6576656c2063616c6c206661696c65648152508573ffffffffffffffffffffffffffffffffffffffff16611e199092919063ffffffff16565b9050600081511115611db95780806020019051810190611d7991906122d9565b611db8576040517f08c379a0000000000000000000000000000000000000000000000000000000008152600401611daf90612a25565b60405180910390fd5b5b505050565b6000838311158290611e06576040517f08c379a0000000000000000000000000000000000000000000000000000000008152600401611dfd91906128cf565b60405180910390fd5b5060008385039050809150509392505050565b6060611e288484600085611e31565b90509392505050565b6060611e3c85611f54565b611e7b576040517f08c379a0000000000000000000000000000000000000000000000000000000008152600401611e7290612a05565b60405180910390fd5b600060608673ffffffffffffffffffffffffffffffffffffffff168587604051611ea5919061283d565b60006040518083038185875af1925050503d8060008114611ee2576040519150601f19603f3d011682016040523d82523d6000602084013e611ee7565b606091505b50915091508115611efc578092505050611f4c565b600081511115611f0f5780518082602001fd5b836040517f08c379a0000000000000000000000000000000000000000000000000000000008152600401611f4391906128cf565b60405180910390fd5b949350505050565b600080823b905060008111915050919050565b828054600181600116156101000203166002900490600052602060002090601f016020900481019282601f10611fa857805160ff1916838001178555611fd6565b82800160010185558215611fd6579182015b82811115611fd5578251825591602001919060010190611fba565b5b509050611fe39190612110565b5090565b828054828255906000526020600020908101928215612036579160200282015b82811115612035578251829080519060200190612025929190611f67565b5091602001919060010190612007565b5b5090506120439190612135565b5090565b50805460008255906000526020600020908101906120659190612110565b50565b50805460008255906000526020600020908101906120869190612110565b50565b828054600181600116156101000203166002900490600052602060002090601f016020900481019282601f106120c257805485556120ff565b828001600101855582156120ff57600052602060002091601f016020900482015b828111156120fe5782548255916001019190600101906120e3565b5b50905061210c9190612110565b5090565b61213291905b8082111561212e576000816000905550600101612116565b5090565b90565b61215e91905b8082111561215a57600081816121519190612161565b5060010161213b565b5090565b90565b50805460018160011615610100020316600290046000825580601f1061218757506121a6565b601f0160209004906000526020600020908101906121a59190612110565b5b50565b6000813590506121b881612c66565b92915050565b600082601f8301126121cf57600080fd5b81356121e26121dd82612aad565b612a80565b9150818183526020840193506020810190508360005b83811015612228578135860161220e8882612247565b8452602084019350602083019250506001810190506121f8565b5050505092915050565b60008151905061224181612c7d565b92915050565b600082601f83011261225857600080fd5b813561226b61226682612ad5565b612a80565b9150808252602083016020830185838301111561228757600080fd5b612292838284612c13565b50505092915050565b6000813590506122aa81612c94565b92915050565b6000602082840312156122c257600080fd5b60006122d0848285016121a9565b91505092915050565b6000602082840312156122eb57600080fd5b60006122f984828501612232565b91505092915050565b600080600080600060a0868803121561231a57600080fd5b600086013567ffffffffffffffff81111561233457600080fd5b61234088828901612247565b9550506020612351888289016121a9565b945050604086013567ffffffffffffffff81111561236e57600080fd5b61237a888289016121be565b935050606086013567ffffffffffffffff81111561239757600080fd5b6123a3888289016121be565b92505060806123b48882890161229b565b9150509295509295909350565b6000602082840312156123d357600080fd5b60006123e18482850161229b565b91505092915050565b6000806000606084860312156123ff57600080fd5b600061240d8682870161229b565b935050602061241e8682870161229b565b925050604061242f868287016121a9565b9150509250925092565b60006124458383612578565b905092915050565b6000612459838361281f565b60208301905092915050565b61246e81612bcb565b82525050565b600061247f82612b36565b6124898185612b7c565b93508360208202850161249b85612b01565b8060005b858110156124d757848403895281516124b88582612439565b94506124c383612b62565b925060208a0199505060018101905061249f565b50829750879550505050505092915050565b60006124f482612b41565b6124fe8185612b8d565b935061250983612b11565b8060005b8381101561253a578151612521888261244d565b975061252c83612b6f565b92505060018101905061250d565b5085935050505092915050565b600061255282612b4c565b61255c8185612b9e565b935061256c818560208601612c22565b80840191505092915050565b600061258382612b57565b61258d8185612ba9565b935061259d818560208601612c22565b6125a681612c55565b840191505092915050565b60006125bc82612b57565b6125c68185612bba565b93506125d6818560208601612c22565b6125df81612c55565b840191505092915050565b600081546001811660008114612607576001811461262d57612671565b607f60028304166126188187612bba565b955060ff198316865260208601935050612671565b6002820461263b8187612bba565b955061264685612b21565b60005b8281101561266857815481890152600182019150602081019050612649565b80880195505050505b505092915050565b6000612686601b83612bba565b91507f536166654d6174683a206164646974696f6e206f766572666c6f7700000000006000830152602082019050919050565b60006126c6601b83612bba565b91507f596f7520646f206e6f742068617665207065726d697373696f6e2e00000000006000830152602082019050919050565b6000612706601783612bba565b91507f566f74696e6720697320616c7265616479206f766572210000000000000000006000830152602082019050919050565b6000612746601d83612bba565b91507f416464726573733a2063616c6c20746f206e6f6e2d636f6e74726163740000006000830152602082019050919050565b6000612786602a83612bba565b91507f5361666545524332303a204552433230206f7065726174696f6e20646964206e60008301527f6f742073756363656564000000000000000000000000000000000000000000006020830152604082019050919050565b60006127ec601983612bba565b91507f566f74696e6720686173206e6f7420656e6465642079657421000000000000006000830152602082019050919050565b61282881612c09565b82525050565b61283781612c09565b82525050565b60006128498284612547565b915081905092915050565b60006020820190506128696000830184612465565b92915050565b60006060820190506128846000830186612465565b6128916020830185612465565b61289e604083018461282e565b949350505050565b60006040820190506128bb6000830185612465565b6128c8602083018461282e565b9392505050565b600060208201905081810360008301526128e981846125b1565b905092915050565b600060c082019050818103600083015261290b81896125b1565b905061291a6020830188612465565b818103604083015261292c8187612474565b905081810360608301526129408186612474565b9050818103608083015261295481856124e9565b905061296360a083018461282e565b979650505050505050565b6000604082019050818103600083015261298881856125ea565b9050818103602083015261299c81846125ea565b90509392505050565b600060208201905081810360008301526129be81612679565b9050919050565b600060208201905081810360008301526129de816126b9565b9050919050565b600060208201905081810360008301526129fe816126f9565b9050919050565b60006020820190508181036000830152612a1e81612739565b9050919050565b60006020820190508181036000830152612a3e81612779565b9050919050565b60006020820190508181036000830152612a5e816127df565b9050919050565b6000602082019050612a7a600083018461282e565b92915050565b6000604051905081810181811067ffffffffffffffff82111715612aa357600080fd5b8060405250919050565b600067ffffffffffffffff821115612ac457600080fd5b602082029050602081019050919050565b600067ffffffffffffffff821115612aec57600080fd5b601f19601f8301169050602081019050919050565b6000819050602082019050919050565b6000819050602082019050919050565b60008190508160005260206000209050919050565b600081519050919050565b600081519050919050565b600081519050919050565b600081519050919050565b6000602082019050919050565b6000602082019050919050565b600082825260208201905092915050565b600082825260208201905092915050565b600081905092915050565b600082825260208201905092915050565b600082825260208201905092915050565b6000612bd682612be9565b9050919050565b60008115159050919050565b600073ffffffffffffffffffffffffffffffffffffffff82169050919050565b6000819050919050565b82818337600083830152505050565b60005b83811015612c40578082015181840152602081019050612c25565b83811115612c4f576000848401525b50505050565b6000601f19601f8301169050919050565b612c6f81612bcb565b8114612c7a57600080fd5b50565b612c8681612bdd565b8114612c9157600080fd5b50565b612c9d81612c09565b8114612ca857600080fd5b5056fea2646970667358221220ebe8a4845c6291352de18d7c9b627115a8702bd429fa44275f0ab9c7ed452c0c64736f6c63430006060033",
  "immutableReferences": {},
  "source": "// SPDX-License-Identifier: MIT\r\n// KUSH.FINANCE GOVERNANCE CONTRACT\r\n// By KushMaster420 and SpiryBTC had helped\r\n// Developing the FIRST PUBLIC & OPEN SOURCE GOVERNANCE CONTRACT\r\n// THANKS TO THE COMMUNITY & THE TEAM BEHIND IT \r\n//                        .\r\n//                       .:.\r\n//                       :|:\r\n//                      .:|:.\r\n//                      ::|::\r\n//       :.             ::|::             .:\r\n//       :|:.          .::|::.          .:|:\r\n//       ::|:.         :::|:::         .:|:;\r\n//       `::|:.        :::|:::        .:|::'\r\n//        ::|::.       :::|:::       .::|:;\r\n//        `::|::.      :::|:::      .::|::'\r\n//         :::|::.     :::|:::     .::|::;\r\n//         `:::|::.    :::|:::    .::|::;'\r\n//`::.      `:::|::.   :::|:::   .::|::;'      .:;'\r\n// `:::..     ::|::.  :::|:::  .::|::    ..::;'\r\n//   `:::::.    ':|::. :::|::: .::|:'   ,::::;'\r\n//     `:::::.    ':|:::::|:::::|:'   :::::;'\r\n//       `:::::.:::::|::::|::::|::::.,:::;'\r\n//          ':::::::::|:::|:::|:::::::;:'\r\n//             ':::::::|::|::|:::::::''\r\n//                  `::::::::::;'\r\n//                 .:;'' ::: ``::.\r\n//                      :':':\r\n//                        ;\r\n//\r\n//                   KUSH.FINANCE \r\n//\r\n// Supported by smokers world wide.\r\n\r\n\r\npragma solidity ^0.6.6;\r\npragma experimental ABIEncoderV2;\r\n\r\n\r\nimport \"@openzeppelin/contracts/token/ERC20/ERC20.sol\";\r\nimport \"@openzeppelin/contracts/token/ERC20/SafeERC20.sol\";\r\nimport \"@openzeppelin/contracts/math/SafeMath.sol\";\r\n\r\n\r\ncontract kSEEDGovernance {\r\n    using SafeERC20 for IERC20;\r\n    using SafeMath for uint256;\r\n    address public kseedAddress;  IERC20 private kseedIERC20;\r\n    \r\n    struct status {\r\n        bool isAdmin;\r\n        }\r\n        \r\n    mapping(address => status) private currentAdmins;\r\n    \r\n    \r\n    struct kseedVoted {\r\n        uint256 votes; \r\n        address proposalAddr; \r\n        string proposalQuestion;\r\n        string option;\r\n        }\r\n\r\n    mapping(address => kseedVoted) \r\n    private kseedVotes;\r\n    string public topOption;\r\n    uint256 public topVotes;\r\n    \r\n    \r\n    struct proposal {\r\n         string proposalQuestion; \r\n         address proposer;\r\n         string[] options;\r\n         string[] optionImgs; \r\n         uint256[] optionVotes; \r\n         uint256 endBlock;\r\n         }\r\n         \r\n    mapping(address => proposal) private eachProposal;\r\n    \r\n    address[] public proposals;\r\n\r\n    modifier _isAdmin() \r\n    {\r\n        require(currentAdmins[msg.sender].isAdmin, \"You do not have permission.\");       _;\r\n    }\r\n    \r\n    \r\n    event proposalCreated(address indexed proposer, string question);\r\n    event votedForProposal(address indexed voter, string question, string option);\r\n    event kseedWithdrawn(address indexed voter, uint256 amount);\r\n    event newAdminAdded(address indexed admin, address newAdmin);\r\n    event adminRemoved(address indexed admin, address removedAdmin);\r\n    \r\n    \r\n     constructor(address _kseedAddress) public {\r\n         \r\n        currentAdmins[msg.sender].isAdmin = true;\r\n        kseedAddress = _kseedAddress;\r\n        kseedIERC20 = IERC20(kseedAddress);}\r\n        \r\n        \r\n    function setkSeedAddress(address _addr) public _isAdmin {\r\n        kseedAddress = _addr;\r\n        kseedIERC20 = IERC20(kseedAddress);\r\n        }\r\n    \r\n    function getBlockNumber() public view returns (uint256) {\r\n        return block.number;}\r\n    \r\n    function createProposal(string memory _proposalQuestion,address _proposer,string[] memory _options,  string[] memory _optionImgs,    uint256 _endBlock) public \r\n    \r\n    _isAdmin {\r\n        eachProposal[msg.sender].proposalQuestion = _proposalQuestion;\r\n        eachProposal[msg.sender].proposer = _proposer;\r\n        eachProposal[msg.sender].options = _options;\r\n        eachProposal[msg.sender].optionImgs = _optionImgs;\r\n        eachProposal[msg.sender].endBlock = _endBlock;\r\n        delete eachProposal[msg.sender].optionVotes;\r\n         for (uint256 i = 0; i < _options.length; i++) {\r\n         eachProposal[msg.sender].optionVotes.push(0);\r\n         }\r\n         \r\n         \r\n    topOption = \"\";\r\n    topVotes = 0;\r\n    delete proposals;\r\n    proposals.push(msg.sender);      \r\n    emit proposalCreated(_proposer, _proposalQuestion);}\r\n    function getProposal(address _proposal) public view returns(string memory,address, string[] memory, string[] memory, uint256[] memory,uint256) \r\n                                            {\r\n                                                return(eachProposal[_proposal].proposalQuestion, \r\n                                                eachProposal[_proposal].proposer,\r\n                                                 eachProposal[_proposal].options,\r\n                                                 eachProposal[_proposal].optionImgs,\r\n                                                 eachProposal[_proposal].optionVotes,\r\n                                                  eachProposal[_proposal].endBlock);\r\n                                            }\r\n                                            \r\n    function voteForProposal(uint256 _amount, uint256 _optionIndex, address _proposalAddr) public {\r\n        require(block.number < eachProposal[_proposalAddr].endBlock, \"Voting is already over!\");    \r\n        kseedIERC20.safeTransferFrom(msg.sender, address(this), _amount);\r\n        kseedVotes[msg.sender].votes = kseedVotes[msg.sender].votes.add(_amount);\r\n         kseedVotes[msg.sender].proposalAddr = _proposalAddr;\r\n        kseedVotes[msg.sender].proposalQuestion = eachProposal[_proposalAddr].proposalQuestion;\r\n        kseedVotes[msg.sender].option = eachProposal[_proposalAddr].options[_optionIndex];\r\n        eachProposal[_proposalAddr].optionVotes[_optionIndex] = eachProposal[_proposalAddr].optionVotes[_optionIndex].add(_amount);\r\n          if (eachProposal[_proposalAddr].optionVotes[_optionIndex] > topVotes) {\r\n               topOption = eachProposal[_proposalAddr].options[_optionIndex];\r\n               topVotes = eachProposal[_proposalAddr].optionVotes[_optionIndex];\r\n               }\r\n               \r\n               \r\n        emit votedForProposal(msg.sender, eachProposal[_proposalAddr].proposalQuestion, kseedVotes[msg.sender].option);}\r\n        function withdrawkSeed() public {\r\n            \r\n            require(block.number > eachProposal[proposals[0]].endBlock, \"Voting has not ended yet!\");    \r\n            address propAddr = kseedVotes[msg.sender].proposalAddr;\r\n            string memory propQuestion = kseedVotes[msg.sender].proposalQuestion;    \r\n            string memory currentQuestion = eachProposal[propAddr].proposalQuestion;\r\n                  if (keccak256(bytes(propQuestion)) == keccak256(bytes(currentQuestion))) {\r\n                       require(eachProposal[propAddr].endBlock < block.number);\r\n                       }\r\n                       \r\n             uint256 amount = kseedVotes[msg.sender].votes;\r\n             kseedIERC20.safeTransfer(msg.sender, amount);\r\n             kseedVotes[msg.sender].votes = kseedVotes[msg.sender].votes.sub(amount);\r\n                   emit kseedWithdrawn(msg.sender, amount);}\r\n                   \r\n    function addAdmin(address _admin) public _isAdmin \r\n                    {\r\n                    currentAdmins[_admin].isAdmin = true;\r\n                    emit newAdminAdded(msg.sender, _admin);\r\n                     }\r\n                     \r\n    function removeAdmin(address _admin) public _isAdmin {currentAdmins[_admin].isAdmin = false;\r\n         emit adminRemoved(msg.sender, _admin);}\r\n    function depositETH(uint256 amount) payable public {\r\n        require(msg.value == amount);  }\r\n    \r\n    \r\n    \r\n    \r\n    \r\n}",
  "sourcePath": "C:/Users/spiry/Documents/GitHub/kush.finance/contracts/KushFund/kSEEDGovernance.sol",
  "compiler": {
    "name": "solc",
    "version": "0.6.6+commit.6c089d02.Emscripten.clang"
  },
  "schemaVersion": "3.2.4",
  "updatedAt": "2020-10-05T00:19:04.435Z",
  "devdoc": {
    "methods": {}
  },
  "userdoc": {
    "methods": {}
  }
}