{
  "contractName": "kSeedGifting",
  "abi": [
    {
      "inputs": [],
      "stateMutability": "payable",
      "type": "constructor"
    },
    {
      "inputs": [
        {
          "internalType": "address[]",
          "name": "_recipients",
          "type": "address[]"
        },
        {
          "internalType": "uint256",
          "name": "_amountPer",
          "type": "uint256"
        }
      ],
      "name": "sendGifts",
      "outputs": [],
      "stateMutability": "nonpayable",
      "type": "function"
    }
  ],
  "bytecode": "0x6080604052733f09400313e83d53366147e3ea0e4e2279d808506000806101000a81548173ffffffffffffffffffffffffffffffffffffffff021916908373ffffffffffffffffffffffffffffffffffffffff1602179055506000809054906101000a900473ffffffffffffffffffffffffffffffffffffffff16600160006101000a81548173ffffffffffffffffffffffffffffffffffffffff021916908373ffffffffffffffffffffffffffffffffffffffff1602179055506105e2806100c96000396000f3fe608060405234801561001057600080fd5b506004361061002b5760003560e01c8063146ceaa314610030575b600080fd5b6100f06004803603604081101561004657600080fd5b810190808035906020019064010000000081111561006357600080fd5b82018360208201111561007557600080fd5b8035906020019184602083028401116401000000008311171561009757600080fd5b919080806020026020016040519081016040528093929190818152602001838360200280828437600081840152601f19601f820116905080830192505050505050509192919290803590602001909291905050506100f2565b005b60008090505b8251811015610170576101633384838151811061011157fe5b602002602001015184600160009054906101000a900473ffffffffffffffffffffffffffffffffffffffff1673ffffffffffffffffffffffffffffffffffffffff16610175909392919063ffffffff16565b80806001019150506100f8565b505050565b61025c846323b872dd60e01b858585604051602401808473ffffffffffffffffffffffffffffffffffffffff1673ffffffffffffffffffffffffffffffffffffffff1681526020018373ffffffffffffffffffffffffffffffffffffffff1673ffffffffffffffffffffffffffffffffffffffff1681526020018281526020019350505050604051602081830303815290604052907bffffffffffffffffffffffffffffffffffffffffffffffffffffffff19166020820180517bffffffffffffffffffffffffffffffffffffffffffffffffffffffff8381831617835250505050610262565b50505050565b60606102c4826040518060400160405280602081526020017f5361666545524332303a206c6f772d6c6576656c2063616c6c206661696c65648152508573ffffffffffffffffffffffffffffffffffffffff166103519092919063ffffffff16565b905060008151111561034c578080602001905160208110156102e557600080fd5b810190808051906020019092919050505061034b576040517f08c379a000000000000000000000000000000000000000000000000000000000815260040180806020018281038252602a815260200180610583602a913960400191505060405180910390fd5b5b505050565b60606103608484600085610369565b90509392505050565b60606103748561056f565b6103e6576040517f08c379a000000000000000000000000000000000000000000000000000000000815260040180806020018281038252601d8152602001807f416464726573733a2063616c6c20746f206e6f6e2d636f6e747261637400000081525060200191505060405180910390fd5b600060608673ffffffffffffffffffffffffffffffffffffffff1685876040518082805190602001908083835b602083106104365780518252602082019150602081019050602083039250610413565b6001836020036101000a03801982511681845116808217855250505050505090500191505060006040518083038185875af1925050503d8060008114610498576040519150601f19603f3d011682016040523d82523d6000602084013e61049d565b606091505b509150915081156104b2578092505050610567565b6000815111156104c55780518082602001fd5b836040517f08c379a00000000000000000000000000000000000000000000000000000000081526004018080602001828103825283818151815260200191508051906020019080838360005b8381101561052c578082015181840152602081019050610511565b50505050905090810190601f1680156105595780820380516001836020036101000a031916815260200191505b509250505060405180910390fd5b949350505050565b600080823b90506000811191505091905056fe5361666545524332303a204552433230206f7065726174696f6e20646964206e6f742073756363656564a264697066735822122024e3fa70bbd45d06b57a3536cdf97559ef301d63190bc895d1d82a74a3d5a23264736f6c63430006060033",
  "immutableReferences": {},
  "source": "pragma solidity ^0.6.0;\n\nimport \"@openzeppelin/contracts/token/ERC20/SafeERC20.sol\";\nimport \"@openzeppelin/contracts/math/SafeMath.sol\";\ncontract kSeedGifting {\n    \n    using SafeERC20 for IERC20;\n    using SafeMath for uint256;\n    \n    \n    address private kseed = 0x3F09400313e83d53366147e3ea0e4e2279D80850;\n    IERC20 private kseedToken = IERC20(kseed);\n    \n    constructor() public payable {\n        \n    }\n    \n    function sendGifts(address[] memory _recipients, uint256 _amountPer) public {\n        for(uint i = 0; i < _recipients.length; i++) {\n            kseedToken.safeTransferFrom(msg.sender, _recipients[i], _amountPer);\n        }\n    }\n    \n}",
  "sourcePath": "C:/Users/spiry/Documents/GitHub/kush.finance/contracts/SeedGifting.sol",
  "compiler": {
    "name": "solc",
    "version": "0.6.6+commit.6c089d02.Emscripten.clang"
  },
  "schemaVersion": "3.2.4",
  "updatedAt": "2020-09-19T12:50:10.322Z",
  "devdoc": {
    "methods": {}
  },
  "userdoc": {
    "methods": {}
  }
}