{
  "contractName": "kSeedVoting",
  "abi": [
    {
      "inputs": [],
      "stateMutability": "nonpayable",
      "type": "constructor"
    },
    {
      "inputs": [],
      "name": "canDistribute",
      "outputs": [
        {
          "internalType": "bool",
          "name": "",
          "type": "bool"
        }
      ],
      "stateMutability": "view",
      "type": "function"
    },
    {
      "inputs": [],
      "name": "connectorAddress",
      "outputs": [
        {
          "internalType": "address",
          "name": "",
          "type": "address"
        }
      ],
      "stateMutability": "view",
      "type": "function"
    },
    {
      "inputs": [],
      "name": "costPerVote",
      "outputs": [
        {
          "internalType": "uint256",
          "name": "",
          "type": "uint256"
        }
      ],
      "stateMutability": "view",
      "type": "function"
    },
    {
      "inputs": [],
      "name": "currentDistributionAddress",
      "outputs": [
        {
          "internalType": "address",
          "name": "",
          "type": "address"
        }
      ],
      "stateMutability": "view",
      "type": "function"
    },
    {
      "inputs": [],
      "name": "currentDistributionAmount",
      "outputs": [
        {
          "internalType": "uint256",
          "name": "",
          "type": "uint256"
        }
      ],
      "stateMutability": "view",
      "type": "function"
    },
    {
      "inputs": [],
      "name": "currentDistributionAmountClaimed",
      "outputs": [
        {
          "internalType": "uint256",
          "name": "",
          "type": "uint256"
        }
      ],
      "stateMutability": "view",
      "type": "function"
    },
    {
      "inputs": [],
      "name": "currentDistributionEndBlock",
      "outputs": [
        {
          "internalType": "uint256",
          "name": "",
          "type": "uint256"
        }
      ],
      "stateMutability": "view",
      "type": "function"
    },
    {
      "inputs": [],
      "name": "currentVotingEndBlock",
      "outputs": [
        {
          "internalType": "uint256",
          "name": "",
          "type": "uint256"
        }
      ],
      "stateMutability": "view",
      "type": "function"
    },
    {
      "inputs": [],
      "name": "currentVotingStartBlock",
      "outputs": [
        {
          "internalType": "uint256",
          "name": "",
          "type": "uint256"
        }
      ],
      "stateMutability": "view",
      "type": "function"
    },
    {
      "inputs": [],
      "name": "isDistributing",
      "outputs": [
        {
          "internalType": "bool",
          "name": "",
          "type": "bool"
        }
      ],
      "stateMutability": "view",
      "type": "function"
    },
    {
      "inputs": [],
      "name": "isRewardingkKush",
      "outputs": [
        {
          "internalType": "bool",
          "name": "",
          "type": "bool"
        }
      ],
      "stateMutability": "view",
      "type": "function"
    },
    {
      "inputs": [],
      "name": "isVotingPeriod",
      "outputs": [
        {
          "internalType": "bool",
          "name": "",
          "type": "bool"
        }
      ],
      "stateMutability": "view",
      "type": "function"
    },
    {
      "inputs": [],
      "name": "kkushAddress",
      "outputs": [
        {
          "internalType": "address",
          "name": "",
          "type": "address"
        }
      ],
      "stateMutability": "view",
      "type": "function"
    },
    {
      "inputs": [],
      "name": "kkushCost",
      "outputs": [
        {
          "internalType": "uint256",
          "name": "",
          "type": "uint256"
        }
      ],
      "stateMutability": "view",
      "type": "function"
    },
    {
      "inputs": [],
      "name": "kseedAddress",
      "outputs": [
        {
          "internalType": "address",
          "name": "",
          "type": "address"
        }
      ],
      "stateMutability": "view",
      "type": "function"
    },
    {
      "inputs": [],
      "name": "kushOGAddress",
      "outputs": [
        {
          "internalType": "address",
          "name": "",
          "type": "address"
        }
      ],
      "stateMutability": "view",
      "type": "function"
    },
    {
      "inputs": [],
      "name": "kushOGUni",
      "outputs": [
        {
          "internalType": "address",
          "name": "",
          "type": "address"
        }
      ],
      "stateMutability": "view",
      "type": "function"
    },
    {
      "inputs": [],
      "name": "lastDistributionBlock",
      "outputs": [
        {
          "internalType": "uint256",
          "name": "",
          "type": "uint256"
        }
      ],
      "stateMutability": "view",
      "type": "function"
    },
    {
      "inputs": [],
      "name": "owner",
      "outputs": [
        {
          "internalType": "address",
          "name": "",
          "type": "address"
        }
      ],
      "stateMutability": "view",
      "type": "function"
    },
    {
      "inputs": [],
      "name": "topBidAddress",
      "outputs": [
        {
          "internalType": "address",
          "name": "",
          "type": "address"
        }
      ],
      "stateMutability": "view",
      "type": "function"
    },
    {
      "inputs": [],
      "name": "uniswapAddress",
      "outputs": [
        {
          "internalType": "address",
          "name": "",
          "type": "address"
        }
      ],
      "stateMutability": "view",
      "type": "function"
    },
    {
      "inputs": [],
      "name": "votingPeriodBlockLength",
      "outputs": [
        {
          "internalType": "uint256",
          "name": "",
          "type": "uint256"
        }
      ],
      "stateMutability": "view",
      "type": "function"
    },
    {
      "inputs": [
        {
          "internalType": "address",
          "name": "_connector",
          "type": "address"
        }
      ],
      "name": "setConnector",
      "outputs": [],
      "stateMutability": "nonpayable",
      "type": "function"
    },
    {
      "inputs": [
        {
          "internalType": "bool",
          "name": "_isRewarding",
          "type": "bool"
        }
      ],
      "name": "setIsRewardingkKush",
      "outputs": [],
      "stateMutability": "nonpayable",
      "type": "function"
    },
    {
      "inputs": [
        {
          "internalType": "uint256",
          "name": "_blocks",
          "type": "uint256"
        }
      ],
      "name": "setVotingPeriodBlockLength",
      "outputs": [],
      "stateMutability": "nonpayable",
      "type": "function"
    },
    {
      "inputs": [
        {
          "internalType": "address",
          "name": "_addr",
          "type": "address"
        }
      ],
      "name": "setkSeedAddress",
      "outputs": [],
      "stateMutability": "nonpayable",
      "type": "function"
    },
    {
      "inputs": [
        {
          "internalType": "address",
          "name": "_addr",
          "type": "address"
        }
      ],
      "name": "setkKushAddress",
      "outputs": [],
      "stateMutability": "nonpayable",
      "type": "function"
    },
    {
      "inputs": [
        {
          "internalType": "address",
          "name": "_addr",
          "type": "address"
        }
      ],
      "name": "setkushOGAddress",
      "outputs": [],
      "stateMutability": "nonpayable",
      "type": "function"
    },
    {
      "inputs": [
        {
          "internalType": "string",
          "name": "_functionCode",
          "type": "string"
        },
        {
          "internalType": "string",
          "name": "_functionName",
          "type": "string"
        },
        {
          "internalType": "address[]",
          "name": "_addresses",
          "type": "address[]"
        },
        {
          "internalType": "uint256[]",
          "name": "_integers",
          "type": "uint256[]"
        },
        {
          "internalType": "string[]",
          "name": "_strings",
          "type": "string[]"
        },
        {
          "internalType": "bytes32[]",
          "name": "_bytesArr",
          "type": "bytes32[]"
        }
      ],
      "name": "proposeBid",
      "outputs": [],
      "stateMutability": "nonpayable",
      "type": "function"
    },
    {
      "inputs": [
        {
          "internalType": "string",
          "name": "id",
          "type": "string"
        },
        {
          "internalType": "string",
          "name": "_functionCode",
          "type": "string"
        },
        {
          "internalType": "string",
          "name": "_functionName",
          "type": "string"
        },
        {
          "internalType": "address[]",
          "name": "_addresses",
          "type": "address[]"
        },
        {
          "internalType": "uint256[]",
          "name": "_integers",
          "type": "uint256[]"
        },
        {
          "internalType": "string[]",
          "name": "_strings",
          "type": "string[]"
        },
        {
          "internalType": "bytes32[]",
          "name": "_bytesArr",
          "type": "bytes32[]"
        }
      ],
      "name": "addChainBid",
      "outputs": [],
      "stateMutability": "nonpayable",
      "type": "function"
    },
    {
      "inputs": [
        {
          "internalType": "address",
          "name": "_bidAddr",
          "type": "address"
        },
        {
          "internalType": "uint256",
          "name": "votes",
          "type": "uint256"
        }
      ],
      "name": "voteForBid",
      "outputs": [],
      "stateMutability": "nonpayable",
      "type": "function"
    },
    {
      "inputs": [],
      "name": "withdrawBidkSeed",
      "outputs": [],
      "stateMutability": "nonpayable",
      "type": "function"
    },
    {
      "inputs": [
        {
          "internalType": "address",
          "name": "_addr",
          "type": "address"
        },
        {
          "internalType": "uint256",
          "name": "_amount",
          "type": "uint256"
        }
      ],
      "name": "approveContract",
      "outputs": [],
      "stateMutability": "nonpayable",
      "type": "function"
    },
    {
      "inputs": [
        {
          "internalType": "string",
          "name": "_functionCode",
          "type": "string"
        },
        {
          "internalType": "string",
          "name": "_functionName",
          "type": "string"
        },
        {
          "internalType": "address[]",
          "name": "_addresses",
          "type": "address[]"
        },
        {
          "internalType": "uint256[]",
          "name": "integers",
          "type": "uint256[]"
        },
        {
          "internalType": "string[]",
          "name": "strings",
          "type": "string[]"
        },
        {
          "internalType": "bytes32[]",
          "name": "bytesArr",
          "type": "bytes32[]"
        }
      ],
      "name": "executeBid",
      "outputs": [],
      "stateMutability": "nonpayable",
      "type": "function"
    },
    {
      "inputs": [
        {
          "internalType": "address",
          "name": "_addr",
          "type": "address"
        },
        {
          "internalType": "uint256",
          "name": "_amount",
          "type": "uint256"
        }
      ],
      "name": "distributeFunds",
      "outputs": [],
      "stateMutability": "nonpayable",
      "type": "function"
    },
    {
      "inputs": [
        {
          "internalType": "address",
          "name": "_claimer",
          "type": "address"
        },
        {
          "internalType": "uint256",
          "name": "_amount",
          "type": "uint256"
        }
      ],
      "name": "claimDistribution",
      "outputs": [],
      "stateMutability": "nonpayable",
      "type": "function"
    },
    {
      "inputs": [],
      "name": "withdrawDistributionkSeed",
      "outputs": [],
      "stateMutability": "nonpayable",
      "type": "function"
    },
    {
      "inputs": [],
      "name": "burnkKush",
      "outputs": [],
      "stateMutability": "nonpayable",
      "type": "function"
    }
  ],
  "bytecode": "0x608060405261010e600455670de0b6b3a764000060055567016345785d8a00006006556001600d60026101000a81548160ff02191690831515021790555034801561004957600080fd5b50306000806101000a81548173ffffffffffffffffffffffffffffffffffffffff021916908373ffffffffffffffffffffffffffffffffffffffff160217905550436001819055506004544301600281905550613e1d806100ab6000396000f3fe608060405234801561001057600080fd5b50600436106102325760003560e01c80636bbb8d7011610130578063a397e77d116100b8578063d677947e1161007c578063d677947e146105bf578063e1095bed146105dd578063e16fd62e146105fb578063e3829c0b14610619578063f2bc79a31461063757610232565b8063a397e77d14610553578063a51b3db41461055d578063b2d7321314610567578063bff9662a14610585578063c1e7249b146105a357610232565b806383c894a8116100ff57806383c894a8146104d75780638da5cb5b146104f357806392b5bc24146105115780639f2b78641461052d578063a22e44031461053757610232565b80636bbb8d701461046557806374d4017d14610481578063755452d71461049d5780637faddcfb146104b957610232565b806345153af8116101be5780635a8eae8c116101825780635a8eae8c146103d75780635e65aff8146103f55780635f23eab21461041157806369dcf6831461042d5780636b39913e1461044957610232565b806345153af8146103415780634fe093901461035f57806350348a341461037d5780635105638c1461039b57806354053622146103b957610232565b806310188aef1161020557806310188aef146102ad578063137e2377146102c9578063244f73cf146102e7578063276d69201461030557806331ca6c1b1461032357610232565b8063071e9a76146102375780630a6dc7f8146102535780630c91aea6146102715780630e2feb051461028f575b600080fd5b610251600480360381019061024c9190612a17565b610655565b005b61025b6106b3565b6040516102689190613641565b60405180910390f35b6102796106d9565b6040516102869190613641565b60405180910390f35b6102976106ff565b6040516102a49190613641565b60405180910390f35b6102c760048036038101906102c291906129ee565b610725565b005b6102d16107c3565b6040516102de919061390f565b60405180910390f35b6102ef6107c9565b6040516102fc919061390f565b60405180910390f35b61030d6107cf565b60405161031a9190613641565b60405180910390f35b61032b6107f5565b6040516103389190613641565b60405180910390f35b61034961081b565b60405161035691906136bc565b60405180910390f35b61036761082e565b604051610374919061390f565b60405180910390f35b610385610834565b604051610392919061390f565b60405180910390f35b6103a361083a565b6040516103b0919061390f565b60405180910390f35b6103c1610840565b6040516103ce9190613641565b60405180910390f35b6103df610866565b6040516103ec91906136bc565b60405180910390f35b61040f600480360381019061040a9190612a17565b610879565b005b61042b60048036038101906104269190612bbe565b610965565b005b61044760048036038101906104429190612a17565b61096e565b005b610463600480360381019061045e9190612a17565b610b9b565b005b61047f600480360381019061047a9190612aa5565b610ef9565b005b61049b60048036038101906104969190612a53565b611611565b005b6104b760048036038101906104b29190612aa5565b611688565b005b6104c16119af565b6040516104ce919061390f565b60405180910390f35b6104f160048036038101906104ec91906129ee565b6119b5565b005b6104fb611ab6565b6040516105089190613641565b60405180910390f35b61052b600480360381019061052691906129ee565b611adb565b005b610535611bdc565b005b610551600480360381019061054c91906129ee565b611c38565b005b61055b611d39565b005b610565611e9c565b005b61056f611e9e565b60405161057c919061390f565b60405180910390f35b61058d611ea4565b60405161059a9190613641565b60405180910390f35b6105bd60048036038101906105b89190612d04565b611eca565b005b6105c7611f2e565b6040516105d491906136bc565b60405180910390f35b6105e5611f41565b6040516105f2919061390f565b60405180910390f35b610603611f47565b60405161061091906136bc565b60405180910390f35b610621611f5a565b60405161062e9190613641565b60405180910390f35b61063f611f80565b60405161064c919061390f565b60405180910390f35b601a60009054906101000a900473ffffffffffffffffffffffffffffffffffffffff1673ffffffffffffffffffffffffffffffffffffffff163373ffffffffffffffffffffffffffffffffffffffff16146106af57600080fd5b5050565b601160009054906101000a900473ffffffffffffffffffffffffffffffffffffffff1681565b601560009054906101000a900473ffffffffffffffffffffffffffffffffffffffff1681565b601960009054906101000a900473ffffffffffffffffffffffffffffffffffffffff1681565b601a60009054906101000a900473ffffffffffffffffffffffffffffffffffffffff1673ffffffffffffffffffffffffffffffffffffffff163373ffffffffffffffffffffffffffffffffffffffff161461077f57600080fd5b80601a60006101000a81548173ffffffffffffffffffffffffffffffffffffffff021916908373ffffffffffffffffffffffffffffffffffffffff16021790555050565b60015481565b600c5481565b601360009054906101000a900473ffffffffffffffffffffffffffffffffffffffff1681565b600d60039054906101000a900473ffffffffffffffffffffffffffffffffffffffff1681565b600d60009054906101000a900460ff1681565b60045481565b600f5481565b60065481565b601760009054906101000a900473ffffffffffffffffffffffffffffffffffffffff1681565b600d60029054906101000a900460ff1681565b601a60009054906101000a900473ffffffffffffffffffffffffffffffffffffffff1673ffffffffffffffffffffffffffffffffffffffff163373ffffffffffffffffffffffffffffffffffffffff16146108d357600080fd5b8173ffffffffffffffffffffffffffffffffffffffff1663095ea7b383836040518363ffffffff1660e01b815260040161090e929190613693565b602060405180830381600087803b15801561092857600080fd5b505af115801561093c573d6000803e3d6000fd5b505050506040513d601f19601f820116820180604052508101906109609190612a7c565b505050565b50505050505050565b6109c133306005548402601260009054906101000a900473ffffffffffffffffffffffffffffffffffffffff1673ffffffffffffffffffffffffffffffffffffffff16611f86909392919063ffffffff16565b610a1433306006548402601460009054906101000a900473ffffffffffffffffffffffffffffffffffffffff1673ffffffffffffffffffffffffffffffffffffffff16611f86909392919063ffffffff16565b610a6d6005548202600a60003373ffffffffffffffffffffffffffffffffffffffff1673ffffffffffffffffffffffffffffffffffffffff1681526020019081526020016000206000015461200f90919063ffffffff16565b600a60003373ffffffffffffffffffffffffffffffffffffffff1673ffffffffffffffffffffffffffffffffffffffff16815260200190815260200160002060000181905550600254600a60003373ffffffffffffffffffffffffffffffffffffffff1673ffffffffffffffffffffffffffffffffffffffff16815260200190815260200160002060010181905550610b5181600760008573ffffffffffffffffffffffffffffffffffffffff1673ffffffffffffffffffffffffffffffffffffffff1681526020019081526020016000206003015461200f90919063ffffffff16565b600760008473ffffffffffffffffffffffffffffffffffffffff1673ffffffffffffffffffffffffffffffffffffffff168152602001908152602001600020600301819055505050565b600d60009054906101000a900460ff168015610bb8575043600254115b610bf7576040517f08c379a0000000000000000000000000000000000000000000000000000000008152600401610bee9061386f565b60405180910390fd5b610c46823083601260009054906101000a900473ffffffffffffffffffffffffffffffffffffffff1673ffffffffffffffffffffffffffffffffffffffff16611f86909392919063ffffffff16565b610c9b81601060008573ffffffffffffffffffffffffffffffffffffffff1673ffffffffffffffffffffffffffffffffffffffff1681526020019081526020016000206000015461200f90919063ffffffff16565b601060008473ffffffffffffffffffffffffffffffffffffffff1673ffffffffffffffffffffffffffffffffffffffff168152602001908152602001600020600001819055506000601160009054906101000a900473ffffffffffffffffffffffffffffffffffffffff1673ffffffffffffffffffffffffffffffffffffffff166318160ddd6040518163ffffffff1660e01b815260040160206040518083038186803b158015610d4b57600080fd5b505afa158015610d5f573d6000803e3d6000fd5b505050506040513d601f19601f82011682018060405250810190610d839190612d2d565b90506000601560009054906101000a900473ffffffffffffffffffffffffffffffffffffffff1673ffffffffffffffffffffffffffffffffffffffff166318160ddd6040518163ffffffff1660e01b815260040160206040518083038186803b158015610def57600080fd5b505afa158015610e03573d6000803e3d6000fd5b505050506040513d601f19601f82011682018060405250810190610e279190612d2d565b90506000829050600d60029054906101000a900460ff1615610e5857610e56828261200f90919063ffffffff16565b505b6000610e6d858361206490919063ffffffff16565b90506000610e8682600e546120d490919063ffffffff16565b9050610ed53387600d60039054906101000a900473ffffffffffffffffffffffffffffffffffffffff1673ffffffffffffffffffffffffffffffffffffffff1661211e9092919063ffffffff16565b610eea81600f5461200f90919063ffffffff16565b600f8190555050505050505050565b601a60009054906101000a900473ffffffffffffffffffffffffffffffffffffffff1673ffffffffffffffffffffffffffffffffffffffff163373ffffffffffffffffffffffffffffffffffffffff1614610f5357600080fd5b610f7b610f6c600260045461206490919063ffffffff16565b4361200f90919063ffffffff16565b600181905550610faa610f9b60045460015461200f90919063ffffffff16565b4361200f90919063ffffffff16565b600281905550601a60009054906101000a900473ffffffffffffffffffffffffffffffffffffffff1673ffffffffffffffffffffffffffffffffffffffff16868686868686604051602401611004969594939291906136f9565b6040516020818303038152906040527f6bbb8d70000000000000000000000000000000000000000000000000000000007bffffffffffffffffffffffffffffffffffffffffffffffffffffffff19166020820180517bffffffffffffffffffffffffffffffffffffffffffffffffffffffff838183161783525050505060405161108e9190613613565b6000604051808303816000865af19150503d80600081146110cb576040519150601f19603f3d011682016040523d82523d6000602084013e6110d0565b606091505b50505060008090505b60076000600960009054906101000a900473ffffffffffffffffffffffffffffffffffffffff1673ffffffffffffffffffffffffffffffffffffffff1673ffffffffffffffffffffffffffffffffffffffff1681526020019081526020016000206008018054905081101561160857601a60009054906101000a900473ffffffffffffffffffffffffffffffffffffffff1673ffffffffffffffffffffffffffffffffffffffff16600860076000600960009054906101000a900473ffffffffffffffffffffffffffffffffffffffff1673ffffffffffffffffffffffffffffffffffffffff1673ffffffffffffffffffffffffffffffffffffffff16815260200190815260200160002060080183815481106111f257fe5b90600052602060002001604051611209919061362a565b9081526020016040518091039020600101600860076000600960009054906101000a900473ffffffffffffffffffffffffffffffffffffffff1673ffffffffffffffffffffffffffffffffffffffff1673ffffffffffffffffffffffffffffffffffffffff168152602001908152602001600020600801848154811061128b57fe5b906000526020600020016040516112a2919061362a565b9081526020016040518091039020600201600860076000600960009054906101000a900473ffffffffffffffffffffffffffffffffffffffff1673ffffffffffffffffffffffffffffffffffffffff1673ffffffffffffffffffffffffffffffffffffffff168152602001908152602001600020600801858154811061132457fe5b9060005260206000200160405161133b919061362a565b9081526020016040518091039020600301600860076000600960009054906101000a900473ffffffffffffffffffffffffffffffffffffffff1673ffffffffffffffffffffffffffffffffffffffff1673ffffffffffffffffffffffffffffffffffffffff16815260200190815260200160002060080186815481106113bd57fe5b906000526020600020016040516113d4919061362a565b9081526020016040518091039020600401600860076000600960009054906101000a900473ffffffffffffffffffffffffffffffffffffffff1673ffffffffffffffffffffffffffffffffffffffff1673ffffffffffffffffffffffffffffffffffffffff168152602001908152602001600020600801878154811061145657fe5b9060005260206000200160405161146d919061362a565b9081526020016040518091039020600501600860076000600960009054906101000a900473ffffffffffffffffffffffffffffffffffffffff1673ffffffffffffffffffffffffffffffffffffffff1673ffffffffffffffffffffffffffffffffffffffff16815260200190815260200160002060080188815481106114ef57fe5b90600052602060002001604051611506919061362a565b908152602001604051809103902060060160405160240161152c96959493929190613784565b6040516020818303038152906040527f6bbb8d70000000000000000000000000000000000000000000000000000000007bffffffffffffffffffffffffffffffffffffffffffffffffffffffff19166020820180517bffffffffffffffffffffffffffffffffffffffffffffffffffffffff83818316178352505050506040516115b69190613613565b6000604051808303816000865af19150503d80600081146115f3576040519150601f19603f3d011682016040523d82523d6000602084013e6115f8565b606091505b50505080806001019150506110d9565b50505050505050565b601a60009054906101000a900473ffffffffffffffffffffffffffffffffffffffff1673ffffffffffffffffffffffffffffffffffffffff163373ffffffffffffffffffffffffffffffffffffffff161461166b57600080fd5b80600d60026101000a81548160ff02191690831515021790555050565b600360009054906101000a900460ff166116d7576040517f08c379a00000000000000000000000000000000000000000000000000000000081526004016116ce9061384f565b60405180910390fd5b43600254101561171c576040517f08c379a00000000000000000000000000000000000000000000000000000000081526004016117139061380f565b60405180910390fd5b33600760003373ffffffffffffffffffffffffffffffffffffffff1673ffffffffffffffffffffffffffffffffffffffff16815260200190815260200160002060000160006101000a81548173ffffffffffffffffffffffffffffffffffffffff021916908373ffffffffffffffffffffffffffffffffffffffff16021790555085600760003373ffffffffffffffffffffffffffffffffffffffff1673ffffffffffffffffffffffffffffffffffffffff16815260200190815260200160002060010190805190602001906117f392919061241a565b5084600760003373ffffffffffffffffffffffffffffffffffffffff1673ffffffffffffffffffffffffffffffffffffffff168152602001908152602001600020600201908051906020019061184a92919061241a565b5083600760003373ffffffffffffffffffffffffffffffffffffffff1673ffffffffffffffffffffffffffffffffffffffff16815260200190815260200160002060040190805190602001906118a192919061249a565b5082600760003373ffffffffffffffffffffffffffffffffffffffff1673ffffffffffffffffffffffffffffffffffffffff16815260200190815260200160002060050190805190602001906118f8929190612524565b5081600760003373ffffffffffffffffffffffffffffffffffffffff1673ffffffffffffffffffffffffffffffffffffffff168152602001908152602001600020600601908051906020019061194f929190612571565b5080600760003373ffffffffffffffffffffffffffffffffffffffff1673ffffffffffffffffffffffffffffffffffffffff16815260200190815260200160002060070190805190602001906119a69291906125d1565b50505050505050565b600e5481565b601a60009054906101000a900473ffffffffffffffffffffffffffffffffffffffff1673ffffffffffffffffffffffffffffffffffffffff163373ffffffffffffffffffffffffffffffffffffffff1614611a0f57600080fd5b80601360006101000a81548173ffffffffffffffffffffffffffffffffffffffff021916908373ffffffffffffffffffffffffffffffffffffffff160217905550601360009054906101000a900473ffffffffffffffffffffffffffffffffffffffff16601460006101000a81548173ffffffffffffffffffffffffffffffffffffffff021916908373ffffffffffffffffffffffffffffffffffffffff16021790555050565b6000809054906101000a900473ffffffffffffffffffffffffffffffffffffffff1681565b601a60009054906101000a900473ffffffffffffffffffffffffffffffffffffffff1673ffffffffffffffffffffffffffffffffffffffff163373ffffffffffffffffffffffffffffffffffffffff1614611b3557600080fd5b80601760006101000a81548173ffffffffffffffffffffffffffffffffffffffff021916908373ffffffffffffffffffffffffffffffffffffffff160217905550601760009054906101000a900473ffffffffffffffffffffffffffffffffffffffff16601860006101000a81548173ffffffffffffffffffffffffffffffffffffffff021916908373ffffffffffffffffffffffffffffffffffffffff16021790555050565b601a60009054906101000a900473ffffffffffffffffffffffffffffffffffffffff1673ffffffffffffffffffffffffffffffffffffffff163373ffffffffffffffffffffffffffffffffffffffff1614611c3657600080fd5b565b601a60009054906101000a900473ffffffffffffffffffffffffffffffffffffffff1673ffffffffffffffffffffffffffffffffffffffff163373ffffffffffffffffffffffffffffffffffffffff1614611c9257600080fd5b80601160006101000a81548173ffffffffffffffffffffffffffffffffffffffff021916908373ffffffffffffffffffffffffffffffffffffffff160217905550601160009054906101000a900473ffffffffffffffffffffffffffffffffffffffff16601260006101000a81548173ffffffffffffffffffffffffffffffffffffffff021916908373ffffffffffffffffffffffffffffffffffffffff16021790555050565b43600a60003373ffffffffffffffffffffffffffffffffffffffff1673ffffffffffffffffffffffffffffffffffffffff1681526020019081526020016000206001015411611dbd576040517f08c379a0000000000000000000000000000000000000000000000000000000008152600401611db4906138af565b60405180910390fd5b6000600a60003373ffffffffffffffffffffffffffffffffffffffff1673ffffffffffffffffffffffffffffffffffffffff168152602001908152602001600020600001549050611e513382601260009054906101000a900473ffffffffffffffffffffffffffffffffffffffff1673ffffffffffffffffffffffffffffffffffffffff1661211e9092919063ffffffff16565b6000600a60003373ffffffffffffffffffffffffffffffffffffffff1673ffffffffffffffffffffffffffffffffffffffff1681526020019081526020016000206000018190555050565b565b60055481565b601a60009054906101000a900473ffffffffffffffffffffffffffffffffffffffff1681565b601a60009054906101000a900473ffffffffffffffffffffffffffffffffffffffff1673ffffffffffffffffffffffffffffffffffffffff163373ffffffffffffffffffffffffffffffffffffffff1614611f2457600080fd5b8060048190555050565b600d60019054906101000a900460ff1681565b60025481565b600360009054906101000a900460ff1681565b600960009054906101000a900473ffffffffffffffffffffffffffffffffffffffff1681565b600b5481565b612009846323b872dd60e01b858585604051602401611fa79392919061365c565b604051602081830303815290604052907bffffffffffffffffffffffffffffffffffffffffffffffffffffffff19166020820180517bffffffffffffffffffffffffffffffffffffffffffffffffffffffff83818316178352505050506121a4565b50505050565b60008082840190508381101561205a576040517f08c379a00000000000000000000000000000000000000000000000000000000081526004016120519061382f565b60405180910390fd5b8091505092915050565b60008083141561207757600090506120ce565b600082840290508284828161208857fe5b04146120c9576040517f08c379a00000000000000000000000000000000000000000000000000000000081526004016120c09061388f565b60405180910390fd5b809150505b92915050565b600061211683836040518060400160405280601a81526020017f536166654d6174683a206469766973696f6e206279207a65726f00000000000081525061226b565b905092915050565b61219f8363a9059cbb60e01b848460405160240161213d929190613693565b604051602081830303815290604052907bffffffffffffffffffffffffffffffffffffffffffffffffffffffff19166020820180517bffffffffffffffffffffffffffffffffffffffffffffffffffffffff83818316178352505050506121a4565b505050565b6060612206826040518060400160405280602081526020017f5361666545524332303a206c6f772d6c6576656c2063616c6c206661696c65648152508573ffffffffffffffffffffffffffffffffffffffff166122cc9092919063ffffffff16565b905060008151111561226657808060200190518101906122269190612a7c565b612265576040517f08c379a000000000000000000000000000000000000000000000000000000000815260040161225c906138ef565b60405180910390fd5b5b505050565b600080831182906122b2576040517f08c379a00000000000000000000000000000000000000000000000000000000081526004016122a991906136d7565b60405180910390fd5b5060008385816122be57fe5b049050809150509392505050565b60606122db84846000856122e4565b90509392505050565b60606122ef85612407565b61232e576040517f08c379a0000000000000000000000000000000000000000000000000000000008152600401612325906138cf565b60405180910390fd5b600060608673ffffffffffffffffffffffffffffffffffffffff1685876040516123589190613613565b60006040518083038185875af1925050503d8060008114612395576040519150601f19603f3d011682016040523d82523d6000602084013e61239a565b606091505b509150915081156123af5780925050506123ff565b6000815111156123c25780518082602001fd5b836040517f08c379a00000000000000000000000000000000000000000000000000000000081526004016123f691906136d7565b60405180910390fd5b949350505050565b600080823b905060008111915050919050565b828054600181600116156101000203166002900490600052602060002090601f016020900481019282601f1061245b57805160ff1916838001178555612489565b82800160010185558215612489579182015b8281111561248857825182559160200191906001019061246d565b5b509050612496919061261e565b5090565b828054828255906000526020600020908101928215612513579160200282015b828111156125125782518260006101000a81548173ffffffffffffffffffffffffffffffffffffffff021916908373ffffffffffffffffffffffffffffffffffffffff160217905550916020019190600101906124ba565b5b5090506125209190612643565b5090565b828054828255906000526020600020908101928215612560579160200282015b8281111561255f578251825591602001919060010190612544565b5b50905061256d919061261e565b5090565b8280548282559060005260206000209081019282156125c0579160200282015b828111156125bf5782518290805190602001906125af92919061241a565b5091602001919060010190612591565b5b5090506125cd9190612686565b5090565b82805482825590600052602060002090810192821561260d579160200282015b8281111561260c5782518255916020019190600101906125f1565b5b50905061261a91906126b2565b5090565b61264091905b8082111561263c576000816000905550600101612624565b5090565b90565b61268391905b8082111561267f57600081816101000a81549073ffffffffffffffffffffffffffffffffffffffff021916905550600101612649565b5090565b90565b6126af91905b808211156126ab57600081816126a291906126d7565b5060010161268c565b5090565b90565b6126d491905b808211156126d05760008160009055506001016126b8565b5090565b90565b50805460018160011615610100020316600290046000825580601f106126fd575061271c565b601f01602090049060005260206000209081019061271b919061261e565b5b50565b60008135905061272e81613d8b565b92915050565b600082601f83011261274557600080fd5b813561275861275382613957565b61392a565b9150818183526020840193506020810190508385602084028201111561277d57600080fd5b60005b838110156127ad5781612793888261271f565b845260208401935060208301925050600181019050612780565b5050505092915050565b600082601f8301126127c857600080fd5b81356127db6127d68261397f565b61392a565b9150818183526020840193506020810190508385602084028201111561280057600080fd5b60005b838110156128305781612816888261295b565b845260208401935060208301925050600181019050612803565b5050505092915050565b600082601f83011261284b57600080fd5b813561285e612859826139a7565b61392a565b9150818183526020840193506020810190508360005b838110156128a4578135860161288a8882612970565b845260208401935060208301925050600181019050612874565b5050505092915050565b600082601f8301126128bf57600080fd5b81356128d26128cd826139cf565b61392a565b915081818352602084019350602081019050838560208402820111156128f757600080fd5b60005b83811015612927578161290d88826129c4565b8452602084019350602083019250506001810190506128fa565b5050505092915050565b60008135905061294081613da2565b92915050565b60008151905061295581613da2565b92915050565b60008135905061296a81613db9565b92915050565b600082601f83011261298157600080fd5b813561299461298f826139f7565b61392a565b915080825260208301602083018583830111156129b057600080fd5b6129bb838284613ca4565b50505092915050565b6000813590506129d381613dd0565b92915050565b6000815190506129e881613dd0565b92915050565b600060208284031215612a0057600080fd5b6000612a0e8482850161271f565b91505092915050565b60008060408385031215612a2a57600080fd5b6000612a388582860161271f565b9250506020612a49858286016129c4565b9150509250929050565b600060208284031215612a6557600080fd5b6000612a7384828501612931565b91505092915050565b600060208284031215612a8e57600080fd5b6000612a9c84828501612946565b91505092915050565b60008060008060008060c08789031215612abe57600080fd5b600087013567ffffffffffffffff811115612ad857600080fd5b612ae489828a01612970565b965050602087013567ffffffffffffffff811115612b0157600080fd5b612b0d89828a01612970565b955050604087013567ffffffffffffffff811115612b2a57600080fd5b612b3689828a01612734565b945050606087013567ffffffffffffffff811115612b5357600080fd5b612b5f89828a016128ae565b935050608087013567ffffffffffffffff811115612b7c57600080fd5b612b8889828a0161283a565b92505060a087013567ffffffffffffffff811115612ba557600080fd5b612bb189828a016127b7565b9150509295509295509295565b600080600080600080600060e0888a031215612bd957600080fd5b600088013567ffffffffffffffff811115612bf357600080fd5b612bff8a828b01612970565b975050602088013567ffffffffffffffff811115612c1c57600080fd5b612c288a828b01612970565b965050604088013567ffffffffffffffff811115612c4557600080fd5b612c518a828b01612970565b955050606088013567ffffffffffffffff811115612c6e57600080fd5b612c7a8a828b01612734565b945050608088013567ffffffffffffffff811115612c9757600080fd5b612ca38a828b016128ae565b93505060a088013567ffffffffffffffff811115612cc057600080fd5b612ccc8a828b0161283a565b92505060c088013567ffffffffffffffff811115612ce957600080fd5b612cf58a828b016127b7565b91505092959891949750929550565b600060208284031215612d1657600080fd5b6000612d24848285016129c4565b91505092915050565b600060208284031215612d3f57600080fd5b6000612d4d848285016129d9565b91505092915050565b6000612d628383612dc6565b60208301905092915050565b6000612d7a8383613125565b60208301905092915050565b6000612d928383613165565b905092915050565b6000612da683836131d7565b905092915050565b6000612dba83836135f5565b60208301905092915050565b612dcf81613c52565b82525050565b612dde81613c52565b82525050565b6000612def82613acc565b612df98185613ba2565b9350612e0483613a23565b8060005b83811015612e35578151612e1c8882612d56565b9750612e2783613b3a565b925050600181019050612e08565b5085935050505092915050565b6000612e4d82613ad7565b612e578185613ba2565b9350612e6283613a33565b8060005b83811015612e9a57612e7782613d34565b612e818882612d56565b9750612e8c83613b47565b925050600181019050612e66565b5085935050505092915050565b6000612eb282613ae2565b612ebc8185613bb3565b9350612ec783613a48565b8060005b83811015612ef8578151612edf8882612d6e565b9750612eea83613b54565b925050600181019050612ecb565b5085935050505092915050565b6000612f1082613aed565b612f1a8185613bb3565b9350612f2583613a58565b8060005b83811015612f5d57612f3a82613d47565b612f448882612d6e565b9750612f4f83613b61565b925050600181019050612f29565b5085935050505092915050565b6000612f7582613af8565b612f7f8185613bc4565b935083602082028501612f9185613a6d565b8060005b85811015612fcd5784840389528151612fae8582612d86565b9450612fb983613b6e565b925060208a01995050600181019050612f95565b50829750879550505050505092915050565b6000612fea82613b03565b612ff48185613bc4565b93508360208202850161300685613a7d565b8060005b85811015613041578484038952816130228582612d9a565b945061302d83613b7b565b925060208a0199505060018101905061300a565b50829750879550505050505092915050565b600061305e82613b0e565b6130688185613bd5565b935061307383613a92565b8060005b838110156130a457815161308b8882612dae565b975061309683613b88565b925050600181019050613077565b5085935050505092915050565b60006130bc82613b19565b6130c68185613bd5565b93506130d183613aa2565b8060005b83811015613109576130e682613d5a565b6130f08882612dae565b97506130fb83613b95565b9250506001810190506130d5565b5085935050505092915050565b61311f81613c64565b82525050565b61312e81613c70565b82525050565b600061313f82613b24565b6131498185613be6565b9350613159818560208601613cb3565b80840191505092915050565b600061317082613b2f565b61317a8185613bf1565b935061318a818560208601613cb3565b61319381613d6d565b840191505092915050565b60006131a982613b2f565b6131b38185613c02565b93506131c3818560208601613cb3565b6131cc81613d6d565b840191505092915050565b6000815460018116600081146131f4576001811461321a5761325e565b607f60028304166132058187613bf1565b955060ff19831686526020860193505061325e565b600282046132288187613bf1565b955061323385613ab7565b60005b8281101561325557815481890152600182019150602081019050613236565b80880195505050505b505092915050565b60008154600181166000811461328357600181146132a9576132ed565b607f60028304166132948187613c02565b955060ff1983168652602086019350506132ed565b600282046132b78187613c02565b95506132c285613ab7565b60005b828110156132e4578154818901526001820191506020810190506132c5565b80880195505050505b505092915050565b60008154600181166000811461331257600181146133375761337b565b607f60028304166133238187613c13565b955060ff198316865280860193505061337b565b600282046133458187613c13565b955061335085613ab7565b60005b8281101561337257815481890152600182019150602081019050613353565b82880195505050505b505092915050565b6000613390601883613c02565b91507f566f74696e6720706572696f642068617320656e6465642e00000000000000006000830152602082019050919050565b60006133d0601b83613c02565b91507f536166654d6174683a206164646974696f6e206f766572666c6f7700000000006000830152602082019050919050565b6000613410601e83613c02565b91507f566f74696e6720706572696f6420686173206e6f7420737461727465642e00006000830152602082019050919050565b6000613450602483613c02565b91507f596f7520617265206e6f7420696e206120646973747269627574696f6e20706560008301527f72696f64000000000000000000000000000000000000000000000000000000006020830152604082019050919050565b60006134b6602183613c02565b91507f536166654d6174683a206d756c7469706c69636174696f6e206f766572666c6f60008301527f77000000000000000000000000000000000000000000000000000000000000006020830152604082019050919050565b600061351c601e83613c02565b91507f6b53454544206973207374696c6c206c6f636b656420666f7220766f746500006000830152602082019050919050565b600061355c601d83613c02565b91507f416464726573733a2063616c6c20746f206e6f6e2d636f6e74726163740000006000830152602082019050919050565b600061359c602a83613c02565b91507f5361666545524332303a204552433230206f7065726174696f6e20646964206e60008301527f6f742073756363656564000000000000000000000000000000000000000000006020830152604082019050919050565b6135fe81613c9a565b82525050565b61360d81613c9a565b82525050565b600061361f8284613134565b915081905092915050565b600061363682846132f5565b915081905092915050565b60006020820190506136566000830184612dd5565b92915050565b60006060820190506136716000830186612dd5565b61367e6020830185612dd5565b61368b6040830184613604565b949350505050565b60006040820190506136a86000830185612dd5565b6136b56020830184613604565b9392505050565b60006020820190506136d16000830184613116565b92915050565b600060208201905081810360008301526136f1818461319e565b905092915050565b600060c0820190508181036000830152613713818961319e565b90508181036020830152613727818861319e565b9050818103604083015261373b8187612de4565b9050818103606083015261374f8186613053565b905081810360808301526137638185612f6a565b905081810360a08301526137778184612ea7565b9050979650505050505050565b600060c082019050818103600083015261379e8189613266565b905081810360208301526137b28188613266565b905081810360408301526137c68187612e42565b905081810360608301526137da81866130b1565b905081810360808301526137ee8185612fdf565b905081810360a08301526138028184612f05565b9050979650505050505050565b6000602082019050818103600083015261382881613383565b9050919050565b60006020820190508181036000830152613848816133c3565b9050919050565b6000602082019050818103600083015261386881613403565b9050919050565b6000602082019050818103600083015261388881613443565b9050919050565b600060208201905081810360008301526138a8816134a9565b9050919050565b600060208201905081810360008301526138c88161350f565b9050919050565b600060208201905081810360008301526138e88161354f565b9050919050565b600060208201905081810360008301526139088161358f565b9050919050565b60006020820190506139246000830184613604565b92915050565b6000604051905081810181811067ffffffffffffffff8211171561394d57600080fd5b8060405250919050565b600067ffffffffffffffff82111561396e57600080fd5b602082029050602081019050919050565b600067ffffffffffffffff82111561399657600080fd5b602082029050602081019050919050565b600067ffffffffffffffff8211156139be57600080fd5b602082029050602081019050919050565b600067ffffffffffffffff8211156139e657600080fd5b602082029050602081019050919050565b600067ffffffffffffffff821115613a0e57600080fd5b601f19601f8301169050602081019050919050565b6000819050602082019050919050565b60008190508160005260206000209050919050565b6000819050602082019050919050565b60008190508160005260206000209050919050565b6000819050602082019050919050565b60008190508160005260206000209050919050565b6000819050602082019050919050565b60008190508160005260206000209050919050565b60008190508160005260206000209050919050565b600081519050919050565b600081549050919050565b600081519050919050565b600081549050919050565b600081519050919050565b600081549050919050565b600081519050919050565b600081549050919050565b600081519050919050565b600081519050919050565b6000602082019050919050565b6000600182019050919050565b6000602082019050919050565b6000600182019050919050565b6000602082019050919050565b6000600182019050919050565b6000602082019050919050565b6000600182019050919050565b600082825260208201905092915050565b600082825260208201905092915050565b600082825260208201905092915050565b600082825260208201905092915050565b600081905092915050565b600082825260208201905092915050565b600082825260208201905092915050565b600081905092915050565b600073ffffffffffffffffffffffffffffffffffffffff82169050919050565b6000819050919050565b6000819050919050565b6000613c5d82613c7a565b9050919050565b60008115159050919050565b6000819050919050565b600073ffffffffffffffffffffffffffffffffffffffff82169050919050565b6000819050919050565b82818337600083830152505050565b60005b83811015613cd1578082015181840152602081019050613cb6565b83811115613ce0576000848401525b50505050565b6000613cf9613cf483613d7e565b613c1e565b9050919050565b6000613d13613d0e83613d7e565b613c3e565b9050919050565b6000613d2d613d2883613d7e565b613c48565b9050919050565b6000613d408254613ce6565b9050919050565b6000613d538254613d00565b9050919050565b6000613d668254613d1a565b9050919050565b6000601f19601f8301169050919050565b60008160001c9050919050565b613d9481613c52565b8114613d9f57600080fd5b50565b613dab81613c64565b8114613db657600080fd5b50565b613dc281613c70565b8114613dcd57600080fd5b50565b613dd981613c9a565b8114613de457600080fd5b5056fea26469706673582212201561080689ea76ac60e899eaf912ece14b2b199ba5c73271fd6820de8f58c73664736f6c63430006060033",
  "immutableReferences": {},
  "source": "// contracts/KushFund/kSeedVoting.sol\r\n// SPDX-License-Identifier: MIT\r\npragma solidity ^0.6.6;\r\npragma experimental ABIEncoderV2;\r\n\r\nimport \"@openzeppelin/contracts/token/ERC20/SafeERC20.sol\";\r\nimport \"@openzeppelin/contracts/math/SafeMath.sol\";\r\nimport \"./ERC20Interface.sol\";\r\n\r\ncontract kSeedVoting {\r\n    using SafeERC20 for IERC20;\r\n    using SafeMath for uint256;\r\n    \r\n    address public owner;\r\n    \r\n    uint256 public currentVotingStartBlock;\r\n    uint256 public currentVotingEndBlock;\r\n    bool public isVotingPeriod;\r\n    \r\n    uint256 public votingPeriodBlockLength = 270;\r\n    uint256 public costPerVote = 1000000000000000000;\r\n    uint256 public kkushCost = 100000000000000000;\r\n    \r\n    struct bid {\r\n        address bidder;\r\n        string functionCode;\r\n        string functionName;\r\n        uint256 votes;\r\n        address[] addresses;\r\n        uint256[] integers;\r\n        string[] strings;\r\n        bytes32[] bytesArr;\r\n        string[] chain;\r\n    }\r\n    \r\n     mapping(address => bid) private currentBids;\r\n    \r\n    struct bidChain {\r\n        string id;\r\n        string functionCode;\r\n        string functionName;\r\n        address[] addresses;\r\n        uint256[] integers;\r\n        string[] strings;\r\n        bytes32[] bytesArr;\r\n    }\r\n    \r\n    mapping(string => bidChain) private bidChains;\r\n    \r\n    address public topBidAddress;\r\n    \r\n    struct votingHold {\r\n        uint256 kSeedLocked;\r\n        uint256 releaseBlock;\r\n    }\r\n    \r\n    mapping(address => votingHold) private votedkSeed;\r\n    \r\n    \r\n    uint256 public lastDistributionBlock;\r\n    uint256 public currentDistributionEndBlock;\r\n    bool public isDistributing;\r\n    bool public canDistribute;\r\n    bool public isRewardingkKush = true;\r\n    \r\n    \r\n    address public currentDistributionAddress;\r\n    uint256 public currentDistributionAmount;\r\n    uint256 public currentDistributionAmountClaimed;\r\n    \r\n    struct distributionClaimed {\r\n        uint256 kseedLocked;\r\n        \r\n    }\r\n    \r\n    mapping(address => distributionClaimed) private claims;\r\n    \r\n    \r\n    address public kseedAddress;\r\n    IERC20 private kseedIERC20;\r\n    address public kkushAddress;\r\n    IERC20 private kkushIERC20;\r\n    address public kushOGUni;\r\n    IERC20 private kushOGUniIERC20;\r\n    address public kushOGAddress;\r\n    IERC20 private kushOGIERC20;\r\n    \r\n    address public uniswapAddress;\r\n    \r\n    address public connectorAddress;\r\n    \r\n    modifier _onlyOwner() {\r\n        require(msg.sender == owner);\r\n        _;\r\n    }\r\n    \r\n    modifier _onlyConnector() {\r\n        require(msg.sender == connectorAddress);\r\n        _;\r\n    }\r\n    \r\n    \r\n    constructor() public {\r\n        owner = address(this);\r\n        currentVotingStartBlock = block.number;\r\n        currentVotingEndBlock = block.number + votingPeriodBlockLength;\r\n    }\r\n    \r\n    function setConnector(address _connector) public _onlyConnector {\r\n        connectorAddress = _connector;\r\n        \r\n        //Voting connector change event\r\n    }\r\n    \r\n    function setIsRewardingkKush(bool _isRewarding) public _onlyConnector {\r\n        isRewardingkKush = _isRewarding;\r\n        \r\n        //Voting connector change event\r\n    }\r\n    \r\n    function setVotingPeriodBlockLength(uint256 _blocks) public _onlyConnector {\r\n        votingPeriodBlockLength = _blocks;\r\n        \r\n        //Voting period change event\r\n    } \r\n    \r\n    function setkSeedAddress(address _addr) public _onlyConnector {\r\n        kseedAddress = _addr;\r\n        kseedIERC20 = IERC20(kseedAddress);\r\n        \r\n        //kSeed address change event\r\n    }\r\n    \r\n    function setkKushAddress(address _addr) public _onlyConnector {\r\n        kkushAddress = _addr;\r\n        kkushIERC20 = IERC20(kkushAddress);\r\n        \r\n        //kKUSH address change event\r\n    }\r\n    \r\n    function setkushOGAddress(address _addr) public _onlyConnector {\r\n        kushOGAddress = _addr;\r\n        kushOGIERC20 = IERC20(kushOGAddress);\r\n        \r\n        //kushOG address change event\r\n    }\r\n    \r\n    function proposeBid(string memory _functionCode, string memory _functionName, address[] memory _addresses, uint256[] memory _integers, string[] memory _strings, bytes32[] memory _bytesArr) public {\r\n        require(isVotingPeriod, \"Voting period has not started.\");\r\n        require(currentVotingEndBlock >= block.number, \"Voting period has ended.\");\r\n        currentBids[msg.sender].bidder = msg.sender;\r\n        currentBids[msg.sender].functionCode = _functionCode;\r\n        currentBids[msg.sender].functionName = _functionName;\r\n        currentBids[msg.sender].addresses = _addresses;\r\n        currentBids[msg.sender].integers = _integers;\r\n        currentBids[msg.sender].strings = _strings;\r\n        currentBids[msg.sender].bytesArr = _bytesArr;\r\n        \r\n        //Bid proposal event\r\n    }\r\n    \r\n    function addChainBid(string memory id, string memory _functionCode, string memory _functionName, address[] memory _addresses, uint256[] memory _integers, string[] memory _strings, bytes32[] memory _bytesArr) public {\r\n        \r\n    }\r\n    \r\n    function voteForBid(address _bidAddr, uint256 votes) public {\r\n        kseedIERC20.safeTransferFrom(msg.sender, address(this), votes * costPerVote);\r\n        kkushIERC20.safeTransferFrom(msg.sender, address(this), votes * kkushCost);\r\n        votedkSeed[msg.sender].kSeedLocked = votedkSeed[msg.sender].kSeedLocked.add(votes * costPerVote);\r\n        votedkSeed[msg.sender].releaseBlock = currentVotingEndBlock;\r\n        currentBids[_bidAddr].votes = currentBids[_bidAddr].votes.add(votes);\r\n        \r\n        //Bid vote event\r\n        \r\n    }\r\n    \r\n    function withdrawBidkSeed() public {\r\n        require(votedkSeed[msg.sender].releaseBlock > block.number, \"kSEED is still locked for vote\");\r\n        uint256 amount = votedkSeed[msg.sender].kSeedLocked;\r\n        kseedIERC20.safeTransfer(msg.sender, amount);\r\n        votedkSeed[msg.sender].kSeedLocked = 0;\r\n        \r\n        //Bid kSEED withdrawal event\r\n    }\r\n    \r\n    function approveContract(address _addr, uint256 _amount) public _onlyConnector {\r\n        ERC20(_addr).approve(_addr, _amount);\r\n        \r\n        //Contract approval event\r\n    }\r\n    \r\n    function executeBid(string memory _functionCode, \r\n                        string memory _functionName, \r\n                        address[] memory _addresses, \r\n                        uint256[] memory integers, \r\n                        string[] memory strings, \r\n                        bytes32[] memory bytesArr)\r\n                        public _onlyConnector {\r\n                            \r\n        // require(currentVotingEndBlock < block.number, \"Voting period is still active.\");\r\n        currentVotingStartBlock = block.number.add(votingPeriodBlockLength.mul(2));\r\n        currentVotingEndBlock = block.number.add(currentVotingStartBlock.add(votingPeriodBlockLength));\r\n        connectorAddress.call(abi.encodeWithSignature(\"executeBid(string,string,address[],uint256[],string[],bytes32[])\",\r\n                                                        _functionCode,_functionName,_addresses,integers,strings,bytesArr));\r\n                                                        \r\n        \r\n        for (uint256 c = 0; c<currentBids[topBidAddress].chain.length; c++) {\r\n            connectorAddress.call(abi.encodeWithSignature(\"executeBid(string,string,address[],uint256[],string[],bytes32[])\",\r\n                                                        bidChains[currentBids[topBidAddress].chain[c]].functionCode,\r\n                                                        bidChains[currentBids[topBidAddress].chain[c]].functionName,\r\n                                                        bidChains[currentBids[topBidAddress].chain[c]].addresses,\r\n                                                        bidChains[currentBids[topBidAddress].chain[c]].integers,\r\n                                                        bidChains[currentBids[topBidAddress].chain[c]].strings,\r\n                                                        bidChains[currentBids[topBidAddress].chain[c]].bytesArr));\r\n        }\r\n        \r\n        //Bid execution event                                                \r\n    }\r\n    \r\n    function distributeFunds(address _addr, uint256 _amount) public _onlyConnector {\r\n        \r\n    }\r\n    \r\n    function claimDistribution(address _claimer, uint256 _amount) public {\r\n        require(isDistributing && currentVotingEndBlock>block.number, \"You are not in a distribution period\");\r\n        kseedIERC20.safeTransferFrom(_claimer, address(this), _amount);\r\n        claims[_claimer].kseedLocked = claims[_claimer].kseedLocked.add(_amount);\r\n        uint256 kseedSupply = ERC20(kseedAddress).totalSupply();\r\n        uint256 kkushSupply = ERC20(kushOGUni).totalSupply();\r\n        uint256 rewardsPool = kseedSupply;\r\n        \r\n        if (isRewardingkKush) {\r\n            rewardsPool.add(kkushSupply);\r\n        }\r\n        \r\n        uint256 claimerPerc = rewardsPool.mul(_amount);\r\n        uint256 claimedAmount = currentDistributionAmount.div(claimerPerc);\r\n        IERC20(currentDistributionAddress).safeTransfer(msg.sender, _amount);\r\n        currentDistributionAmountClaimed = currentDistributionAmountClaimed.add(claimedAmount);\r\n        \r\n        //distribution claim event\r\n        \r\n    }\r\n    \r\n    function withdrawDistributionkSeed() public {\r\n        \r\n    }\r\n    \r\n    function burnkKush() public _onlyConnector {\r\n        //take $kKUSH in burn pool\r\n        //divide the amount in half\r\n        //swap one half for $kushOG on uniswap\r\n        //send other $kKUSH half to burn address\r\n        //send swapped $kushOG to burn address\r\n        \r\n    }\r\n    \r\n    \r\n    \r\n}",
  "sourcePath": "C:/Users/spiry/Documents/GitHub/kush.finance/contracts/KushFund/kSEEDVoting.sol",
  "compiler": {
    "name": "solc",
    "version": "0.6.6+commit.6c089d02.Emscripten.clang"
  },
  "schemaVersion": "3.2.4",
  "updatedAt": "2020-09-27T21:51:29.678Z",
  "devdoc": {
    "methods": {}
  },
  "userdoc": {
    "methods": {}
  }
}