{
  "contractName": "kushPUREToken",
  "abi": [
    {
      "inputs": [
        {
          "internalType": "address",
          "name": "kkushToken",
          "type": "address"
        },
        {
          "internalType": "address",
          "name": "_devAddress",
          "type": "address"
        }
      ],
      "stateMutability": "payable",
      "type": "constructor"
    },
    {
      "anonymous": false,
      "inputs": [
        {
          "indexed": true,
          "internalType": "address",
          "name": "owner",
          "type": "address"
        },
        {
          "indexed": true,
          "internalType": "address",
          "name": "spender",
          "type": "address"
        },
        {
          "indexed": false,
          "internalType": "uint256",
          "name": "value",
          "type": "uint256"
        }
      ],
      "name": "Approval",
      "type": "event"
    },
    {
      "anonymous": false,
      "inputs": [
        {
          "indexed": true,
          "internalType": "address",
          "name": "user",
          "type": "address"
        },
        {
          "indexed": false,
          "internalType": "uint256",
          "name": "amount",
          "type": "uint256"
        }
      ],
      "name": "FundsSentToFundingAddress",
      "type": "event"
    },
    {
      "anonymous": false,
      "inputs": [
        {
          "indexed": true,
          "internalType": "address",
          "name": "previousOwner",
          "type": "address"
        },
        {
          "indexed": true,
          "internalType": "address",
          "name": "newOwner",
          "type": "address"
        }
      ],
      "name": "OwnershipTransferred",
      "type": "event"
    },
    {
      "anonymous": false,
      "inputs": [
        {
          "indexed": true,
          "internalType": "address",
          "name": "user",
          "type": "address"
        },
        {
          "indexed": false,
          "internalType": "uint256",
          "name": "reward",
          "type": "uint256"
        }
      ],
      "name": "Rewards",
      "type": "event"
    },
    {
      "anonymous": false,
      "inputs": [
        {
          "indexed": true,
          "internalType": "address",
          "name": "from",
          "type": "address"
        },
        {
          "indexed": true,
          "internalType": "address",
          "name": "to",
          "type": "address"
        },
        {
          "indexed": false,
          "internalType": "uint256",
          "name": "value",
          "type": "uint256"
        }
      ],
      "name": "Transfer",
      "type": "event"
    },
    {
      "anonymous": false,
      "inputs": [
        {
          "indexed": true,
          "internalType": "address",
          "name": "user",
          "type": "address"
        },
        {
          "indexed": false,
          "internalType": "uint256",
          "name": "difficulty",
          "type": "uint256"
        }
      ],
      "name": "difficultyChanged",
      "type": "event"
    },
    {
      "anonymous": false,
      "inputs": [
        {
          "indexed": true,
          "internalType": "address",
          "name": "user",
          "type": "address"
        },
        {
          "indexed": false,
          "internalType": "address",
          "name": "kkushPairAddress",
          "type": "address"
        }
      ],
      "name": "kkushPairAddressChanged",
      "type": "event"
    },
    {
      "anonymous": false,
      "inputs": [
        {
          "indexed": true,
          "internalType": "address",
          "name": "user",
          "type": "address"
        },
        {
          "indexed": false,
          "internalType": "uint256",
          "name": "amount",
          "type": "uint256"
        },
        {
          "indexed": false,
          "internalType": "uint256",
          "name": "totalLiquidityStaked",
          "type": "uint256"
        }
      ],
      "name": "kkushUniStaked",
      "type": "event"
    },
    {
      "anonymous": false,
      "inputs": [
        {
          "indexed": true,
          "internalType": "address",
          "name": "user",
          "type": "address"
        },
        {
          "indexed": false,
          "internalType": "uint256",
          "name": "amount",
          "type": "uint256"
        },
        {
          "indexed": false,
          "internalType": "uint256",
          "name": "totalLiquidityStaked",
          "type": "uint256"
        }
      ],
      "name": "kkushUniWithdrawn",
      "type": "event"
    },
    {
      "anonymous": false,
      "inputs": [
        {
          "indexed": true,
          "internalType": "address",
          "name": "user",
          "type": "address"
        },
        {
          "indexed": false,
          "internalType": "address",
          "name": "kOGPairAddress",
          "type": "address"
        }
      ],
      "name": "kushOGPairAddressChanged",
      "type": "event"
    },
    {
      "anonymous": false,
      "inputs": [
        {
          "indexed": true,
          "internalType": "address",
          "name": "user",
          "type": "address"
        },
        {
          "indexed": false,
          "internalType": "uint256",
          "name": "amount",
          "type": "uint256"
        },
        {
          "indexed": false,
          "internalType": "uint256",
          "name": "totalLiquidityStaked",
          "type": "uint256"
        }
      ],
      "name": "kushOGUniStaked",
      "type": "event"
    },
    {
      "anonymous": false,
      "inputs": [
        {
          "indexed": true,
          "internalType": "address",
          "name": "user",
          "type": "address"
        },
        {
          "indexed": false,
          "internalType": "uint256",
          "name": "amount",
          "type": "uint256"
        },
        {
          "indexed": false,
          "internalType": "uint256",
          "name": "totalLiquidityStaked",
          "type": "uint256"
        }
      ],
      "name": "kushOGUniWithdrawn",
      "type": "event"
    },
    {
      "anonymous": false,
      "inputs": [
        {
          "indexed": true,
          "internalType": "address",
          "name": "user",
          "type": "address"
        },
        {
          "indexed": false,
          "internalType": "address",
          "name": "votingAddress",
          "type": "address"
        }
      ],
      "name": "votingAddressChanged",
      "type": "event"
    },
    {
      "inputs": [
        {
          "internalType": "address",
          "name": "owner",
          "type": "address"
        },
        {
          "internalType": "address",
          "name": "spender",
          "type": "address"
        }
      ],
      "name": "allowance",
      "outputs": [
        {
          "internalType": "uint256",
          "name": "",
          "type": "uint256"
        }
      ],
      "stateMutability": "view",
      "type": "function"
    },
    {
      "inputs": [
        {
          "internalType": "address",
          "name": "spender",
          "type": "address"
        },
        {
          "internalType": "uint256",
          "name": "amount",
          "type": "uint256"
        }
      ],
      "name": "approve",
      "outputs": [
        {
          "internalType": "bool",
          "name": "",
          "type": "bool"
        }
      ],
      "stateMutability": "nonpayable",
      "type": "function"
    },
    {
      "inputs": [
        {
          "internalType": "address",
          "name": "account",
          "type": "address"
        }
      ],
      "name": "balanceOf",
      "outputs": [
        {
          "internalType": "uint256",
          "name": "",
          "type": "uint256"
        }
      ],
      "stateMutability": "view",
      "type": "function"
    },
    {
      "inputs": [],
      "name": "decimals",
      "outputs": [
        {
          "internalType": "uint8",
          "name": "",
          "type": "uint8"
        }
      ],
      "stateMutability": "view",
      "type": "function"
    },
    {
      "inputs": [
        {
          "internalType": "address",
          "name": "spender",
          "type": "address"
        },
        {
          "internalType": "uint256",
          "name": "subtractedValue",
          "type": "uint256"
        }
      ],
      "name": "decreaseAllowance",
      "outputs": [
        {
          "internalType": "bool",
          "name": "",
          "type": "bool"
        }
      ],
      "stateMutability": "nonpayable",
      "type": "function"
    },
    {
      "inputs": [],
      "name": "devAddress",
      "outputs": [
        {
          "internalType": "address",
          "name": "",
          "type": "address"
        }
      ],
      "stateMutability": "view",
      "type": "function"
    },
    {
      "inputs": [],
      "name": "fundVotingAddress",
      "outputs": [
        {
          "internalType": "address",
          "name": "",
          "type": "address"
        }
      ],
      "stateMutability": "view",
      "type": "function"
    },
    {
      "inputs": [
        {
          "internalType": "address",
          "name": "spender",
          "type": "address"
        },
        {
          "internalType": "uint256",
          "name": "addedValue",
          "type": "uint256"
        }
      ],
      "name": "increaseAllowance",
      "outputs": [
        {
          "internalType": "bool",
          "name": "",
          "type": "bool"
        }
      ],
      "stateMutability": "nonpayable",
      "type": "function"
    },
    {
      "inputs": [],
      "name": "isSendingFunds",
      "outputs": [
        {
          "internalType": "bool",
          "name": "",
          "type": "bool"
        }
      ],
      "stateMutability": "view",
      "type": "function"
    },
    {
      "inputs": [],
      "name": "isStart",
      "outputs": [
        {
          "internalType": "bool",
          "name": "",
          "type": "bool"
        }
      ],
      "stateMutability": "view",
      "type": "function"
    },
    {
      "inputs": [],
      "name": "kkushUniswapV2Pair",
      "outputs": [
        {
          "internalType": "address",
          "name": "",
          "type": "address"
        }
      ],
      "stateMutability": "view",
      "type": "function"
    },
    {
      "inputs": [],
      "name": "kushOGV2UniswapV2Pair",
      "outputs": [
        {
          "internalType": "address",
          "name": "",
          "type": "address"
        }
      ],
      "stateMutability": "view",
      "type": "function"
    },
    {
      "inputs": [],
      "name": "liquidityMultiplier",
      "outputs": [
        {
          "internalType": "uint256",
          "name": "",
          "type": "uint256"
        }
      ],
      "stateMutability": "view",
      "type": "function"
    },
    {
      "inputs": [],
      "name": "miningDifficulty",
      "outputs": [
        {
          "internalType": "uint256",
          "name": "",
          "type": "uint256"
        }
      ],
      "stateMutability": "view",
      "type": "function"
    },
    {
      "inputs": [],
      "name": "name",
      "outputs": [
        {
          "internalType": "string",
          "name": "",
          "type": "string"
        }
      ],
      "stateMutability": "view",
      "type": "function"
    },
    {
      "inputs": [],
      "name": "rateDevFee",
      "outputs": [
        {
          "internalType": "uint256",
          "name": "",
          "type": "uint256"
        }
      ],
      "stateMutability": "view",
      "type": "function"
    },
    {
      "inputs": [],
      "name": "rateFund",
      "outputs": [
        {
          "internalType": "uint256",
          "name": "",
          "type": "uint256"
        }
      ],
      "stateMutability": "view",
      "type": "function"
    },
    {
      "inputs": [],
      "name": "rateReward",
      "outputs": [
        {
          "internalType": "uint256",
          "name": "",
          "type": "uint256"
        }
      ],
      "stateMutability": "view",
      "type": "function"
    },
    {
      "inputs": [],
      "name": "start_block",
      "outputs": [
        {
          "internalType": "uint256",
          "name": "",
          "type": "uint256"
        }
      ],
      "stateMutability": "view",
      "type": "function"
    },
    {
      "inputs": [],
      "name": "symbol",
      "outputs": [
        {
          "internalType": "string",
          "name": "",
          "type": "string"
        }
      ],
      "stateMutability": "view",
      "type": "function"
    },
    {
      "inputs": [],
      "name": "totalSupply",
      "outputs": [
        {
          "internalType": "uint256",
          "name": "",
          "type": "uint256"
        }
      ],
      "stateMutability": "view",
      "type": "function"
    },
    {
      "inputs": [
        {
          "internalType": "address",
          "name": "recipient",
          "type": "address"
        },
        {
          "internalType": "uint256",
          "name": "amount",
          "type": "uint256"
        }
      ],
      "name": "transfer",
      "outputs": [
        {
          "internalType": "bool",
          "name": "",
          "type": "bool"
        }
      ],
      "stateMutability": "nonpayable",
      "type": "function"
    },
    {
      "inputs": [
        {
          "internalType": "address",
          "name": "sender",
          "type": "address"
        },
        {
          "internalType": "address",
          "name": "recipient",
          "type": "address"
        },
        {
          "internalType": "uint256",
          "name": "amount",
          "type": "uint256"
        }
      ],
      "name": "transferFrom",
      "outputs": [
        {
          "internalType": "bool",
          "name": "",
          "type": "bool"
        }
      ],
      "stateMutability": "nonpayable",
      "type": "function"
    },
    {
      "inputs": [
        {
          "internalType": "address",
          "name": "newOwner",
          "type": "address"
        }
      ],
      "name": "transferOwnership",
      "outputs": [],
      "stateMutability": "nonpayable",
      "type": "function"
    },
    {
      "inputs": [
        {
          "internalType": "address",
          "name": "_account",
          "type": "address"
        }
      ],
      "name": "setVotingAddress",
      "outputs": [],
      "stateMutability": "nonpayable",
      "type": "function"
    },
    {
      "inputs": [
        {
          "internalType": "address",
          "name": "_uniV2address",
          "type": "address"
        }
      ],
      "name": "setkKushPairAddress",
      "outputs": [],
      "stateMutability": "nonpayable",
      "type": "function"
    },
    {
      "inputs": [
        {
          "internalType": "address",
          "name": "_uniV2address",
          "type": "address"
        }
      ],
      "name": "setpkKushPairAddress",
      "outputs": [],
      "stateMutability": "nonpayable",
      "type": "function"
    },
    {
      "inputs": [
        {
          "internalType": "uint256",
          "name": "amount",
          "type": "uint256"
        }
      ],
      "name": "setMiningDifficulty",
      "outputs": [],
      "stateMutability": "nonpayable",
      "type": "function"
    },
    {
      "inputs": [
        {
          "internalType": "uint256",
          "name": "amount",
          "type": "uint256"
        }
      ],
      "name": "stakekKushUni",
      "outputs": [],
      "stateMutability": "nonpayable",
      "type": "function"
    },
    {
      "inputs": [
        {
          "internalType": "uint256",
          "name": "amount",
          "type": "uint256"
        }
      ],
      "name": "withdrawkKushUni",
      "outputs": [],
      "stateMutability": "nonpayable",
      "type": "function"
    },
    {
      "inputs": [
        {
          "internalType": "uint256",
          "name": "amount",
          "type": "uint256"
        }
      ],
      "name": "stakekushPUREUni",
      "outputs": [],
      "stateMutability": "nonpayable",
      "type": "function"
    },
    {
      "inputs": [
        {
          "internalType": "uint256",
          "name": "amount",
          "type": "uint256"
        }
      ],
      "name": "withdrawkushPUREUni",
      "outputs": [],
      "stateMutability": "nonpayable",
      "type": "function"
    },
    {
      "inputs": [
        {
          "internalType": "address",
          "name": "_account",
          "type": "address"
        }
      ],
      "name": "getkKushUniStakeAmount",
      "outputs": [
        {
          "internalType": "uint256",
          "name": "",
          "type": "uint256"
        }
      ],
      "stateMutability": "view",
      "type": "function"
    },
    {
      "inputs": [
        {
          "internalType": "address",
          "name": "_account",
          "type": "address"
        }
      ],
      "name": "getkushPUREUniStakeAmount",
      "outputs": [
        {
          "internalType": "uint256",
          "name": "",
          "type": "uint256"
        }
      ],
      "stateMutability": "view",
      "type": "function"
    },
    {
      "inputs": [
        {
          "internalType": "address",
          "name": "_account",
          "type": "address"
        }
      ],
      "name": "myRewardsBalance",
      "outputs": [
        {
          "internalType": "uint256",
          "name": "",
          "type": "uint256"
        }
      ],
      "stateMutability": "view",
      "type": "function"
    },
    {
      "inputs": [],
      "name": "getReward",
      "outputs": [],
      "stateMutability": "nonpayable",
      "type": "function"
    },
    {
      "inputs": [],
      "name": "toggleFundsTransfer",
      "outputs": [],
      "stateMutability": "nonpayable",
      "type": "function"
    },
    {
      "inputs": [
        {
          "internalType": "uint256",
          "name": "amount",
          "type": "uint256"
        }
      ],
      "name": "sendkushOGToFund",
      "outputs": [],
      "stateMutability": "nonpayable",
      "type": "function"
    }
  ],
  "bytecode": "0x60806040526000600960146101000a81548160ff0219169083151502179055506050600b5561c350600c556005601455604b6015556014601655600060175560405162004bc138038062004bc1833981810160405260408110156200006357600080fd5b8101908080519060200190929190805190602001909291905050506040518060400160405280600881526020017f6b757368505552450000000000000000000000000000000000000000000000008152506040518060400160405280600581526020017f6b5055524500000000000000000000000000000000000000000000000000000081525081600390805190602001906200010292919062000517565b5080600490805190602001906200011b92919062000517565b506012600560006101000a81548160ff021916908360ff160217905550505033600760006101000a81548173ffffffffffffffffffffffffffffffffffffffff021916908373ffffffffffffffffffffffffffffffffffffffff160217905550600060019050620001b433620001a8670de0b6b3a7640000846200022060201b62003c211790919060201c565b620002ab60201b60201c565b81600860006101000a81548173ffffffffffffffffffffffffffffffffffffffff021916908373ffffffffffffffffffffffffffffffffffffffff16021790555043600a819055506000601860006101000a81548160ff021916908315150217905550505050620005c6565b600080831415620002355760009050620002a5565b60008284029050828482816200024757fe5b0414620002a0576040517f08c379a000000000000000000000000000000000000000000000000000000000815260040180806020018281038252602181526020018062004ba06021913960400191505060405180910390fd5b809150505b92915050565b600073ffffffffffffffffffffffffffffffffffffffff168273ffffffffffffffffffffffffffffffffffffffff1614156200034f576040517f08c379a000000000000000000000000000000000000000000000000000000000815260040180806020018281038252601f8152602001807f45524332303a206d696e7420746f20746865207a65726f20616464726573730081525060200191505060405180910390fd5b62000363600083836200048960201b60201c565b6200037f816002546200048e60201b62003b991790919060201c565b600281905550620003dd816000808573ffffffffffffffffffffffffffffffffffffffff1673ffffffffffffffffffffffffffffffffffffffff168152602001908152602001600020546200048e60201b62003b991790919060201c565b6000808473ffffffffffffffffffffffffffffffffffffffff1673ffffffffffffffffffffffffffffffffffffffff168152602001908152602001600020819055508173ffffffffffffffffffffffffffffffffffffffff16600073ffffffffffffffffffffffffffffffffffffffff167fddf252ad1be2c89b69c2b068fc378daa952ba7f163c4a11628f55a4df523b3ef836040518082815260200191505060405180910390a35050565b505050565b6000808284019050838110156200050d576040517f08c379a000000000000000000000000000000000000000000000000000000000815260040180806020018281038252601b8152602001807f536166654d6174683a206164646974696f6e206f766572666c6f77000000000081525060200191505060405180910390fd5b8091505092915050565b828054600181600116156101000203166002900490600052602060002090601f016020900481019282601f106200055a57805160ff19168380011785556200058b565b828001600101855582156200058b579182015b828111156200058a5782518255916020019190600101906200056d565b5b5090506200059a91906200059e565b5090565b620005c391905b80821115620005bf576000816000905550600101620005a5565b5090565b90565b6145ca80620005d66000396000f3fe608060405234801561001057600080fd5b50600436106102325760003560e01c80638a55d36e11610130578063b6541945116100b8578063db9e39e51161007c578063db9e39e514610aab578063dd62ed3e14610ad9578063ee02b3c714610b51578063f1416c0214610b5b578063f2fde38b14610b8957610232565b8063b6541945146109f5578063b75712ff14610a13578063b87fb3db14610a41578063c14ec88014610a5f578063d150d32014610a8d57610232565b8063a14c41b8116100ff578063a14c41b814610895578063a457c2d7146108b3578063a57306dc14610919578063a9059cbb14610971578063b40b9bb6146109d757610232565b80638a55d36e1461077a5780638dc7b8db1461079c57806395d89b41146107f45780639fd98de11461087757610232565b8063313ce567116101be578063599dd90911610182578063599dd909146105f8578063686772081461063c5780636d2e88831461068657806370a08231146106de5780637a6cfcab1461073657610232565b8063313ce567146104ec5780633590f2be14610510578063395093511461053e5780633ad10ef6146105a45780633d18b912146105ee57610232565b80630a4cb939116102055780630a4cb9391461038657806315b23901146103b457806318160ddd146103fe5780631bb80f481461041c57806323b872dd1461046657610232565b8063019e2f7314610237578063069c8a041461027b57806306fdde031461029d578063095ea7b314610320575b600080fd5b6102796004803603602081101561024d57600080fd5b81019080803573ffffffffffffffffffffffffffffffffffffffff169060200190929190505050610bcd565b005b610283610d6a565b604051808215151515815260200191505060405180910390f35b6102a5610d7d565b6040518080602001828103825283818151815260200191508051906020019080838360005b838110156102e55780820151818401526020810190506102ca565b50505050905090810190601f1680156103125780820380516001836020036101000a031916815260200191505b509250505060405180910390f35b61036c6004803603604081101561033657600080fd5b81019080803573ffffffffffffffffffffffffffffffffffffffff16906020019092919080359060200190929190505050610e1f565b604051808215151515815260200191505060405180910390f35b6103b26004803603602081101561039c57600080fd5b8101908080359060200190929190505050610e3d565b005b6103bc610ef1565b604051808273ffffffffffffffffffffffffffffffffffffffff1673ffffffffffffffffffffffffffffffffffffffff16815260200191505060405180910390f35b610406610f17565b6040518082815260200191505060405180910390f35b610424610f21565b604051808273ffffffffffffffffffffffffffffffffffffffff1673ffffffffffffffffffffffffffffffffffffffff16815260200191505060405180910390f35b6104d26004803603606081101561047c57600080fd5b81019080803573ffffffffffffffffffffffffffffffffffffffff169060200190929190803573ffffffffffffffffffffffffffffffffffffffff16906020019092919080359060200190929190505050610f47565b604051808215151515815260200191505060405180910390f35b6104f4611020565b604051808260ff1660ff16815260200191505060405180910390f35b61053c6004803603602081101561052657600080fd5b8101908080359060200190929190505050611037565b005b61058a6004803603604081101561055457600080fd5b81019080803573ffffffffffffffffffffffffffffffffffffffff1690602001909291908035906020019092919050505061150b565b604051808215151515815260200191505060405180910390f35b6105ac6115be565b604051808273ffffffffffffffffffffffffffffffffffffffff1673ffffffffffffffffffffffffffffffffffffffff16815260200191505060405180910390f35b6105f66115e4565b005b61063a6004803603602081101561060e57600080fd5b81019080803573ffffffffffffffffffffffffffffffffffffffff169060200190929190505050611b9c565b005b610644611d39565b604051808273ffffffffffffffffffffffffffffffffffffffff1673ffffffffffffffffffffffffffffffffffffffff16815260200191505060405180910390f35b6106c86004803603602081101561069c57600080fd5b81019080803573ffffffffffffffffffffffffffffffffffffffff169060200190929190505050611d5f565b6040518082815260200191505060405180910390f35b610720600480360360208110156106f457600080fd5b81019080803573ffffffffffffffffffffffffffffffffffffffff169060200190929190505050611dab565b6040518082815260200191505060405180910390f35b6107786004803603602081101561074c57600080fd5b81019080803573ffffffffffffffffffffffffffffffffffffffff169060200190929190505050611df3565b005b610782611f2d565b604051808215151515815260200191505060405180910390f35b6107de600480360360208110156107b257600080fd5b81019080803573ffffffffffffffffffffffffffffffffffffffff169060200190929190505050611f40565b6040518082815260200191505060405180910390f35b6107fc611f8c565b6040518080602001828103825283818151815260200191508051906020019080838360005b8381101561083c578082015181840152602081019050610821565b50505050905090810190601f1680156108695780820380516001836020036101000a031916815260200191505b509250505060405180910390f35b61087f61202e565b6040518082815260200191505060405180910390f35b61089d612034565b6040518082815260200191505060405180910390f35b6108ff600480360360408110156108c957600080fd5b81019080803573ffffffffffffffffffffffffffffffffffffffff1690602001909291908035906020019092919050505061203a565b604051808215151515815260200191505060405180910390f35b61095b6004803603602081101561092f57600080fd5b81019080803573ffffffffffffffffffffffffffffffffffffffff169060200190929190505050612107565b6040518082815260200191505060405180910390f35b6109bd6004803603604081101561098757600080fd5b81019080803573ffffffffffffffffffffffffffffffffffffffff16906020019092919080359060200190929190505050612375565b604051808215151515815260200191505060405180910390f35b6109df612393565b6040518082815260200191505060405180910390f35b6109fd612399565b6040518082815260200191505060405180910390f35b610a3f60048036036020811015610a2957600080fd5b810190808035906020019092919050505061239f565b005b610a49612871565b6040518082815260200191505060405180910390f35b610a8b60048036036020811015610a7557600080fd5b8101908080359060200190929190505050612877565b005b610a95612d49565b6040518082815260200191505060405180910390f35b610ad760048036036020811015610ac157600080fd5b8101908080359060200190929190505050612d4f565b005b610b3b60048036036040811015610aef57600080fd5b81019080803573ffffffffffffffffffffffffffffffffffffffff169060200190929190803573ffffffffffffffffffffffffffffffffffffffff169060200190929190505050612e5b565b6040518082815260200191505060405180910390f35b610b59612ee2565b005b610b8760048036036020811015610b7157600080fd5b8101908080359060200190929190505050612f68565b005b610bcb60048036036020811015610b9f57600080fd5b81019080803573ffffffffffffffffffffffffffffffffffffffff16906020019092919050505061347e565b005b600760009054906101000a900473ffffffffffffffffffffffffffffffffffffffff1673ffffffffffffffffffffffffffffffffffffffff163373ffffffffffffffffffffffffffffffffffffffff1614610c2757600080fd5b80601060006101000a81548173ffffffffffffffffffffffffffffffffffffffff021916908373ffffffffffffffffffffffffffffffffffffffff160217905550601060009054906101000a900473ffffffffffffffffffffffffffffffffffffffff16600f60006101000a81548173ffffffffffffffffffffffffffffffffffffffff021916908373ffffffffffffffffffffffffffffffffffffffff1602179055503373ffffffffffffffffffffffffffffffffffffffff167f19010b9c9497981835afd38a06af7fcbb368414eeda7c14b6f4748d3ab93d67b601060009054906101000a900473ffffffffffffffffffffffffffffffffffffffff16604051808273ffffffffffffffffffffffffffffffffffffffff1673ffffffffffffffffffffffffffffffffffffffff16815260200191505060405180910390a250565b600960149054906101000a900460ff1681565b606060038054600181600116156101000203166002900480601f016020809104026020016040519081016040528092919081815260200182805460018160011615610100020316600290048015610e155780601f10610dea57610100808354040283529160200191610e15565b820191906000526020600020905b815481529060010190602001808311610df857829003601f168201915b5050505050905090565b6000610e33610e2c6135cf565b84846135d7565b6001905092915050565b600760009054906101000a900473ffffffffffffffffffffffffffffffffffffffff1673ffffffffffffffffffffffffffffffffffffffff163373ffffffffffffffffffffffffffffffffffffffff1614610e9757600080fd5b80600c819055503373ffffffffffffffffffffffffffffffffffffffff167f694487741fda3a05899e5ccf8286720c2e1152708453a1a35c016249befc5fcd600c546040518082815260200191505060405180910390a250565b600960009054906101000a900473ffffffffffffffffffffffffffffffffffffffff1681565b6000600254905090565b601060009054906101000a900473ffffffffffffffffffffffffffffffffffffffff1681565b6000610f548484846137ce565b61101584610f606135cf565b611010856040518060600160405280602881526020016144d560289139600160008b73ffffffffffffffffffffffffffffffffffffffff1673ffffffffffffffffffffffffffffffffffffffff1681526020019081526020016000206000610fc66135cf565b73ffffffffffffffffffffffffffffffffffffffff1673ffffffffffffffffffffffffffffffffffffffff16815260200190815260200160002054613a8f9092919063ffffffff16565b6135d7565b600190509392505050565b6000600560009054906101000a900460ff16905090565b33600080600660008473ffffffffffffffffffffffffffffffffffffffff1673ffffffffffffffffffffffffffffffffffffffff1681526020019081526020016000206003015411156110d557600b54600660008473ffffffffffffffffffffffffffffffffffffffff1673ffffffffffffffffffffffffffffffffffffffff16815260200190815260200160002060030154816110d157fe5b0490505b600660008373ffffffffffffffffffffffffffffffffffffffff1673ffffffffffffffffffffffffffffffffffffffff168152602001908152602001600020600001544311156113a9576000611176600660008573ffffffffffffffffffffffffffffffffffffffff1673ffffffffffffffffffffffffffffffffffffffff1681526020019081526020016000206000015443613b4f90919063ffffffff16565b90506000600660008573ffffffffffffffffffffffffffffffffffffffff1673ffffffffffffffffffffffffffffffffffffffff1681526020019081526020016000206002015411156112d057600c546112818261127385611265600660008a73ffffffffffffffffffffffffffffffffffffffff1673ffffffffffffffffffffffffffffffffffffffff16815260200190815260200160002060020154600660008b73ffffffffffffffffffffffffffffffffffffffff1673ffffffffffffffffffffffffffffffffffffffff16815260200190815260200160002060010154613b9990919063ffffffff16565b613b9990919063ffffffff16565b613c2190919063ffffffff16565b8161128857fe5b04600660008573ffffffffffffffffffffffffffffffffffffffff1673ffffffffffffffffffffffffffffffffffffffff168152602001908152602001600020600101819055505b43600660008573ffffffffffffffffffffffffffffffffffffffff1673ffffffffffffffffffffffffffffffffffffffff168152602001908152602001600020600001819055508273ffffffffffffffffffffffffffffffffffffffff167fc083a1647e3ee591bf42b82564ffb4d16fdbb26068f0080da911c8d8300fd84a600660008673ffffffffffffffffffffffffffffffffffffffff1673ffffffffffffffffffffffffffffffffffffffff168152602001908152602001600020600101546040518082815260200191505060405180910390a2505b6113f8333085601160009054906101000a900473ffffffffffffffffffffffffffffffffffffffff1673ffffffffffffffffffffffffffffffffffffffff16613ca7909392919063ffffffff16565b61144d83600660003373ffffffffffffffffffffffffffffffffffffffff1673ffffffffffffffffffffffffffffffffffffffff16815260200190815260200160002060030154613b9990919063ffffffff16565b600660003373ffffffffffffffffffffffffffffffffffffffff1673ffffffffffffffffffffffffffffffffffffffff168152602001908152602001600020600301819055506114a883601354613b9990919063ffffffff16565b6013819055503373ffffffffffffffffffffffffffffffffffffffff167ff9c5eeed88785e3b9c6ac01160ee75ccaf7e86ba7ef9fbfcef4cc67406b7399784601354604051808381526020018281526020019250505060405180910390a2505050565b60006115b46115186135cf565b846115af85600160006115296135cf565b73ffffffffffffffffffffffffffffffffffffffff1673ffffffffffffffffffffffffffffffffffffffff16815260200190815260200160002060008973ffffffffffffffffffffffffffffffffffffffff1673ffffffffffffffffffffffffffffffffffffffff16815260200190815260200160002054613b9990919063ffffffff16565b6135d7565b6001905092915050565b600860009054906101000a900473ffffffffffffffffffffffffffffffffffffffff1681565b33600080600660008473ffffffffffffffffffffffffffffffffffffffff1673ffffffffffffffffffffffffffffffffffffffff16815260200190815260200160002060030154111561168257600b54600660008473ffffffffffffffffffffffffffffffffffffffff1673ffffffffffffffffffffffffffffffffffffffff168152602001908152602001600020600301548161167e57fe5b0490505b600660008373ffffffffffffffffffffffffffffffffffffffff1673ffffffffffffffffffffffffffffffffffffffff16815260200190815260200160002060000154431115611956576000611723600660008573ffffffffffffffffffffffffffffffffffffffff1673ffffffffffffffffffffffffffffffffffffffff1681526020019081526020016000206000015443613b4f90919063ffffffff16565b90506000600660008573ffffffffffffffffffffffffffffffffffffffff1673ffffffffffffffffffffffffffffffffffffffff16815260200190815260200160002060020154111561187d57600c5461182e8261182085611812600660008a73ffffffffffffffffffffffffffffffffffffffff1673ffffffffffffffffffffffffffffffffffffffff16815260200190815260200160002060020154600660008b73ffffffffffffffffffffffffffffffffffffffff1673ffffffffffffffffffffffffffffffffffffffff16815260200190815260200160002060010154613b9990919063ffffffff16565b613b9990919063ffffffff16565b613c2190919063ffffffff16565b8161183557fe5b04600660008573ffffffffffffffffffffffffffffffffffffffff1673ffffffffffffffffffffffffffffffffffffffff168152602001908152602001600020600101819055505b43600660008573ffffffffffffffffffffffffffffffffffffffff1673ffffffffffffffffffffffffffffffffffffffff168152602001908152602001600020600001819055508273ffffffffffffffffffffffffffffffffffffffff167fc083a1647e3ee591bf42b82564ffb4d16fdbb26068f0080da911c8d8300fd84a600660008673ffffffffffffffffffffffffffffffffffffffff1673ffffffffffffffffffffffffffffffffffffffff168152602001908152602001600020600101546040518082815260200191505060405180910390a2505b601860009054906101000a900460ff166119d8576040517f08c379a000000000000000000000000000000000000000000000000000000000815260040180806020018281038252600b8152602001807f6e6f74207374617274656400000000000000000000000000000000000000000081525060200191505060405180910390fd5b6000600660003373ffffffffffffffffffffffffffffffffffffffff1673ffffffffffffffffffffffffffffffffffffffff1681526020019081526020016000206001015490506000600660003373ffffffffffffffffffffffffffffffffffffffff1673ffffffffffffffffffffffffffffffffffffffff168152602001908152602001600020600101819055506000611a94601654611a86601454601554613b9990919063ffffffff16565b613b9990919063ffffffff16565b9050611ac630611ac1601654611ab38587613d9490919063ffffffff16565b613c2190919063ffffffff16565b613dde565b611af633611af1601554611ae38587613d9490919063ffffffff16565b613c2190919063ffffffff16565b613dde565b611b48600860009054906101000a900473ffffffffffffffffffffffffffffffffffffffff16611b43601454611b358587613d9490919063ffffffff16565b613c2190919063ffffffff16565b613dde565b3373ffffffffffffffffffffffffffffffffffffffff167fc083a1647e3ee591bf42b82564ffb4d16fdbb26068f0080da911c8d8300fd84a836040518082815260200191505060405180910390a250505050565b600760009054906101000a900473ffffffffffffffffffffffffffffffffffffffff1673ffffffffffffffffffffffffffffffffffffffff163373ffffffffffffffffffffffffffffffffffffffff1614611bf657600080fd5b80601260006101000a81548173ffffffffffffffffffffffffffffffffffffffff021916908373ffffffffffffffffffffffffffffffffffffffff160217905550601260009054906101000a900473ffffffffffffffffffffffffffffffffffffffff16601160006101000a81548173ffffffffffffffffffffffffffffffffffffffff021916908373ffffffffffffffffffffffffffffffffffffffff1602179055503373ffffffffffffffffffffffffffffffffffffffff167fa442fad81535617c38c32a14213baab585057d35dce2828f2c17efd3de752518601260009054906101000a900473ffffffffffffffffffffffffffffffffffffffff16604051808273ffffffffffffffffffffffffffffffffffffffff1673ffffffffffffffffffffffffffffffffffffffff16815260200191505060405180910390a250565b601260009054906101000a900473ffffffffffffffffffffffffffffffffffffffff1681565b6000600660008373ffffffffffffffffffffffffffffffffffffffff1673ffffffffffffffffffffffffffffffffffffffff168152602001908152602001600020600301549050919050565b60008060008373ffffffffffffffffffffffffffffffffffffffff1673ffffffffffffffffffffffffffffffffffffffff168152602001908152602001600020549050919050565b600760009054906101000a900473ffffffffffffffffffffffffffffffffffffffff1673ffffffffffffffffffffffffffffffffffffffff163373ffffffffffffffffffffffffffffffffffffffff1614611e4d57600080fd5b80600960006101000a81548173ffffffffffffffffffffffffffffffffffffffff021916908373ffffffffffffffffffffffffffffffffffffffff1602179055503373ffffffffffffffffffffffffffffffffffffffff167f62a51664e003fa1af643b4857cc1abcee4cd6b54791027e0fbe33bc924e41eac600960009054906101000a900473ffffffffffffffffffffffffffffffffffffffff16604051808273ffffffffffffffffffffffffffffffffffffffff1673ffffffffffffffffffffffffffffffffffffffff16815260200191505060405180910390a250565b601860009054906101000a900460ff1681565b6000600660008373ffffffffffffffffffffffffffffffffffffffff1673ffffffffffffffffffffffffffffffffffffffff168152602001908152602001600020600201549050919050565b606060048054600181600116156101000203166002900480601f0160208091040260200160405190810160405280929190818152602001828054600181600116156101000203166002900480156120245780601f10611ff957610100808354040283529160200191612024565b820191906000526020600020905b81548152906001019060200180831161200757829003601f168201915b5050505050905090565b60155481565b60165481565b60006120fd6120476135cf565b846120f88560405180606001604052806025815260200161457060259139600160006120716135cf565b73ffffffffffffffffffffffffffffffffffffffff1673ffffffffffffffffffffffffffffffffffffffff16815260200190815260200160002060008a73ffffffffffffffffffffffffffffffffffffffff1673ffffffffffffffffffffffffffffffffffffffff16815260200190815260200160002054613a8f9092919063ffffffff16565b6135d7565b6001905092915050565b6000806000600660008573ffffffffffffffffffffffffffffffffffffffff1673ffffffffffffffffffffffffffffffffffffffff1681526020019081526020016000206003015411156121a657600b54600660008573ffffffffffffffffffffffffffffffffffffffff1673ffffffffffffffffffffffffffffffffffffffff16815260200190815260200160002060030154816121a257fe5b0490505b600660008473ffffffffffffffffffffffffffffffffffffffff1673ffffffffffffffffffffffffffffffffffffffff1681526020019081526020016000206000015443111561236e576000612247600660008673ffffffffffffffffffffffffffffffffffffffff1673ffffffffffffffffffffffffffffffffffffffff1681526020019081526020016000206000015443613b4f90919063ffffffff16565b90506000600660008673ffffffffffffffffffffffffffffffffffffffff1673ffffffffffffffffffffffffffffffffffffffff16815260200190815260200160002060020154111561236357600c546123528261234485612336600660008b73ffffffffffffffffffffffffffffffffffffffff1673ffffffffffffffffffffffffffffffffffffffff16815260200190815260200160002060020154600660008c73ffffffffffffffffffffffffffffffffffffffff1673ffffffffffffffffffffffffffffffffffffffff16815260200190815260200160002060010154613b9990919063ffffffff16565b613b9990919063ffffffff16565b613c2190919063ffffffff16565b8161235957fe5b0492505050612370565b600092505050612370565b505b919050565b60006123896123826135cf565b84846137ce565b6001905092915050565b600c5481565b600b5481565b33600080600660008473ffffffffffffffffffffffffffffffffffffffff1673ffffffffffffffffffffffffffffffffffffffff16815260200190815260200160002060030154111561243d57600b54600660008473ffffffffffffffffffffffffffffffffffffffff1673ffffffffffffffffffffffffffffffffffffffff168152602001908152602001600020600301548161243957fe5b0490505b600660008373ffffffffffffffffffffffffffffffffffffffff1673ffffffffffffffffffffffffffffffffffffffff168152602001908152602001600020600001544311156127115760006124de600660008573ffffffffffffffffffffffffffffffffffffffff1673ffffffffffffffffffffffffffffffffffffffff1681526020019081526020016000206000015443613b4f90919063ffffffff16565b90506000600660008573ffffffffffffffffffffffffffffffffffffffff1673ffffffffffffffffffffffffffffffffffffffff16815260200190815260200160002060020154111561263857600c546125e9826125db856125cd600660008a73ffffffffffffffffffffffffffffffffffffffff1673ffffffffffffffffffffffffffffffffffffffff16815260200190815260200160002060020154600660008b73ffffffffffffffffffffffffffffffffffffffff1673ffffffffffffffffffffffffffffffffffffffff16815260200190815260200160002060010154613b9990919063ffffffff16565b613b9990919063ffffffff16565b613c2190919063ffffffff16565b816125f057fe5b04600660008573ffffffffffffffffffffffffffffffffffffffff1673ffffffffffffffffffffffffffffffffffffffff168152602001908152602001600020600101819055505b43600660008573ffffffffffffffffffffffffffffffffffffffff1673ffffffffffffffffffffffffffffffffffffffff168152602001908152602001600020600001819055508273ffffffffffffffffffffffffffffffffffffffff167fc083a1647e3ee591bf42b82564ffb4d16fdbb26068f0080da911c8d8300fd84a600660008673ffffffffffffffffffffffffffffffffffffffff1673ffffffffffffffffffffffffffffffffffffffff168152602001908152602001600020600101546040518082815260200191505060405180910390a2505b61275e3384600f60009054906101000a900473ffffffffffffffffffffffffffffffffffffffff1673ffffffffffffffffffffffffffffffffffffffff16613fa59092919063ffffffff16565b6127b383600660003373ffffffffffffffffffffffffffffffffffffffff1673ffffffffffffffffffffffffffffffffffffffff16815260200190815260200160002060020154613b4f90919063ffffffff16565b600660003373ffffffffffffffffffffffffffffffffffffffff1673ffffffffffffffffffffffffffffffffffffffff1681526020019081526020016000206002018190555061280e83601354613b4f90919063ffffffff16565b6013819055503373ffffffffffffffffffffffffffffffffffffffff167fe97784c0ef82af61c516ac0dc31a3c1129cc20d80c0d1fbd8024f5ca3e07eb2f84601354604051808381526020018281526020019250505060405180910390a2505050565b60175481565b33600080600660008473ffffffffffffffffffffffffffffffffffffffff1673ffffffffffffffffffffffffffffffffffffffff16815260200190815260200160002060030154111561291557600b54600660008473ffffffffffffffffffffffffffffffffffffffff1673ffffffffffffffffffffffffffffffffffffffff168152602001908152602001600020600301548161291157fe5b0490505b600660008373ffffffffffffffffffffffffffffffffffffffff1673ffffffffffffffffffffffffffffffffffffffff16815260200190815260200160002060000154431115612be95760006129b6600660008573ffffffffffffffffffffffffffffffffffffffff1673ffffffffffffffffffffffffffffffffffffffff1681526020019081526020016000206000015443613b4f90919063ffffffff16565b90506000600660008573ffffffffffffffffffffffffffffffffffffffff1673ffffffffffffffffffffffffffffffffffffffff168152602001908152602001600020600201541115612b1057600c54612ac182612ab385612aa5600660008a73ffffffffffffffffffffffffffffffffffffffff1673ffffffffffffffffffffffffffffffffffffffff16815260200190815260200160002060020154600660008b73ffffffffffffffffffffffffffffffffffffffff1673ffffffffffffffffffffffffffffffffffffffff16815260200190815260200160002060010154613b9990919063ffffffff16565b613b9990919063ffffffff16565b613c2190919063ffffffff16565b81612ac857fe5b04600660008573ffffffffffffffffffffffffffffffffffffffff1673ffffffffffffffffffffffffffffffffffffffff168152602001908152602001600020600101819055505b43600660008573ffffffffffffffffffffffffffffffffffffffff1673ffffffffffffffffffffffffffffffffffffffff168152602001908152602001600020600001819055508273ffffffffffffffffffffffffffffffffffffffff167fc083a1647e3ee591bf42b82564ffb4d16fdbb26068f0080da911c8d8300fd84a600660008673ffffffffffffffffffffffffffffffffffffffff1673ffffffffffffffffffffffffffffffffffffffff168152602001908152602001600020600101546040518082815260200191505060405180910390a2505b612c363384601160009054906101000a900473ffffffffffffffffffffffffffffffffffffffff1673ffffffffffffffffffffffffffffffffffffffff16613fa59092919063ffffffff16565b612c8b83600660003373ffffffffffffffffffffffffffffffffffffffff1673ffffffffffffffffffffffffffffffffffffffff16815260200190815260200160002060030154613b4f90919063ffffffff16565b600660003373ffffffffffffffffffffffffffffffffffffffff1673ffffffffffffffffffffffffffffffffffffffff16815260200190815260200160002060030181905550612ce683601354613b4f90919063ffffffff16565b6013819055503373ffffffffffffffffffffffffffffffffffffffff167f9a3d5e69c19ec9d5990dd26cec35dceeacdf12fd4cfeeeed61a50d07bcb1c35284601354604051808381526020018281526020019250505060405180910390a2505050565b60145481565b600960149054906101000a900460ff16612d6857612e58565b43600a81905550612dbc600960009054906101000a900473ffffffffffffffffffffffffffffffffffffffff16823073ffffffffffffffffffffffffffffffffffffffff16613fa59092919063ffffffff16565b612e09600860009054906101000a900473ffffffffffffffffffffffffffffffffffffffff16823073ffffffffffffffffffffffffffffffffffffffff16613fa59092919063ffffffff16565b3373ffffffffffffffffffffffffffffffffffffffff167f9d7222da2cc210705445b483f242802ea957473cdd2257aacf02466f2e663482826040518082815260200191505060405180910390a25b50565b6000600160008473ffffffffffffffffffffffffffffffffffffffff1673ffffffffffffffffffffffffffffffffffffffff16815260200190815260200160002060008373ffffffffffffffffffffffffffffffffffffffff1673ffffffffffffffffffffffffffffffffffffffff16815260200190815260200160002054905092915050565b600760009054906101000a900473ffffffffffffffffffffffffffffffffffffffff1673ffffffffffffffffffffffffffffffffffffffff163373ffffffffffffffffffffffffffffffffffffffff1614612f3c57600080fd5b600960149054906101000a900460ff1615600960146101000a81548160ff021916908315150217905550565b33600080600660008473ffffffffffffffffffffffffffffffffffffffff1673ffffffffffffffffffffffffffffffffffffffff16815260200190815260200160002060030154111561300657600b54600660008473ffffffffffffffffffffffffffffffffffffffff1673ffffffffffffffffffffffffffffffffffffffff168152602001908152602001600020600301548161300257fe5b0490505b600660008373ffffffffffffffffffffffffffffffffffffffff1673ffffffffffffffffffffffffffffffffffffffff168152602001908152602001600020600001544311156132da5760006130a7600660008573ffffffffffffffffffffffffffffffffffffffff1673ffffffffffffffffffffffffffffffffffffffff1681526020019081526020016000206000015443613b4f90919063ffffffff16565b90506000600660008573ffffffffffffffffffffffffffffffffffffffff1673ffffffffffffffffffffffffffffffffffffffff16815260200190815260200160002060020154111561320157600c546131b2826131a485613196600660008a73ffffffffffffffffffffffffffffffffffffffff1673ffffffffffffffffffffffffffffffffffffffff16815260200190815260200160002060020154600660008b73ffffffffffffffffffffffffffffffffffffffff1673ffffffffffffffffffffffffffffffffffffffff16815260200190815260200160002060010154613b9990919063ffffffff16565b613b9990919063ffffffff16565b613c2190919063ffffffff16565b816131b957fe5b04600660008573ffffffffffffffffffffffffffffffffffffffff1673ffffffffffffffffffffffffffffffffffffffff168152602001908152602001600020600101819055505b43600660008573ffffffffffffffffffffffffffffffffffffffff1673ffffffffffffffffffffffffffffffffffffffff168152602001908152602001600020600001819055508273ffffffffffffffffffffffffffffffffffffffff167fc083a1647e3ee591bf42b82564ffb4d16fdbb26068f0080da911c8d8300fd84a600660008673ffffffffffffffffffffffffffffffffffffffff1673ffffffffffffffffffffffffffffffffffffffff168152602001908152602001600020600101546040518082815260200191505060405180910390a2505b613329333085600f60009054906101000a900473ffffffffffffffffffffffffffffffffffffffff1673ffffffffffffffffffffffffffffffffffffffff16613ca7909392919063ffffffff16565b61337e83600660003373ffffffffffffffffffffffffffffffffffffffff1673ffffffffffffffffffffffffffffffffffffffff16815260200190815260200160002060020154613b9990919063ffffffff16565b600660003373ffffffffffffffffffffffffffffffffffffffff1673ffffffffffffffffffffffffffffffffffffffff168152602001908152602001600020600201819055506133d983601354613b9990919063ffffffff16565b6013819055503373ffffffffffffffffffffffffffffffffffffffff167f6029f096246af8344af0374d81a889102bc777bb9a26a6ba92bac484f1f4d189600660003373ffffffffffffffffffffffffffffffffffffffff1673ffffffffffffffffffffffffffffffffffffffff16815260200190815260200160002060020154601354604051808381526020018281526020019250505060405180910390a2505050565b600760009054906101000a900473ffffffffffffffffffffffffffffffffffffffff1673ffffffffffffffffffffffffffffffffffffffff163373ffffffffffffffffffffffffffffffffffffffff16146134d857600080fd5b600073ffffffffffffffffffffffffffffffffffffffff168173ffffffffffffffffffffffffffffffffffffffff16141561350f57fe5b8073ffffffffffffffffffffffffffffffffffffffff16600760009054906101000a900473ffffffffffffffffffffffffffffffffffffffff1673ffffffffffffffffffffffffffffffffffffffff167f8be0079c531659141344cd1fd0a4f28419497f9722a3daafe3b4186f6b6457e060405160405180910390a380600760006101000a81548173ffffffffffffffffffffffffffffffffffffffff021916908373ffffffffffffffffffffffffffffffffffffffff16021790555050565b600033905090565b600073ffffffffffffffffffffffffffffffffffffffff168373ffffffffffffffffffffffffffffffffffffffff16141561365d576040517f08c379a00000000000000000000000000000000000000000000000000000000081526004018080602001828103825260248152602001806145226024913960400191505060405180910390fd5b600073ffffffffffffffffffffffffffffffffffffffff168273ffffffffffffffffffffffffffffffffffffffff1614156136e3576040517f08c379a000000000000000000000000000000000000000000000000000000000815260040180806020018281038252602281526020018061446c6022913960400191505060405180910390fd5b80600160008573ffffffffffffffffffffffffffffffffffffffff1673ffffffffffffffffffffffffffffffffffffffff16815260200190815260200160002060008473ffffffffffffffffffffffffffffffffffffffff1673ffffffffffffffffffffffffffffffffffffffff168152602001908152602001600020819055508173ffffffffffffffffffffffffffffffffffffffff168373ffffffffffffffffffffffffffffffffffffffff167f8c5be1e5ebec7d5bd14f71427d1e84f3dd0314c0f7b2291e5b200ac8c7c3b925836040518082815260200191505060405180910390a3505050565b600073ffffffffffffffffffffffffffffffffffffffff168373ffffffffffffffffffffffffffffffffffffffff161415613854576040517f08c379a00000000000000000000000000000000000000000000000000000000081526004018080602001828103825260258152602001806144fd6025913960400191505060405180910390fd5b600073ffffffffffffffffffffffffffffffffffffffff168273ffffffffffffffffffffffffffffffffffffffff1614156138da576040517f08c379a00000000000000000000000000000000000000000000000000000000081526004018080602001828103825260238152602001806144496023913960400191505060405180910390fd5b6138e583838361405d565b6139508160405180606001604052806026815260200161448e602691396000808773ffffffffffffffffffffffffffffffffffffffff1673ffffffffffffffffffffffffffffffffffffffff16815260200190815260200160002054613a8f9092919063ffffffff16565b6000808573ffffffffffffffffffffffffffffffffffffffff1673ffffffffffffffffffffffffffffffffffffffff168152602001908152602001600020819055506139e3816000808573ffffffffffffffffffffffffffffffffffffffff1673ffffffffffffffffffffffffffffffffffffffff16815260200190815260200160002054613b9990919063ffffffff16565b6000808473ffffffffffffffffffffffffffffffffffffffff1673ffffffffffffffffffffffffffffffffffffffff168152602001908152602001600020819055508173ffffffffffffffffffffffffffffffffffffffff168373ffffffffffffffffffffffffffffffffffffffff167fddf252ad1be2c89b69c2b068fc378daa952ba7f163c4a11628f55a4df523b3ef836040518082815260200191505060405180910390a3505050565b6000838311158290613b3c576040517f08c379a00000000000000000000000000000000000000000000000000000000081526004018080602001828103825283818151815260200191508051906020019080838360005b83811015613b01578082015181840152602081019050613ae6565b50505050905090810190601f168015613b2e5780820380516001836020036101000a031916815260200191505b509250505060405180910390fd5b5060008385039050809150509392505050565b6000613b9183836040518060400160405280601e81526020017f536166654d6174683a207375627472616374696f6e206f766572666c6f770000815250613a8f565b905092915050565b600080828401905083811015613c17576040517f08c379a000000000000000000000000000000000000000000000000000000000815260040180806020018281038252601b8152602001807f536166654d6174683a206164646974696f6e206f766572666c6f77000000000081525060200191505060405180910390fd5b8091505092915050565b600080831415613c345760009050613ca1565b6000828402905082848281613c4557fe5b0414613c9c576040517f08c379a00000000000000000000000000000000000000000000000000000000081526004018080602001828103825260218152602001806144b46021913960400191505060405180910390fd5b809150505b92915050565b613d8e846323b872dd60e01b858585604051602401808473ffffffffffffffffffffffffffffffffffffffff1673ffffffffffffffffffffffffffffffffffffffff1681526020018373ffffffffffffffffffffffffffffffffffffffff1673ffffffffffffffffffffffffffffffffffffffff1681526020018281526020019350505050604051602081830303815290604052907bffffffffffffffffffffffffffffffffffffffffffffffffffffffff19166020820180517bffffffffffffffffffffffffffffffffffffffffffffffffffffffff8381831617835250505050614062565b50505050565b6000613dd683836040518060400160405280601a81526020017f536166654d6174683a206469766973696f6e206279207a65726f000000000000815250614151565b905092915050565b600073ffffffffffffffffffffffffffffffffffffffff168273ffffffffffffffffffffffffffffffffffffffff161415613e81576040517f08c379a000000000000000000000000000000000000000000000000000000000815260040180806020018281038252601f8152602001807f45524332303a206d696e7420746f20746865207a65726f20616464726573730081525060200191505060405180910390fd5b613e8d6000838361405d565b613ea281600254613b9990919063ffffffff16565b600281905550613ef9816000808573ffffffffffffffffffffffffffffffffffffffff1673ffffffffffffffffffffffffffffffffffffffff16815260200190815260200160002054613b9990919063ffffffff16565b6000808473ffffffffffffffffffffffffffffffffffffffff1673ffffffffffffffffffffffffffffffffffffffff168152602001908152602001600020819055508173ffffffffffffffffffffffffffffffffffffffff16600073ffffffffffffffffffffffffffffffffffffffff167fddf252ad1be2c89b69c2b068fc378daa952ba7f163c4a11628f55a4df523b3ef836040518082815260200191505060405180910390a35050565b6140588363a9059cbb60e01b8484604051602401808373ffffffffffffffffffffffffffffffffffffffff1673ffffffffffffffffffffffffffffffffffffffff16815260200182815260200192505050604051602081830303815290604052907bffffffffffffffffffffffffffffffffffffffffffffffffffffffff19166020820180517bffffffffffffffffffffffffffffffffffffffffffffffffffffffff8381831617835250505050614062565b505050565b505050565b60606140c4826040518060400160405280602081526020017f5361666545524332303a206c6f772d6c6576656c2063616c6c206661696c65648152508573ffffffffffffffffffffffffffffffffffffffff166142179092919063ffffffff16565b905060008151111561414c578080602001905160208110156140e557600080fd5b810190808051906020019092919050505061414b576040517f08c379a000000000000000000000000000000000000000000000000000000000815260040180806020018281038252602a815260200180614546602a913960400191505060405180910390fd5b5b505050565b600080831182906141fd576040517f08c379a00000000000000000000000000000000000000000000000000000000081526004018080602001828103825283818151815260200191508051906020019080838360005b838110156141c25780820151818401526020810190506141a7565b50505050905090810190601f1680156141ef5780820380516001836020036101000a031916815260200191505b509250505060405180910390fd5b50600083858161420957fe5b049050809150509392505050565b6060614226848460008561422f565b90509392505050565b606061423a85614435565b6142ac576040517f08c379a000000000000000000000000000000000000000000000000000000000815260040180806020018281038252601d8152602001807f416464726573733a2063616c6c20746f206e6f6e2d636f6e747261637400000081525060200191505060405180910390fd5b600060608673ffffffffffffffffffffffffffffffffffffffff1685876040518082805190602001908083835b602083106142fc57805182526020820191506020810190506020830392506142d9565b6001836020036101000a03801982511681845116808217855250505050505090500191505060006040518083038185875af1925050503d806000811461435e576040519150601f19603f3d011682016040523d82523d6000602084013e614363565b606091505b5091509150811561437857809250505061442d565b60008151111561438b5780518082602001fd5b836040517f08c379a00000000000000000000000000000000000000000000000000000000081526004018080602001828103825283818151815260200191508051906020019080838360005b838110156143f25780820151818401526020810190506143d7565b50505050905090810190601f16801561441f5780820380516001836020036101000a031916815260200191505b509250505060405180910390fd5b949350505050565b600080823b90506000811191505091905056fe45524332303a207472616e7366657220746f20746865207a65726f206164647265737345524332303a20617070726f766520746f20746865207a65726f206164647265737345524332303a207472616e7366657220616d6f756e7420657863656564732062616c616e6365536166654d6174683a206d756c7469706c69636174696f6e206f766572666c6f7745524332303a207472616e7366657220616d6f756e74206578636565647320616c6c6f77616e636545524332303a207472616e736665722066726f6d20746865207a65726f206164647265737345524332303a20617070726f76652066726f6d20746865207a65726f20616464726573735361666545524332303a204552433230206f7065726174696f6e20646964206e6f74207375636365656445524332303a2064656372656173656420616c6c6f77616e63652062656c6f77207a65726fa2646970667358221220acf438a2a32a0c123faabd28b2a18bb561ce702e528086b5df759ca6bdd9ddef64736f6c63430006060033536166654d6174683a206d756c7469706c69636174696f6e206f766572666c6f77",
  "immutableReferences": {},
  "source": "pragma solidity ^0.6.6;\n\nimport \"@openzeppelin/contracts/token/ERC20/ERC20.sol\";\nimport \"@openzeppelin/contracts/token/ERC20/SafeERC20.sol\";\nimport \"@openzeppelin/contracts/math/SafeMath.sol\";\n\n\ncontract kushPUREToken is ERC20{\n    \n    using SafeERC20 for IERC20;\n    using SafeMath for uint256;\n\n\n    struct stakeTracker {\n        uint256 lastBlockChecked;\n        uint256 rewards;\n        uint256 kkushPoolTokens;\n        uint256 kushOGPoolTokens;\n    }\n    \n    mapping(address => stakeTracker) private stakedBalances;\n\n    address owner;\n    address public devAddress;\n    address public fundVotingAddress;\n    \n    bool public isSendingFunds = false;\n    \n    uint256 private lastBlockSent;\n    \n    uint256 public liquidityMultiplier = 80;\n    uint256 public miningDifficulty = 50000;\n    \n    IERC20 private kkush;\n    IERC20 private kushOG;\n    \n    IERC20 private kkushV2;\n    address public kkushUniswapV2Pair;\n    \n    IERC20 private kushOGV2;\n    address public kushOGV2UniswapV2Pair;\n    \n    uint256 totalLiquidityStaked;\n    uint256 public rateDevFee = 5;\n    uint256 public rateReward = 75;\n    uint256 public rateFund = 20;\n    uint256 public start_block = 0;\n    bool public isStart;\n    modifier _onlyOwner() {\n        require(msg.sender == owner);\n        _;\n    }\n    \n    modifier updateStakingReward(address _account) {\n        uint256 liquidityBonus;\n        if (stakedBalances[_account].kushOGPoolTokens > 0) {\n            liquidityBonus = stakedBalances[_account].kushOGPoolTokens/ liquidityMultiplier;\n        }\n        if (block.number > stakedBalances[_account].lastBlockChecked) {\n            uint256 rewardBlocks = block.number\n                                        .sub(stakedBalances[_account].lastBlockChecked);\n                                        \n                                        \n             \n            if (stakedBalances[_account].kkushPoolTokens > 0) {\n                stakedBalances[_account].rewards = stakedBalances[_account].rewards\n                                                                            .add(stakedBalances[_account].kkushPoolTokens)\n                                                                            .add(liquidityBonus)\n                                                                            .mul(rewardBlocks)\n                                                                            / miningDifficulty;\n            }\n            \n           \n                    \n            stakedBalances[_account].lastBlockChecked = block.number;\n            \n            \n            emit Rewards(_account, stakedBalances[_account].rewards);                                                     \n        }\n        _;\n    }\n    \n    event OwnershipTransferred(address indexed previousOwner, address indexed newOwner);\n    \n    event kkushUniStaked(address indexed user, uint256 amount, uint256 totalLiquidityStaked);\n    \n    event kushOGUniStaked(address indexed user, uint256 amount, uint256 totalLiquidityStaked);\n    \n    event kkushUniWithdrawn(address indexed user, uint256 amount, uint256 totalLiquidityStaked);\n    \n    event kushOGUniWithdrawn(address indexed user, uint256 amount, uint256 totalLiquidityStaked);\n    \n    event Rewards(address indexed user, uint256 reward);\n    \n    event FundsSentToFundingAddress(address indexed user, uint256 amount);\n    \n    event votingAddressChanged(address indexed user, address votingAddress);\n    \n    event kkushPairAddressChanged(address indexed user, address kkushPairAddress);\n    \n    event kushOGPairAddressChanged(address indexed user, address kOGPairAddress);\n    \n    event difficultyChanged(address indexed user, uint256 difficulty);\n\n\n    constructor(\n        address kkushToken,\n        address _devAddress\n    ) public payable ERC20(\"kushPURE\", \"kPURE\") {\n        \n        owner = msg.sender;\n        uint256 supply = 1;\n        _mint(msg.sender, supply.mul(10 ** 18));\n        devAddress = _devAddress;\n        lastBlockSent = block.number;\n        isStart = false;\n        \n    }\n    \n    function transferOwnership(address newOwner) external _onlyOwner {\n        assert(newOwner != address(0)/*, \"Ownable: new owner is the zero address\"*/);\n        emit OwnershipTransferred(owner, newOwner);\n        owner = newOwner;\n    }\n    \n    function setVotingAddress(address _account) public _onlyOwner {\n        fundVotingAddress = _account;\n        emit votingAddressChanged(msg.sender, fundVotingAddress);\n    }\n    \n    function setkKushPairAddress(address _uniV2address) public _onlyOwner {\n        kkushUniswapV2Pair = _uniV2address;\n        kkushV2 = IERC20(kkushUniswapV2Pair);\n        emit kkushPairAddressChanged(msg.sender, kkushUniswapV2Pair);\n    }\n\n    function setpkKushPairAddress(address _uniV2address) public _onlyOwner {\n        kushOGV2UniswapV2Pair = _uniV2address;\n        kushOGV2 = IERC20(kushOGV2UniswapV2Pair);\n        emit kushOGPairAddressChanged(msg.sender, kushOGV2UniswapV2Pair);\n    }\n    \n     function setMiningDifficulty(uint256 amount) public _onlyOwner {\n       miningDifficulty = amount;\n       emit difficultyChanged(msg.sender, miningDifficulty);\n   }\n    \n    function stakekKushUni(uint256 amount) public updateStakingReward(msg.sender) {\n        kkushV2.safeTransferFrom(msg.sender, address(this), amount);\n        stakedBalances[msg.sender].kkushPoolTokens = stakedBalances[msg.sender].kkushPoolTokens.add(amount);\n        totalLiquidityStaked = totalLiquidityStaked.add(amount);                                                                              \n        emit kkushUniStaked(msg.sender, stakedBalances[msg.sender].kkushPoolTokens, totalLiquidityStaked);\n    }\n    \n    function withdrawkKushUni(uint256 amount) public updateStakingReward(msg.sender) {\n        kkushV2.safeTransfer(msg.sender, amount);\n        stakedBalances[msg.sender].kkushPoolTokens = stakedBalances[msg.sender].kkushPoolTokens.sub(amount);\n        totalLiquidityStaked = totalLiquidityStaked.sub(amount);                                                                              \n        emit kkushUniWithdrawn(msg.sender, amount, totalLiquidityStaked);\n    }\n    \n    \n    \n    function stakekushPUREUni(uint256 amount) public updateStakingReward(msg.sender) {\n        kushOGV2.safeTransferFrom(msg.sender, address(this), amount);\n        stakedBalances[msg.sender].kushOGPoolTokens = stakedBalances[msg.sender].kushOGPoolTokens.add(amount);\n        totalLiquidityStaked = totalLiquidityStaked.add(amount);                                                                              \n        emit kushOGUniStaked(msg.sender, amount, totalLiquidityStaked);\n    }\n    \n    function withdrawkushPUREUni(uint256 amount) public updateStakingReward(msg.sender) {\n        kushOGV2.safeTransfer(msg.sender, amount);\n        stakedBalances[msg.sender].kushOGPoolTokens = stakedBalances[msg.sender].kushOGPoolTokens.sub(amount);\n        totalLiquidityStaked = totalLiquidityStaked.sub(amount);                                                                              \n        emit kushOGUniWithdrawn(msg.sender, amount, totalLiquidityStaked);\n    }\n    \n    function getkKushUniStakeAmount(address _account) public view returns (uint256) {\n        return stakedBalances[_account].kkushPoolTokens;\n    }\n    \n    function getkushPUREUniStakeAmount(address _account) public view returns (uint256) {\n        return stakedBalances[_account].kushOGPoolTokens;\n    }\n    \n    function myRewardsBalance(address _account) public view returns(uint256) {\n        uint256 liquidityBonus;\n        if (stakedBalances[_account].kushOGPoolTokens > 0) {\n            liquidityBonus = stakedBalances[_account].kushOGPoolTokens / liquidityMultiplier;\n        }\n        \n        if (block.number > stakedBalances[_account].lastBlockChecked) {\n            uint256 rewardBlocks = block.number\n                                        .sub(stakedBalances[_account].lastBlockChecked);\n                                        \n                                        \n             \n            if (stakedBalances[_account].kkushPoolTokens > 0) {\n                return stakedBalances[_account].rewards\n                                                .add(stakedBalances[_account].kkushPoolTokens)\n                                                .add(liquidityBonus)\n                                                .mul(rewardBlocks)\n                                                / miningDifficulty;\n            } else {\n                return 0;\n            }\n        }\n    }\n    \n    function getReward() public updateStakingReward(msg.sender) {\n        require(isStart, \"not started\");\n        uint256 reward = stakedBalances[msg.sender].rewards;\n       stakedBalances[msg.sender].rewards = 0;\n       uint256 totalWeight = rateReward.add(rateDevFee).add(rateFund);\n       // 20% to Funding event\n       _mint(address(this), reward.div(totalWeight).mul(rateFund));\n       // 75% to User\n       _mint(msg.sender, reward.div(totalWeight).mul(rateReward));\n        // 5% to DevFee\n        _mint(devAddress, reward.div(totalWeight).mul(rateDevFee));\n       emit Rewards(msg.sender, reward);\n    }\n    \n    function toggleFundsTransfer() public _onlyOwner {\n        isSendingFunds = !isSendingFunds;\n    }\n    \n    function sendkushOGToFund(uint256 amount) public {\n        if (!isSendingFunds) {\n            return;\n        }\n        lastBlockSent = block.number;\n        IERC20(address(this)).safeTransfer(fundVotingAddress, amount);\n        IERC20(address(this)).safeTransfer(devAddress, amount);\n        emit FundsSentToFundingAddress(msg.sender, amount);\n    }\n    \n    \n}",
  "sourcePath": "C:/Users/spiry/Documents/GitHub/kush.finance/contracts/kushPURE.sol",
  "compiler": {
    "name": "solc",
    "version": "0.6.6+commit.6c089d02.Emscripten.clang"
  },
  "schemaVersion": "3.2.4",
  "updatedAt": "2020-09-27T21:51:29.731Z",
  "devdoc": {
    "methods": {
      "allowance(address,address)": {
        "details": "See {IERC20-allowance}."
      },
      "approve(address,uint256)": {
        "details": "See {IERC20-approve}.     * Requirements:     * - `spender` cannot be the zero address."
      },
      "balanceOf(address)": {
        "details": "See {IERC20-balanceOf}."
      },
      "decimals()": {
        "details": "Returns the number of decimals used to get its user representation. For example, if `decimals` equals `2`, a balance of `505` tokens should be displayed to a user as `5,05` (`505 / 10 ** 2`).     * Tokens usually opt for a value of 18, imitating the relationship between Ether and Wei. This is the value {ERC20} uses, unless {_setupDecimals} is called.     * NOTE: This information is only used for _display_ purposes: it in no way affects any of the arithmetic of the contract, including {IERC20-balanceOf} and {IERC20-transfer}."
      },
      "decreaseAllowance(address,uint256)": {
        "details": "Atomically decreases the allowance granted to `spender` by the caller.     * This is an alternative to {approve} that can be used as a mitigation for problems described in {IERC20-approve}.     * Emits an {Approval} event indicating the updated allowance.     * Requirements:     * - `spender` cannot be the zero address. - `spender` must have allowance for the caller of at least `subtractedValue`."
      },
      "increaseAllowance(address,uint256)": {
        "details": "Atomically increases the allowance granted to `spender` by the caller.     * This is an alternative to {approve} that can be used as a mitigation for problems described in {IERC20-approve}.     * Emits an {Approval} event indicating the updated allowance.     * Requirements:     * - `spender` cannot be the zero address."
      },
      "name()": {
        "details": "Returns the name of the token."
      },
      "symbol()": {
        "details": "Returns the symbol of the token, usually a shorter version of the name."
      },
      "totalSupply()": {
        "details": "See {IERC20-totalSupply}."
      },
      "transfer(address,uint256)": {
        "details": "See {IERC20-transfer}.     * Requirements:     * - `recipient` cannot be the zero address. - the caller must have a balance of at least `amount`."
      },
      "transferFrom(address,address,uint256)": {
        "details": "See {IERC20-transferFrom}.     * Emits an {Approval} event indicating the updated allowance. This is not required by the EIP. See the note at the beginning of {ERC20};     * Requirements: - `sender` and `recipient` cannot be the zero address. - `sender` must have a balance of at least `amount`. - the caller must have allowance for ``sender``'s tokens of at least `amount`."
      }
    }
  },
  "userdoc": {
    "methods": {}
  }
}