{
  "contractName": "PurpleKush",
  "abi": [
    {
      "inputs": [],
      "stateMutability": "payable",
      "type": "constructor"
    },
    {
      "anonymous": false,
      "inputs": [
        {
          "indexed": true,
          "internalType": "address",
          "name": "owner",
          "type": "address"
        },
        {
          "indexed": true,
          "internalType": "address",
          "name": "spender",
          "type": "address"
        },
        {
          "indexed": false,
          "internalType": "uint256",
          "name": "value",
          "type": "uint256"
        }
      ],
      "name": "Approval",
      "type": "event"
    },
    {
      "anonymous": false,
      "inputs": [
        {
          "indexed": true,
          "internalType": "address",
          "name": "user",
          "type": "address"
        },
        {
          "indexed": false,
          "internalType": "uint256",
          "name": "amount",
          "type": "uint256"
        }
      ],
      "name": "FundsSentToFundingAddress",
      "type": "event"
    },
    {
      "anonymous": false,
      "inputs": [
        {
          "indexed": true,
          "internalType": "address",
          "name": "previousOwner",
          "type": "address"
        },
        {
          "indexed": true,
          "internalType": "address",
          "name": "newOwner",
          "type": "address"
        }
      ],
      "name": "OwnershipTransferred",
      "type": "event"
    },
    {
      "anonymous": false,
      "inputs": [
        {
          "indexed": true,
          "internalType": "address",
          "name": "user",
          "type": "address"
        },
        {
          "indexed": false,
          "internalType": "uint256",
          "name": "reward",
          "type": "uint256"
        }
      ],
      "name": "Rewards",
      "type": "event"
    },
    {
      "anonymous": false,
      "inputs": [
        {
          "indexed": true,
          "internalType": "address",
          "name": "from",
          "type": "address"
        },
        {
          "indexed": true,
          "internalType": "address",
          "name": "to",
          "type": "address"
        },
        {
          "indexed": false,
          "internalType": "uint256",
          "name": "value",
          "type": "uint256"
        }
      ],
      "name": "Transfer",
      "type": "event"
    },
    {
      "anonymous": false,
      "inputs": [
        {
          "indexed": true,
          "internalType": "address",
          "name": "user",
          "type": "address"
        },
        {
          "indexed": false,
          "internalType": "uint256",
          "name": "difficulty",
          "type": "uint256"
        }
      ],
      "name": "difficultyChanged",
      "type": "event"
    },
    {
      "anonymous": false,
      "inputs": [
        {
          "indexed": true,
          "internalType": "address",
          "name": "user",
          "type": "address"
        },
        {
          "indexed": false,
          "internalType": "address",
          "name": "kushPairAddress",
          "type": "address"
        }
      ],
      "name": "kushPairAddressChanged",
      "type": "event"
    },
    {
      "anonymous": false,
      "inputs": [
        {
          "indexed": true,
          "internalType": "address",
          "name": "user",
          "type": "address"
        },
        {
          "indexed": false,
          "internalType": "uint256",
          "name": "amount",
          "type": "uint256"
        },
        {
          "indexed": false,
          "internalType": "uint256",
          "name": "totalLiquidityStaked",
          "type": "uint256"
        }
      ],
      "name": "kushUniStaked",
      "type": "event"
    },
    {
      "anonymous": false,
      "inputs": [
        {
          "indexed": true,
          "internalType": "address",
          "name": "user",
          "type": "address"
        },
        {
          "indexed": false,
          "internalType": "uint256",
          "name": "amount",
          "type": "uint256"
        },
        {
          "indexed": false,
          "internalType": "uint256",
          "name": "totalLiquidityStaked",
          "type": "uint256"
        }
      ],
      "name": "kushUniWithdrawn",
      "type": "event"
    },
    {
      "anonymous": false,
      "inputs": [
        {
          "indexed": true,
          "internalType": "address",
          "name": "user",
          "type": "address"
        },
        {
          "indexed": false,
          "internalType": "address",
          "name": "pKushPairAddress",
          "type": "address"
        }
      ],
      "name": "pKushPairAddressChanged",
      "type": "event"
    },
    {
      "anonymous": false,
      "inputs": [
        {
          "indexed": true,
          "internalType": "address",
          "name": "user",
          "type": "address"
        },
        {
          "indexed": false,
          "internalType": "uint256",
          "name": "amount",
          "type": "uint256"
        },
        {
          "indexed": false,
          "internalType": "uint256",
          "name": "totalLiquidityStaked",
          "type": "uint256"
        }
      ],
      "name": "pKushUniStaked",
      "type": "event"
    },
    {
      "anonymous": false,
      "inputs": [
        {
          "indexed": true,
          "internalType": "address",
          "name": "user",
          "type": "address"
        },
        {
          "indexed": false,
          "internalType": "uint256",
          "name": "amount",
          "type": "uint256"
        },
        {
          "indexed": false,
          "internalType": "uint256",
          "name": "totalLiquidityStaked",
          "type": "uint256"
        }
      ],
      "name": "pKushUniWithdrawn",
      "type": "event"
    },
    {
      "anonymous": false,
      "inputs": [
        {
          "indexed": true,
          "internalType": "address",
          "name": "user",
          "type": "address"
        },
        {
          "indexed": false,
          "internalType": "address",
          "name": "votingAddress",
          "type": "address"
        }
      ],
      "name": "votingAddressChanged",
      "type": "event"
    },
    {
      "inputs": [
        {
          "internalType": "address",
          "name": "owner",
          "type": "address"
        },
        {
          "internalType": "address",
          "name": "spender",
          "type": "address"
        }
      ],
      "name": "allowance",
      "outputs": [
        {
          "internalType": "uint256",
          "name": "",
          "type": "uint256"
        }
      ],
      "stateMutability": "view",
      "type": "function"
    },
    {
      "inputs": [
        {
          "internalType": "address",
          "name": "spender",
          "type": "address"
        },
        {
          "internalType": "uint256",
          "name": "amount",
          "type": "uint256"
        }
      ],
      "name": "approve",
      "outputs": [
        {
          "internalType": "bool",
          "name": "",
          "type": "bool"
        }
      ],
      "stateMutability": "nonpayable",
      "type": "function"
    },
    {
      "inputs": [
        {
          "internalType": "address",
          "name": "account",
          "type": "address"
        }
      ],
      "name": "balanceOf",
      "outputs": [
        {
          "internalType": "uint256",
          "name": "",
          "type": "uint256"
        }
      ],
      "stateMutability": "view",
      "type": "function"
    },
    {
      "inputs": [],
      "name": "decimals",
      "outputs": [
        {
          "internalType": "uint8",
          "name": "",
          "type": "uint8"
        }
      ],
      "stateMutability": "view",
      "type": "function"
    },
    {
      "inputs": [
        {
          "internalType": "address",
          "name": "spender",
          "type": "address"
        },
        {
          "internalType": "uint256",
          "name": "subtractedValue",
          "type": "uint256"
        }
      ],
      "name": "decreaseAllowance",
      "outputs": [
        {
          "internalType": "bool",
          "name": "",
          "type": "bool"
        }
      ],
      "stateMutability": "nonpayable",
      "type": "function"
    },
    {
      "inputs": [],
      "name": "fundVotingAddress",
      "outputs": [
        {
          "internalType": "address",
          "name": "",
          "type": "address"
        }
      ],
      "stateMutability": "view",
      "type": "function"
    },
    {
      "inputs": [
        {
          "internalType": "address",
          "name": "spender",
          "type": "address"
        },
        {
          "internalType": "uint256",
          "name": "addedValue",
          "type": "uint256"
        }
      ],
      "name": "increaseAllowance",
      "outputs": [
        {
          "internalType": "bool",
          "name": "",
          "type": "bool"
        }
      ],
      "stateMutability": "nonpayable",
      "type": "function"
    },
    {
      "inputs": [],
      "name": "isSendingFunds",
      "outputs": [
        {
          "internalType": "bool",
          "name": "",
          "type": "bool"
        }
      ],
      "stateMutability": "view",
      "type": "function"
    },
    {
      "inputs": [],
      "name": "kushUniswapV2Pair",
      "outputs": [
        {
          "internalType": "address",
          "name": "",
          "type": "address"
        }
      ],
      "stateMutability": "view",
      "type": "function"
    },
    {
      "inputs": [],
      "name": "liquidityMultiplier",
      "outputs": [
        {
          "internalType": "uint256",
          "name": "",
          "type": "uint256"
        }
      ],
      "stateMutability": "view",
      "type": "function"
    },
    {
      "inputs": [],
      "name": "miningDifficulty",
      "outputs": [
        {
          "internalType": "uint256",
          "name": "",
          "type": "uint256"
        }
      ],
      "stateMutability": "view",
      "type": "function"
    },
    {
      "inputs": [],
      "name": "name",
      "outputs": [
        {
          "internalType": "string",
          "name": "",
          "type": "string"
        }
      ],
      "stateMutability": "view",
      "type": "function"
    },
    {
      "inputs": [],
      "name": "pKushUniswapV2Pair",
      "outputs": [
        {
          "internalType": "address",
          "name": "",
          "type": "address"
        }
      ],
      "stateMutability": "view",
      "type": "function"
    },
    {
      "inputs": [],
      "name": "symbol",
      "outputs": [
        {
          "internalType": "string",
          "name": "",
          "type": "string"
        }
      ],
      "stateMutability": "view",
      "type": "function"
    },
    {
      "inputs": [],
      "name": "totalSupply",
      "outputs": [
        {
          "internalType": "uint256",
          "name": "",
          "type": "uint256"
        }
      ],
      "stateMutability": "view",
      "type": "function"
    },
    {
      "inputs": [
        {
          "internalType": "address",
          "name": "recipient",
          "type": "address"
        },
        {
          "internalType": "uint256",
          "name": "amount",
          "type": "uint256"
        }
      ],
      "name": "transfer",
      "outputs": [
        {
          "internalType": "bool",
          "name": "",
          "type": "bool"
        }
      ],
      "stateMutability": "nonpayable",
      "type": "function"
    },
    {
      "inputs": [
        {
          "internalType": "address",
          "name": "sender",
          "type": "address"
        },
        {
          "internalType": "address",
          "name": "recipient",
          "type": "address"
        },
        {
          "internalType": "uint256",
          "name": "amount",
          "type": "uint256"
        }
      ],
      "name": "transferFrom",
      "outputs": [
        {
          "internalType": "bool",
          "name": "",
          "type": "bool"
        }
      ],
      "stateMutability": "nonpayable",
      "type": "function"
    },
    {
      "inputs": [
        {
          "internalType": "address",
          "name": "newOwner",
          "type": "address"
        }
      ],
      "name": "transferOwnership",
      "outputs": [],
      "stateMutability": "nonpayable",
      "type": "function"
    },
    {
      "inputs": [
        {
          "internalType": "address",
          "name": "_account",
          "type": "address"
        }
      ],
      "name": "setVotingAddress",
      "outputs": [],
      "stateMutability": "nonpayable",
      "type": "function"
    },
    {
      "inputs": [
        {
          "internalType": "address",
          "name": "_uniV2address",
          "type": "address"
        }
      ],
      "name": "setKushPairAddress",
      "outputs": [],
      "stateMutability": "nonpayable",
      "type": "function"
    },
    {
      "inputs": [
        {
          "internalType": "address",
          "name": "_uniV2address",
          "type": "address"
        }
      ],
      "name": "setpKushPairAddress",
      "outputs": [],
      "stateMutability": "nonpayable",
      "type": "function"
    },
    {
      "inputs": [
        {
          "internalType": "uint256",
          "name": "amount",
          "type": "uint256"
        }
      ],
      "name": "setMiningDifficulty",
      "outputs": [],
      "stateMutability": "nonpayable",
      "type": "function"
    },
    {
      "inputs": [
        {
          "internalType": "uint256",
          "name": "amount",
          "type": "uint256"
        }
      ],
      "name": "stakeKushUni",
      "outputs": [],
      "stateMutability": "nonpayable",
      "type": "function"
    },
    {
      "inputs": [
        {
          "internalType": "uint256",
          "name": "amount",
          "type": "uint256"
        }
      ],
      "name": "withdrawKushUni",
      "outputs": [],
      "stateMutability": "nonpayable",
      "type": "function"
    },
    {
      "inputs": [
        {
          "internalType": "uint256",
          "name": "amount",
          "type": "uint256"
        }
      ],
      "name": "stakeDarkNyanUni",
      "outputs": [],
      "stateMutability": "nonpayable",
      "type": "function"
    },
    {
      "inputs": [
        {
          "internalType": "uint256",
          "name": "amount",
          "type": "uint256"
        }
      ],
      "name": "withdrawDarkNyanUni",
      "outputs": [],
      "stateMutability": "nonpayable",
      "type": "function"
    },
    {
      "inputs": [
        {
          "internalType": "address",
          "name": "_account",
          "type": "address"
        }
      ],
      "name": "getKushUniStakeAmount",
      "outputs": [
        {
          "internalType": "uint256",
          "name": "",
          "type": "uint256"
        }
      ],
      "stateMutability": "view",
      "type": "function"
    },
    {
      "inputs": [
        {
          "internalType": "address",
          "name": "_account",
          "type": "address"
        }
      ],
      "name": "getDNyanUniStakeAmount",
      "outputs": [
        {
          "internalType": "uint256",
          "name": "",
          "type": "uint256"
        }
      ],
      "stateMutability": "view",
      "type": "function"
    },
    {
      "inputs": [
        {
          "internalType": "address",
          "name": "_account",
          "type": "address"
        }
      ],
      "name": "myRewardsBalance",
      "outputs": [
        {
          "internalType": "uint256",
          "name": "",
          "type": "uint256"
        }
      ],
      "stateMutability": "view",
      "type": "function"
    },
    {
      "inputs": [],
      "name": "getReward",
      "outputs": [],
      "stateMutability": "nonpayable",
      "type": "function"
    },
    {
      "inputs": [],
      "name": "toggleFundsTransfer",
      "outputs": [],
      "stateMutability": "nonpayable",
      "type": "function"
    },
    {
      "inputs": [
        {
          "internalType": "uint256",
          "name": "amount",
          "type": "uint256"
        }
      ],
      "name": "sendDarkNyanToFund",
      "outputs": [],
      "stateMutability": "nonpayable",
      "type": "function"
    }
  ],
  "bytecode": "0x60806040526000600860146101000a81548160ff0219169083151502179055506050600a5561c350600b556040518060400160405280600a81526020017f707572706c654b555348000000000000000000000000000000000000000000008152506040518060400160405280600581526020017f704b5553480000000000000000000000000000000000000000000000000000008152508160039080519060200190620000ae92919062000466565b508060049080519060200190620000c792919062000466565b506012600560006101000a81548160ff021916908360ff160217905550505033600760006101000a81548173ffffffffffffffffffffffffffffffffffffffff021916908373ffffffffffffffffffffffffffffffffffffffff16021790555060006101a49050620001613362000155670de0b6b3a7640000846200016f60201b62003a051790919060201c565b620001fa60201b60201c565b436009819055505062000515565b600080831415620001845760009050620001f4565b60008284029050828482816200019657fe5b0414620001ef576040517f08c379a00000000000000000000000000000000000000000000000000000000081526004018080602001828103825260218152602001806200470b6021913960400191505060405180910390fd5b809150505b92915050565b600073ffffffffffffffffffffffffffffffffffffffff168273ffffffffffffffffffffffffffffffffffffffff1614156200029e576040517f08c379a000000000000000000000000000000000000000000000000000000000815260040180806020018281038252601f8152602001807f45524332303a206d696e7420746f20746865207a65726f20616464726573730081525060200191505060405180910390fd5b620002b260008383620003d860201b60201c565b620002ce81600254620003dd60201b620039331790919060201c565b6002819055506200032c816000808573ffffffffffffffffffffffffffffffffffffffff1673ffffffffffffffffffffffffffffffffffffffff16815260200190815260200160002054620003dd60201b620039331790919060201c565b6000808473ffffffffffffffffffffffffffffffffffffffff1673ffffffffffffffffffffffffffffffffffffffff168152602001908152602001600020819055508173ffffffffffffffffffffffffffffffffffffffff16600073ffffffffffffffffffffffffffffffffffffffff167fddf252ad1be2c89b69c2b068fc378daa952ba7f163c4a11628f55a4df523b3ef836040518082815260200191505060405180910390a35050565b505050565b6000808284019050838110156200045c576040517f08c379a000000000000000000000000000000000000000000000000000000000815260040180806020018281038252601b8152602001807f536166654d6174683a206164646974696f6e206f766572666c6f77000000000081525060200191505060405180910390fd5b8091505092915050565b828054600181600116156101000203166002900490600052602060002090601f016020900481019282601f10620004a957805160ff1916838001178555620004da565b82800160010185558215620004da579182015b82811115620004d9578251825591602001919060010190620004bc565b5b509050620004e99190620004ed565b5090565b6200051291905b808211156200050e576000816000905550600101620004f4565b5090565b90565b6141e680620005256000396000f3fe608060405234801561001057600080fd5b50600436106101f05760003560e01c806395d89b411161010f578063b40b9bb6116100a2578063ec8acd7011610071578063ec8acd70146109cb578063ee02b3c714610a15578063f2fde38b14610a1f578063fca5933f14610a63576101f0565b8063b40b9bb6146108bf578063b6541945146108dd578063dd62ed3e146108fb578063ea15de0514610973576101f0565b8063a457c2d7116100de578063a457c2d714610743578063a57306dc146107a9578063a9059cbb14610801578063ae78d2ae14610867576101f0565b806395d89b411461061a578063963cf3dd1461069d5780639daf7ea5146106e75780639fd3adf614610715576101f0565b8063313ce5671161018757806370a082311161015657806370a08231146105225780637a6cfcab1461057a5780637b12d426146105be57806384d54985146105ec576101f0565b8063313ce5671461044a578063395093511461046e5780633d18b912146104d45780634dcc429f146104de576101f0565b80630a4cb939116101c35780630a4cb9391461032e57806315b239011461035c57806318160ddd146103a657806323b872dd146103c4576101f0565b8063069c8a04146101f557806306fdde031461021757806307a7a3421461029a578063095ea7b3146102c8575b600080fd5b6101fd610aa7565b604051808215151515815260200191505060405180910390f35b61021f610aba565b6040518080602001828103825283818151815260200191508051906020019080838360005b8381101561025f578082015181840152602081019050610244565b50505050905090810190601f16801561028c5780820380516001836020036101000a031916815260200191505b509250505060405180910390f35b6102c6600480360360208110156102b057600080fd5b8101908080359060200190929190505050610b5c565b005b610314600480360360408110156102de57600080fd5b81019080803573ffffffffffffffffffffffffffffffffffffffff16906020019092919080359060200190929190505050610c1b565b604051808215151515815260200191505060405180910390f35b61035a6004803603602081101561034457600080fd5b8101908080359060200190929190505050610c39565b005b610364610ced565b604051808273ffffffffffffffffffffffffffffffffffffffff1673ffffffffffffffffffffffffffffffffffffffff16815260200191505060405180910390f35b6103ae610d13565b6040518082815260200191505060405180910390f35b610430600480360360608110156103da57600080fd5b81019080803573ffffffffffffffffffffffffffffffffffffffff169060200190929190803573ffffffffffffffffffffffffffffffffffffffff16906020019092919080359060200190929190505050610d1d565b604051808215151515815260200191505060405180910390f35b610452610df6565b604051808260ff1660ff16815260200191505060405180910390f35b6104ba6004803603604081101561048457600080fd5b81019080803573ffffffffffffffffffffffffffffffffffffffff16906020019092919080359060200190929190505050610e0d565b604051808215151515815260200191505060405180910390f35b6104dc610ec0565b005b610520600480360360208110156104f457600080fd5b81019080803573ffffffffffffffffffffffffffffffffffffffff169060200190929190505050611368565b005b6105646004803603602081101561053857600080fd5b81019080803573ffffffffffffffffffffffffffffffffffffffff169060200190929190505050611505565b6040518082815260200191505060405180910390f35b6105bc6004803603602081101561059057600080fd5b81019080803573ffffffffffffffffffffffffffffffffffffffff16906020019092919050505061154d565b005b6105ea600480360360208110156105d457600080fd5b8101908080359060200190929190505050611687565b005b6106186004803603602081101561060257600080fd5b8101908080359060200190929190505050611b5b565b005b61062261202d565b6040518080602001828103825283818151815260200191508051906020019080838360005b83811015610662578082015181840152602081019050610647565b50505050905090810190601f16801561068f5780820380516001836020036101000a031916815260200191505b509250505060405180910390f35b6106a56120cf565b604051808273ffffffffffffffffffffffffffffffffffffffff1673ffffffffffffffffffffffffffffffffffffffff16815260200191505060405180910390f35b610713600480360360208110156106fd57600080fd5b81019080803590602001909291905050506120f5565b005b6107416004803603602081101561072b57600080fd5b810190808035906020019092919050505061260b565b005b61078f6004803603604081101561075957600080fd5b81019080803573ffffffffffffffffffffffffffffffffffffffff16906020019092919080359060200190929190505050612add565b604051808215151515815260200191505060405180910390f35b6107eb600480360360208110156107bf57600080fd5b81019080803573ffffffffffffffffffffffffffffffffffffffff169060200190929190505050612baa565b6040518082815260200191505060405180910390f35b61084d6004803603604081101561081757600080fd5b81019080803573ffffffffffffffffffffffffffffffffffffffff16906020019092919080359060200190929190505050612e18565b604051808215151515815260200191505060405180910390f35b6108a96004803603602081101561087d57600080fd5b81019080803573ffffffffffffffffffffffffffffffffffffffff169060200190929190505050612e36565b6040518082815260200191505060405180910390f35b6108c7612e82565b6040518082815260200191505060405180910390f35b6108e5612e88565b6040518082815260200191505060405180910390f35b61095d6004803603604081101561091157600080fd5b81019080803573ffffffffffffffffffffffffffffffffffffffff169060200190929190803573ffffffffffffffffffffffffffffffffffffffff169060200190929190505050612e8e565b6040518082815260200191505060405180910390f35b6109b56004803603602081101561098957600080fd5b81019080803573ffffffffffffffffffffffffffffffffffffffff169060200190929190505050612f15565b6040518082815260200191505060405180910390f35b6109d3612f61565b604051808273ffffffffffffffffffffffffffffffffffffffff1673ffffffffffffffffffffffffffffffffffffffff16815260200191505060405180910390f35b610a1d612f87565b005b610a6160048036036020811015610a3557600080fd5b81019080803573ffffffffffffffffffffffffffffffffffffffff16906020019092919050505061300d565b005b610aa560048036036020811015610a7957600080fd5b81019080803573ffffffffffffffffffffffffffffffffffffffff16906020019092919050505061315e565b005b600860149054906101000a900460ff1681565b606060038054600181600116156101000203166002900480601f016020809104026020016040519081016040528092919081815260200182805460018160011615610100020316600290048015610b525780601f10610b2757610100808354040283529160200191610b52565b820191906000526020600020905b815481529060010190602001808311610b3557829003601f168201915b5050505050905090565b600860149054906101000a900460ff16610b7557610c18565b43600981905550610bc9600860009054906101000a900473ffffffffffffffffffffffffffffffffffffffff16823073ffffffffffffffffffffffffffffffffffffffff166132fb9092919063ffffffff16565b3373ffffffffffffffffffffffffffffffffffffffff167f9d7222da2cc210705445b483f242802ea957473cdd2257aacf02466f2e663482826040518082815260200191505060405180910390a25b50565b6000610c2f610c286133b3565b84846133bb565b6001905092915050565b600760009054906101000a900473ffffffffffffffffffffffffffffffffffffffff1673ffffffffffffffffffffffffffffffffffffffff163373ffffffffffffffffffffffffffffffffffffffff1614610c9357600080fd5b80600b819055503373ffffffffffffffffffffffffffffffffffffffff167f694487741fda3a05899e5ccf8286720c2e1152708453a1a35c016249befc5fcd600b546040518082815260200191505060405180910390a250565b600860009054906101000a900473ffffffffffffffffffffffffffffffffffffffff1681565b6000600254905090565b6000610d2a8484846135b2565b610deb84610d366133b3565b610de6856040518060600160405280602881526020016140f160289139600160008b73ffffffffffffffffffffffffffffffffffffffff1673ffffffffffffffffffffffffffffffffffffffff1681526020019081526020016000206000610d9c6133b3565b73ffffffffffffffffffffffffffffffffffffffff1673ffffffffffffffffffffffffffffffffffffffff168152602001908152602001600020546138739092919063ffffffff16565b6133bb565b600190509392505050565b6000600560009054906101000a900460ff16905090565b6000610eb6610e1a6133b3565b84610eb18560016000610e2b6133b3565b73ffffffffffffffffffffffffffffffffffffffff1673ffffffffffffffffffffffffffffffffffffffff16815260200190815260200160002060008973ffffffffffffffffffffffffffffffffffffffff1673ffffffffffffffffffffffffffffffffffffffff1681526020019081526020016000205461393390919063ffffffff16565b6133bb565b6001905092915050565b33600080600660008473ffffffffffffffffffffffffffffffffffffffff1673ffffffffffffffffffffffffffffffffffffffff168152602001908152602001600020600301541115610f5e57600a54600660008473ffffffffffffffffffffffffffffffffffffffff1673ffffffffffffffffffffffffffffffffffffffff1681526020019081526020016000206003015481610f5a57fe5b0490505b600660008373ffffffffffffffffffffffffffffffffffffffff1673ffffffffffffffffffffffffffffffffffffffff16815260200190815260200160002060000154431115611232576000610fff600660008573ffffffffffffffffffffffffffffffffffffffff1673ffffffffffffffffffffffffffffffffffffffff16815260200190815260200160002060000154436139bb90919063ffffffff16565b90506000600660008573ffffffffffffffffffffffffffffffffffffffff1673ffffffffffffffffffffffffffffffffffffffff16815260200190815260200160002060020154111561115957600b5461110a826110fc856110ee600660008a73ffffffffffffffffffffffffffffffffffffffff1673ffffffffffffffffffffffffffffffffffffffff16815260200190815260200160002060020154600660008b73ffffffffffffffffffffffffffffffffffffffff1673ffffffffffffffffffffffffffffffffffffffff1681526020019081526020016000206001015461393390919063ffffffff16565b61393390919063ffffffff16565b613a0590919063ffffffff16565b8161111157fe5b04600660008573ffffffffffffffffffffffffffffffffffffffff1673ffffffffffffffffffffffffffffffffffffffff168152602001908152602001600020600101819055505b43600660008573ffffffffffffffffffffffffffffffffffffffff1673ffffffffffffffffffffffffffffffffffffffff168152602001908152602001600020600001819055508273ffffffffffffffffffffffffffffffffffffffff167fc083a1647e3ee591bf42b82564ffb4d16fdbb26068f0080da911c8d8300fd84a600660008673ffffffffffffffffffffffffffffffffffffffff1673ffffffffffffffffffffffffffffffffffffffff168152602001908152602001600020600101546040518082815260200191505060405180910390a2505b6000600660003373ffffffffffffffffffffffffffffffffffffffff1673ffffffffffffffffffffffffffffffffffffffff1681526020019081526020016000206001015490506000600660003373ffffffffffffffffffffffffffffffffffffffff1673ffffffffffffffffffffffffffffffffffffffff168152602001908152602001600020600101819055506112e833600a6112db600885613a0590919063ffffffff16565b816112e257fe5b04613a8b565b6000600a611300600284613a0590919063ffffffff16565b8161130757fe5b0490506113143082613a8b565b3373ffffffffffffffffffffffffffffffffffffffff167fc083a1647e3ee591bf42b82564ffb4d16fdbb26068f0080da911c8d8300fd84a836040518082815260200191505060405180910390a250505050565b600760009054906101000a900473ffffffffffffffffffffffffffffffffffffffff1673ffffffffffffffffffffffffffffffffffffffff163373ffffffffffffffffffffffffffffffffffffffff16146113c257600080fd5b80600f60006101000a81548173ffffffffffffffffffffffffffffffffffffffff021916908373ffffffffffffffffffffffffffffffffffffffff160217905550600f60009054906101000a900473ffffffffffffffffffffffffffffffffffffffff16600e60006101000a81548173ffffffffffffffffffffffffffffffffffffffff021916908373ffffffffffffffffffffffffffffffffffffffff1602179055503373ffffffffffffffffffffffffffffffffffffffff167f01e40f5ee56f152aeab11304628db74a1464cc516599f39e36228e2788b02b1d600f60009054906101000a900473ffffffffffffffffffffffffffffffffffffffff16604051808273ffffffffffffffffffffffffffffffffffffffff1673ffffffffffffffffffffffffffffffffffffffff16815260200191505060405180910390a250565b60008060008373ffffffffffffffffffffffffffffffffffffffff1673ffffffffffffffffffffffffffffffffffffffff168152602001908152602001600020549050919050565b600760009054906101000a900473ffffffffffffffffffffffffffffffffffffffff1673ffffffffffffffffffffffffffffffffffffffff163373ffffffffffffffffffffffffffffffffffffffff16146115a757600080fd5b80600860006101000a81548173ffffffffffffffffffffffffffffffffffffffff021916908373ffffffffffffffffffffffffffffffffffffffff1602179055503373ffffffffffffffffffffffffffffffffffffffff167f62a51664e003fa1af643b4857cc1abcee4cd6b54791027e0fbe33bc924e41eac600860009054906101000a900473ffffffffffffffffffffffffffffffffffffffff16604051808273ffffffffffffffffffffffffffffffffffffffff1673ffffffffffffffffffffffffffffffffffffffff16815260200191505060405180910390a250565b33600080600660008473ffffffffffffffffffffffffffffffffffffffff1673ffffffffffffffffffffffffffffffffffffffff16815260200190815260200160002060030154111561172557600a54600660008473ffffffffffffffffffffffffffffffffffffffff1673ffffffffffffffffffffffffffffffffffffffff168152602001908152602001600020600301548161172157fe5b0490505b600660008373ffffffffffffffffffffffffffffffffffffffff1673ffffffffffffffffffffffffffffffffffffffff168152602001908152602001600020600001544311156119f95760006117c6600660008573ffffffffffffffffffffffffffffffffffffffff1673ffffffffffffffffffffffffffffffffffffffff16815260200190815260200160002060000154436139bb90919063ffffffff16565b90506000600660008573ffffffffffffffffffffffffffffffffffffffff1673ffffffffffffffffffffffffffffffffffffffff16815260200190815260200160002060020154111561192057600b546118d1826118c3856118b5600660008a73ffffffffffffffffffffffffffffffffffffffff1673ffffffffffffffffffffffffffffffffffffffff16815260200190815260200160002060020154600660008b73ffffffffffffffffffffffffffffffffffffffff1673ffffffffffffffffffffffffffffffffffffffff1681526020019081526020016000206001015461393390919063ffffffff16565b61393390919063ffffffff16565b613a0590919063ffffffff16565b816118d857fe5b04600660008573ffffffffffffffffffffffffffffffffffffffff1673ffffffffffffffffffffffffffffffffffffffff168152602001908152602001600020600101819055505b43600660008573ffffffffffffffffffffffffffffffffffffffff1673ffffffffffffffffffffffffffffffffffffffff168152602001908152602001600020600001819055508273ffffffffffffffffffffffffffffffffffffffff167fc083a1647e3ee591bf42b82564ffb4d16fdbb26068f0080da911c8d8300fd84a600660008673ffffffffffffffffffffffffffffffffffffffff1673ffffffffffffffffffffffffffffffffffffffff168152602001908152602001600020600101546040518082815260200191505060405180910390a2505b611a48333085601060009054906101000a900473ffffffffffffffffffffffffffffffffffffffff1673ffffffffffffffffffffffffffffffffffffffff16613c52909392919063ffffffff16565b611a9d83600660003373ffffffffffffffffffffffffffffffffffffffff1673ffffffffffffffffffffffffffffffffffffffff1681526020019081526020016000206003015461393390919063ffffffff16565b600660003373ffffffffffffffffffffffffffffffffffffffff1673ffffffffffffffffffffffffffffffffffffffff16815260200190815260200160002060030181905550611af88360125461393390919063ffffffff16565b6012819055503373ffffffffffffffffffffffffffffffffffffffff167faf19c8b0d5f6e903bcefc83e1d0a0b656fc27ed3615da67a9871c0fda59da50184601254604051808381526020018281526020019250505060405180910390a2505050565b33600080600660008473ffffffffffffffffffffffffffffffffffffffff1673ffffffffffffffffffffffffffffffffffffffff168152602001908152602001600020600301541115611bf957600a54600660008473ffffffffffffffffffffffffffffffffffffffff1673ffffffffffffffffffffffffffffffffffffffff1681526020019081526020016000206003015481611bf557fe5b0490505b600660008373ffffffffffffffffffffffffffffffffffffffff1673ffffffffffffffffffffffffffffffffffffffff16815260200190815260200160002060000154431115611ecd576000611c9a600660008573ffffffffffffffffffffffffffffffffffffffff1673ffffffffffffffffffffffffffffffffffffffff16815260200190815260200160002060000154436139bb90919063ffffffff16565b90506000600660008573ffffffffffffffffffffffffffffffffffffffff1673ffffffffffffffffffffffffffffffffffffffff168152602001908152602001600020600201541115611df457600b54611da582611d9785611d89600660008a73ffffffffffffffffffffffffffffffffffffffff1673ffffffffffffffffffffffffffffffffffffffff16815260200190815260200160002060020154600660008b73ffffffffffffffffffffffffffffffffffffffff1673ffffffffffffffffffffffffffffffffffffffff1681526020019081526020016000206001015461393390919063ffffffff16565b61393390919063ffffffff16565b613a0590919063ffffffff16565b81611dac57fe5b04600660008573ffffffffffffffffffffffffffffffffffffffff1673ffffffffffffffffffffffffffffffffffffffff168152602001908152602001600020600101819055505b43600660008573ffffffffffffffffffffffffffffffffffffffff1673ffffffffffffffffffffffffffffffffffffffff168152602001908152602001600020600001819055508273ffffffffffffffffffffffffffffffffffffffff167fc083a1647e3ee591bf42b82564ffb4d16fdbb26068f0080da911c8d8300fd84a600660008673ffffffffffffffffffffffffffffffffffffffff1673ffffffffffffffffffffffffffffffffffffffff168152602001908152602001600020600101546040518082815260200191505060405180910390a2505b611f1a3384600e60009054906101000a900473ffffffffffffffffffffffffffffffffffffffff1673ffffffffffffffffffffffffffffffffffffffff166132fb9092919063ffffffff16565b611f6f83600660003373ffffffffffffffffffffffffffffffffffffffff1673ffffffffffffffffffffffffffffffffffffffff168152602001908152602001600020600201546139bb90919063ffffffff16565b600660003373ffffffffffffffffffffffffffffffffffffffff1673ffffffffffffffffffffffffffffffffffffffff16815260200190815260200160002060020181905550611fca836012546139bb90919063ffffffff16565b6012819055503373ffffffffffffffffffffffffffffffffffffffff167f5266490f08065f8e6260d194c2478a925e2382f0ec0ede4ddf3514f7d95c4edc84601254604051808381526020018281526020019250505060405180910390a2505050565b606060048054600181600116156101000203166002900480601f0160208091040260200160405190810160405280929190818152602001828054600181600116156101000203166002900480156120c55780601f1061209a576101008083540402835291602001916120c5565b820191906000526020600020905b8154815290600101906020018083116120a857829003601f168201915b5050505050905090565b601160009054906101000a900473ffffffffffffffffffffffffffffffffffffffff1681565b33600080600660008473ffffffffffffffffffffffffffffffffffffffff1673ffffffffffffffffffffffffffffffffffffffff16815260200190815260200160002060030154111561219357600a54600660008473ffffffffffffffffffffffffffffffffffffffff1673ffffffffffffffffffffffffffffffffffffffff168152602001908152602001600020600301548161218f57fe5b0490505b600660008373ffffffffffffffffffffffffffffffffffffffff1673ffffffffffffffffffffffffffffffffffffffff16815260200190815260200160002060000154431115612467576000612234600660008573ffffffffffffffffffffffffffffffffffffffff1673ffffffffffffffffffffffffffffffffffffffff16815260200190815260200160002060000154436139bb90919063ffffffff16565b90506000600660008573ffffffffffffffffffffffffffffffffffffffff1673ffffffffffffffffffffffffffffffffffffffff16815260200190815260200160002060020154111561238e57600b5461233f8261233185612323600660008a73ffffffffffffffffffffffffffffffffffffffff1673ffffffffffffffffffffffffffffffffffffffff16815260200190815260200160002060020154600660008b73ffffffffffffffffffffffffffffffffffffffff1673ffffffffffffffffffffffffffffffffffffffff1681526020019081526020016000206001015461393390919063ffffffff16565b61393390919063ffffffff16565b613a0590919063ffffffff16565b8161234657fe5b04600660008573ffffffffffffffffffffffffffffffffffffffff1673ffffffffffffffffffffffffffffffffffffffff168152602001908152602001600020600101819055505b43600660008573ffffffffffffffffffffffffffffffffffffffff1673ffffffffffffffffffffffffffffffffffffffff168152602001908152602001600020600001819055508273ffffffffffffffffffffffffffffffffffffffff167fc083a1647e3ee591bf42b82564ffb4d16fdbb26068f0080da911c8d8300fd84a600660008673ffffffffffffffffffffffffffffffffffffffff1673ffffffffffffffffffffffffffffffffffffffff168152602001908152602001600020600101546040518082815260200191505060405180910390a2505b6124b6333085600e60009054906101000a900473ffffffffffffffffffffffffffffffffffffffff1673ffffffffffffffffffffffffffffffffffffffff16613c52909392919063ffffffff16565b61250b83600660003373ffffffffffffffffffffffffffffffffffffffff1673ffffffffffffffffffffffffffffffffffffffff1681526020019081526020016000206002015461393390919063ffffffff16565b600660003373ffffffffffffffffffffffffffffffffffffffff1673ffffffffffffffffffffffffffffffffffffffff168152602001908152602001600020600201819055506125668360125461393390919063ffffffff16565b6012819055503373ffffffffffffffffffffffffffffffffffffffff167f199a082b60045497b1d43a12c793649c9c7732262f09cad4704e17721c50155a600660003373ffffffffffffffffffffffffffffffffffffffff1673ffffffffffffffffffffffffffffffffffffffff16815260200190815260200160002060020154601254604051808381526020018281526020019250505060405180910390a2505050565b33600080600660008473ffffffffffffffffffffffffffffffffffffffff1673ffffffffffffffffffffffffffffffffffffffff1681526020019081526020016000206003015411156126a957600a54600660008473ffffffffffffffffffffffffffffffffffffffff1673ffffffffffffffffffffffffffffffffffffffff16815260200190815260200160002060030154816126a557fe5b0490505b600660008373ffffffffffffffffffffffffffffffffffffffff1673ffffffffffffffffffffffffffffffffffffffff1681526020019081526020016000206000015443111561297d57600061274a600660008573ffffffffffffffffffffffffffffffffffffffff1673ffffffffffffffffffffffffffffffffffffffff16815260200190815260200160002060000154436139bb90919063ffffffff16565b90506000600660008573ffffffffffffffffffffffffffffffffffffffff1673ffffffffffffffffffffffffffffffffffffffff1681526020019081526020016000206002015411156128a457600b546128558261284785612839600660008a73ffffffffffffffffffffffffffffffffffffffff1673ffffffffffffffffffffffffffffffffffffffff16815260200190815260200160002060020154600660008b73ffffffffffffffffffffffffffffffffffffffff1673ffffffffffffffffffffffffffffffffffffffff1681526020019081526020016000206001015461393390919063ffffffff16565b61393390919063ffffffff16565b613a0590919063ffffffff16565b8161285c57fe5b04600660008573ffffffffffffffffffffffffffffffffffffffff1673ffffffffffffffffffffffffffffffffffffffff168152602001908152602001600020600101819055505b43600660008573ffffffffffffffffffffffffffffffffffffffff1673ffffffffffffffffffffffffffffffffffffffff168152602001908152602001600020600001819055508273ffffffffffffffffffffffffffffffffffffffff167fc083a1647e3ee591bf42b82564ffb4d16fdbb26068f0080da911c8d8300fd84a600660008673ffffffffffffffffffffffffffffffffffffffff1673ffffffffffffffffffffffffffffffffffffffff168152602001908152602001600020600101546040518082815260200191505060405180910390a2505b6129ca3384601060009054906101000a900473ffffffffffffffffffffffffffffffffffffffff1673ffffffffffffffffffffffffffffffffffffffff166132fb9092919063ffffffff16565b612a1f83600660003373ffffffffffffffffffffffffffffffffffffffff1673ffffffffffffffffffffffffffffffffffffffff168152602001908152602001600020600301546139bb90919063ffffffff16565b600660003373ffffffffffffffffffffffffffffffffffffffff1673ffffffffffffffffffffffffffffffffffffffff16815260200190815260200160002060030181905550612a7a836012546139bb90919063ffffffff16565b6012819055503373ffffffffffffffffffffffffffffffffffffffff167fa8150caebaf213845af09e989c311c473297a2e8d410f008118ec0ae08c9b56384601254604051808381526020018281526020019250505060405180910390a2505050565b6000612ba0612aea6133b3565b84612b9b8560405180606001604052806025815260200161418c6025913960016000612b146133b3565b73ffffffffffffffffffffffffffffffffffffffff1673ffffffffffffffffffffffffffffffffffffffff16815260200190815260200160002060008a73ffffffffffffffffffffffffffffffffffffffff1673ffffffffffffffffffffffffffffffffffffffff168152602001908152602001600020546138739092919063ffffffff16565b6133bb565b6001905092915050565b6000806000600660008573ffffffffffffffffffffffffffffffffffffffff1673ffffffffffffffffffffffffffffffffffffffff168152602001908152602001600020600301541115612c4957600a54600660008573ffffffffffffffffffffffffffffffffffffffff1673ffffffffffffffffffffffffffffffffffffffff1681526020019081526020016000206003015481612c4557fe5b0490505b600660008473ffffffffffffffffffffffffffffffffffffffff1673ffffffffffffffffffffffffffffffffffffffff16815260200190815260200160002060000154431115612e11576000612cea600660008673ffffffffffffffffffffffffffffffffffffffff1673ffffffffffffffffffffffffffffffffffffffff16815260200190815260200160002060000154436139bb90919063ffffffff16565b90506000600660008673ffffffffffffffffffffffffffffffffffffffff1673ffffffffffffffffffffffffffffffffffffffff168152602001908152602001600020600201541115612e0657600b54612df582612de785612dd9600660008b73ffffffffffffffffffffffffffffffffffffffff1673ffffffffffffffffffffffffffffffffffffffff16815260200190815260200160002060020154600660008c73ffffffffffffffffffffffffffffffffffffffff1673ffffffffffffffffffffffffffffffffffffffff1681526020019081526020016000206001015461393390919063ffffffff16565b61393390919063ffffffff16565b613a0590919063ffffffff16565b81612dfc57fe5b0492505050612e13565b600092505050612e13565b505b919050565b6000612e2c612e256133b3565b84846135b2565b6001905092915050565b6000600660008373ffffffffffffffffffffffffffffffffffffffff1673ffffffffffffffffffffffffffffffffffffffff168152602001908152602001600020600201549050919050565b600b5481565b600a5481565b6000600160008473ffffffffffffffffffffffffffffffffffffffff1673ffffffffffffffffffffffffffffffffffffffff16815260200190815260200160002060008373ffffffffffffffffffffffffffffffffffffffff1673ffffffffffffffffffffffffffffffffffffffff16815260200190815260200160002054905092915050565b6000600660008373ffffffffffffffffffffffffffffffffffffffff1673ffffffffffffffffffffffffffffffffffffffff168152602001908152602001600020600301549050919050565b600f60009054906101000a900473ffffffffffffffffffffffffffffffffffffffff1681565b600760009054906101000a900473ffffffffffffffffffffffffffffffffffffffff1673ffffffffffffffffffffffffffffffffffffffff163373ffffffffffffffffffffffffffffffffffffffff1614612fe157600080fd5b600860149054906101000a900460ff1615600860146101000a81548160ff021916908315150217905550565b600760009054906101000a900473ffffffffffffffffffffffffffffffffffffffff1673ffffffffffffffffffffffffffffffffffffffff163373ffffffffffffffffffffffffffffffffffffffff161461306757600080fd5b600073ffffffffffffffffffffffffffffffffffffffff168173ffffffffffffffffffffffffffffffffffffffff16141561309e57fe5b8073ffffffffffffffffffffffffffffffffffffffff16600760009054906101000a900473ffffffffffffffffffffffffffffffffffffffff1673ffffffffffffffffffffffffffffffffffffffff167f8be0079c531659141344cd1fd0a4f28419497f9722a3daafe3b4186f6b6457e060405160405180910390a380600760006101000a81548173ffffffffffffffffffffffffffffffffffffffff021916908373ffffffffffffffffffffffffffffffffffffffff16021790555050565b600760009054906101000a900473ffffffffffffffffffffffffffffffffffffffff1673ffffffffffffffffffffffffffffffffffffffff163373ffffffffffffffffffffffffffffffffffffffff16146131b857600080fd5b80601160006101000a81548173ffffffffffffffffffffffffffffffffffffffff021916908373ffffffffffffffffffffffffffffffffffffffff160217905550601160009054906101000a900473ffffffffffffffffffffffffffffffffffffffff16601060006101000a81548173ffffffffffffffffffffffffffffffffffffffff021916908373ffffffffffffffffffffffffffffffffffffffff1602179055503373ffffffffffffffffffffffffffffffffffffffff167f8af466afabab9342dd0019e0d8df09192b733728c80a5b2943d45a203dd96fc9601160009054906101000a900473ffffffffffffffffffffffffffffffffffffffff16604051808273ffffffffffffffffffffffffffffffffffffffff1673ffffffffffffffffffffffffffffffffffffffff16815260200191505060405180910390a250565b6133ae8363a9059cbb60e01b8484604051602401808373ffffffffffffffffffffffffffffffffffffffff1673ffffffffffffffffffffffffffffffffffffffff16815260200182815260200192505050604051602081830303815290604052907bffffffffffffffffffffffffffffffffffffffffffffffffffffffff19166020820180517bffffffffffffffffffffffffffffffffffffffffffffffffffffffff8381831617835250505050613d3f565b505050565b600033905090565b600073ffffffffffffffffffffffffffffffffffffffff168373ffffffffffffffffffffffffffffffffffffffff161415613441576040517f08c379a000000000000000000000000000000000000000000000000000000000815260040180806020018281038252602481526020018061413e6024913960400191505060405180910390fd5b600073ffffffffffffffffffffffffffffffffffffffff168273ffffffffffffffffffffffffffffffffffffffff1614156134c7576040517f08c379a00000000000000000000000000000000000000000000000000000000081526004018080602001828103825260228152602001806140886022913960400191505060405180910390fd5b80600160008573ffffffffffffffffffffffffffffffffffffffff1673ffffffffffffffffffffffffffffffffffffffff16815260200190815260200160002060008473ffffffffffffffffffffffffffffffffffffffff1673ffffffffffffffffffffffffffffffffffffffff168152602001908152602001600020819055508173ffffffffffffffffffffffffffffffffffffffff168373ffffffffffffffffffffffffffffffffffffffff167f8c5be1e5ebec7d5bd14f71427d1e84f3dd0314c0f7b2291e5b200ac8c7c3b925836040518082815260200191505060405180910390a3505050565b600073ffffffffffffffffffffffffffffffffffffffff168373ffffffffffffffffffffffffffffffffffffffff161415613638576040517f08c379a00000000000000000000000000000000000000000000000000000000081526004018080602001828103825260258152602001806141196025913960400191505060405180910390fd5b600073ffffffffffffffffffffffffffffffffffffffff168273ffffffffffffffffffffffffffffffffffffffff1614156136be576040517f08c379a00000000000000000000000000000000000000000000000000000000081526004018080602001828103825260238152602001806140656023913960400191505060405180910390fd5b6136c9838383613e2e565b613734816040518060600160405280602681526020016140aa602691396000808773ffffffffffffffffffffffffffffffffffffffff1673ffffffffffffffffffffffffffffffffffffffff168152602001908152602001600020546138739092919063ffffffff16565b6000808573ffffffffffffffffffffffffffffffffffffffff1673ffffffffffffffffffffffffffffffffffffffff168152602001908152602001600020819055506137c7816000808573ffffffffffffffffffffffffffffffffffffffff1673ffffffffffffffffffffffffffffffffffffffff1681526020019081526020016000205461393390919063ffffffff16565b6000808473ffffffffffffffffffffffffffffffffffffffff1673ffffffffffffffffffffffffffffffffffffffff168152602001908152602001600020819055508173ffffffffffffffffffffffffffffffffffffffff168373ffffffffffffffffffffffffffffffffffffffff167fddf252ad1be2c89b69c2b068fc378daa952ba7f163c4a11628f55a4df523b3ef836040518082815260200191505060405180910390a3505050565b6000838311158290613920576040517f08c379a00000000000000000000000000000000000000000000000000000000081526004018080602001828103825283818151815260200191508051906020019080838360005b838110156138e55780820151818401526020810190506138ca565b50505050905090810190601f1680156139125780820380516001836020036101000a031916815260200191505b509250505060405180910390fd5b5060008385039050809150509392505050565b6000808284019050838110156139b1576040517f08c379a000000000000000000000000000000000000000000000000000000000815260040180806020018281038252601b8152602001807f536166654d6174683a206164646974696f6e206f766572666c6f77000000000081525060200191505060405180910390fd5b8091505092915050565b60006139fd83836040518060400160405280601e81526020017f536166654d6174683a207375627472616374696f6e206f766572666c6f770000815250613873565b905092915050565b600080831415613a185760009050613a85565b6000828402905082848281613a2957fe5b0414613a80576040517f08c379a00000000000000000000000000000000000000000000000000000000081526004018080602001828103825260218152602001806140d06021913960400191505060405180910390fd5b809150505b92915050565b600073ffffffffffffffffffffffffffffffffffffffff168273ffffffffffffffffffffffffffffffffffffffff161415613b2e576040517f08c379a000000000000000000000000000000000000000000000000000000000815260040180806020018281038252601f8152602001807f45524332303a206d696e7420746f20746865207a65726f20616464726573730081525060200191505060405180910390fd5b613b3a60008383613e2e565b613b4f8160025461393390919063ffffffff16565b600281905550613ba6816000808573ffffffffffffffffffffffffffffffffffffffff1673ffffffffffffffffffffffffffffffffffffffff1681526020019081526020016000205461393390919063ffffffff16565b6000808473ffffffffffffffffffffffffffffffffffffffff1673ffffffffffffffffffffffffffffffffffffffff168152602001908152602001600020819055508173ffffffffffffffffffffffffffffffffffffffff16600073ffffffffffffffffffffffffffffffffffffffff167fddf252ad1be2c89b69c2b068fc378daa952ba7f163c4a11628f55a4df523b3ef836040518082815260200191505060405180910390a35050565b613d39846323b872dd60e01b858585604051602401808473ffffffffffffffffffffffffffffffffffffffff1673ffffffffffffffffffffffffffffffffffffffff1681526020018373ffffffffffffffffffffffffffffffffffffffff1673ffffffffffffffffffffffffffffffffffffffff1681526020018281526020019350505050604051602081830303815290604052907bffffffffffffffffffffffffffffffffffffffffffffffffffffffff19166020820180517bffffffffffffffffffffffffffffffffffffffffffffffffffffffff8381831617835250505050613d3f565b50505050565b6060613da1826040518060400160405280602081526020017f5361666545524332303a206c6f772d6c6576656c2063616c6c206661696c65648152508573ffffffffffffffffffffffffffffffffffffffff16613e339092919063ffffffff16565b9050600081511115613e2957808060200190516020811015613dc257600080fd5b8101908080519060200190929190505050613e28576040517f08c379a000000000000000000000000000000000000000000000000000000000815260040180806020018281038252602a815260200180614162602a913960400191505060405180910390fd5b5b505050565b505050565b6060613e428484600085613e4b565b90509392505050565b6060613e5685614051565b613ec8576040517f08c379a000000000000000000000000000000000000000000000000000000000815260040180806020018281038252601d8152602001807f416464726573733a2063616c6c20746f206e6f6e2d636f6e747261637400000081525060200191505060405180910390fd5b600060608673ffffffffffffffffffffffffffffffffffffffff1685876040518082805190602001908083835b60208310613f185780518252602082019150602081019050602083039250613ef5565b6001836020036101000a03801982511681845116808217855250505050505090500191505060006040518083038185875af1925050503d8060008114613f7a576040519150601f19603f3d011682016040523d82523d6000602084013e613f7f565b606091505b50915091508115613f94578092505050614049565b600081511115613fa75780518082602001fd5b836040517f08c379a00000000000000000000000000000000000000000000000000000000081526004018080602001828103825283818151815260200191508051906020019080838360005b8381101561400e578082015181840152602081019050613ff3565b50505050905090810190601f16801561403b5780820380516001836020036101000a031916815260200191505b509250505060405180910390fd5b949350505050565b600080823b90506000811191505091905056fe45524332303a207472616e7366657220746f20746865207a65726f206164647265737345524332303a20617070726f766520746f20746865207a65726f206164647265737345524332303a207472616e7366657220616d6f756e7420657863656564732062616c616e6365536166654d6174683a206d756c7469706c69636174696f6e206f766572666c6f7745524332303a207472616e7366657220616d6f756e74206578636565647320616c6c6f77616e636545524332303a207472616e736665722066726f6d20746865207a65726f206164647265737345524332303a20617070726f76652066726f6d20746865207a65726f20616464726573735361666545524332303a204552433230206f7065726174696f6e20646964206e6f74207375636365656445524332303a2064656372656173656420616c6c6f77616e63652062656c6f77207a65726fa2646970667358221220737e75d5baf6698156a8f0864a49c266c020de7b65f188fa6380b29700e3a92c64736f6c63430006060033536166654d6174683a206d756c7469706c69636174696f6e206f766572666c6f77",
  "immutableReferences": {},
  "source": "pragma solidity ^0.6.6;\n\nimport \"@openzeppelin/contracts/token/ERC20/ERC20.sol\";\nimport \"@openzeppelin/contracts/token/ERC20/SafeERC20.sol\";\nimport \"@openzeppelin/contracts/math/SafeMath.sol\";\n\ncontract PurpleKush is ERC20{\n    \n    using SafeERC20 for IERC20;\n    using SafeMath for uint256;\n\n\n    struct stakeTracker {\n        uint256 lastBlockChecked;\n        uint256 rewards;\n        uint256 kushPoolTokens;\n        uint256 pKushPoolTokens;\n    }\n    \n    mapping(address => stakeTracker) private stakedBalances;\n\n\n    address owner;\n    \n    address public fundVotingAddress;\n    \n    bool public isSendingFunds = false;\n    \n    uint256 private lastBlockSent;\n    \n    uint256 public liquidityMultiplier = 80;\n    uint256 public miningDifficulty = 50000;\n    \n    IERC20 private kush;\n    IERC20 private pKush;\n    \n    IERC20 private kushV2;\n    address public kushUniswapV2Pair;\n    \n    IERC20 private pKushV2;\n    address public pKushUniswapV2Pair;\n    \n    uint256 totalLiquidityStaked;\n\n\n    modifier _onlyOwner() {\n        require(msg.sender == owner);\n        _;\n    }\n    \n    modifier updateStakingReward(address _account) {\n        uint256 liquidityBonus;\n        if (stakedBalances[_account].pKushPoolTokens > 0) {\n            liquidityBonus = stakedBalances[_account].pKushPoolTokens/ liquidityMultiplier;\n        }\n        if (block.number > stakedBalances[_account].lastBlockChecked) {\n            uint256 rewardBlocks = block.number\n                                        .sub(stakedBalances[_account].lastBlockChecked);\n                                        \n                                        \n             \n            if (stakedBalances[_account].kushPoolTokens > 0) {\n                stakedBalances[_account].rewards = stakedBalances[_account].rewards\n                                                                            .add(stakedBalances[_account].kushPoolTokens)\n                                                                            .add(liquidityBonus)\n                                                                            .mul(rewardBlocks)\n                                                                            / miningDifficulty;\n            }\n            \n           \n                    \n            stakedBalances[_account].lastBlockChecked = block.number;\n            \n            \n            emit Rewards(_account, stakedBalances[_account].rewards);                                                     \n        }\n        _;\n    }\n    \n    event OwnershipTransferred(address indexed previousOwner, address indexed newOwner);\n    \n    event kushUniStaked(address indexed user, uint256 amount, uint256 totalLiquidityStaked);\n    \n    event pKushUniStaked(address indexed user, uint256 amount, uint256 totalLiquidityStaked);\n    \n    event kushUniWithdrawn(address indexed user, uint256 amount, uint256 totalLiquidityStaked);\n    \n    event pKushUniWithdrawn(address indexed user, uint256 amount, uint256 totalLiquidityStaked);\n    \n    event Rewards(address indexed user, uint256 reward);\n    \n    event FundsSentToFundingAddress(address indexed user, uint256 amount);\n    \n    event votingAddressChanged(address indexed user, address votingAddress);\n    \n    event kushPairAddressChanged(address indexed user, address kushPairAddress);\n    \n    event pKushPairAddressChanged(address indexed user, address pKushPairAddress);\n    \n    event difficultyChanged(address indexed user, uint256 difficulty);\n\n\n    constructor() public payable ERC20(\"purpleKUSH\", \"pKUSH\") {\n        owner = msg.sender;\n        uint256 supply = 420;\n        _mint(msg.sender, supply.mul(10 ** 18));\n        lastBlockSent = block.number;\n    }\n    \n    function transferOwnership(address newOwner) external _onlyOwner {\n        assert(newOwner != address(0)/*, \"Ownable: new owner is the zero address\"*/);\n        emit OwnershipTransferred(owner, newOwner);\n        owner = newOwner;\n    }\n    \n    function setVotingAddress(address _account) public _onlyOwner {\n        fundVotingAddress = _account;\n        emit votingAddressChanged(msg.sender, fundVotingAddress);\n    }\n    \n    function setKushPairAddress(address _uniV2address) public _onlyOwner {\n        kushUniswapV2Pair = _uniV2address;\n        kushV2 = IERC20(kushUniswapV2Pair);\n        emit kushPairAddressChanged(msg.sender, kushUniswapV2Pair);\n    }\n\n    function setpKushPairAddress(address _uniV2address) public _onlyOwner {\n        pKushUniswapV2Pair = _uniV2address;\n        pKushV2 = IERC20(pKushUniswapV2Pair);\n        emit pKushPairAddressChanged(msg.sender, pKushUniswapV2Pair);\n    }\n    \n     function setMiningDifficulty(uint256 amount) public _onlyOwner {\n       miningDifficulty = amount;\n       emit difficultyChanged(msg.sender, miningDifficulty);\n   }\n    \n    function stakeKushUni(uint256 amount) public updateStakingReward(msg.sender) {\n        kushV2.safeTransferFrom(msg.sender, address(this), amount);\n        stakedBalances[msg.sender].kushPoolTokens = stakedBalances[msg.sender].kushPoolTokens.add(amount);\n        totalLiquidityStaked = totalLiquidityStaked.add(amount);                                                                              \n        emit kushUniStaked(msg.sender, stakedBalances[msg.sender].kushPoolTokens, totalLiquidityStaked);\n    }\n    \n    function withdrawKushUni(uint256 amount) public updateStakingReward(msg.sender) {\n        kushV2.safeTransfer(msg.sender, amount);\n        stakedBalances[msg.sender].kushPoolTokens = stakedBalances[msg.sender].kushPoolTokens.sub(amount);\n        totalLiquidityStaked = totalLiquidityStaked.sub(amount);                                                                              \n        emit kushUniWithdrawn(msg.sender, amount, totalLiquidityStaked);\n    }\n    \n    \n    \n    function stakeDarkNyanUni(uint256 amount) public updateStakingReward(msg.sender) {\n        pKushV2.safeTransferFrom(msg.sender, address(this), amount);\n        stakedBalances[msg.sender].pKushPoolTokens = stakedBalances[msg.sender].pKushPoolTokens.add(amount);\n        totalLiquidityStaked = totalLiquidityStaked.add(amount);                                                                              \n        emit pKushUniStaked(msg.sender, amount, totalLiquidityStaked);\n    }\n    \n    function withdrawDarkNyanUni(uint256 amount) public updateStakingReward(msg.sender) {\n        pKushV2.safeTransfer(msg.sender, amount);\n        stakedBalances[msg.sender].pKushPoolTokens = stakedBalances[msg.sender].pKushPoolTokens.sub(amount);\n        totalLiquidityStaked = totalLiquidityStaked.sub(amount);                                                                              \n        emit pKushUniWithdrawn(msg.sender, amount, totalLiquidityStaked);\n    }\n    \n    function getKushUniStakeAmount(address _account) public view returns (uint256) {\n        return stakedBalances[_account].kushPoolTokens;\n    }\n    \n    function getDNyanUniStakeAmount(address _account) public view returns (uint256) {\n        return stakedBalances[_account].pKushPoolTokens;\n    }\n    \n    function myRewardsBalance(address _account) public view returns(uint256) {\n        uint256 liquidityBonus;\n        if (stakedBalances[_account].pKushPoolTokens > 0) {\n            liquidityBonus = stakedBalances[_account].pKushPoolTokens / liquidityMultiplier;\n        }\n        \n        if (block.number > stakedBalances[_account].lastBlockChecked) {\n            uint256 rewardBlocks = block.number\n                                        .sub(stakedBalances[_account].lastBlockChecked);\n                                        \n                                        \n             \n            if (stakedBalances[_account].kushPoolTokens > 0) {\n                return stakedBalances[_account].rewards\n                                                .add(stakedBalances[_account].kushPoolTokens)\n                                                .add(liquidityBonus)\n                                                .mul(rewardBlocks)\n                                                / miningDifficulty;\n            } else {\n                return 0;\n            }\n        }\n    }\n    \n    function getReward() public updateStakingReward(msg.sender) {\n        uint256 reward = stakedBalances[msg.sender].rewards;\n       stakedBalances[msg.sender].rewards = 0;\n       _mint(msg.sender, reward.mul(8) / 10);\n       uint256 fundingPoolReward = reward.mul(2) / 10;\n       _mint(address(this), fundingPoolReward);\n       emit Rewards(msg.sender, reward);\n    }\n    \n    function toggleFundsTransfer() public _onlyOwner {\n        isSendingFunds = !isSendingFunds;\n    }\n    \n    function sendDarkNyanToFund(uint256 amount) public {\n        if (!isSendingFunds) {\n            return;\n        }\n        lastBlockSent = block.number;\n        IERC20(address(this)).safeTransfer(fundVotingAddress, amount);\n        emit FundsSentToFundingAddress(msg.sender, amount);\n    }\n    \n    \n}",
  "sourcePath": "C:/Users/spiry/Documents/GitHub/kush.finance/contracts/PurpleKush.sol",
  "compiler": {
    "name": "solc",
    "version": "0.6.6+commit.6c089d02.Emscripten.clang"
  },
  "schemaVersion": "3.2.4",
  "updatedAt": "2020-09-19T03:52:25.171Z",
  "devdoc": {
    "methods": {
      "allowance(address,address)": {
        "details": "See {IERC20-allowance}."
      },
      "approve(address,uint256)": {
        "details": "See {IERC20-approve}.     * Requirements:     * - `spender` cannot be the zero address."
      },
      "balanceOf(address)": {
        "details": "See {IERC20-balanceOf}."
      },
      "decimals()": {
        "details": "Returns the number of decimals used to get its user representation. For example, if `decimals` equals `2`, a balance of `505` tokens should be displayed to a user as `5,05` (`505 / 10 ** 2`).     * Tokens usually opt for a value of 18, imitating the relationship between Ether and Wei. This is the value {ERC20} uses, unless {_setupDecimals} is called.     * NOTE: This information is only used for _display_ purposes: it in no way affects any of the arithmetic of the contract, including {IERC20-balanceOf} and {IERC20-transfer}."
      },
      "decreaseAllowance(address,uint256)": {
        "details": "Atomically decreases the allowance granted to `spender` by the caller.     * This is an alternative to {approve} that can be used as a mitigation for problems described in {IERC20-approve}.     * Emits an {Approval} event indicating the updated allowance.     * Requirements:     * - `spender` cannot be the zero address. - `spender` must have allowance for the caller of at least `subtractedValue`."
      },
      "increaseAllowance(address,uint256)": {
        "details": "Atomically increases the allowance granted to `spender` by the caller.     * This is an alternative to {approve} that can be used as a mitigation for problems described in {IERC20-approve}.     * Emits an {Approval} event indicating the updated allowance.     * Requirements:     * - `spender` cannot be the zero address."
      },
      "name()": {
        "details": "Returns the name of the token."
      },
      "symbol()": {
        "details": "Returns the symbol of the token, usually a shorter version of the name."
      },
      "totalSupply()": {
        "details": "See {IERC20-totalSupply}."
      },
      "transfer(address,uint256)": {
        "details": "See {IERC20-transfer}.     * Requirements:     * - `recipient` cannot be the zero address. - the caller must have a balance of at least `amount`."
      },
      "transferFrom(address,address,uint256)": {
        "details": "See {IERC20-transferFrom}.     * Emits an {Approval} event indicating the updated allowance. This is not required by the EIP. See the note at the beginning of {ERC20};     * Requirements: - `sender` and `recipient` cannot be the zero address. - `sender` must have a balance of at least `amount`. - the caller must have allowance for ``sender``'s tokens of at least `amount`."
      }
    }
  },
  "userdoc": {
    "methods": {}
  }
}