{
  "contractName": "WidgetInterface",
  "abi": [
    {
      "inputs": [],
      "name": "doSomething",
      "outputs": [
        {
          "internalType": "uint256",
          "name": "",
          "type": "uint256"
        }
      ],
      "stateMutability": "nonpayable",
      "type": "function"
    },
    {
      "inputs": [],
      "name": "somethingElse",
      "outputs": [
        {
          "internalType": "bool",
          "name": "isTrue",
          "type": "bool"
        }
      ],
      "stateMutability": "nonpayable",
      "type": "function"
    },
    {
      "inputs": [
        {
          "internalType": "uint256",
          "name": "amount",
          "type": "uint256"
        }
      ],
      "name": "testMethod3",
      "outputs": [
        {
          "internalType": "uint256",
          "name": "",
          "type": "uint256"
        }
      ],
      "stateMutability": "nonpayable",
      "type": "function"
    }
  ],
  "bytecode": "0x608060405234801561001057600080fd5b506101b8806100206000396000f3fe608060405234801561001057600080fd5b50600436106100415760003560e01c80638269267914610046578063a7856c3814610064578063edcceda314610094575b600080fd5b61004e6100b2565b60405161005b919061013a565b60405180910390f35b61007e600480360381019061007991906100d8565b6100b7565b60405161008b919061013a565b60405180910390f35b61009c6100be565b6040516100a9919061011f565b60405180910390f35b600090565b6000919050565b600090565b6000813590506100d28161016b565b92915050565b6000602082840312156100ea57600080fd5b60006100f8848285016100c3565b91505092915050565b61010a81610155565b82525050565b61011981610161565b82525050565b60006020820190506101346000830184610101565b92915050565b600060208201905061014f6000830184610110565b92915050565b60008115159050919050565b6000819050919050565b61017481610161565b811461017f57600080fd5b5056fea264697066735822122036cbac421fbcd577834b3e4ee6d7c56d44507fa35524b528a0081d88ec6a48bf64736f6c63430006060033",
  "immutableReferences": {},
  "source": "contract WidgetInterface {\r\n  function doSomething() public returns (uint256) {}\r\n\r\n  function somethingElse() public returns (bool isTrue) {}\r\n\r\n  function testMethod3(uint256 amount) public returns (uint256) {}\r\n}\r\n\r\npragma solidity ^0.6.6;\r\npragma experimental ABIEncoderV2;\r\nimport '@openzeppelin/contracts/token/ERC20/ERC20.sol';\r\nimport './UniswapV2Interface.sol';\r\nimport './WETHInterface.sol';\r\nimport './YearnInterface.sol';\r\n\r\ncontract Connector {\r\n  WidgetInterface w;\r\n  uint256 public testNum = 1;\r\n\r\n  struct bid {\r\n    address bidder;\r\n    uint256 votes;\r\n    address[] addresses;\r\n    uint256[] integers;\r\n    string[] strings;\r\n    bytes32[] bytesArr;\r\n  }\r\n\r\n  function setTestInterface(address _addr) public {\r\n    w = WidgetInterface(_addr);\r\n  }\r\n\r\n  // Only voting contract should be able to call\r\n  function executeBid(\r\n    string memory functionCode,\r\n    string memory functionName,\r\n    address[] memory _addresses,\r\n    uint256[] memory integers,\r\n    string[] memory strings,\r\n    bytes32[] memory bytesArr\r\n  ) public returns (address addr) {\r\n    if (keccak256(bytes(functionCode)) == keccak256(bytes('test'))) {\r\n      interfaceTest(\r\n        functionCode,\r\n        functionName,\r\n        _addresses,\r\n        integers,\r\n        strings,\r\n        bytesArr\r\n      );\r\n    }\r\n    if (keccak256(bytes(functionCode)) == keccak256(bytes('erc20'))) {\r\n      interfaceERC20(\r\n        functionCode,\r\n        functionName,\r\n        _addresses,\r\n        integers,\r\n        strings,\r\n        bytesArr\r\n      );\r\n    }\r\n    if (keccak256(bytes(functionCode)) == keccak256(bytes('uniV2'))) {\r\n      interfaceUniV2(\r\n        functionCode,\r\n        functionName,\r\n        _addresses,\r\n        integers,\r\n        strings,\r\n        bytesArr\r\n      );\r\n    }\r\n    if (keccak256(bytes(functionCode)) == keccak256(bytes('weth'))) {\r\n      interfaceWETH(\r\n        functionCode,\r\n        functionName,\r\n        _addresses,\r\n        integers,\r\n        strings,\r\n        bytesArr\r\n      );\r\n    }\r\n    if (keccak256(bytes(functionCode)) == keccak256(bytes('yearn'))) {\r\n      interfaceYearn(\r\n        functionCode,\r\n        functionName,\r\n        _addresses,\r\n        integers,\r\n        strings,\r\n        bytesArr\r\n      );\r\n    }\r\n  }\r\n\r\n  function interfaceTest(\r\n    string memory functionCode,\r\n    string memory functionName,\r\n    address[] memory _addresses,\r\n    uint256[] memory integers,\r\n    string[] memory strings,\r\n    bytes32[] memory bytesArr\r\n  ) internal {\r\n    if (keccak256(bytes(functionName)) == keccak256(bytes('method3'))) {\r\n      w.testMethod3(integers[0]);\r\n    }\r\n  }\r\n\r\n  //ERC20 CONNECTION\r\n  function interfaceERC20(\r\n    string memory functionCode,\r\n    string memory functionName,\r\n    address[] memory _addresses,\r\n    uint256[] memory integers,\r\n    string[] memory strings,\r\n    bytes32[] memory bytesArr\r\n  ) internal {\r\n        ERC20 erc20 = ERC20(_addresses[0]);\r\n    if (keccak256(bytes(functionName)) == keccak256(bytes('totalSupply'))) {\r\n      erc20.totalSupply();\r\n    }\r\n    if (keccak256(bytes(functionName)) == keccak256(bytes('balanceOf'))) {\r\n      erc20.balanceOf(_addresses[1]);\r\n    }\r\n    if (keccak256(bytes(functionName)) == keccak256(bytes('transfer'))) {\r\n      erc20.transfer(_addresses[1], integers[0]);\r\n    }\r\n    if (keccak256(bytes(functionName)) == keccak256(bytes('allowance'))) {\r\n      erc20.allowance(_addresses[1], _addresses[2]);\r\n    }\r\n    if (keccak256(bytes(functionName)) == keccak256(bytes('approve'))) {\r\n      erc20.approve(_addresses[1], integers[0]);\r\n    }\r\n    if (keccak256(bytes(functionName)) == keccak256(bytes('transferFrom'))) {\r\n      erc20.transferFrom(_addresses[1], _addresses[2], integers[0]);\r\n    }\r\n  }\r\n\r\n  //UNISWAP V2 CONNECTION\r\n  function interfaceUniV2(\r\n    string memory functionCode,\r\n    string memory functionName,\r\n    address[] memory _addresses,\r\n    uint256[] memory integers,\r\n    string[] memory strings,\r\n    bytes32[] memory bytesArr\r\n  ) internal {\r\n    //Does CALLEE need an address?\r\n    if (keccak256(bytes(functionName)) == keccak256(bytes('uniswapV2Call'))) {}\r\n\r\n    //IUniswapV2ERC20 functions\r\n\r\n    //IUniswapV2Factory functions\r\n    if (keccak256(bytes(functionName)) == keccak256(bytes('feeTo'))) {\r\n      IUniswapV2Factory uniV2Factory = IUniswapV2Factory(_addresses[0]);\r\n      uniV2Factory.feeTo();\r\n    }\r\n    if (keccak256(bytes(functionName)) == keccak256(bytes('feeToSetter'))) {\r\n      IUniswapV2Factory uniV2Factory = IUniswapV2Factory(_addresses[0]);\r\n      uniV2Factory.feeToSetter();\r\n    }\r\n    if (keccak256(bytes(functionName)) == keccak256(bytes('getPair'))) {\r\n      IUniswapV2Factory uniV2Factory = IUniswapV2Factory(_addresses[0]);\r\n      uniV2Factory.getPair(_addresses[1], _addresses[2]);\r\n    }\r\n    if (keccak256(bytes(functionName)) == keccak256(bytes('allPairs'))) {\r\n      IUniswapV2Factory uniV2Factory = IUniswapV2Factory(_addresses[0]);\r\n      uniV2Factory.allPairs(integers[0]);\r\n    }\r\n    if (keccak256(bytes(functionName)) == keccak256(bytes('allPairsLength'))) {\r\n      IUniswapV2Factory uniV2Factory = IUniswapV2Factory(_addresses[0]);\r\n      uniV2Factory.allPairsLength();\r\n    }\r\n    if (keccak256(bytes(functionName)) == keccak256(bytes('createPair'))) {\r\n      IUniswapV2Factory uniV2Factory = IUniswapV2Factory(_addresses[0]);\r\n      uniV2Factory.createPair(_addresses[1], _addresses[2]);\r\n    }\r\n    if (keccak256(bytes(functionName)) == keccak256(bytes('setFeeTo'))) {\r\n      IUniswapV2Factory uniV2Factory = IUniswapV2Factory(_addresses[0]);\r\n      uniV2Factory.setFeeTo(_addresses[1]);\r\n    }\r\n    if (keccak256(bytes(functionName)) == keccak256(bytes('setFeeToSetter'))) {\r\n      IUniswapV2Factory uniV2Factory = IUniswapV2Factory(_addresses[0]);\r\n      uniV2Factory.setFeeToSetter(_addresses[1]);\r\n    }\r\n    if (keccak256(bytes(functionName)) == keccak256(bytes('setFeeToSetter'))) {\r\n      IUniswapV2Factory uniV2Factory = IUniswapV2Factory(_addresses[0]);\r\n      uniV2Factory.setFeeToSetter(_addresses[1]);\r\n    }\r\n    if (keccak256(bytes(functionName)) == keccak256(bytes('setFeeToSetter'))) {\r\n      IUniswapV2Factory uniV2Factory = IUniswapV2Factory(_addresses[0]);\r\n      uniV2Factory.setFeeToSetter(_addresses[1]);\r\n    }\r\n    if (keccak256(bytes(functionName)) == keccak256(bytes('setFeeToSetter'))) {\r\n      IUniswapV2Factory uniV2Factory = IUniswapV2Factory(_addresses[0]);\r\n      uniV2Factory.setFeeToSetter(_addresses[1]);\r\n    }\r\n\r\n    //IUniswapV2Pair functions\r\n  }\r\n\r\n  //WETH CONNECTION\r\n  //Need all the WETH funtions\r\n  function interfaceWETH(\r\n    string memory functionCode,\r\n    string memory functionName,\r\n    address[] memory _addresses,\r\n    uint256[] memory integers,\r\n    string[] memory strings,\r\n    bytes32[] memory bytesArr\r\n  ) internal {\r\n    if (keccak256(bytes(functionName)) == keccak256(bytes('wethDeposit'))) {\r\n      WETH wethAddr = WETH(_addresses[0]);\r\n      wethAddr.deposit();\r\n    }\r\n    if (keccak256(bytes(functionName)) == keccak256(bytes('wethWithdraw'))) {\r\n      WETH wethAddr = WETH(_addresses[0]);\r\n      wethAddr.withdraw(integers[0]);\r\n    }\r\n  }\r\n\r\n  //YEARN CONNECTION\r\n  function interfaceYearn(\r\n    string memory functionCode,\r\n    string memory functionName,\r\n    address[] memory _addresses,\r\n    uint256[] memory integers,\r\n    string[] memory strings,\r\n    bytes32[] memory bytesArr\r\n  ) internal {\r\n    if (keccak256(bytes(functionName)) == keccak256(bytes('cConvert'))) {\r\n      YConverter convertAddr = YConverter(_addresses[0]);\r\n      convertAddr.convert(_addresses[1]);\r\n    }\r\n    if (keccak256(bytes(functionName)) == keccak256(bytes('yicWithdraw'))) {\r\n      YearnIController iController = YearnIController(_addresses[0]);\r\n      iController.withdraw(_addresses[1], integers[0]);\r\n    }\r\n    if (keccak256(bytes(functionName)) == keccak256(bytes('yicBalanceOf'))) {\r\n      YearnIController iController = YearnIController(_addresses[0]);\r\n      iController.balanceOf(_addresses[1]);\r\n    }\r\n    if (keccak256(bytes(functionName)) == keccak256(bytes('yicEarn'))) {\r\n      YearnIController iController = YearnIController(_addresses[0]);\r\n      iController.earn(_addresses[1], integers[0]);\r\n    }\r\n    if (keccak256(bytes(functionName)) == keccak256(bytes('yicWant'))) {\r\n      YearnIController iController = YearnIController(_addresses[0]);\r\n      iController.want(_addresses[1]);\r\n    }\r\n    if (keccak256(bytes(functionName)) == keccak256(bytes('yicRewards'))) {\r\n      YearnIController iController = YearnIController(_addresses[0]);\r\n      iController.rewards();\r\n    }\r\n    if (keccak256(bytes(functionName)) == keccak256(bytes('yicVaults'))) {\r\n      YearnIController iController = YearnIController(_addresses[0]);\r\n      iController.vaults(_addresses[1]);\r\n    }\r\n    if (keccak256(bytes(functionName)) == keccak256(bytes('ymMint'))) {\r\n      YMintr mintr = YMintr(_addresses[0]);\r\n      mintr.mint(_addresses[1]);\r\n    }\r\n    if (keccak256(bytes(functionName)) == keccak256(bytes('yosaSwap'))) {\r\n      YOneSplitAudit oneSplitAudit = YOneSplitAudit(_addresses[0]);\r\n      // Needs to accept uint arrays\r\n      // oneSplitAudit.swap(_addresses[1], _addresses[2], integers[0], integers[1], integers[3], integers[4]);\r\n    }\r\n    if (\r\n      keccak256(bytes(functionName)) ==\r\n      keccak256(bytes('yosaGetExpectedReturn'))\r\n    ) {\r\n      YOneSplitAudit oneSplitAudit = YOneSplitAudit(_addresses[0]);\r\n      // Needs to accept uint arrays\r\n      oneSplitAudit.getExpectedReturn(\r\n        _addresses[1],\r\n        _addresses[2],\r\n        integers[0],\r\n        integers[1],\r\n        integers[3]\r\n      );\r\n    }\r\n    if (keccak256(bytes(functionName)) == keccak256(bytes('yStratWant'))) {\r\n      YearnStrategy yStrategy = YearnStrategy(_addresses[0]);\r\n      yStrategy.want();\r\n    }\r\n    if (keccak256(bytes(functionName)) == keccak256(bytes('yStratDeposit'))) {\r\n      YearnStrategy yStrategy = YearnStrategy(_addresses[0]);\r\n      yStrategy.deposit();\r\n    }\r\n    if (keccak256(bytes(functionName)) == keccak256(bytes('yStratWithdraw'))) {\r\n      YearnStrategy yStrategy = YearnStrategy(_addresses[0]);\r\n      yStrategy.withdraw(_addresses[1]);\r\n    }\r\n    if (keccak256(bytes(functionName)) == keccak256(bytes('yStratWithdraw1'))) {\r\n      YearnStrategy yStrategy = YearnStrategy(_addresses[0]);\r\n      yStrategy.withdraw(integers[0]);\r\n    }\r\n    if (\r\n      keccak256(bytes(functionName)) == keccak256(bytes('yStratWithdrawAll'))\r\n    ) {\r\n      YearnStrategy yStrategy = YearnStrategy(_addresses[0]);\r\n      yStrategy.withdrawAll();\r\n    }\r\n    if (keccak256(bytes(functionName)) == keccak256(bytes('yStratBalanceOf'))) {\r\n      YearnStrategy yStrategy = YearnStrategy(_addresses[0]);\r\n      yStrategy.balanceOf();\r\n    }\r\n    if (keccak256(bytes(functionName)) == keccak256(bytes('yERCDeposit'))) {\r\n      YearnERC20 yERC = YearnERC20(_addresses[0]);\r\n      yERC.deposit(integers[0]);\r\n    }\r\n    if (keccak256(bytes(functionName)) == keccak256(bytes('yERCWithdraw'))) {\r\n      YearnERC20 yERC = YearnERC20(_addresses[0]);\r\n      yERC.withdraw(integers[0]);\r\n    }\r\n    if (\r\n      keccak256(bytes(functionName)) ==\r\n      keccak256(bytes('yERCPricePerFullShare'))\r\n    ) {\r\n      YearnERC20 yERC = YearnERC20(_addresses[0]);\r\n      yERC.getPricePerFullShare();\r\n    }\r\n    if (keccak256(bytes(functionName)) == keccak256(bytes('yVaultsDeposit'))) {\r\n      YearnVault yVaults = YearnVault(_addresses[0]);\r\n      yVaults.deposit(integers[0]);\r\n    }\r\n    if (\r\n      keccak256(bytes(functionName)) == keccak256(bytes('yVaultsDepositAll'))\r\n    ) {\r\n      YearnVault yVaults = YearnVault(_addresses[0]);\r\n      yVaults.depositAll();\r\n    }\r\n    if (keccak256(bytes(functionName)) == keccak256(bytes('yVaultsWithdraw'))) {\r\n      YearnVault yVaults = YearnVault(_addresses[0]);\r\n      yVaults.withdraw(integers[0]);\r\n    }\r\n    if (\r\n      keccak256(bytes(functionName)) == keccak256(bytes('yVaultsWithdrawAll'))\r\n    ) {\r\n      YearnVault yVaults = YearnVault(_addresses[0]);\r\n      yVaults.withdrawAll();\r\n    }\r\n    if (\r\n      keccak256(bytes(functionName)) ==\r\n      keccak256(bytes('yVaultsPricePerFullShare'))\r\n    ) {\r\n      YearnVault yVaults = YearnVault(_addresses[0]);\r\n      yVaults.getPricePerFullShare();\r\n    }\r\n  }\r\n}\r\n",
  "sourcePath": "C:/Users/spiry/Documents/GitHub/kush.finance/contracts/KushFund/Connector.sol",
  "compiler": {
    "name": "solc",
    "version": "0.6.6+commit.6c089d02.Emscripten.clang"
  },
  "schemaVersion": "3.3.4",
  "updatedAt": "2021-03-09T22:42:42.201Z",
  "devdoc": {
    "methods": {}
  },
  "userdoc": {
    "methods": {}
  }
}